:10000000C7C100000C94AD210C94D8210C9403229C
:100010000C942E220C9459220C9484220C94AF221E
:100020000C94DA220C94350A0C94090B0C94460BB0
:10003000E0C100000C944C2ADCC10000DAC10000D1
:10004000D8C10000D6C10000D4C10000D2C1000058
:10005000D0C10000CEC10000CCC100000C9405232B
:10006000C8C100000C94E3260C941927C2C10000FB
:10007000C0C10000BEC10000BCC10000BAC1000088
:10008000B8C10000B6C10000B4C10000B2C1000098
:100090000C946F270C94A527ACC10000C7C30000C7
:1000A000A8C10000A6C10000A4C10000A2C10000B8
:1000B000A0C100009EC100009CC100009AC10000C8
:1000C00098C1000096C100000C94D52A0C94FB271F
:1000D0000C9431288EC100000C9487280C94BD2804
:1000E00088C1000087215121592165217221932166
:1000F000A02167246C2471247B248524FE248F2472
:1001000097249F24A924B324BD24CC24D624FE24E0
:10011000E024EA24F42422252525142518251E256B
:100120005C2529252D25332537253B2541254525CA
:1001300049255C254F2553255725E732A5340F3532
:100140001235E9331C34A632C7328A32EC34DB3440
:10015000E834123512351235753205A84CCDB2D4BB
:100160004EB93836A9020C50B9918688083CA6AA27
:10017000AA2ABE000000803F00000A0B02090C0DF5
:100180000E0807030401000000000000000000004A
:10019000000000000000000000000000000000005F
:1001A000000000001211100000000000000000001C
:1001B000000000000000000000000000000001023C
:1001C0001020200808102040102040800201020169
:1001D0000804020101020408102040808040201021
:1001E000080402018004020180402010080402017A
:1001F00008040201010204081020408001020408E2
:1002000010204080050505050705080808080202BA
:1002100002020A0A080804040404010101010101A0
:1002200001010303030303030303040707070C0C83
:100230000C0C0C0C0C0C020202020606060606064A
:1002400006060B0B0B0B0B0B0B0B00002200250003
:1002500028002B002E0031003400020100000501AF
:1002600008010B0100002100240027002A002D00B6
:100270003000330001010000040107010A010200FF
:100280001D3A2774694E53E8F5D2CF9C81A6BBCDA9
:10029000D0F7EAB9A4839E25381F02514C6B7687AC
:1002A0009ABDA0F3EEC9D46F7255481B06213C4A93
:1002B00057706D3E230419A2BF9885D6CBECF1137D
:1002C0000E2934677A5D40FBE6C1DC8F92B5A8DE6B
:1002D000C3E4F9AAB7908D362B0C11425F78659470
:1002E00089AEB3E0FDDAC77C61465B0815322F5951
:1002F00044637E2D30170AB1AC8B96C5D8FFE22639
:100300003B1C01524F6875CED3F4E9BAA7809DEB30
:10031000F6D1CC9F82A5B8031E3924776A4D50A12F
:10032000BC9B86D5C8EFF24954736E3D20071A6C0A
:1003300071564B1805223F8499BEA3F0EDCAD735FC
:10034000280F12415C7B66DDC0E7FAA9B4938EF8F2
:10035000E5C2DF8C91B6AB100D2A3764795E43B2EB
:10036000AF8895C6DBFCE15A47607D2E3314097FC8
:100370006245580B16312C978AADB0E3FED9C40004
:100380001F0325082B094227CE275A28E628522981
:1003900011241FBECFEFD1E2DEBFCDBF00E00CBF06
:1003A00014E0A0E0B2E0E2E6F7E700E00BBF02C035
:1003B00007900D92A03BB107D9F72BE0A0EBB4E07A
:1003C00001C01D92A331B207E1F711E0C8ECD1E002
:1003D00000E006C021970109802FFE010E94333AF8
:1003E000C03CD10780E00807A9F70E949A360C9418
:1003F000AF3B06CE8091E00490E02091E104821BA7
:10040000910908959091E1048091E004981750F4C7
:10041000E92FF0E0EE51FB4F208130E09F5F909399
:10042000E10402C02FEF3FEFC9010895E091E1041C
:100430008091E004E81730F4F0E0EE51FB4F80814A
:1004400090E008958FEF9FEF08950895CF92DF9287
:10045000EF92FF920F931F93CF93DF937C01262F90
:10046000972F8A018091BC04882391F0C62FD72F43
:100470006E01C40ED51ECC15DD0569F06991D7015A
:10048000ED91FC910190F081E02DC7011995F3CF1A
:10049000642F822F93D1C801DF91CF911F910F91CB
:1004A000FF90EF90DF90CF900895CF93DF931F924E
:1004B000CDB7DEB769832091BC042223D1F020910F
:1004C000BD04203240F021E030E0FC013383228380
:1004D00080E090E014C08091BE04E82FF0E0E15489
:1004E000FB4F998190838F5F8093BE048093BD04FE
:1004F00004C061E0CE01019661D181E090E00F90EF
:10050000DF91CF910895FC011382128288EE93E06F
:10051000A0E0B0E084839583A683B78382E493E070
:100520009183808308951092E1041092E004109268
:10053000BE041092BD0486C081E08093BC04609329
:10054000DF041092BE041092BD040895F5CF0F93FE
:10055000062F21E04091BD046FEB74E08091DF0431
:10056000D7D01092BE041092BD041092BC040F911B
:1005700008954F925F926F927F92AF92BF92CF9207
:10058000EF92FF920F931F93CF93DF935C01F62EB0
:10059000D42F28013901EE2011F1CEDFCE2DC43049
:1005A00008F0C3E0C150C0F0D501ED91FC91B8E076
:1005B000CB9FC0011124A301920104C05695479519
:1005C000379527958A95D2F7CA01B9010190F08134
:1005D000E02DC5011995E6CF60E0C501B8DF4D2FCC
:1005E000D13208F040E22C2D62EE74E08F2D48D01D
:1005F0001092E1048093E004DF91CF911F910F915D
:10060000FF90EF90CF90BF90AF907F906F905F90F2
:100610004F900895CF92EF920F931F93C22EE12C2B
:1006200000E010E09801A5DF1F910F91EF90CF90AF
:10063000089521E0EFCF21E0EDCF61E088CF80EB9E
:1006400094E061CF10926F0581E080936D05109268
:100650006C0561E084E10E94992561E085E10E94DA
:100660009925E9EBF0E080818E7F808380818D7F0A
:10067000808388E48093B80085E48093BC0008956B
:10068000413208F043C090916F059111FCCF91E089
:1006900090936F0520936D052FEF20930205109224
:1006A0004705240F2093460590936E0590916E05A3
:1006B000880F892B80936E0580916C05813061F4E1
:1006C00010926C0580916E058093BB008091BC00F8
:1006D00083FDF8CF85EC01C085EE8093BC0080914E
:1006E0006F058130E1F380914705841710F4409144
:1006F000470528E435E0FB01D9018A2F821B8417C6
:1007000018F48D918193F9CF842F089580E0089596
:100710000F93413208F04AC090916F059111FCCFC0
:1007200032E030936F0500936D053FEF3093020583
:100730001092470540934605FB0168E475E0DB0134
:100740003A2F361B341718F431913D93F9CF10929C
:100750006E0530916E05880F832B80936E05809116
:100760006C05813061F410926C0580916E05809368
:10077000BB008091BC0083FDF8CF85EC01C085EE05
:100780008093BC00222321F080916F058230D1F349
:10079000809102058F3F79F080910205803241F00F
:1007A00080910205803331F094E005C091E003C0F0
:1007B00092E001C093E0892F0F91089540912405A4
:1007C000262F30E0240F311D21323105DCF4209139
:1007D0006F052430C9F4FC0180E090E0861758F4DE
:1007E000309124052191DC01AA5DBA4FA30FB11D00
:1007F0002C930196F3CF80912405680F6093240514
:1008000080E0089581E0089582E0089585ED809369
:10081000BC008091BC0084FDFCCF10926F05089550
:1008200085EC8093BC0010926F0508951F920F9283
:100830000FB60F9211240BB60F922F933F934F9345
:100840005F936F937F938F939F93AF93BF93EF9338
:10085000FF938091B900887F803609F49DC070F5C0
:10086000883209F45CC090F4803109F455C038F442
:10087000882309F4F3C0883009F44EC0F2C08831EF
:1008800009F44DC0803209F45EC0EBC0803409F435
:1008900069C050F4803309F456C0883309F0E1C0D0
:1008A00080930205BDDFDDC0803509F44FC0883577
:1008B00009F45DC0883409F0D4C0D2C0883909F485
:1008C000C3C0A8F4883709F467C038F4883609F43F
:1008D00063C0803709F460C0C4C0883809F4B4C06C
:1008E000803909F45FC0803809F0BBC05BC0803B31
:1008F00009F482C038F4803A09F466C0883A09F4F1
:100900007BC0AFC0803C09F4A3C0883C09F4A0C000
:10091000883B09F486C0A5C080916E0510C09091F7
:10092000470580914605981770F5E091470581E0ED
:100930008E0F80934705F0E0E85BFA4F808180934B
:10094000BB0085EC82C0809302058AC0E091470518
:1009500081E08E0F809347058091BB00F0E0E85B5B
:10096000FA4F808390914705809146056AC0E091D7
:10097000470581E08E0F809347058091BB00F0E032
:10098000E85BFA4F808380916D05811169C081E039
:1009900080936C0584EA5DC083E080936F051092BC
:1009A0000305CFCF80910305803208F04DC0E09160
:1009B000030581E08E0F809303058091BB00F0E07A
:1009C000EC5FFA4F8083BDCF2BDF8091030580322F
:1009D00030F4E0910305F0E0EC5FFA4F1082609193
:1009E000030570E0E0916805F091690584E095E009
:1009F00019951092030535C084E080936F0510921D
:100A0000250510922405E0916A05F0916B05199572
:100A100080912405811105C081E080932405109206
:100A20002605E091250581E08E0F80932505F0E0F5
:100A3000EA5DFA4F80818093BB00909125058091FB
:100A40002405981708F47DCF85E88093BC0009C081
:100A500085EC8093BC0010926F0503C010920205D4
:100A6000D5DEFF91EF91BF91AF919F918F917F91D3
:100A70006F915F914F913F912F910F900BBE0F900F
:100A80000FBE0F901F901895EF92FF920F931F9338
:100A9000CF93DF931F921F92CDB7DEB7062F142F8F
:100AA000682F80EB94E029833A8346DD602F80EB4A
:100AB00094E0FBDC2981022FE22E3A81F32E8E2D69
:100AC000801B811738F4F70161917F0180EB94E07E
:100AD000ECDCF5CF80EB94E0B0DD91E0811190E0AB
:100AE000892F0F900F90DF91CF911F910F91FF9061
:100AF000EF900895CF93DF931F92CDB7DEB7498370
:100B00009E012F5F3F4F41E0BFDF0F90DF91CF91FC
:100B100008952F923F924F925F926F927F928F92A1
:100B20009F92AF92BF92CF92DF92EF92FF920F937C
:100B30001F93CF93DF9300D01F921F92CDB7DEB7E4
:100B4000F82EE62E242E69010E944F234B015C01F2
:100B5000312C1D82822D90E09C838B832801612C97
:100B6000712C321408F04DC06F2D80EB94E0E4DC62
:100B70006E2D80EB94E099DC80EB94E05EDD6F2DD0
:100B800080EB94E0D9DC4B815C81431951094132FF
:100B9000510514F040E250E06F2D80EB94E049DD08
:100BA00080EB94E027DC892B11F10115110591F4FC
:100BB000F6012D81E20FF11D27FDFA95FA83E983F5
:100BC00080EB94E01FDCE981FA8180832D812F5F27
:100BD0002D83E6CF0E944F23DC01CB0188199909B0
:100BE000AA09BB0984159505A605B70508F380EB8E
:100BF00094E023DD822D40E2421508F480E2380EB5
:100C0000B0CF01151105D1F00E944F23DC01CB01BB
:100C100088199909AA09BB0920E030E080179107DB
:100C2000A207B30758F0822D90E0ED812E2FEE0F32
:100C3000330B2817390714F42FEF2D838D810F9074
:100C40000F900F900F900F90DF91CF911F910F9108
:100C5000FF90EF90DF90CF90BF90AF909F908F90DC
:100C60007F906F905F904F903F902F9008950F93DB
:100C70001F9389019A0141E04CDF1F910F91089564
:100C8000EF92FF920F931F93CF93DF931F92CDB7F5
:100C9000DEB7182F062FF42EE22E20910A02309193
:100CA0000B02AE014F5F5F4FE2DF9981EE2041F012
:100CB00041E050E001C0440FFA94EAF7492B09C023
:100CC00021E030E0A90101C0440FFA94EAF7409511
:100CD00049234983602F812F0DDF0F90DF91CF9142
:100CE0001F910F91FF90EF900895DF92EF92FF9286
:100CF0000F931F93CF93DF931F92CDB7DEB7182FBB
:100D0000F62EE42ED22E20910A0230910B02AE0173
:100D10004F5F5F4FACDF882319F1EE2DF0E0ED1946
:100D2000F109319621E030E002C0220F331FDA943E
:100D3000E2F7215031090E2E01C0220F0A94EAF782
:100D4000802F01C0880FEA95EAF7422F40959981DC
:100D500049232823422B49836F2D812FCBDE01C0ED
:100D600080E00F90DF91CF911F910F91FF90EF9056
:100D7000DF90089528E6FC01208308950F93062F45
:100D800023E042E06AE1FC018081AFDF0F9108952A
:100D90000F93062F22E044E06BE1FC018081A5DF88
:100DA0000F9108950F93062F22E044E06CE1FC01BF
:100DB00080819BDF0F9108950F931F93CF93DF9353
:100DC000EC0100910A0210910B029C012F5F3F4F32
:100DD00042E06BE388819DDE298130E0322F2227BB
:100DE0008A81A901482BCA01DF91CF911F910F91F0
:100DF00008950F931F93CF93DF93EC0100910A02A4
:100E000010910B029C012F5F3F4F42E06DE3888100
:100E100080DE298130E0322F22278A81A901482BE8
:100E2000CA01DF91CF911F910F9108950F931F93E6
:100E3000CF93DF93EC0100910A0210910B029C0109
:100E40002F5F3F4F42E06FE3888163DE298130E00E
:100E5000322F22278A81A901482BCA01DF91CF9125
:100E60001F910F9108950F931F93CF93DF93EC0180
:100E700000910A0210910B029C012F5F3F4F42E04C
:100E800061E4888146DE298130E0322F22278A8181
:100E9000A901482BCA01DF91CF911F910F910895AD
:100EA0000F931F93CF93DF93EC0100910A021091EF
:100EB0000B029C012F5F3F4F42E063E4888129DEF3
:100EC000298130E0322F22278A81A901482BCA01CB
:100ED000DF91CF911F910F9108950F931F93CF939F
:100EE000DF93EC0100910A0210910B029C012F5F2D
:100EF0003F4F42E065E488810CDE298130E0322FEB
:100F000022278A81A901482BCA01DF91CF911F9125
:100F10000F9108950F931F93CF93DF93EC010091EE
:100F20000A0210910B029C012F5F3F4F42E067E4E1
:100F30008881EFDD298130E0322F22278A81A901C3
:100F4000482BCA01DF91CF911F910F910895262F51
:100F500046E06BE6FC01808193CE0F93062F23E0E1
:100F600042E06BE6FC018081C0DE0F910895CF93D3
:100F7000DF93EC0161E0F1DF60E0CE0109DF60E0CA
:100F8000CE0110DF60E0CE01DF91CF91E0CF80EBAA
:100F900094E0C9DA80E795E0EADF20E045E06AE620
:100FA00088E66EDE21E041E067E388E669DE20E066
:100FB00046E06BE688E664CECF93DF93EC0180E7F2
:100FC00095E0FADE9983888380E795E012DF9B83C2
:100FD0008A8380E795E02ADF9D838C83DF91CF9120
:100FE0000895CF93DF931F92CDB7DEB7682F80EBC4
:100FF00094E0698398DA698180E795E0BFDE80E755
:1010000095E00F90DF91CF91B2CFCF93DF93EC01BA
:1010100080E795E045DF9983888380E795E05DDF91
:101020009B838A8380E795E075DF9D838C83DF91C6
:10103000CF910895CF93DF93EC0180E795E013DF24
:1010400099838883DF91CF91089580E795E092CED0
:10105000FC0180E090E0A0E8BFE380839183A2835D
:10106000B38384839583A683B78380879187A28780
:10107000B38708951F93CF93DF931F92CDB7DEB749
:10108000162F6EE170E080EB94E049835FDA612F08
:1010900080EB94E00ADA4981642F80EB94E005DA72
:1010A00080EB94E00F90DF91CF911F91C6CA462F3D
:1010B00062E0E0DF64E670E080E090E00C94802382
:1010C0001F93CF93DF93EC01162F65E070E080E073
:1010D00090E00E948023112319F060E0CE01E7DF49
:1010E00040E760E0CE01C6DF40EA61E0CE01C2DF4A
:1010F00040E062E0CE01DF91CF911F91BBCFDF9244
:10110000EF92FF920F931F93CF93DF937B01EA013E
:1011100089016EE170E080EB94E018DA63E080EB27
:1011200094E0C3D980EB94E088DA6EE170E080EB64
:1011300094E00CDA46E050E06EE170E080EB94E081
:101140007ADA80EB94E056D9069761F580EB94E06B
:1011500059D9D82E80EB94E055D9E0E0F0E0FD2D90
:101160008E2B9F2BF7019183808380EB94E04AD9EB
:10117000F82E80EB94E046D960E070E07F2D862B5E
:10118000972BF8019183808380EB94E03BD9182F53
:1011900080EB94E037D920E030E0312F822B932B85
:1011A0009983888380EB94E0DF91CF911F910F9119
:1011B000FF90EF90DF9041CA80EB94E0B4D961E0FA
:1011C00085E895E07DDF20E045E06AE688E658DDC9
:1011D00021E041E067E388E653DD20E046E06BE68E
:1011E00088E64ECDCF93DF93EC012FE735E041E861
:1011F00055E063E875E085E895E081DF609183055F
:1012000070918405072E000C880B990B0E94D13732
:10121000688379838A839B836091810570918205BD
:10122000072E000C880B990B0E94D1376C837D83AD
:101230008E839F8360917F0570918005072E000C3F
:10124000880B990B0E94D137688779878A879B879B
:10125000DF91CF91089585E895E0FACE9CB195FB9A
:10126000882780F994FF03C081110FC002C0882332
:1012700061F08091A1059091A205A091A305B09184
:10128000A4050196A11DB11D0BC08091A1059091EF
:10129000A205A091A305B091A4050197A109B109E8
:1012A0008093A1059093A205A093A305B093A405F4
:1012B00008959CB194FB882780F995FF03C088238B
:1012C00079F002C081110CC08091A1059091A20516
:1012D000A091A305B091A4050196A11DB11D0BC05D
:1012E0008091A1059091A205A091A305B091A405BC
:1012F0000197A109B1098093A1059093A205A0933C
:10130000A305B093A405089599B193FB882780F9AC
:1013100092FF03C081110FC002C0882361F0809149
:10132000AF059091B005A091B105B091B2050196BD
:10133000A11DB11D0BC08091AF059091B005A0918A
:10134000B105B091B2050197A109B1098093AF052C
:101350009093B005A093B105B093B205089599B1EB
:1013600092FB882780F993FF03C0882379F002C09D
:1013700081110CC08091AF059091B005A091B1058D
:10138000B091B2050196A11DB11D0BC08091AF05B2
:101390009091B005A091B105B091B2050197A10956
:1013A000B1098093AF059093B005A093B105B093B8
:1013B000B20508952CB1822F807890E0880F892F94
:1013C000881F990B26FF03C0892B79F402C001976F
:1013D00061F48091BD059091BE05A091BF05B091CB
:1013E000C0050196A11DB11D0BC08091BD05909156
:1013F000BE05A091BF05B091C0050197A109B10933
:101400008093BD059093BE05A093BF05B093C00522
:1014100008952CB126FB882780F990E027FF03C0B0
:10142000019779F402C0892B61F48091BD059091F8
:10143000BE05A091BF05B091C0050196A11DB11DCB
:101440000BC08091BD059091BE05A091BF05B091E4
:10145000C0050197A109B1098093BD059093BE0510
:10146000A093BF05B093C00508951F920F920FB6C9
:101470000F9211242F933F934F935F936F937F931A
:101480008F939F93AF93BF9383B185FB992790F977
:10149000292F30E086FB882780F94091E1055091A3
:1014A000E2052417350779F5482F50E05093E00501
:1014B0004093DF05882359F0232B61F04091D90533
:1014C0005091DA056091DB057091DC0566C0213032
:1014D000310561F48091D9059091DA05A091DB0581
:1014E000B091DC050196A11DB11D35C04091D90513
:1014F0005091DA056091DB057091DC05415051098E
:10150000610971093FC03093E2052093E105213064
:10151000310551F58823A1F08091D9059091DA0524
:10152000A091DB05B091DC050196A11DB11D809352
:10153000D9059093DA05A093DB05B093DC0547C08D
:101540008091D9059091DA05A091DB05B091DC0579
:101550000197A109B1098093D9059093DA05A09369
:10156000DB05B093DC0527C04091D9055091DA0521
:101570006091DB057091DC0581110FC04F5F5F4FFB
:101580006F4F7F4F4093D9055093DA056093DB0589
:101590007093DC059923D9F00EC0415051096109BF
:1015A00071094093D9055093DA056093DB05709378
:1015B000DC0591110CC08091D9059091DA05A091BC
:1015C000DB05B091DC050196A11DB11D0BC080911A
:1015D000D9059091DA05A091DB05B091DC05019762
:1015E000A109B1098093D9059093DA05A093DB0591
:1015F000B093DC05BF91AF919F918F917F916F91D7
:101600005F914F913F912F910F900FBE0F901F90C0
:1016100018951F920F920FB60F9211248F939F93DC
:10162000AF93BF938091060181709091030190FF69
:1016300003C081110FC002C0813061F48091CB05DD
:101640009091CC05A091CD05B091CE050196A11D3C
:10165000B11D0BC08091CB059091CC05A091CD051B
:10166000B091CE050197A109B1098093CB05909364
:10167000CC05A093CD05B093CE05BF91AF919F91BE
:101680008F910F900FBE0F901F9018951F920F9281
:101690000FB60F9211248F939F93AF93BF938091B6
:1016A000030181709091060190FF03C0813079F4AD
:1016B00002C081110CC08091CB059091CC05A09106
:1016C000CD05B091CE050196A11DB11D0BC0809135
:1016D000CB059091CC05A091CD05B091CE05019799
:1016E000A109B1098093CB059093CC05A093CD05BA
:1016F000B093CE05BF91AF919F918F910F900FBE88
:101700000F901F9018950F931F93CF93DF938C0129
:101710008EE0809FE001819FD00D1124C356DA4FE7
:10172000798368835B834A838881998160E00E9422
:101730005D258A819B8160E00E945D258881998179
:1017400061E00E9499258A819B8161E00E94992530
:101750000230110509F47FC044F401151105E9F0C8
:101760000130110509F448C0BEC00330110509F469
:10177000A6C00430110509F0B6C0809168008160F0
:101780008093680080916B00806280936B008091F1
:101790006B00806480936B00A6C080919D05909142
:1017A0009E0502978431910540F4FC01E25BFC4FF9
:1017B0008081082E000C990B02C08FEF9FEF41E053
:1017C00050E06EE279E00E94392180919F0590916E
:1017D000A00502978431910540F4FC01E25BFC4FC7
:1017E0008081082E000C990B02C08FEF9FEF41E023
:1017F00050E069E579E05DC08091AB059091AC0562
:1018000002978431910540F4FC01E25BFC4F80813A
:10181000082E000C990B02C08FEF9FEF41E050E0C3
:1018200064E879E00E9439218091AD059091AE0580
:1018300002978431910540F4FC01E25BFC4F80810A
:10184000082E000C990B02C08FEF9FEF41E050E093
:101850006FEA79E02EC08091B9059091BA050297A0
:101860008431910540F4FC01E25BFC4F8081082E3D
:10187000000C990B02C08FEF9FEF41E050E06AED42
:1018800079E00E9439218091BB059091BC050297B7
:101890008431910540F4FC01E25BFC4F8081082E0D
:1018A000000C990B02C08FEF9FEF41E050E069E020
:1018B0007AE0DF91CF911F910F910C9439218091A3
:1018C00068008460809368008091680082608093E3
:1018D000680080916D00816080936D0080916C0044
:1018E000826080936C00DF91CF911F910F910895DA
:1018F0002EE0269FF001279FF00D1124E356FA4FAA
:1019000064817581868197810895CF92DF92EF92ED
:10191000FF926B017C0186E3C816D104E104F10457
:1019200028F486E3C80ED11CE11CF11C60E08C2D6C
:101930000E945D25C601FF90EF90DF90CF90089543
:101940000895CF93DF93EB010E941B249983888332
:10195000DF91CF91089508951F93CF93DF931F9246
:10196000CDB7DEB7162F61E0812F79830E945D2508
:10197000812F7981972F0F90DF91CF911F9108953B
:101980000895CF93C82FCB01BA010E949E378C2FA8
:10199000CF910C944024662311F061E001C060E017
:1019A0000C945D25662311F061E001C060E00C94A9
:1019B00099256F927F928F929F92AF92BF92CF9212
:1019C000DF92EF92FF920F931F93CF93DF93CDB7E8
:1019D000DEB762970FB6F894DEBF0FBECDBFCE0163
:1019E0000D9613DB8D859E859093760980937509FE
:1019F0008F859889909378098093770989899A8946
:101A000090937A0980937909CE010D96D5DA8D8568
:101A10009E8590937C0980937B098F85988990930C
:101A20007E0980937D0989899A89909380098093A2
:101A30007F09C0900003D0900103E0900203F09072
:101A40000303A701960160919B0970919C09809105
:101A50009D0990919E090E949A37882341F0C09277
:101A60009B09D0929C09E0929D09F0929E09809179
:101A7000990990919A096FDF43E050E061E779E0BE
:101A80008091990990919A095CDFC090FC02D090F6
:101A9000FD02E090FE02F090FF02A7019601609126
:101AA000B7097091B8098091B9099091BA090E945B
:101AB0009A37882341F0C092B709D092B809E092D2
:101AC000B909F092BA098091B5099091B60943DF3E
:101AD00043E050E063E779E08091B5099091B60961
:101AE00030DFC0900403D0900503E0900603F0902F
:101AF000070320E030E040E853E4C701B6010E944C
:101B00009A3787FF0EC020E030E0A901C701B60177
:101B10000E94223987FD07C0C701B6010E94A33782
:101B200003C06FEF01C060E08CE03CDF60E070E07C
:101B3000CB01DEDE60936D0970936E0980936F09AF
:101B400090937009CE0101964DDB89819A81AB811A
:101B5000BC818093610990936209A0936309B0935B
:101B600064098D819E81AF81B885809365099093CA
:101B70006609A0936709B093680989859A85AB8542
:101B8000BC858093690990936A09A0936B09B0930F
:101B90006C09E091ED0AF091EE0A208131814281D9
:101BA0005381609108037091090380910A03909119
:101BB0000B030E9426390E94893920910C03309131
:101BC0000D0340910E0350910F030E942639162FEA
:101BD000072FF82EE92E2091100330911103409128
:101BE0001203509113030E949A37682F661F6627CD
:101BF000661F84E0D7DEA090F402B090F502C0909A
:101C0000F602D090F7029501A601612F702F8F2D5B
:101C10009E2D0E9422391816B4F0A0901803B0909F
:101C20001903C0901A03D0901B039501A601612FE0
:101C3000702F8F2D9E2D0E949A3787FD04C0A12EF4
:101C4000B02ECF2CDE2C20911C0330911D0340912F
:101C50001E0350911F03B501C6010E9426390E9440
:101C60000C384B015C013DD581111FC0C501B40189
:101C70000FD581111AC020E030E040E853E4C501DF
:101C8000B4010E9426384B015C013B01650120E054
:101C900030E0A9010E949A3787FF0BC0C501B4014B
:101CA00090580E94A337619508C0612C712CC12CFB
:101CB000D12CB301C6010E94A33770E080E090E010
:101CC0000E94D137AB01BC018091E9099091EA09EA
:101CD00058DE209114033091150340911603509162
:101CE0001703612F702F8F2D9E2D0E949A37682F1A
:101CF000661F6627661F8BE055DEA090F802B09045
:101D0000F902C090FA02D090FB029501A601612F62
:101D1000702F8F2D9E2D0E942239181694F0A090BE
:101D20002003B0902103C0902203D090230395019B
:101D3000A601612F702F8F2D9E2D0E949A3787FF4D
:101D400004C01A2D0B2DFC2CED2C20912403309176
:101D500025034091260350912703612F702F8F2D6B
:101D60009E2D0E9426390E940C386B017C01B9D44B
:101D700081111FC0C701B6018BD481111AC020E0A8
:101D800030E040E853E4C701B6010E9426386B01F9
:101D90007C015B01870120E030E0A9010E949A37B5
:101DA00087FF0BC0C701B60190580E94A337619509
:101DB00008C0A12CB12C00E010E0B501C8010E94C0
:101DC000A33770E080E090E00E94D137AB01BC0106
:101DD0008091D1099091D209D4DD81E899E02AD986
:101DE00082E090E00E94E520E091ED0AF091EE0A99
:101DF000408151816281738180E090E00E94E12006
:101E00006091DE0A7091DF0A8091E00A9091E10A08
:101E10000E94CF376B017C016091E20A7091E30A66
:101E20008091E40A9091E50A0E94CF3720E030E0EB
:101E300040E85FE40E9426399B01AC01C701B6016E
:101E40000E9436372FE832EC45EF5CE30E942639DA
:101E5000AB01BC0181E090E00E94E1208090E60AA5
:101E60009090E70AA090E80AB090E90A20E030E0FC
:101E700040E85FEBC501B4010E949A370091ED0A7A
:101E80001091EE0A882319F1F801C080D180E28018
:101E9000F380A7019601C501B4010E9435374B01BB
:101EA0005C0120E030E040E054E3C701B6010E944D
:101EB00026399B01AC01C501B4010E9422391816D4
:101EC00034F082E693E09093420A8093410A809135
:101ED000EC0A882331F082E693E09093420A8093E3
:101EE000410A8091D20A9091D30AA091D40AB0916C
:101EF000D50ABC01CD016F5F7F4F8F4F9F4F60931D
:101F0000D20A7093D30A8093D40A9093D50A6115AC
:101F1000710581059105A9F4C090D60AD090D70A21
:101F2000E090D80AF090D90AFFEFCF1ADF0AEF0A43
:101F3000FF0AC092D60AD092D70AE092D80AF0924D
:101F4000D90AC090DA0AD090DB0AE090DC0AF0905F
:101F5000DD0A0E94CF37A70196010E9426394B0166
:101F60005C016091D60A7091D70A8091D80A90914D
:101F7000D90A0E94CF37A70196010E94263920E096
:101F800030E040E85FE40E9426399B01AC01C501C6
:101F9000B4010E943637F801608371838283938392
:101FA0008091DE0A9091DF0AA091E00AB091E10AE7
:101FB0000196A11DB11D8093DE0A9093DF0AA093C4
:101FC000E00AB093E10A892B8A2B8B2B99F480913C
:101FD000E20A9091E30AA091E40AB091E50A019621
:101FE000A11DB11D8093E20A9093E30AA093E40A35
:101FF000B093E50A62960FB6F894DEBF0FBECDBF70
:10200000DF91CF911F910F91FF90EF90DF90CF90D4
:10201000BF90AF909F908F907F906F9008952F9278
:102020003F924F925F926F927F928F929F92AF9268
:10203000BF92CF92DF92EF92FF920F931F93CF93B5
:10204000DF9384E090E0EDD2E1E4FAE086EBDF019B
:102050001D928A95E9F78AEE9AE097838683CDEE02
:10206000DAE0D093820AC093810A0AED1AE0158B58
:10207000048BF093AC0AE093AB0AF583E48321E090
:1020800030E0DC012D933C9386E793E093878287D1
:102090002FEE3AE03983288340E050E060E87FEBA0
:1020A0004093E60A5093E70A6093E80A7093E90ABE
:1020B0004FE852EC65EF7CE3D8014D935D936D934F
:1020C0007C931397C0ECDAE082EF9AEBAEE0B8EACB
:1020D00088839983AA83BB8382EF92EBA9E7B9E750
:1020E0008093C40A9093C50AA093C60AB093C70A06
:1020F00086E696EFA9E8BCE78093C80A9093C90AE0
:10210000A093CA0AB093CB0A81EE9DE7AEE4B1E991
:102110008093CC0A9093CD0AA093CE0AB093CF0AB5
:10212000A1E1B6E0B383A283E7EFF5E01196FC935B
:10213000EE938CE494E091838083938382839583F0
:102140008483978386839187808793878287958707
:10215000848797878687918B808B938B828B958BD7
:10216000848B978B868B918F808F80ED9AE015966C
:102170009C938E9314971396DC93CE931297179695
:102180003C932E93169722E2E1E6F9E0DF011D92DF
:102190002A95E9F7C3E8D9E02EEBFE0111922A95C2
:1021A000E9F7E3EEF5E024E1DF011D922A95E9F776
:1021B000DC01ED93FC9386E190E09183808388ECD1
:1021C00092E0938382838CE992E09583848388E212
:1021D00092E0978386838CE092E091878087DD246C
:1021E000D394D0923A0A412C512C3201439440921C
:1021F000F2095092F3096092F4097092F50980E0B7
:1022000090E00E94F107D092F6091092EB09D0926B
:102210003B0A00EF19E0F80110824092EC0950925D
:10222000ED096092EE097092EF090E94C707D8018C
:10223000DC9292E3892E8E8223E3922E9F8234E3F6
:10224000232E288645E3342E3986B6E3BA87E7E3A2
:10225000EB87F8E3FC8759E3A52EAD8661E3C62E34
:10226000CE8670E3B72EBF86C88AC98ACA8A8B8A8F
:10227000CC8A9D8A1882D0923C0A04EF12E0F801C1
:1022800084859585A685B785888F998FAA8FBB8F02
:102290001D8249825A826B827C8260E070E0CB01B1
:1022A00034DB9F8B8E8B20E030E0A90160E070E092
:1022B00047DBDD828AA29BA22CA23DA2F6E3FEA30D
:1022C00087E38FA3A8E3A8A7A9A6CAA6BBA6CCA606
:1022D000CDA6CEA68FA6C8AA99AA1C8ED0923D0ADA
:1022E000F80180859185A285B3858CAB9DABAEABA3
:1022F000BFAB19A24D8E5E8E6F8E78A261E070E04A
:1023000080E090E002DB9BAB8AAB20E030E0A901EB
:1023100060E070E015DBD9A21092F709D092350A7F
:102320000CEF19E0D8011C924092F8095092F9097B
:102330006092FA097092FB0961E08CE02CDBF801F5
:10234000D0821092090AD0923E0A0EE01AE0D8011B
:102350001C9240920A0A50920B0A60920C0A7092E8
:102360000D0A42E050E063E070E080E090E0CBD9FD
:10237000F801D08210920F0AD0923F0A04E11AE0CD
:10238000D8011C924092100A5092110A6092120ACF
:102390007092130A0E94DC08F801D0821092030A9E
:1023A000D092380A08E01AE0D8011C924092040A40
:1023B0005092050A6092060A7092070A61E084E072
:1023C000EADAF801D0828092D9099092DA09209253
:1023D000DB093092DC09F6E3F093DD0987E38093B3
:1023E000DE09A8E3A093DF09A092E009C092E10909
:1023F000B092E209C092E309C092E409C092E509F3
:102400008092E609C092E7099092E8091092D309F8
:10241000D092390AE8EDF9E010824092D409509246
:10242000D5096092D6097092D709E12CF12C870169
:10243000A801970165E070E080E090E08DDA90936C
:10244000EA098093E9099CDAA8EDB9E0DC921092E0
:10245000FD09D092360A02E01AE0F801108240929B
:10246000FE095092FF096092000A7092010A61E031
:102470008BE091DAD801DC928092C1099092C20976
:102480002092C3093092C409B6E3B093C509E7E3CB
:10249000E093C609F8E3F093C709A092C809C09277
:1024A000C909B092CA09C092CB09C092CC09C092A6
:1024B000CD098092CE09C092CF099092D00918AE72
:1024C000D092370A1092C00949AE5AAE6BAE7CAEBC
:1024D000E12CF12C8701A801970169E070E080E010
:1024E00090E03ADA9093D2098093D10949DAD092F8
:1024F000C0091092150AD092400ACAE1DAE01882A7
:102500004092160A5092170A6092180A7092190A9D
:102510000E94C707D882DF91CF911F910F91FF9042
:10252000EF90DF90CF90BF90AF909F908F907F9073
:102530006F905F904F903F902F9008958091F10998
:10254000811103C081E08093F1098091EB09811131
:1025500003C081E08093EB0980918309811103C05E
:1025600081E08093830980919F09811103C081E0FC
:1025700080939F098091F709811103C081E08093C6
:10258000F7098091090A811103C081E08093090A4B
:1025900080910F0A811103C081E080930F0A80911E
:1025A000030A811103C081E08093030A8091D3095B
:1025B000811103C081E08093D3098091FD098111CD
:1025C00003C081E08093FD098091BB09811103C0A4
:1025D00081E08093BB098091150A811103C081E0DD
:1025E0008093150A089560E070E080E89FE7089501
:1025F00060E070E080E89FE7089560E070E080E8C8
:102600009FEF089560E070E080E89FEF089560E03C
:1026100070E080EC9FEF089560E070E080EC9FEF49
:102620000895F5DF6093030B7093040B8093050B03
:102630009093060BF1DF6093F70A7093F80A80938A
:10264000F90A9093FA0ACFDF6093FF0A7093000BA8
:102650008093010B9093020BCBDF6093FB0A709386
:10266000FC0A8093FD0A9093FE0AC7DF6093070B74
:102670007093080B8093090B90930A0BC3DF609350
:102680000B0B70930C0B80930D0B90930E0B089516
:10269000CF92DF92EF92FF92CF936B017C0120915A
:1026A000FB0A3091FC0A4091FD0A5091FE0A0E94FB
:1026B0009A37C1E0882371F020910B0B30910C0BFD
:1026C00040910D0B50910E0BC701B6010E949A3735
:1026D0008111C0E08C2FCF91FF90EF90DF90CF90D1
:1026E00008950F931F938B019C01002711272078D9
:1026F0003F770115110520483F4749F4AB01BC0164
:102700006F77772781E0452B462B472B09F480E034
:102710001F910F910895EF92FF920F931F93CF9304
:10272000DF93DC01EA01F90114968D919C911597D4
:1027300012960D911C911397080F191F288139814A
:1027400018964D915C9119974217530728F04D91B7
:102750005C911197452B39F17801E21AF30A18962A
:102760004D915C911997481B590B4E0D5F1D4617F3
:10277000570794F1A901460F571F40175107E0F082
:10278000F182E082338322836E197F09758364832B
:10279000161617061CF4382F292F02C030E020E04F
:1027A0003683278313C018968D919C911997821BAD
:1027B000930B8617970784F071836083338322839A
:1027C000158214821782168288819981680F791F79
:1027D0007983688380E001C081E0DF91CF911F9110
:1027E0000F91FF90EF900895CF92DF92EF92FF92BA
:1027F000CF93DF936B017C0184E48C9DE0018D9D80
:10280000D00D1124C35ED94F8AA99BA9009721F04E
:102810000E94FE3A1BAA1AAA84E48C9DF0018D9DA9
:10282000F00D1124E35EF94F86A997A9009711F0E6
:102830000E94FE3A84E48C9DF0018D9DF00D1124E0
:10284000E35EF94F138A128A168A178A108E118E48
:10285000128E138E148E158E168E178E10A211A244
:1028600081E090E093A382A315A214A216A217A25E
:1028700010A611A613A612A615A614A616A617A68C
:1028800010AA11AA13AA12AA15AA14AA17AA16AA5C
:1028900011AE10AE12AE13AE14AE15AEDF01DE9661
:1028A0001D921D921D921C921397EE5BFF4F118299
:1028B0001082DF91CF91FF90EF90DF90CF9008953D
:1028C0000F931F93CF93DF93EB01DC018D919C91CC
:1028D000FC01A681B781E881F98123E0EE0FFF1F9B
:1028E0002A95E1F712962D913C911397E20FF31F71
:1028F00000811181AC85BD859D01220F331FDC0154
:1029000012968D919C911397D901A80FB91F8D91A3
:102910009C9124813581232B19F461E070E002C081
:1029200062E070E0689F9001699F300D789F300DE4
:10293000112488859985289FB001299F700D389FA3
:10294000700D1124EC81FD812E9FC0012F9F900DF1
:102950003E9F900D1124800F911FFA019183808377
:1029600073836283DF91CF911F910F9108952F920E
:102970003F924F925F926F927F928F929F92AF920F
:10298000BF92CF92DF92EF92FF920F931F93CF935C
:10299000DF9300D000D0CDB7DEB7DC011496ED9107
:1029A000FC9115970190F081E02D808591859A83A7
:1029B0008983A281B381BC83AB83FB018190919019
:1029C000A190B1908F01C12CD12C7601C814D904EB
:1029D000EA04FB040CF05FC0D80114964D905D90A2
:1029E0006D907C90179718964D915D916D917C91AB
:1029F0001B97F8017096FE83ED83F801A081B181E9
:102A000083E0AA0FBB1F8A95E1F7E981FA818281F1
:102A10009381A80FB91F2D903C901197F801248540
:102A20003585220F331F8B819C81280F391FF901B7
:102A30000081118114968D919C911597892B19F421
:102A400081E090E002C082E090E0809F9001819F51
:102A5000300D909F300D1124249F8001259F100D73
:102A6000349F100D1124249DC001259D900D349D8F
:102A7000900D1124A8016D817E81820D931D0E940D
:102A8000963B8D819E81080F191F9FEFC91AD90AA5
:102A9000E90AF90A9BCF26960FB6F894DEBF0FBE5F
:102AA000CDBFDF91CF911F910F91FF90EF90DF90FD
:102AB000CF90BF90AF909F908F907F906F905F90DE
:102AC0004F903F902F900895CF93DF93DB01A85D47
:102AD000BC4F2C91222369F024E4269FF001279F0C
:102AE000F00D1124E35EF94FEF0119922A95E9F7F1
:102AF0001C9224E4269FF001279FF00D1124E35E31
:102B0000F94F148215821682178211861086138659
:102B10001286118A108A17861686DF91CF9164CEAD
:102B20002F923F924F925F926F927F928F929F92DD
:102B3000AF92BF92CF92DF92EF92FF920F931F93CB
:102B4000CF93DF93CDB7DEB728970FB6F894DEBFEB
:102B50000FBECDBF6B017C011A0184E48C9D9001F6
:102B60008D9D300D1124235E394FF90184819581AB
:102B7000A681B781892B8A2B8B2B09F4B8C0A12C95
:102B8000B12C412C512C320138872F83C901049676
:102B90009A838983D9011896BC83AB83E981FA8132
:102BA00080819181A281B381481659066A067B060D
:102BB00094F5AB81BC81ED91FC91EA0DFB1D228166
:102BC00033818901812C912C82149304C4F4D8019F
:102BD000ED91FC91309769F0848195812D833E833E
:102BE0000E94FE3AF801808191810E94FE3A3E8166
:102BF0002D81FFEF8F1A9F0A0E5F1F4FE5CFC9018E
:102C00000E94FE3A8FEF481A580A680A780A94E040
:102C1000A90EB11CC3CFAF81B88518968D919C9138
:102C200019970E94FE3AEF81F88582859385892B5A
:102C300059F1A12CB12C812C912C84E48C9D800124
:102C40008D9D100D1124095D194F8214930484F495
:102C5000D801ED91FC91EA0DFB1D848195810E94C4
:102C6000FE3ABFEF8B1A9B0AEEE0AE0EB11CEDCF21
:102C700084E48C9DF0018D9DF00D1124E35EF94FED
:102C8000828593850E94FE3A84E48C9D90018D9DFF
:102C9000300D11248901035E194FD80150968D9192
:102CA0009C9151970E94FE3AF801868597850E9473
:102CB000FE3AC701B60198DDC701B60128960FB6E6
:102CC000F894DEBF0FBECDBFDF91CF911F910F9162
:102CD000FF90EF90DF90CF90BF90AF909F908F903C
:102CE0007F906F905F904F903F902F90EDCE289601
:102CF0000FB6F894DEBF0FBECDBFDF91CF911F910D
:102D00000F91FF90EF90DF90CF90BF90AF909F908A
:102D10008F907F906F905F904F903F902F9008958D
:102D200024E4269FF001279FF00D1124E35EF94F64
:102D3000828993890497029758F485E090E0938BF9
:102D4000828B8FEF9FEFDC01828F938FA48FB58FE3
:102D500008952F923F924F925F926F927F928F923F
:102D60009F92AF92BF92CF92DF92EF92FF920F931A
:102D70001F93CF93DF93CDB7DEB7E0970FB6F894EC
:102D8000DEBF0FBECDBF9AA389A31B016A01280134
:102D9000390184E4849D8001859D100D11249801E2
:102DA000235E394F7901D9014D925D926D927C92EB
:102DB0001397AB01C301B201B3DEF801EF5DF94F28
:102DC000D6014D915D916D917D918D01CA01408338
:102DD00051836283738364E070E00E944F3AF7018D
:102DE00091878087892B09F49FC11E8E1D8E198EB5
:102DF0001A8E1B8E1C8EF8A2EF8E97012C5F3F4F10
:102E000038A72FA32C5F3F4F3AA729A7EFA1F8A51A
:102E100080819181A281B381298D3A8D4B8D5C8D0A
:102E2000281739074A075B070CF0E7C0A9A5BAA520
:102E30008D919C912D8D3E8D280F391F3A8B298BBA
:102E4000D801ED91FC91EE0FFF1FA9A1BAA18D91C0
:102E50009C91E80FF91F80819181F9019183808312
:102E6000D80114962D913D914D915C9117972BA30C
:102E70003CA34DA35EA3085F1F4F62E070E0C10159
:102E80000E944F3AE989FA8993838283892B09F456
:102E90004BC11D8A1E8A1F8A188E2D893E894F8933
:102EA000588D8BA19CA1ADA1BEA1281739074A0757
:102EB0005B070CF08FC0D801ED90FC90EE0CFF1C6E
:102EC000E989FA89C280D380CE0CDF1C68E070E00B
:102ED00081E090E00E944F3AD6018D939C93E9895E
:102EE000FA8982819381FC01EE0DFF1DC080D180A3
:102EF000C114D10409F418C1F80184819581A68117
:102F0000B781F60180839183A283B383085F1F4F4B
:102F1000181619061A061B0634F01C8A1B8A812C07
:102F2000912C54010CC064E070E00E944F3AD6012D
:102F300015969C938E931497892B79F7F5C0F6011B
:102F400080819181A281B38188169906AA06BB0669
:102F5000A4F5F601E480F5802B893C89E20EF31E8E
:102F6000F801DE01119680E101900D928A95E1F75A
:102F7000005F1F4FA701BE016F5F7F4FA9A1BAA1DC
:102F800014968D919C9115979BDCF60126813781D3
:102F9000D70112968D919C911397820F931F97835F
:102FA0008683BFEF8B1A9B0AAB0ABB0A2B893C892D
:102FB0002C5F3F4F3C8B2B8BC2CF2D893E894F8995
:102FC000588D2F5F3F4F4F4F5F4F2D8B3E8B4F8B59
:102FD000588F63CF298D3A8D4B8D5C8D2F5F3F4F7E
:102FE0004F4F5F4F298F3A8F4B8F5C8F2D8D3E8DCA
:102FF0002C5F3F4F3E8F2D8F09CF6EE070E0C101F7
:103000000E944F3AAF8DB8A11B969C938E931A974E
:10301000812C912CA12CB12CC12CD12C24E4249DE9
:10302000C001259D900D11249C01295D394F3A8BDB
:10303000298B21E030E0A214B3040CF04DC0D8017C
:103040004D915D916D917D918D01E989FA89E080C5
:10305000F180E80CF91C77FD67C0D70111963C930D
:103060002E934115510561057105A9F0CA012FA7DD
:1030700038AB4BA75CA76DA77EA70E94693AF70102
:10308000958384832FA538A94BA55CA56DA57EA546
:10309000892B31F449C0D70115961C921E921497C2
:1030A000F701538342838481958197838683918737
:1030B00080871386128681E090E0452B462B472BB4
:1030C00011F480E090E0C80ED91EFFEFAF1ABF0ADE
:1030D0004EE0840E911CAFCF84E4849D8001859DD9
:1030E000100D1124035E194FD8011D961C921E92DB
:1030F0001C97C60133E0880F991F3A95E1F70E94AB
:10310000693AF801918B808B892B71F0C601880F89
:10311000991F0E94693AD8011F969C938E931E971F
:10312000892B11F080E005C0A101C301B201F8DCD8
:1031300081E0E0960FB6F894DEBF0FBECDBFDF9101
:10314000CF911F910F91FF90EF90DF90CF90BF90A4
:10315000AF909F908F907F906F905F904F903F9037
:103160002F9008952F923F924F925F926F927F928D
:103170008F929F92AF92BF92CF92DF92EF92FF9287
:103180000F931F93CF93DF93CDB7DEB768970FB63A
:10319000F894DEBF0FBECDBF9C8B8B8BDB0149014A
:1031A0005A0124E4289DC001299D900D11249C0101
:1031B000235E394F79012D913C911197F701358BA1
:1031C000248BFC01ED5CF94F14964D915D916D914E
:1031D0007C9117974083518362837383FC01E95C80
:1031E000F94F18964D915D916D917C911B9740839D
:1031F000518362837383FC01E55CF94F1C964D910A
:103200005D916D917C911F9740835183628373839D
:10321000FC01E55BF94F50965C91509751964C91AB
:10322000519752963C91529753962C9153975083B5
:103230004183328323838D010C5E1F4F852F942F92
:10324000181619060CF068C0880F991F880F991F6F
:103250000E94693AD701D3969C938E93D297892B7B
:1032600009F4BCC0212C312C412C512C3201970186
:10327000225D3F4F3E8B2D8B2C5F3F4F388F2F8B26
:103280002E5F3F4F3A8B298BB301A2012FEF421AD9
:10329000520A620A720AED89FE8980819181A281B7
:1032A000B381481759076A077B074CF5AF89B88D7A
:1032B000CD90DC90C20CD31CF801DE01119680E1A8
:1032C00001900D928A95E1F7005F1F4FA601BE01A4
:1032D0006F5F7F4FEB89FC8984819581F1DAA98941
:1032E000BA898D919C911197F60122813381820FC9
:1032F000931F8D939C93F4E02F0E311CC5CFD70103
:10330000D4968D919C91D5970E94693AF70197AB1D
:1033100086AB892B09F462C0F80180819181A2817A
:10332000B38124E4289DF001299DF00D1124E35E72
:10333000F94FAC01BD014D7F21E030E0452B462B1C
:10334000472B11F020E030E033A322A324E4289D92
:10335000F001299DF00D1124E35EF94F0197A109B9
:10336000B10921E030E00297A105B10510F020E09D
:1033700030E035A324A384E4889DF001899DF00DFD
:103380001124CF018D5B994FD80114964D915D9119
:103390006D917C911797DC014D935D936D937C93B8
:1033A0001397E35EF94F868D978DA0A1B1A1B7FF6A
:1033B00010C0B095A095909581959F4FAF4FBF4F8E
:1033C00082AF93AFA4AFB5AF168E178E10A211A225
:1033D0000AC012AE13AE14AE15AE05C0C501B401DD
:1033E00003DA81E001C080E068960FB6F894DEBF92
:1033F0000FBECDBFDF91CF911F910F91FF90EF9046
:10340000DF90CF90BF90AF909F908F907F906F9004
:103410005F904F903F902F900895CF92DF92EF9260
:10342000FF92CF93DF931092A50624E4269FF0012C
:10343000279FF00D1124E35EF94F15A614A620E096
:1034400030E0C12CD12CDF011A96C1E0D0E0C416C7
:10345000D506D4F4ED91FC911197E20FF31FE280B1
:10346000F3801E141F0454F4E480F580F782E68292
:10347000F186E08613861286D183C083EFEFCE1AE1
:10348000DE0A225F3F4FE3CF24E4269FF001279F0F
:10349000F00D1124E35EF94F13A612A611AE10AE83
:1034A000DF01DE961D921D921D921C92139782E001
:1034B00090E0938B828BDF91CF91FF90EF90DF9024
:1034C000CF90089524E4269FF001279FF00D11244A
:1034D000E35EF94F138A128A23CB24E4269FF0017E
:1034E000279FF00D1124E35EF94F82899389813083
:1034F0009105C8F08530910518F0059769F0089599
:103500008FEF9FEFDC01828F938FA48FB58F85E0C3
:1035100090E0938B828B08958FEF9FEFDC01828F79
:10352000938FA48FB58F089524E4249FF001259FE5
:10353000F00D1124E35EF94F2EE0AC01249FC00191
:10354000259F900D11240284F385E02DE80FF91FCB
:1035500081E08093A5068285938591878087408549
:1035600051852681378181E090E04217530711F0A1
:1035700080E090E09183808308952F923F924F9254
:103580005F926F927F928F929F92AF92BF92CF92F3
:10359000DF92EF92FF920F931F93CF93DF93CDB7FC
:1035A000DEB7C255D1090FB6F894DEBF0FBECDBF4E
:1035B00021969FAF8EAF21974BA75CA76DA77EA7E3
:1035C0004801590184E4889D8001899D100D1124D2
:1035D000F801E35EF94F2285338527963FAF2EAF82
:1035E000279782899389029709F060C186A597A5DC
:1035F000A0A9B1A9892B8A2B8B2B29F484E090E018
:10360000938B828B53C18489958921964EAD5FAD92
:1036100021974817590709F049C186A997A99AAB7C
:1036200089AB1EAE1DAE19AE1AAE1BAE1CAE8F011D
:10363000DF019E962996BFAFAEAF2997F2962B96E3
:10364000FFAFEEAF2B979801285C3F4F2D963FAF11
:103650002EAF2D97A8014A5D5F4F2F965FAF4EAFFB
:103660002F97C801829661969FAF8EAF61971A9788
:103670006396BFAFAEAF63972996EEADFFAD2997C6
:1036800080819181A281B38129AD3AAD4BAD5CAD12
:10369000281739074A075B070CF0E7C02B96EEADF9
:1036A000FFAD2B97808191812DAD3EAD280F391F45
:1036B0003EAB2DABD90112960D90BC91A02D239657
:1036C000BFAFAEAF2397B695A795B695A7952596AC
:1036D000BFAFAEAF25972D96EEADFFAD2D97808194
:1036E0009181892B09F496C02F96AEADBFAD2F976F
:1036F000CD90DD90ED90FC9029A83AA8F9010190B9
:10370000F081E02DF8ABEFA718AE1FAA8FA998ADF6
:103710002596AEADBFAD25978A179B070CF07AC0F2
:103720006196AEADBFAD61978D919C91892B69F18A
:10373000EFA5F8A94080518062807380A7019601AF
:10374000C301B2010E94223987FD0BC0A701960177
:10375000D1016D917D918D919C910E949A3787FD49
:103760008CC0A7019601C301B2010E94223918162C
:1037700064F4A7019601F1016081718182819381D6
:103780000E949A37882309F478C06396AEADBFAD26
:1037900063978D919C91892B69F1EFA5F8A94080E1
:1037A000518062807380A7019601C301B2010E941B
:1037B0009A3787FF0BC0A7019601D1016D917D91CA
:1037C0008D919C910E94223987FF57C0A7019601D5
:1037D000C301B2010E949A3781110CC0A701960162
:1037E000F10160817181828193810E9422391816D2
:1037F0000CF443C02FA938AD2F5F3F4F38AF2FAB2C
:1038000034E0230E311C4FA558A94C5F5F4F58ABD5
:103810004FA77CCFEDA9FEA96081718123964EADA3
:103820005FAD239789A99AA90E94963B25968EADF4
:103830009FAD2597880F991F880F991F29A93AA92D
:10384000280F391F3AAB29AB89AD9AADABADBCADF2
:103850000196A11DB11D89AF9AAFABAFBCAFADADA5
:10386000BEAD1496BEAFADAF07CF81E090E0D801FA
:10387000D9969C938E93D89719C084E4889DF001C3
:10388000899DF00D1124E35EF94F868D978DA0A1DF
:10389000B1A1892B8A2B8B2B09F064C284E090E0C4
:1038A000938B828B86AD97AD93A782A784E4889D86
:1038B000F001899DF00D1124E35EF94F828993890F
:1038C0008230910571F482AD93ADA4ADB5AD1816FB
:1038D00019061A061B060CF04CC2CC24C394D12C3A
:1038E00005C0049709F045C2C12CD12C8EE0219669
:1038F000EEADFFAD21978E9F70018F9FF00C1124CC
:1039000027962EAD3FAD2797E20EF31ED7011296F4
:103910004D915C9113974115510509F42AC21696F1
:103920008D919C9117979AA789A7FE01319684E102
:10393000DF011D928A95E9F7898A9A8AAB8ABC8A47
:10394000C114D10409F457C084E4889DF001899D15
:10395000F00D1124E35EF94FDF01DE964D905D908E
:103960006D907C9082AD93ADA4ADB5AD481659066F
:103970006A067B0609F03FC0F70164817581008407
:10398000F185E02D84819581A681B7819C018D8B85
:103990009E8BAF8BB88F285F3F4F3E8B2D8BD7010F
:1039A00018968D919C911997280F391F19963C9361
:1039B0002E93189718968D919C911997460F571F23
:1039C000841B950B97FD06C0860F971F19969C9335
:1039D0008E93189784E4889DF001899DF00D112441
:1039E000E55AF94FB1E04B1A51086108710840825D
:1039F0005182628273829E012B5E3F4FAE01475D12
:103A00005F4F64E170E0C7010E948B13082F10E044
:103A10000115110509F091C18CE090E0A0E0B0E043
:103A20008D839E83AF83B8879E01235E3F4FAE0197
:103A3000475D5F4F64E070E0C7010E948B13082F61
:103A400010E00115110509F078C180E190E0A0E0D7
:103A5000B0E08D839E83AF83B8874D8D5E8DBE01B0
:103A6000655D7F4F8F8D98A10E94963B8BA19CA195
:103A7000009761F06D8D7E8DEBE2F0E0EC0FFD1FA5
:103A80006E0F7F1F49A15AA10E94963B1DA21EA244
:103A90001FA218A621962EAD3FAD2197220F331FEE
:103AA00038AF2FAB24E4289DC001299D900D11242F
:103AB000835E994FAC014C5F5F4F5AAF49AFDC0159
:103AC0001896BEAFADAF2DA13EA14FA158A529AB11
:103AD0003AAB4BAB5CABE9ADFAAD80819181A28191
:103AE000B381281739074A075B070CF0CFC0ADAD8B
:103AF000BEADED91FC9189A99AA9880F991F880FF5
:103B0000991FE80FF91FA081B1818C91882309F4D6
:103B1000AFC0833009F4ACC00280F381E02D2FA93F
:103B200038ADE20FF31F4081518158AB4FA7452BB1
:103B300009F49EC089859A85AB85BC850196A11D37
:103B4000B11D89879A87AB87BC879E01235E3F4F53
:103B5000AE01475D5F4F64E070E0C7010E948B13C8
:103B600090E0009709F0E8C08D819E81AF81B88513
:103B70000496A11DB11D8D839E83AF83B8874D8DA3
:103B80005E8DBE016B5D7F4F8F8D98A10E94963B2D
:103B90008BA19CA1009761F06D8D7E8DA5E2B0E0B8
:103BA000AC0FBD1F6A0F7B1F49A15AA10E94963B13
:103BB0001EAA1DAA412C512C3201EFA5F8A9808123
:103BC0009181A281B381481659066A067B060CF0E2
:103BD0004FC0EFA5F8A9248035802DA93EA9220E5B
:103BE000331ED10112966D917C9113979E01235E35
:103BF0003F4FAE01475D5F4FC7010E948B1390E0BE
:103C0000009709F099C0F10182819381092E000C7F
:103C1000AA0BBB0B4D815E816F817885840F951F48
:103C2000A61FB71F8D839E83AF83B8876081718184
:103C30004D8D5E8D8F8D98A10E94963B8BA19CA18E
:103C4000009759F0D1016D917C912D8D3E8D620FC1
:103C5000731F49A15AA10E94963BBFEF4B1A5B0A02
:103C60006B0A7B0AEDA9FEA93496FEABEDABA5CF9E
:103C700049A85AA86BA87CA8FFEF4F1A5F0A6F0AE1
:103C80007F0A4DA25EA26FA278A61DCF89859A8574
:103C9000AB85BC85892B8A2B8B2B09F44EC08AE11E
:103CA00090E0A0E0B0E089839A83AB83BC83219647
:103CB0002EAD3FAD2197C901330FAA0BBB0B8D87EA
:103CC0009E87AF87B88B4D895E89BE016F5F7F4F3E
:103CD0008F89988D0E94963B8B8D9C8D009761F00B
:103CE0006D897E8941E050E04C0F5D1F640F751FA8
:103CF000498D5A8D0E94963B89A59AA5D7011796A2
:103D00009C938E93169711961C921E92CD2889F142
:103D100084E4889DF001899DF00D1124E55AF94F46
:103D200080819181A281B3810196A11DB11D808303
:103D30009183A283B3831DC08C01CD28D1F4012BC4
:103D4000C1F084E4889DF001899DF00D1124E35EAB
:103D5000F94F81E090E095A784A785E090E0938BF0
:103D6000828B07C083E090E0938B828B81E090E0B0
:103D70009BCDCE5ADF4F0FB6F894DEBF0FBECDBF3E
:103D8000DF91CF911F910F91FF90EF90DF90CF9037
:103D9000BF90AF909F908F907F906F905F904F906B
:103DA0003F902F900895CF92DF92EF92FF920F9362
:103DB0001F936B017C0184E48C9DF0018D9DF00DBF
:103DC0001124E35EF94F82899389009709F450C06A
:103DD0000197B9F482A593A59C012F5F3F4F33A7AC
:103DE00022A7092E000CAA0BBB0B028D138D248D6C
:103DF000358D80179107A207B307D1F5C701B6012A
:103E00000CDB84E48C9DF0018D9DF00D1124E35EAC
:103E1000F94F82899389039759F582A593A59C014F
:103E20002F5F3F4F33A722A7092E000CAA0BBB0B15
:103E3000468D578D60A171A184179507A607B70716
:103E4000BCF086AD97AD93A782A784E090E0938BFA
:103E5000828B82AD93ADA4ADB5AD181619061A06C6
:103E60001B0634F4EE5BFF4F81E090E0918380838A
:103E70001F910F91FF90EF90DF90CF90089524E471
:103E8000269FF001279FF00D1124E35EF94F8289F0
:103E900093890497B1F482A593A5019693A782A76D
:103EA000092E000CAA0BBB0B46895789608D718DBA
:103EB00084179507A607B70721F485E090E0938B58
:103EC000828B08952F923F924F925F926F927F92D2
:103ED0008F929F92AF92BF92CF92DF92EF92FF921A
:103EE0000F931F93CF93DF93CDB7DEB72E970FB607
:103EF000F894DEBF0FBECDBF49835A836B837C83AA
:103F00004901442E552E24E4249DF001259DF00DF9
:103F10001124E35EF94F228833889101245031093E
:103F2000158614862230310508F0DDC0DC011196BB
:103F30001C921E9213961C921E921297A12CB12CC9
:103F400060E070E09F01265F3F4F38872F837F013D
:103F50003CE0E30EF11CDF015096BA87A9879F0170
:103F6000225F3F4F3C872B87681579050CF06FC0A7
:103F7000EF81F885A081B1819D012A0D3B1D3E870F
:103F80002D87D9012D913C911197232B09F059C010
:103F900018960D911C9119971296ED91FC9113971B
:103FA000FE83ED8316962D913C911797D7014D9185
:103FB0005C91DA01E3E0AA0FBB1FEA95E1F7E9851E
:103FC000FA85C080D180FD01EC0DFD1D440F551F09
:103FD000AB85BC85CD90DC904C0D5D1DDA016D93F9
:103FE0007C93D7014D915C9111974F5F5F4F4D933B
:103FF0005C9313830283AD85BE851B963C932E9301
:104000001A970217130748F4201B310B31832083C2
:10401000158214821782168214C0AD85BE8514964F
:10402000CD90DC9015974D815E814C0D5D1D401B40
:10403000510B518340832C193D0935832483D7824A
:10404000C6826F5F7F4FBEE0AB0EB11C8DCF24E404
:10405000249D8001259D100D1124035E194FF80148
:1040600024853585DC0111963C932E934089518936
:1040700013965C934E9312974685578515965C93DD
:104080004E931497232BA1F5B5E02B16310481F53F
:104090001092A506828D938DA48DB58DAE014F5FD4
:1040A0005F4F64E070E08F3F9F4FAF4FBF4F59F4B9
:1040B00080E290E00E94762E69817A818B819C81DA
:1040C000A40100DA15C08FE190E00E94762ED8019D
:1040D0009B961C921E929A9781E090E053969C9337
:1040E0008E93529705C0FC011182108213821282B6
:1040F0002E960FB6F894DEBF0FBECDBFDF91CF91E5
:104100001F910F91FF90EF90DF90CF90BF90AF90F5
:104110009F908F907F906F905F904F903F902F90E7
:104120000895EF92FF920F931F93CF93DF937C013B
:104130008B01EA010E94F92E811121C080912A038E
:1041400090912B03049711F183E090E090932B035F
:1041500080932A031BC098819111F0CF28ED38EB92
:1041600045E050E060E070E0CB010E948331AE0199
:10417000B801C7010E949131C8010E945C31809151
:10418000A6069091A706892B31F3D8CFDF91CF9166
:104190001F910F91FF90EF900895CF93DF9320919F
:1041A0002A0330912B032430310541F0EB010E94AA
:1041B0009131CE01DF91CF910C945C31DF91CF91A1
:1041C00008950C94A3350C9498350C9486350C9472
:1041D0006C310C942A35089560E070E080E090E046
:1041E0000C94D42E0895AF92BF92CF92DF92EF92AB
:1041F000FF920F931F93CF93DF931F921F92CDB720
:10420000DEB75C0169017A018B0180E090E0C114A6
:10421000D104E104F104F1F0C114D10421E0E2067B
:10422000F10410F4A60102C04FEF5FEF9E012F5F73
:104230003F4FB801C5010E9444368F3F2FEF9207D0
:1042400049F029813A81C21AD30AE108F108020F24
:10425000131FDDCF0F900F90DF91CF911F910F9122
:10426000FF90EF90DF90CF90BF90AF9008950895AA
:104270000895883008F070C0A82FB0E0AA0FBB1FC7
:10428000A45DBC4F11967C936E9390E0FC01319736
:10429000E730F105A0F58827EE58FF4F8F4F0C94BB
:1042A000333A809169008C7F482B40936900E89AEB
:1042B000089580916900440F551F440F551F837F57
:1042C000482B40936900E99A08958091690074E051
:1042D000440F551F7A95E1F78F7C482B4093690076
:1042E000EA9A08958091690066E0440F551F6A9527
:1042F000E1F78F73482B40936900EB9A0895809102
:104300006A008C7F482B40936A00EC9A0895809154
:104310006A00440F551F440F551F837F482B40935D
:104320006A00ED9A089580916A0024E0440F551FB9
:104330002A95E1F78F7C482B40936A00EE9A089506
:1043400080916A0096E0440F551F9A95E1F78F73AC
:10435000482B40936A00EF9A08951F920F920FB670
:104360000F9211240BB60F922F933F934F935F93AD
:104370006F937F938F939F93AF93BF93EF93FF932D
:10438000E0913003F09131031995FF91EF91BF91C6
:10439000AF919F918F917F916F915F914F913F91DD
:1043A0002F910F900BBE0F900FBE0F901F9018957E
:1043B0001F920F920FB60F9211240BB60F922F93EC
:1043C0003F934F935F936F937F938F939F93AF939D
:1043D000BF93EF93FF93E0913203F091330319956C
:1043E000FF91EF91BF91AF919F918F917F916F91CD
:1043F0005F914F913F912F910F900BBE0F900FBE89
:104400000F901F9018951F920F920FB60F921124C4
:104410000BB60F922F933F934F935F936F937F93BE
:104420008F939F93AF93BF93EF93FF93E0913403E8
:10443000F09135031995FF91EF91BF91AF919F9145
:104440008F917F916F915F914F913F912F910F903D
:104450000BBE0F900FBE0F901F9018951F920F92DA
:104460000FB60F9211240BB60F922F933F934F93D9
:104470005F936F937F938F939F93AF93BF93EF93CC
:10448000FF93E0913603F09137031995FF91EF9177
:10449000BF91AF919F918F917F916F915F914F915C
:1044A0003F912F910F900BBE0F900FBE0F901F905A
:1044B00018951F920F920FB60F9211240BB60F9200
:1044C0002F933F934F935F936F937F938F939F931C
:1044D000AF93BF93EF93FF93E0912C03F0912D03E3
:1044E0001995FF91EF91BF91AF919F918F917F911E
:1044F0006F915F914F913F912F910F900BBE0F9055
:104500000FBE0F901F9018951F920F920FB60F922B
:1045100011240BB60F922F933F934F935F936F939A
:104520007F938F939F93AF93BF93EF93FF93E0910C
:104530002E03F0912F031995FF91EF91BF91AF9149
:104540009F918F917F916F915F914F913F912F91AB
:104550000F900BBE0F900FBE0F901F9018951F92DB
:104560000F920FB60F9211240BB60F922F933F9319
:104570004F935F936F937F938F939F93AF93BF936B
:10458000EF93FF93E0913803F09139031995FF9170
:10459000EF91BF91AF919F918F917F916F915F91BB
:1045A0004F913F912F910F900BBE0F900FBE0F9028
:1045B0001F9018951F920F920FB60F9211240BB6F1
:1045C0000F922F933F934F935F936F937F938F93AC
:1045D0009F93AF93BF93EF93FF93E0913A03F091D2
:1045E0003B031995FF91EF91BF91AF919F918F91EF
:1045F0007F916F915F914F913F912F910F900BBEE3
:104600000F900FBE0F901F9018951F920F920FB62C
:104610000F9211242F933F938F939F93AF93BF9348
:104620008091A9069091AA06A091AB06B091AC0624
:104630003091A80623E0230F2D3720F40196A11D09
:10464000B11D05C026E8230F0296A11DB11D2093C0
:10465000A8068093A9069093AA06A093AB06B093F0
:10466000AC068091AD069091AE06A091AF06B091D8
:10467000B0060196A11DB11D8093AD069093AE06C4
:10468000A093AF06B093B006BF91AF919F918F9169
:104690003F912F910F900FBE0F901F9018952FB73D
:1046A000F8946091A9067091AA068091AB0690914A
:1046B000AC062FBF08953FB7F8948091AD06909156
:1046C000AE06A091AF06B091B00626B5A89B05C076
:1046D0002F3F19F00196A11DB11D3FBFBA2FA92F81
:1046E000982F8827820F911DA11DB11DBC01CD01FE
:1046F00042E0660F771F881F991F4A95D1F70895EA
:104700008F929F92AF92BF92CF92DF92EF92FF92E1
:104710006B017C01D0DF4B015C01C114D104E104C9
:10472000F104F1F0A4DDC7DFDC01CB0188199909A0
:10473000AA09BB09883E9340A105B10570F321E0A9
:10474000C21AD108E108F10888EE880E83E0981EAD
:10475000A11CB11CC114D104E104F10421F7DDCF87
:10476000FF90EF90DF90CF90BF90AF909F908F9091
:104770000895789484B5826084BD84B5816084BDD9
:1047800085B5826085BD85B5816085BDEEE6F0E0CA
:10479000808181608083E1E8F0E010828081826026
:1047A0008083808181608083E0E8F0E080818160A7
:1047B0008083E1EBF0E0808184608083E0EBF0E0D7
:1047C000808181608083E1E9F0E080818260808384
:1047D000808181608083E0E9F0E080818160808376
:1047E000E1EAF0E080818260808380818160808363
:1047F000E0EAF0E0808181608083E1E2F1E08081A5
:1048000082608083808181608083E0E2F1E080814A
:1048100081608083EAE7F0E080818460808380812A
:1048200082608083808181608083808180688083D2
:104830001092C1000895863308F0865390917B0052
:10484000282F2870977F922B90937B008770209160
:104850003C0390E4299F90011124822B80937C00DB
:1048600080917A00806480937A0080917A0086FD3E
:10487000FCCF809178002091790090E0922B0895F0
:104880001F93CF93DF93182FEB0161E016D1209790
:1048900011F460E004C0CF3FD10531F461E0812F15
:1048A000DF91CF911F9145C1E12FF0E0E858FE4F15
:1048B000E4914E2F50E0FA013197E231F10508F012
:1048C0009DC08827E758FF4F8F4F0C94333A84B52B
:1048D000806884BDC7BD97C084B5806284BDC8BDF3
:1048E00092C080918000806880938000D09389007E
:1048F000C093880088C0809180008062809380008F
:10490000D0938B00C0938A007EC080918000886025
:1049100080938000D0938D00C0938C0074C08091F0
:10492000B00080688093B000C093B3006CC08091E9
:10493000B00080628093B000C093B40064C08091E6
:104940009000806880939000D0939900C093980065
:104950005AC080919000806280939000D0939B0019
:10496000C0939A0050C0809190008860809390001E
:10497000D0939D00C0939C0046C08091A0008068A9
:104980008093A0008091A0008F7B8093A000D093A3
:10499000A900C093A80037C08091A00080628093D6
:1049A000A000D093AB00C093AA002DC08091A000BE
:1049B00088608093A000D093AD00C093AC0023C06A
:1049C00080912001806880932001D0932901C093B9
:1049D000280119C080912001806280932001D0932A
:1049E0002B01C0932A010FC0809120018860809321
:1049F0002001D0932D01C0932C0105C0C038D105F2
:104A00000CF04CCF46CFDF91CF911F91089590E0ED
:104A1000FC013197E231F10508F04EC08827E557D7
:104A2000FF4F8F4F0C94333A809180008F7703C0F3
:104A3000809180008F7D8093800008958091800018
:104A4000877FF9CF84B58F7702C084B58F7D84BD11
:104A500008958091B0008F7703C08091B0008F7D62
:104A60008093B0000895809190008F7707C0809167
:104A700090008F7D03C080919000877F809390008D
:104A800008958091A0008F7707C08091A0008F7D4E
:104A900003C08091A000877F8093A000089580913B
:104AA00020018F7707C0809120018F7D03C0809106
:104AB0002001877F809320010895CF93DF9390E0BA
:104AC000FC01E254FE4F2491FC01EC5FFD4F849108
:104AD000882361F190E0880F991FFC01EC59FD4F8C
:104AE000C591D491FC01E65BFD4FA591B491611194
:104AF00009C09FB7F8948881209582238883EC9120
:104B00002E230BC0623061F49FB7F8943881822F56
:104B1000809583238883EC912E2B2C939FBF06C016
:104B20008FB7F894E8812E2B28838FBFDF91CF9128
:104B300008951F93CF93DF93282F30E0F901E858B1
:104B4000FE4F8491F901E254FE4FD491F901EC5FDC
:104B5000FD4FC491CC23C1F0162F811158DFEC2FEB
:104B6000F0E0EE0FFF1FE65BFD4FA591B4918FB70C
:104B7000F894111105C09C91ED2FE095E92302C036
:104B8000EC91ED2BEC938FBFDF91CF911F910895A6
:104B9000FC01918D228D892F90E0805C9F4F821BBC
:104BA00091098F7399270895FC01918D828D981733
:104BB00031F0828DE80FF11D858D90E008958FEF23
:104BC0009FEF0895FC01918D828D981761F0828D81
:104BD000DF01A80FB11D5D968C91928D9F5F9F7331
:104BE000928F90E008958FEF9FEF0895FC01848DE0
:104BF000DF01A80FB11DA35ABF4F2C91848D90E007
:104C000001968F739927848FA689B7892C93A089E1
:104C1000B1898C9180648C93938D848D981306C098
:104C20000288F389E02D80818F7D80830895CF9362
:104C3000DF93EC01888D8823C1F0EA89FB898081AC
:104C400085FD05C0A889B9898C9186FD0EC00FB677
:104C500007FCF5CF808185FFF2CFA889B9898C91B7
:104C600085FFEDCFCE01C2DFE8CFDF91CF91089570
:104C7000EF92FF920F931F93CF93DF93EC0181E0AC
:104C8000888F9B8D8C8D981305C0E889F989808168
:104C900085FD23C0F62E0B8D10E00F5F1F4F0F73A5
:104CA0001127E02E8C8DE8120BC00FB607FCFACF4F
:104CB000E889F989808185FFF5CFCE0197DFF2CFB2
:104CC0008B8DFE01E80FF11DE35AFF4FF0820B8F31
:104CD000EA89FB898081806207C0EE89FF89608351
:104CE000E889F98980818064808381E090E0DF91A8
:104CF000CF911F910F91FF90EF900895CF92DF9287
:104D0000EF92FF921F93CF93DF93EC016A017B0137
:104D1000122FE889F98982E080834115514E61059F
:104D20007105B1F060E079E08DE390E0A7019601B4
:104D30000E94113ADA01C9010197A109B109B6959A
:104D4000A79597958795AC01411580E15807A8F084
:104D5000E889F989108260E874E88EE190E0A701A3
:104D600096010E94113ABA01A90141505109610905
:104D700071097695679557954795EC85FD85508324
:104D8000EE85FF854083188EEC89FD891083EA89C2
:104D9000FB89808180618083EA89FB8980818860CA
:104DA0008083EA89FB89808180688083EA89FB8926
:104DB00080818F7D8083DF91CF911F91FF90EF9055
:104DC000DF90CF9008951F920F920FB60F9211248B
:104DD0000BB60F922F938F939F93EF93FF93E091D6
:104DE000C106F091C2068081E091C706F091C80625
:104DF00082FD12C090818091CA068F5F8F732091CF
:104E0000CB06821751F0E091CA06F0E0EF54F94F5B
:104E1000958F8093CA0601C08081FF91EF919F9189
:104E20008F912F910F900BBE0F900FBE0F901F9080
:104E300018951F920F920FB60F9211240BB60F9276
:104E40002F933F934F935F936F937F938F939F9392
:104E5000AF93BF93EF93FF9381EB96E0C7DEFF9193
:104E6000EF91BF91AF919F918F917F916F915F91E2
:104E70004F913F912F910F900BBE0F900FBE0F904F
:104E80001F901895E1EBF6E01382128288EE93E012
:104E9000A0E0B0E084839583A683B78383E594E0A4
:104EA0009183808385EC90E09587848784EC90E003
:104EB0009787868780EC90E0918B808B81EC90E0E7
:104EC000938B828B82EC90E0958B848B86EC90E0C8
:104ED000978B868B118E128E138E148E08951F92CF
:104EE0000F920FB60F9211240BB60F922F938F9340
:104EF0009F93EF93FF93E0915E07F0915F078081AE
:104F0000E0916407F091650782FD12C09081809165
:104F100067078F5F8F7320916807821751F0E091C8
:104F20006707F0E0E25BF84F958F8093670701C059
:104F30008081FF91EF919F918F912F910F900BBEE8
:104F40000F900FBE0F901F9018951F920F920FB6E3
:104F50000F9211240BB60F922F933F934F935F93B1
:104F60006F937F938F939F93AF93BF93EF93FF9331
:104F70008EE497E03BDEFF91EF91BF91AF919F915F
:104F80008F917F916F915F914F913F912F910F90F2
:104F90000BBE0F900FBE0F901F901895EEE4F7E038
:104FA0001382128288EE93E0A0E0B0E084839583C0
:104FB000A683B78383E594E0918380838DEC90E0B2
:104FC000958784878CEC90E09787868788EC90E0C3
:104FD000918B808B89EC90E0938B828B8AEC90E0B4
:104FE000958B848B8EEC90E0978B868B118E128E36
:104FF000138E148E08951F920F920FB60F921124E4
:105000000BB60F922F938F939F93EF93FF93E091A3
:10501000FB07F091FC078081E0910108F091020804
:1050200082FD12C09081809104088F5F8F73209160
:105030000508821751F0E0910408F0E0E551F84FBF
:10504000958F8093040801C08081FF91EF919F911B
:105050008F912F910F900BBE0F900FBE0F901F904E
:1050600018951F920F920FB60F9211240BB60F9244
:105070002F933F934F935F936F937F938F939F9360
:10508000AF93BF93EF93FF938BEE97E0AFDDFF916C
:10509000EF91BF91AF919F918F917F916F915F91B0
:1050A0004F913F912F910F900BBE0F900FBE0F901D
:1050B0001F901895EBEEF7E01382128288EE93E0D2
:1050C000A0E0B0E084839583A683B78383E594E072
:1050D0009183808385ED90E09587848784ED90E0CF
:1050E0009787868780ED90E0918B808B81ED90E0B3
:1050F000938B828B82ED90E0958B848B86ED90E094
:10510000978B868B118E128E138E148E08951F929C
:105110000F920FB60F9211240BB60F922F938F930D
:105120009F93EF93FF93E0919808F0919908808105
:10513000E0919E08F0919F0882FD12C090818091BD
:10514000A1088F5F8F732091A208821751F0E09120
:10515000A108F0E0E857F74F958F8093A10801C0B0
:105160008081FF91EF919F918F912F910F900BBEB6
:105170000F900FBE0F901F9018951F920F920FB6B1
:105180000F9211240BB60F922F933F934F935F937F
:105190006F937F938F939F93AF93BF93EF93FF93FF
:1051A00088E898E023DDFF91EF91BF91AF919F9147
:1051B0008F917F916F915F914F913F912F910F90C0
:1051C0000BBE0F900FBE0F901F901895E8E8F8E007
:1051D0001382128288EE93E0A0E0B0E0848395838E
:1051E000A683B78383E594E09183808385E391E090
:1051F0009587848784E391E09787868780E391E0B1
:10520000918B808B81E391E0938B828B82E391E0A1
:10521000958B848B86E391E0978B868B118E128E13
:10522000138E148E08958F929F92AF92BF92CF9259
:10523000DF92EF92FF920F931F93CF93DF937C0146
:105240008B016C0182E0C80ED11C4701E5E08E0E97
:10525000911CC0E0D0E0F60161916F014AE050E09E
:10526000C801C6D05C016EE2C80167D08A0D9B1DE3
:10527000C80FD91FC814D90471F74AE050E0F701EC
:105280006581C801B5D08C0F9D1FDF91CF911F9113
:105290000F91FF90EF90DF90CF90BF90AF909F90D5
:1052A0008F900895E5E2F9E083E694E091838083AE
:1052B00012821382148215820895CF92DF92EF92A8
:1052C000FF920F931F93CF93DF936C017A018B01B1
:1052D000C0E0D0E0CE15DF0589F0D8016D918D01D9
:1052E000D601ED91FC910190F081E02DC601199558
:1052F000892B11F47E0102C02196ECCFC701DF910A
:10530000CF911F910F91FF90EF90DF90CF90089574
:105310006115710579F0FB0101900020E9F73197E3
:10532000AF01461B570BDC01ED91FC910280F3812C
:10533000E02D199480E090E00895DC01ED91FC915E
:105340000190F081E02D19944F925F926F927F92BD
:10535000EF92FF920F931F93CF93DF93CDB7DEB7FA
:10536000A1970FB6F894DEBF0FBECDBF7C01FA0146
:10537000CB0119A2223008F42AE08E010F5D1F4FE5
:10538000422E512C612C712CBF01A30192010E946D
:10539000113AF901CA01015011096A3014F4605D33
:1053A00001C0695CD8016C93232B242B252B61F75A
:1053B000B801C701ADDFA1960FB6F894DEBF0FBEEE
:1053C000CDBFDF91CF911F910F91FF90EF907F9014
:1053D0006F905F904F9008952115310541F4DC01E5
:1053E000ED91FC910190F081E02D642F1994ACCFE8
:1053F0009A01462F50E060E070E0EECF8230A9F0D5
:1054000028F4882349F0813051F00895843021F147
:10541000E8F0853039F1089510926E00089580917A
:105420006F008D7F80936F000895809170008D7F55
:105430008093700081E08093B0008091B100887FFC
:1054400084608093B1001092B30008958091710040
:105450008D7F809371000895809172008D7F80937D
:1054600072000895809173008D7F8093730008957A
:10547000CF93C82F80913D038C1307C0EEE7F2E075
:10548000E4918FEF80933D0301C0EFEF8E2FB6DFE5
:1054900060E08C2FCF914DCB1F920F920FB60F92E1
:1054A00011240BB60F922F933F934F935F936F93FB
:1054B0007F938F939F93AF93BF93EF93FF938091CD
:1054C0002E0990912F09A0913009B0913109892BB3
:1054D0008A2B8B2B51F180912B09E0912C09F091B3
:1054E0002D0990818927808380912E0990912F0921
:1054F000A0913009B0913109181619061A061B0639
:10550000BCF480912E0990912F09A0913009B0919F
:1055100031090197A109B10980932E0990932F09B0
:10552000A0933009B093310903C080913D03A0DFFF
:10553000FF91EF91BF91AF919F918F917F916F916B
:105540005F914F913F912F910F900BBE0F900FBE27
:105550000F901F90189540E052EC61E070E080E001
:1055600090E006D061E08DE0A8DA60E08DE0E1CA6D
:105570008130910571F01CF4892B39F00895823047
:10558000910559F0039769F0089526E081EB96E0C4
:105590000BC026E08EE497E007C026E08BEE97E094
:1055A00003C026E088E898E0A9CB1F920F920FB6BF
:1055B0000F9211240BB60F922F933F934F935F934B
:1055C0006F937F938F939F93AF93BF93EF93FF93CB
:1055D0008DEA98EF909325018093240180915F09D3
:1055E00090916009019719F461E08DE0A2DA0E94C0
:1055F0007E36FF91EF91BF91AF919F918F917F91F7
:105600006F915F914F913F912F910F900BBE0F9033
:105610000FBE0F901F9018958DEA98EF909325017B
:1056200080932401A3E7B0E08C918E7F8C93E0E21D
:10563000F1E080818C7F8083E1E2F1E08081877EF0
:10564000808380818460808380818C7F80838C9143
:1056500081608C93089581E008956F927F928F927C
:105660009F92AF92BF92CF92DF92EF92FF920F93F1
:105670001F93CF93DF935C017B014A0101E010E0AF
:105680000E151F0564F568018FEFC81AD80AE801E6
:10569000CC0FDD1FC80DD91D68807980611471049D
:1056A000E1F065E674E0C3010E94A63B892B19F482
:1056B0001982188212C068E674E0C3010E94A63BFA
:1056C000892B59F4CE14DF0441F06801E2E0CE0EDC
:1056D000D11C198218821B821A828601D1CF81E0E7
:1056E000F5018083B401C7010E94CE35F501928394
:1056F000818380E090E0DF91CF911F910F91FF9027
:10570000EF90DF90CF90BF90AF909F908F907F9061
:105710006F90089582E399E0089580E008950F93D3
:105720001F93CF93DF938B01BA01E901198218828D
:105730009801012E000C440B550BFC0181819281D4
:105740000E94F320019621F01983088380E001C0B4
:1057500081E0DF91CF911F910F9108950F931F93D7
:10576000CF93DF931F921F92CDB7DEB7FB018A0163
:10577000B9019E012F5F3F4FAF01FC0181819281F2
:105780000E94E535019639F089819A81F80191836B
:10579000808380E001C081E00F900F90DF91CF9176
:1057A0001F910F910895FC01808108950895089537
:1057B00081E0FB01808380E00895089510925C09E8
:1057C0000895FC01818192810C94C535CF93DF93BC
:1057D000CDB7DEB72A970FB6F894DEBF0FBECDBFA8
:1057E000AC01CB0160E070E049835A836B837C831A
:1057F000092E000CAA0BBB0B8D839E83AF83B88749
:105800009E01275F3F4FAE014F5F5F4F68E070E042
:1058100080914B0990914C0982DF811108C081E091
:1058200029853A852830310519F480E001C081E0EE
:105830002A960FB6F894DEBF0FBECDBFDF91CF9191
:1058400008950F931F93CF93DF931F921F92CDB7AD
:10585000DEB78B019E012F5F3F4FAC0180914B095A
:1058600090914C095CDF811108C081E029813A8167
:105870002017310719F480E001C081E00F900F90EC
:10588000DF91CF911F910F910895CF93DF93EC019A
:1058900010924F0910924E0910925B0910925A090A
:1058A000AC0160E070E0CB010E94621AAE0161E0E1
:1058B00070E080E090E00E94621A80914B09909124
:1058C0004C09DF91CF9179CF4F925F926F927F9287
:1058D0008F929F92AF92BF92CF92DF92EF92FF9200
:1058E0000F931F93CF93DF931F921F92CDB7DEB715
:1058F0009C016C0197FF03C087E0C80ED11C43E0F8
:10590000D594C7944A95E1F7C90168E070E00E9418
:10591000FE397C0189010E5F1F4F809149099091EA
:105920004A09801791070CF0DCC0809147099091DB
:105930004809009731F00E94FE3A10924A091092ED
:105940004909C8010E94693A909348098093470920
:10595000892B29F010934A0900934909C2C0A12C50
:10596000B12CAC14BD040CF05EC0412C512C3201A2
:1059700000E010E09801205B364FAE014F5F5F4FB3
:1059800061E070E080914B0990914C09E7DE811154
:1059900098C189819A812FEF421A520A620A720ACB
:1059A00020E942162FE5520621E0620671043CF020
:1059B00060915A0970915B098DEE90E02DC0080F3F
:1059C000191F0A30110551F549E050E060E070E020
:1059D00080E599E00E94703660915A0970915B09E8
:1059E0008823C1F08091580990E06817790709F081
:1059F000B8CF8EEE90E0EADE80915A0990915B0973
:105A00000196992790935B0980935A098FEFA81A02
:105A1000B80AA7CF8FEE90E0D9DEA7CF0A301105E4
:105A20000CF4A8CF9ECFEF2809F44BC1C12CD12C88
:105A3000760100E010E09801205B364FAE014F5F29
:105A40005F4F61E070E080914B0990914C0986DED8
:105A5000811137C189819A812FEFC21AD20AE20AD5
:105A6000F20A20E9C2162FE5D20621E0E206F1048F
:105A70003CF060915A0970915B098DEE90E02AC06C
:105A8000080F191F0A30110539F549E050E060E0B0
:105A900070E080E599E00E94703660915A0970913B
:105AA0005B098823A9F08091580990E0681779076D
:105AB00009F007C18EEE90E089DE80915A0990913D
:105AC0005B090196992790935B0980935A09F9C065
:105AD0008FEE90E07BDEAACF0A3011050CF4ABCF3D
