:100000000C9405010C9433070C9464070C94950729
:100010000C94C6070C94F7070C9428080C94590804
:100020000C948A080C9432010C94CB130C944C134E
:100030000C9432010C9432010C9432010C94320174
:100040000C9432010C9432010C9432010C94320164
:100050000C9432010C9432010C9432010C94BB08C4
:100060000C9432010C9434010C9430020C94320143
:100070000C9432010C9432010C9432010C94320134
:100080000C9432010C9432010C9432010C94320124
:100090000C9473010C946F020C9432010C946C0C50
:1000A0000C9432010C9432010C9432010C94320104
:1000B0000C9432010C9432010C9432010C943201F4
:1000C0000C9432010C9432010C9432010C94B20164
:1000D0000C94AE020C9432010C94F1010C94ED02DC
:1000E0000C94320100002100240027002A002D007A
:1000F0003000330001010000040107010A01000083
:100100002200250028002B002E00310034000201BF
:100110000000050108010B0100002000230026005B
:1001200029002C002F00320000010000030106010D
:10013000090105050505070508080808020202026D
:100140000A0A080804040404010101010101010173
:100150000303030303030303040707070C0C0C0C3E
:100160000C0C0C0C02020202060606060606060627
:100170000B0B0B0B0B0B0B0B0102102020080810B4
:100180002040102040800201020108040201010207
:1001900004081020408080402010080402018004E0
:1001A000020180402010080402010804020101023B
:1001B0000408102040800102040810204080000044
:1001C000090A02080B0C0D070603040100000000D9
:1001D000000000000000000000000000000000001F
:1001E0000000000000000000000011100F000000DF
:1001F00000000000000000000000000000000000FF
:10020000000000005D049305100F11241FBECFEF06
:10021000D1E2DEBFCDBF00E00CBF14E0A0E0B2E051
:10022000E0EBF8E400E00BBF02C007900D92AE36A1
:10023000B107D9F71BBE18E0AEE6B4E001C01D92CD
:10024000A839B107E1F712E0CAE0D2E004C0229772
:10025000FE010E945224C430D107C9F70E94C32076
:100260000C9456240C9400001F920F920FB60F921C
:100270000BB60F9211242F933F934F938F939F931D
:10028000EF93FF938091C00082FD1DC04091C60096
:100290002091AE043091AF042F5F3F4F2F73307029
:1002A0008091B0049091B1042817390771F0E09162
:1002B000AE04F091AF04E259FB4F40833093AF049A
:1002C0002093AE0402C08091C600FF91EF919F91F0
:1002D0008F914F913F912F910F900BBE0F900FBEBA
:1002E0000F901F9018951F920F920FB60F920BB69A
:1002F0000F9211242F933F934F938F939F93EF93DC
:10030000FF938091C80082FD1DC04091CE002091D6
:100310003605309137052F5F3F4F2F733070809136
:100320003805909139052817390771F0E0913605A5
:10033000F0913705EA50FB4F408330933705209307
:10034000360502C08091CE00FF91EF919F918F9171
:100350004F913F912F910F900BBE0F900FBE0F90BA
:100360001F9018951F920F920FB60F920BB60F9217
:1003700011242F933F934F938F939F93EF93FF936A
:100380008091D00082FD1DC04091D6002091BE0515
:100390003091BF052F5F3F4F2F7330708091C005A4
:1003A0009091C1052817390771F0E091BE05F091D1
:1003B000BF05E258FA4F40833093BF052093BE0536
:1003C00002C08091D600FF91EF919F918F914F9144
:1003D0003F912F910F900BBE0F900FBE0F901F906B
:1003E00018951F920F920FB60F920BB60F92112411
:1003F0002F933F934F938F939F93EF93FF9380910E
:10040000300182FD1DC04091360120914606309199
:1004100047062F5F3F4F2F733070809148069091B1
:1004200049062817390771F0E0914606F091470612
:10043000EA5FF94F4083309347062093460602C097
:1004400080913601FF91EF919F918F914F913F9154
:100450002F910F900BBE0F900FBE0F901F9018950D
:100460001F920F920FB60F920BB60F9211242F937B
:100470003F938F939F93EF93FF932091F2043091DA
:10048000F3048091F4049091F5042817390731F4AE
:100490008091C1008F7D8093C10014C0E091F4046D
:1004A000F091F504EE54FB4F20818091F40490917B
:1004B000F50401968F7390709093F5048093F40483
:1004C0002093C600FF91EF919F918F913F912F91C3
:1004D0000F900BBE0F900FBE0F901F9018951F929C
:1004E0000F920FB60F920BB60F9211242F933F93DA
:1004F0008F939F93EF93FF9320917A0530917B0523
:1005000080917C0590917D052817390731F4809101
:10051000C9008F7D8093C90014C0E0917C05F091E3
:100520007D05E65CFA4F208180917C0590917D05E8
:1005300001968F73907090937D0580937C05209336
:10054000CE00FF91EF919F918F913F912F910F904E
:100550000BBE0F900FBE0F901F9018951F920F9219
:100560000FB60F920BB60F9211242F933F938F93D8
:100570009F93EF93FF9320910206309103068091A1
:100580000406909105062817390731F48091D100AF
:100590008F7D8093D10014C0E0910406F091050690
:1005A000EE53FA4F20818091040690910506019642
:1005B0008F73907090930506809304062093D60065
:1005C000FF91EF919F918F913F912F910F900BBED3
:1005D0000F900FBE0F901F9018951F920F920FB69D
:1005E0000F920BB60F9211242F933F938F939F93EB
:1005F000EF93FF9320918A0630918B0680918C06B1
:1006000090918D062817390731F4809131018F7D43
:100610008093310114C0E0918C06F0918D06E65B69
:10062000F94F208180918C0690918D0601968F73F1
:10063000907090938D0680938C0620933601FF91E5
:10064000EF919F918F913F912F910F900BBE0F9043
:100650000FBE0F901F901895AF92BF92DF92EF924E
:10066000FF920F931F93CF93DF93EC017A018B01DD
:10067000DD24403081EE580780E0680780E078078D
:1006800011F0DD24D39491E0A92EB12CEC89FD89E1
:10069000DD2069F0C50108A002C0880F991F0A94E7
:1006A000E2F7808360E079E08DE390E005C010829E
:1006B00060E874E88EE190E0A80197010E942E2482
:1006C00021503040404050405695479537952795EA
:1006D00080E12030380720F0DD2011F0DD24D6CF76
:1006E000E889F9893083EA89FB89208319A2EE8998
:1006F000FF89408121E030E0C9010C8C02C0880FE5
:10070000991F0A94E2F7482B4083EE89FF894081C4
:10071000C9010D8C02C0880F991F0A94E2F7482B7B
:100720004083EE89FF894081C9010E8C02C0880F89
:10073000991F0A94E2F7482B4083EE89FF89808154
:100740000F8C02C0220F331F0A94E2F72095282352
:100750002083DF91CF911F910F91FF90EF90DF9059
:10076000BF90AF900895DC011C96ED91FC911D9710
:10077000E05CFF4F2191319180819181281B390BE1
:100780002F733070C9010895DC011C96ED91FC9126
:100790001D97E05CFF4F20813181E054F040DF0184
:1007A000AE5BBF4F8D919C9111972817390719F4B3
:1007B0002FEF3FEF07C08D919C91E80FF91F8081CB
:1007C000282F30E0C9010895DC011C96ED91FC91C1
:1007D0001D97E05CFF4F20813181E054F040DF0144
:1007E000AE5BBF4F8D919C9111972817390719F473
:1007F0002FEF3FEF10C08D919C911197E80FF91FDB
:1008000020818D919C91119701968F739070119614
:100810009C938E9330E0C9010895DC0191968C91F0
:100820009197882339F05496ED91FC9155978081EA
:1008300086FFF9CF91961C920895CF93DF93EC0138
:10084000EE85FF85E05CFF4F20813181E054F04070
:100850002F5F3F4F2F733070DF01AE5BBF4F8D9125
:100860009C91119728173907D1F3E05CFF4F8081E5
:100870009181E054F040E80FF91F6083EE85FF8519
:10088000E05CFF4F31832083EE89FF89208181E086
:1008900090E00F8C02C0880F991F0A94E2F7282B72
:1008A000208381E089A3EC89FD8980818064808335
:1008B00081E090E0DF91CF9108951F93109291060F
:1008C0001092900628EE33E040E050E0209392062C
:1008D0003093930640939406509395066AE474E02F
:1008E00070938F0660938E068EE694E090939B063D
:1008F00080939A0682EB94E090939D0680939C06E9
:1009000085EC90E090939F0680939E0684EC90E0A7
:100910009093A1068093A00680EC90E09093A306AC
:100920008093A20681EC90E09093A5068093A406A4
:1009300082EC90E09093A7068093A60686EC90E068
:100940009093A9068093A80614E01093AA06B3E03A
:10095000B093AB06A7E0A093AC06F5E0F093AD062C
:10096000E1E0E093AE061092B3061092B206209337
:10097000B4063093B5064093B6065093B70670930D
:10098000B1066093B00686EF94E09093BD06809325
:10099000BC068AE395E09093BF068093BE068DEC7B
:1009A00090E09093C1068093C0068CEC90E0909309
:1009B000C3068093C20688EC90E09093C5068093AE
:1009C000C40689EC90E09093C7068093C6068AEC33
:1009D00090E09093C9068093C8068EEC90E09093C7
:1009E000CB068093CA061093CC06B093CD06A09395
:1009F000CE06F093CF06E093D0061092D506109263
:100A0000D4062093D6063093D7064093D806509349
:100A1000D9067093D3066093D2068EE795E0909343
:100A2000DF068093DE0682EC95E09093E1068093EA
:100A3000E00685ED90E09093E3068093E20684ED76
:100A400090E09093E5068093E40680ED90E090932B
:100A5000E7068093E60681ED90E09093E9068093A7
:100A6000E80682ED90E09093EB068093EA0686ED2F
:100A700090E09093ED068093EC061093EE06B09311
:100A8000EF06A093F006F093F106E093F2061092C1
:100A9000F7061092F6062093F8063093F906409375
:100AA000FA065093FB067093F5066093F40686E011
:100AB00096E090930107809300078AE496E0909374
:100AC00003078093020785E391E0909305078093E5
:100AD000040784E391E0909307078093060780E37F
:100AE00091E0909309078093080781E391E0909348
:100AF0000B0780930A0782E391E090930D078093A0
:100B00000C0786E391E090930F0780930E071093F4
:100B10001007B0931107A0931207F0931307E09307
:100B200014071F9108958AE594E090931707809326
:100B30001607109218071092190710921A071092B0
:100B40001B0708958F929F92AF92BF92CF92DF9230
:100B5000EF92FF920F931F93CF93DF934C016B01A2
:100B60007C01AA24BB24C0E0D0E0C601F701628169
:100B70004AE050E00E94A5068C01C6016EE20E9488
:100B80000E06080F191FA00EB11E21960894E11C35
:100B9000F11CC330D10549F7C601F40165814AE073
:100BA00050E00E94A5069501280F391FC901DF9169
:100BB000CF911F910F91FF90EF90DF90CF90BF905A
:100BC000AF909F908F900895CF92DF92EF92FF9217
:100BD0000F931F93CF93DF937C016B018A01C0E0D9
:100BE000D0E00FC0D6016D916D01D701ED91FC9160
:100BF0000190F081E02DC7011995C80FD91F015050
:100C000010400115110571F7CE01DF91CF911F91B1
:100C10000F91FF90EF90DF90CF900895DC01ED9160
:100C2000FC910190F081E02D19950895CF93DF9309
:100C3000EC016115710519F420E030E00FC0DB0113
:100C40000D900020E9F71197A61BB70BE881F981F9
:100C50000280F381E02DAD0119959C01C901DF915E
:100C6000CF9108954F925F927F928F929F92AF9211
:100C7000BF92CF92DF92EF92FF920F931F93DF9379
:100C8000CF93CDB7DEB7A1970FB6F894DEBF0FBEF6
:100C9000CDBF2C01742ECB01223008F42AE019A21A
:100CA00031E2C32ED12CCC0EDD1E822E9924AA2433
:100CB000BB24672D752FA50194010E942E24790174
:100CC0008A01C801B701A50194010E940F24472D94
:100CD000461B0894C108D1084A3014F4405D01C095
:100CE000495CF6014083E114F1040105110521F08E
:100CF0007E2C5F2DC801DDCFC201B6010E94160611
:100D0000A1960FB6F894DEBF0FBECDBFCF91DF9195
:100D10001F910F91FF90EF90DF90CF90BF90AF9019
:100D20009F908F907F905F904F900895DC012115E8
:100D3000310541F4ED91FC910190F081E02D642F9B
:100D4000199508950E9432060895EF92FF920F932D
:100D50001F939A01E62EFF2400E010E0B801A701DE
:100D60000E9496061F910F91FF90EF900895883092
:100D700008F078C0E82FF0E0EE0FFF1FE45EF84FB8
:100D8000718360838330D9F0843030F4813009F48A
:100D900044C0823060F439C0853051F18530D8F0DC
:100DA000863009F446C0873009F05CC04FC080919E
:100DB00069008C7F842B80936900E89A0895809164
:100DC0006900440F551F440F551F837F842B809368
:100DD0006900E99A08958091690074E0440F551FF5
:100DE0007A95E1F78F7C842B80936900EA9A0895C5
:100DF0008091690066E0440F551F6A95E1F78F7393
:100E0000842B80936900EB9A089580916A008C7F0F
:100E1000842B80936A00EC9A089580916A00440FB5
:100E2000551F440F551F837F842B80936A00ED9AD2
:100E3000089580916A0024E0440F551F2A95E1F738
:100E40008F7C842B80936A00EE9A089580916A00CB
:100E500096E0440F551F9A95E1F78F73842B80938A
:100E60006A00EF9A08951F920F920FB60F920BB679
:100E70000F9211242F933F934F935F936F937F9320
:100E80008F939F93AF93BF93EF93FF93809120072E
:100E900090912107892B29F0E0912007F0912107FB
:100EA0001995FF91EF91BF91AF919F918F917F9194
:100EB0006F915F914F913F912F910F900BBE0F90CB
:100EC0000FBE0F901F9018951F920F920FB60F92A2
:100ED0000BB60F9211242F933F934F935F936F9311
:100EE0007F938F939F93AF93BF93EF93FF938091E3
:100EF000220790912307892B29F0E0912207F09196
:100F000023071995FF91EF91BF91AF919F918F9119
:100F10007F916F915F914F913F912F910F900BBEF9
:100F20000F900FBE0F901F9018951F920F920FB643
:100F30000F920BB60F9211242F933F934F935F9311
:100F40006F937F938F939F93AF93BF93EF93FF9391
:100F50008091240790912507892B29F0E09124079F
:100F6000F09125071995FF91EF91BF91AF919F9156
:100F70008F917F916F915F914F913F912F910F9042
:100F80000BBE0F900FBE0F901F9018951F920F92DF
:100F90000FB60F920BB60F9211242F933F934F93DE
:100FA0005F936F937F938F939F93AF93BF93EF93D1
:100FB000FF938091260790912707892B29F0E091D4
:100FC0002607F09127071995FF91EF91BF91AF91F7
:100FD0009F918F917F916F915F914F913F912F9151
:100FE0000F900BBE0F900FBE0F901F9018951F9281
:100FF0000F920FB60F920BB60F9211242F933F93BF
:101000004F935F936F937F938F939F93AF93BF9310
:10101000EF93FF9380911C0790911D07892B29F076
:10102000E0911C07F0911D071995FF91EF91BF9179
:10103000AF919F918F917F916F915F914F913F9170
:101040002F910F900BBE0F900FBE0F901F90189511
:101050001F920F920FB60F920BB60F9211242F937F
:101060003F934F935F936F937F938F939F93AF9330
:10107000BF93EF93FF9380911E0790911F07892BD9
:1010800029F0E0911E07F0911F071995FF91EF914C
:10109000BF91AF919F918F917F916F915F914F9190
:1010A0003F912F910F900BBE0F900FBE0F901F908E
:1010B00018951F920F920FB60F920BB60F92112434
:1010C0002F933F934F935F936F937F938F939F9350
:1010D000AF93BF93EF93FF938091280790912907D7
:1010E000892B29F0E0912807F09129071995FF91A4
:1010F000EF91BF91AF919F918F917F916F915F9190
:101100004F913F912F910F900BBE0F900FBE0F90FC
:101110001F9018951F920F920FB60F920BB60F9259
:1011200011242F933F934F935F936F937F938F93EC
:101130009F93AF93BF93EF93FF9380912A07909172
:101140002B07892B29F0E0912A07F0912B0719959D
:10115000FF91EF91BF91AF919F918F917F916F918F
:101160005F914F913F912F910F900BBE0F900FBE4B
:101170000F901F9018951F920F920FB60F92112487
:101180002F933F938F939F93AF93BF93809130079B
:1011900090913107A0913207B09133073091340715
:1011A0000196A11DB11D232F2D5F2D3720F02D5746
:1011B0000196A11DB11D20933407809330079093B1
:1011C0003107A0933207B093330780912C07909199
:1011D0002D07A0912E07B0912F070196A11DB11DDB
:1011E00080932C0790932D07A0932E07B0932F0781
:1011F000BF91AF919F918F913F912F910F900FBE13
:101200000F901F9018958FB7F89420913007309168
:10121000310740913207509133078FBFB901CA019E
:1012200008959FB7F89420912C0730912D07409195
:101230002E0750912F0786B5A89B06C08F3F21F03F
:101240002F5F3F4F4F4F5F4F9FBF542F432F322F82
:101250002227280F311D411D511D82E0220F331F0F
:10126000441F551F8A95D1F7B901CA010895789492
:1012700084B5826084BD84B5816084BD85B582609B
:1012800085BD85B5816085BDEEE6F0E08081816039
:101290008083E1E8F0E01082808182608083808139
:1012A00081608083E0E8F0E0808181608083E1EB11
:1012B000F0E0808184608083E0EBF0E080818160F9
:1012C0008083E1E9F0E080818260808380818160B9
:1012D0008083E0E9F0E0808181608083E1EAF0E0F2
:1012E000808182608083808181608083E0EAF0E099
:1012F000808181608083E1E2F1E08081826080838F
:10130000808181608083E0E2F1E080818160808380
:10131000EAE7F0E08081846080838081826080835E
:101320008081816080838081806880831092C10089
:1013300008951F93CF93DF93182FEB0161E00E9474
:10134000790A209709F4CAC0CF3FD10509F4C9C072
:10135000E12FF0E0E254FE4F8491893009F466C039
:101360008A30B0F48430F1F1853040F4823059F1A4
:10137000833070F5813009F0AEC020C0873009F4A9
:1013800043C0883008F048C0863009F0A4C034C09B
:101390008D3009F478C08E3038F48B3009F45AC09F
:1013A0008C3008F066C04CC0803109F480C08131B7
:1013B00009F487C08F3009F08EC06FC084B5806893
:1013C00084BDC7BD92C084B5806284BDC8BD8DC0D8
:1013D00080918000806880938000D0938900C093C2
:1013E000880083C080918000806280938000D093C9
:1013F0008B00C0938A0079C08091B0008068809390
:10140000B000C093B30071C08091B000806280933F
:10141000B000C093B40069C0809190008068809350
:101420009000D0939900C09398005FC08091900085
:10143000806280939000D0939B00C0939A0055C027
:1014400080919000886080939000D0939D00C0931D
:101450009C004BC08091A00080688093A000809188
:10146000A0008F7B8093A000D093A900C093A80018
:101470003CC08091A00080628093A000D093AB001C
:10148000C093AA0032C08091A00088608093A00021
:10149000D093AD00C093AC0028C08091200180683B
:1014A00080932001D0932901C09328011EC0809110
:1014B0002001806280932001D0932B01C0932A01E8
:1014C00014C080912001886080932001D0932D0169
:1014D000C0932C010AC0C038D1051CF4812F60E0F4
:1014E00002C0812F61E00E942C0BDF91CF911F91F0
:1014F0000895CF93DF93482F50E0CA0188589E4F3C
:10150000FC0134914E5C5E4FFA018491882369F1AD
:1015100090E0880F991FFC01EC51FF4FA591B49109
:10152000FC01E250FF4FC591D491662351F42FB7CF
:10153000F8948C91932F909589238C93888189239B
:101540000BC0623061F42FB7F8948C91932F909573
:1015500089238C938881832B88832FBF06C09FB7F4
:10156000F8948C91832B8C939FBFDF91CF9108953A
:10157000893009F449C08A30A0F4843051F18530B3
:1015800040F4823079F1833000F5813009F063C096
:1015900026C0873079F1883098F5863009F05BC035
:1015A00025C08D3009F442C08E3028F48B30B1F163
:1015B0008C30C0F52DC0803109F442C0813109F46E
:1015C00045C08F3009F047C037C0809180008F77C9
:1015D00003C0809180008F7D80938000089584B542
:1015E0008F7702C084B58F7D84BD08958091B0004F
:1015F0008F7703C08091B0008F7D8093B0000895F5
:10160000809190008F7707C0809190008F7D03C0FC
:1016100080919000877F8093900008958091A00032
:101620008F7707C08091A0008F7D03C08091A000BC
:10163000877F8093A0000895809120018F7703C059
:10164000809120018F7D8093200108958091200159
:10165000877F809320010895FF920F931F93F62EAA
:10166000482F50E0CA0182549E4FFC012491CA01C8
:1016700088589E4FFC0114914E5C5E4FFA01049114
:101680000023C9F0222319F0822F0E94B80AE02F0C
:10169000F0E0EE0FFF1FE250FF4FA591B4919FB70E
:1016A000F894FF2021F48C911095812302C08C9135
:1016B000812B8C939FBF1F910F91FF9008950F93E3
:1016C0001F93482F50E0CA0182549E4FFC01249181
:1016D000CA0188589E4FFC0104914E5C5E4FFA018E
:1016E0001491112319F420E030E015C0222319F0E1
:1016F000822F0E94B80A812F90E0880F991F885E80
:101700009E4FFC01A591B4918C9120E030E08023A4
:1017100011F021E030E0C9011F910F91089581304F
:10172000910579F0823091051CF4892B39F00895E8
:101730008230910549F0039781F40BC08EE896E062
:1017400005C080EB96E002C082ED96E00E94E405C1
:10175000089584EF96E00E94E40508958130910594
:1017600079F0823091051CF4892B39F0089582308C
:10177000910549F0039781F40BC08EE896E005C00F
:1017800080EB96E002C082ED96E00E942C03089563
:1017900084EF96E00E942C030895382F413210F018
:1017A00040E042C08091BB078823E1F791E090932D
:1017B000BB072093B9078FEF8093BC071092970760
:1017C0004150409398074F5F9093960780919607FA
:1017D000330F832B809396078091BA07813041F4B1
:1017E0001092BA07809196078093BB0085EC01C0E8
:1017F00085EE8093BC008091BB078130E1F380913E
:101800009707841710F44091970720E030E00AC052
:10181000FB01E20FF31FD901A756B84F8C918083CB
:101820002F5F3F4F2417A0F3842F08950F931F932A
:10183000582F122F413210F081E045C08091BB0734
:101840008823E1F782E08093BB070093B9078FEF0D
:101850008093BC071092970740939807A9E9B7E0D7
:10186000FB0102C081918D938E2F861B8417D0F3CC
:101870001092960780919607550F852B80939607B7
:101880008091BA07813041F41092BA07809196078F
:101890008093BB0085EC01C085EE8093BC001123D2
:1018A000A9F08091BB07823089F4FBCF8091BC07FF
:1018B000803211F482E007C08091BC07803311F0C0
:1018C00084E001C083E01F910F9108958091BC07CF
:1018D0008F3F61F780E0F7CF1F920F920FB60F9204
:1018E0000BB60F9211242F933F934F935F936F93F7
:1018F0007F938F939F93AF93BF93EF93FF938091C9
:10190000B90090E0887F90708036910509F4F2C0AC
:1019100081369105CCF58832910509F47BC0893276
:101920009105B4F48031910509F46FC081319105BE
:101930003CF4009709F447C1089709F04FC165C00E
:101940008831910509F466C0809709F047C182C0CB
:101950008034910509F4A4C08134910544F48033A6
:10196000910509F482C0C89709F038C189C0803553
:10197000910509F489C08835910509F496C0883429
:10198000910509F02BC1AEC08839910509F413C146
:1019900089399105ECF48837910509F4ABC0893792
:1019A00091054CF48836910509F4A4C0803791055F
:1019B00009F014C19FC08838910509F4FCC0803932
:1019C000910509F49DC08038910509F007C198C0C0
:1019D000803B910509F4C6C0813B91054CF4803AE7
:1019E000910509F49FC0883A910509F0F7C0BAC083
:1019F000803C910509F4E3C0883C910509F4DFC0FF
:101A0000883B910509F0EAC0C2C080919607809397
:101A1000BB00CFC09091970780919807981768F402
:101A200090919707E92FF0E0E756F84F8081809377
:101A3000BB009F5F90939707BCC08091B907882334
:101A400009F44BC085ED8093BC008091BC0084FDFF
:101A5000FCCFC2C080E28093BC0785ED8093BC00C0
:101A60008091BC0084FDFCCFB7C080E38093BC07AD
:101A700085ED8093BC008091BC0084FDFCCFACC0A0
:101A800088E38093BC079BC0809197079091BB002F
:101A9000E82FF0E0E756F84F90838F5F8093970729
:101AA000909197078091980782C0809197079091B5
:101AB000BB00E82FF0E0E756F84F90838F5F8093EC
:101AC00097078091B907882341F085ED8093BC008A
:101AD0008091BC0084FDFCCF7FC081E08093BA0779
:101AE00084EA6EC085ED8093BC008091BC0084FDCB
:101AF000FCCF72C083E08093BB071092BD0759C032
:101B00008091BD07803208F056C08091BD0790914A
:101B1000BB00E82FF0E0E254F84F90838F5F809392
:101B2000BD0747C08091BD07803230F4E091BD070A
:101B3000F0E0E254F84F108285ED8093BC00809174
:101B4000BC0084FDFCCF1092BB076091BD07E09103
:101B5000DE07F091DF078EEB97E070E019951092A9
:101B6000BD072DC084E08093BB071092E007109260
:101B7000E107E091E207F091E30719958091E10711
:101B8000882329F481E08093E1071092E407909183
:101B9000E007E92FF0E0EC51F84F80818093BB0023
:101BA0009F5F9093E0079091E0078091E10798177D
:101BB00010F485EC01C085E88093BC000FC085EC73
:101BC0008093BC0009C01092BC0785ED8093BC00D7
:101BD0008091BC0084FDFCCF1092BB07FF91EF9178
:101BE000BF91AF919F918F917F916F915F914F9135
:101BF0003F912F910F900BBE0F900FBE0F901F9033
:101C00001895413208F040E2862F65E377E00E94A4
:101C1000CD0B1092550780935607089521E00E943E
:101C2000010E08950F93062F8091570768E577E01E
:101C30004091790721E00E94160C109278071092CB
:101C4000790710927A070F91089561E00E94120EB1
:101C50000895DF93CF930F92CDB7DEB7FC01698370
:101C600080917A078823C9F080917907803238F013
:101C700081E090E09383828320E030E01AC080917D
:101C80007807E82FF0E0E85AF84F998190838F5F4A
:101C900080937807809379070AC08091BB078430CE
:101CA00031F481E08093E10789818093E40721E0AA
:101CB00030E0C9010F90CF91DF910895CF92DF926C
:101CC000EF92FF920F931F93CF93DF936C018B01E1
:101CD0007A0180917A078823A1F0C0E0D0E00DC09E
:101CE000D601ED91FC91D801AC0FBD1F0190F081A0
:101CF000E02DC6016C9119952196CE15DF0580F374
:101D000013C0413288F48091BB07843069F4E092BB
:101D1000E107562FA4EEB7E0FB0102C081918D933D
:101D20008E2F851B8417D0F3C701DF91CF911F91B0
:101D30000F91FF90EF90DF90CF900895209156077C
:101D400030E080915507281B3109C9010895409161
:101D5000550780915607481718F02FEF3FEF0AC03C
:101D6000E42FF0E0EB5CF84F8081282F30E04F5FEC
:101D700040935507C9010895E09155078091560792
:101D8000E81718F0EFEFFFEF06C0F0E0EB5CF84F5C
:101D90008081E82FF0E0CF0108950895FF920F931E
:101DA0001F93CF93DF93F42E122F032F91E0909384
:101DB0007A078093570710927807109279078BE77C
:101DC00097E00E94290E212F302FC901EC0110E06D
:101DD00006C08BE797E069910E94290E1F5F1F15CF
:101DE000C0F38BE797E00E94250E90E0882309F46A
:101DF00091E0892FDF91CF911F910F91FF9008956E
:101E0000DF93CF930F92CDB7DEB7498341E09E01B8
:101E10002F5F3F4F0E94CE0E0F90CF91DF9108951C
:101E200010927E0710927D0788EE93E0A0E0B0E06C
:101E300080937F0790938007A0938107B0938207D8
:101E400080E694E090937C0780937B0788E68093FC
:101E5000870708952F923F924F925F926F927F92E1
:101E60008F929F92AF92BF92CF92DF92EF92FF92AA
:101E70000F931F93DF93CF9300D00F920F92CDB7A4
:101E8000DEB7882E6983942E3B832A830E94030940
:101E90005B016C01FF24EE24292C332428016624E5
:101EA000772461C021E020937A078092570710922F
:101EB0007807109279078BE797E069810E94290ED5
:101EC0008BE797E00E94250E31E030937A078092ED
:101ED00057071092780710927907A1014E195109FE
:101EE0004132510514F040E250E08BE797E0682D55
:101EF0000E940E0E8F2D992787FD9095EA81FB8118
:101F00008E0F9F1F9D838C830FC0E92FF0E0EB5C49
:101F1000F84F8081282F9F5F90935507EC81FD81BA
:101F20002193FD83EC83F39490915607809155079C
:101F3000981709F450C00115110561F00E940309BA
:101F40006A197B098C099D09641575058605970535
:101F500008F041C090915507809156079817A8F254
:101F60002FEF3FEFDBCFE91408F49CCF01151105EB
:101F7000C9F00E9403096A197B098C099D0998011F
:101F800040E050E0621773078407950758F02F2D43
:101F9000332727FD3095892D90E02817390714F451
:101FA000FF24FA948F2D0F900F900F900F900F90A9
:101FB000CF91DF911F910F91FF90EF90DF90CF9025
:101FC000BF90AF909F908F907F906F905F904F9059
:101FD0003F902F9008958BE797E00E94250E892D62
:101FE000F0E2F91508F480E2E80EBDCFEF92FF921F
:101FF0000F931F937C019C012F5F3F4F00911902AB
:1020000010911A02FC01808163E442E00E942A0FD1
:10201000F701918180E0228130E0282B392BC90122
:102020001F910F91FF90EF900895EF92FF920F9301
:102030001F937C019C012F5F3F4F0091190210916B
:102040001A02FC0180816FE342E00E942A0FF7012F
:10205000918180E0228130E0282B392BC9011F912A
:102060000F91FF90EF900895EF92FF920F931F93BF
:102070007C019C012F5F3F4F0091190210911A02C1
:10208000FC0180816DE342E00E942A0FF7019181FB
:1020900080E0228130E0282B392BC9011F910F915C
:1020A000FF90EF900895EF92FF920F931F93CF93BD
:1020B000DF93EC018B017A01F901608171818281EA
:1020C000938120E030E040E85FE30E941E228823F5
:1020D000A1F487E897E00E94F60F9983888387E848
:1020E00097E00E943410F8019183808387E897E09D
:1020F0000E941510F70191838083DF91CF911F918A
:102100000F91FF90EF9008950F931F93FA018901AB
:1021100041E09F010E942A0F1F910F910895DF92C5
:10212000EF92FF920F931F93DF93CF930F92CDB750
:10213000DEB7E82ED62EF42E122F20911902309100
:102140001A02AE014F5F5F4F0E948410882341F155
:10215000212F30E04F2D50E04F5F5F4F421B530B5C
:1021600081E090E002C0880F991F1A95E2F701976D
:10217000042E02C0880F991F0A94E2F7202F30E046
:1021800002C0220F331F4A95E2F7482F409559812C
:1021900045238223482B49838E2D6D2D0E94000FED
:1021A0000F90CF91DF911F910F91FF90EF90DF90F3
:1021B00008950F93FC01062F80816BE642E023E037
:1021C0000E948F100F9108950F93FC01062F8081BC
:1021D0006CE144E022E00E948F100F9108950F936C
:1021E000FC01062F80816BE144E022E00E948F1009
:1021F0000F9108950F93FC01062F80816AE142E060
:1022000023E00E948F100F910895EF92FF920F9399
:102210001F93DF93CF930F92CDB7DEB7F82EE62E44
:10222000042F122F2091190230911A02AE014F5F34
:102230005F4F0E9484102981112351F081E090E0CA
:1022400002C0880F991F0A95E2F7422F482B0AC057
:1022500081E090E002C0880F991F0A95E2F7482FAD
:102260004095422349838F2D6E2D0E94000F0F90C1
:10227000CF91DF911F910F91FF90EF900895FC0196
:10228000262F80816BE646E00E94051108950F938A
:102290001F938C0161E00E94D910C80160E00E9488
:1022A000EF10C80160E00E94E410C80160E00E94E5
:1022B0003F111F910F9108951092BB0781E0809309
:1022C000B9071092BA0784E161E00E942C0B85E106
:1022D00061E00E942C0BE9EBF0E080818E7F80832F
:1022E00080818D7F808388E48093B80085E480932B
:1022F000BC00089510925507109256071092780767
:10230000109279070E945C110895CF93DF93E90141
:10231000688179818A819B8120E030E040E85FE339
:102320000E941E228823A9F08BE797E00E947A1171
:1023300087E897E065E00E94FA1087E897E00E943E
:10234000471180E090E0A0E8BFE388839983AA83E7
:10235000BB83DF91CF9108958231910509F18331DB
:10236000910534F48230910579F00397E1F409C0C6
:102370008431910579F0843191057CF0459799F489
:1023800006C021E030E011C020E030E00EC022E0C5
:1023900030E00BC023E030E008C024E030E005C0AE
:1023A00025E030E002C02FEF3FEFC9010895CF9242
:1023B000DF92EF92FF920F931F93DF93CF93CDB7EE
:1023C000DEB77C016B01FA01890160817181828134
:1023D000938120E030E040E85FE30E941E228823E2
:1023E000F1F4D801EC91F0E093E0EE0FFF1F9A9525
:1023F000E1F7E85FF74F80819181F7019183808356
:102400001196EC91F0E083E0EE0FFF1F8A95E1F763
:10241000E85FF74F80819181D6018D939C93CF9196
:10242000DF911F910F91FF90EF90DF90CF90089573
:10243000AF92BF92CF92DF92EF92FF920F931F93D2
:10244000DF93CF93CDB7DEB76A018901DA016D91D1
:102450007D918D919C9120E030E040E85FE30E9407
:102460001E22882309F40DC1D801EC91F0E0D701B8
:102470008C9190E053E0EE0FFF1F5A95E1F7EC5F6F
:10248000F74F91838083D801EC91F0E0D5018C91D6
:1024900090E043E0EE0FFF1F4A95E1F7EA5FF74F48
:1024A00091838083D8011196EC91F0E0D7011196C9
:1024B0008C9190E033E0EE0FFF1F3A95E1F7EC5F6F
:1024C000F74F91838083D8011196EC91F0E0D5010C
:1024D00011968C9190E023E0EE0FFF1F2A95E1F713
:1024E000EA5FF74F91838083D801EC91F0E0B3E08D
:1024F000EE0FFF1FBA95E1F7EC5FF74F80819181F6
:1025000060E00E94790AD801EC91F0E0A3E0EE0FC0
:10251000FF1FAA95E1F7EA5FF74F8081918160E0A4
:102520000E94790AD8011196EC91F0E073E0EE0F69
:10253000FF1F7A95E1F7EC5FF74F8081918160E0B2
:102540000E94790AD8011196EC91F0E063E0EE0F59
:10255000FF1F6A95E1F7EA5FF74F8081918160E0A4
:102560000E94790AD801EC91F0E053E0EE0FFF1FD2
:102570005A95E1F7EC5FF74F8081918161E00E940D
:102580002C0BD801EC91F0E043E0EE0FFF1F4A95D1
:10259000E1F7EA5FF74F8081918161E00E942C0BA7
:1025A000D8011196EC91F0E033E0EE0FFF1F3A9561
:1025B000E1F7EC5FF74F8081918161E00E942C0B85
:1025C000D8011196EC91F0E023E0EE0FFF1F2A9561
:1025D000E1F7EA5FF74F8081918161E00E942C0B67
:1025E000F8012081222319F0223071F515C0809165
:1025F0000408909105080E94AC1168E575E141E07E
:1026000050E00E94B70680910608909107080E944A
:10261000AC116EEF74E114C080911408909115080C
:102620000E94AC1164EA74E141E050E00E94B706F8
:1026300080911608909117080E94AC116AE474E129
:1026400041E050E00E94B70680916800846080936A
:1026500068008091680082608093680080916D00BE
:10266000816080936D0080916C00826080936C002B
:1026700080E090E0A0E8BFE3F60180839183A2832D
:10268000B383CF91DF911F910F91FF90EF90DF9077
:10269000CF90BF90AF9008951F920F920FB60F92F8
:1026A0000BB60F9211240F931F932F933F934F93C9
:1026B0005F936F937F938F939F93AF93BF93CF93CA
:1026C000DF93EF93FF9380910C0890910D080E9487
:1026D0005F0BEC01009112081091130820E030E02C
:1026E00024C0B901882777FD8095982F0E94552234
:1026F00020E030E040E050E00E94BA2120E030E0ED
:1027000040E050E00E94BA2120E030E040E450E494
:102710000E94BA2120E030E040E450E40E94B92158
:102720000E9422229B012F5F3F4F20173107CCF2DE
:1027300080910E0890910F080E945F0B019719F489
:10274000219749F402C0CD2B31F48091100890916B
:102750001108019605C08091100890911108019709
:102760009093110880931008FF91EF91DF91CF9122
:10277000BF91AF919F918F917F916F915F914F9199
:102780003F912F911F910F910F900BBE0F900FBE95
:102790000F901F9018951F920F920FB60F920BB6C5
:1027A0000F9211240F931F932F933F934F935F9397
:1027B0006F937F938F939F93AF93BF93CF93DF9349
:1027C000EF93FF9380910E0890910F080E945F0B8A
:1027D000EC01009112081091130820E030E024C0B1
:1027E000B901882777FD8095982F0E94552220E017
:1027F00030E040E050E00E94BA2120E030E040E0CC
:1028000050E00E94BA2120E030E040E450E40E9411
:10281000BA2120E030E040E450E40E94B9210E9457
:1028200022229B012F5F3F4F20173107CCF280916E
:102830000C0890910D080E945F0B019719F4CD2BA5
:1028400049F402C0219731F4809110089091110849
:10285000019605C0809110089091110801979093FE
:10286000110880931008FF91EF91DF91CF91BF91F4
:10287000AF919F918F917F916F915F914F913F9118
:102880002F911F910F910F900BBE0F900FBE0F90C5
:102890001F9018950F931F93CF93DF938091140887
:1028A000909115080E945F0BEC0100911A0810919D
:1028B0001B0820E030E024C0B901882777FD80950F
:1028C000982F0E94552220E030E040E050E00E9426
:1028D000BA2120E030E040E050E00E94BA2120E040
:1028E00030E040E450E40E94BA2120E030E040E4CF
:1028F00050E40E94B9210E9422229B012F5F3F4F8A
:1029000020173107CCF280911608909117080E9489
:102910005F0B019719F4219749F402C0CD2B31F4D4
:102920008091180890911908019605C080911808A7
:102930009091190801979093190880931808DF91D6
:10294000CF911F910F9108950F931F93CF93DF9312
:1029500080911608909117080E945F0BEC0100917E
:102960001A0810911B0820E030E024C0B901882724
:1029700077FD8095982F0E94552220E030E040E0BE
:1029800050E00E94BA2120E030E040E050E00E9498
:10299000BA2120E030E040E450E40E94BA2120E077
:1029A00030E040E450E40E94B9210E9422229B01C1
:1029B0002F5F3F4F20173107CCF280911408909180
:1029C00015080E945F0B019719F4CD2B49F402C042
:1029D000219731F48091180890911908019605C04B
:1029E0008091180890911908019790931908809385
:1029F0001808DF91CF911F910F9108950F931F93A6
:102A0000CF93DF9380910408909105080E945F0B9B
:102A1000EC0100910A0810910B0820E030E024C07E
:102A2000B901882777FD8095982F0E94552220E0D4
:102A300030E040E050E00E94BA2120E030E040E089
:102A400050E00E94BA2120E030E040E450E40E94CF
:102A5000BA2120E030E040E450E40E94B9210E9415
:102A600022229B012F5F3F4F20173107CCF280912C
:102A70000608909107080E945F0B019719F42197AF
:102A800049F402C0CD2B31F48091080890910908D7
:102A9000019605C0809108089091090801979093CC
:102AA000090880930808DF91CF911F910F91089535
:102AB0000F931F93CF93DF9380910608909107089F
:102AC0000E945F0BEC0100910A0810910B0820E0B6
:102AD00030E024C0B901882777FD8095982F0E94A7
:102AE000552220E030E040E050E00E94BA2120E092
:102AF00030E040E050E00E94BA2120E030E040E4C5
:102B000050E40E94BA2120E030E040E450E40E940A
:102B1000B9210E9422229B012F5F3F4F20173107CE
:102B2000CCF280910408909105080E945F0B0197F8
:102B300019F4CD2B49F402C0219731F48091080893
:102B400090910908019605C08091080890910908A4
:102B500001979093090880930808DF91CF911F9106
:102B60000F910895089584E090E00E947C211092D6
:102B70007F0810927E0882E3ECE4F8E0DF011D920A
:102B80008A95E9F780E3ECE1F8E0DF011D928A9590
:102B9000E9F780914F0361E00E94790A8091530325
:102BA00061E00E94790A20E030E040E050E02093AC
:102BB0001C0830931D0840931E0850931F088091F5
:102BC000470390914803A0914903B0914A03809331
:102BD000240890932508A0932608B0932708809195
:102BE0007F0390918003A0918103B0918203809331
:102BF000280890932908A0932A08B0932B08809165
:102C00004B0390914C03A0914D03B0914E038093E0
:102C10002C0890932D08A0932E08B0932F08209392
:102C200020083093210840932208509323080895E8
:102C30004F925F926F927F928F929F92AF92BF92CC
:102C4000CF92DF92EF92FF920F931F93B4E76B2E18
:102C5000B8E07B2EB3016E5F7F4FACE14A2EA8E057
:102C60005A2EEEE3F4E0DF011496C301A2019F01A6
:102C700002E010E032967F01F2E0CF2ED12C5D0110
:102C8000E2E08E2E912C0E94181280914C089091B7
:102C90004D08A0914E08B0914F088093240890935E
:102CA0002508A0932608B093270860917B037091B4
:102CB0007C0380917D0390917E0320917008309178
:102CC000710840917208509173080E94AC239B01D7
:102CD000AC01609128087091290880912A08909190
:102CE0002B080E94BA2160932808709329088093CA
:102CF0002A0890932B088091500890915108A09138
:102D00005208B091530880932C0890932D08A093FB
:102D10002E08B0932F0860918703709188038091EB
:102D2000890390918A0320913008309131084091B5
:102D30003208509133080E94AC239B01AC01609192
:102D400060087091610880916208909163080E9408
:102D5000BA216093300870933108809332089093C1
:102D600033086091A3037091A4038091A50390910F
:102D7000A6032091340830913508409136085091CF
:102D800037080E94AC239B01AC01609164087091EC
:102D9000650880916608909167080E94BA21609347
:102DA0003408709335088093360890933708609103
:102DB000BF037091C0038091C1039091C203209121
:102DC00038083091390840913A0850913B080E94E8
:102DD000AC239B01AC0160916808709169088091F7
:102DE0006A0890916B080E94BA216093380870932A
:102DF000390880933A0890933B086091DB03709107
:102E0000DC038091DD039091DE0320913C0830913A
:102E10003D0840913E0850913F080E94AC239B0121
:102E2000AC0160916C0870916D0880916E08909172
:102E30006F080E94BA2160933C0870933D0880930C
:102E40003E0890933F086091E7037091E8038091FA
:102E5000E9039091EA0320914008309141084091A4
:102E60004208509143080E94AC239B01AC01609141
:102E700054087091550880915608909157080E9407
:102E8000BA21609340087093410880934208909360
:102E900043086091FF0370910004809101049091B8
:102EA0000204209144083091450840914608509111
:102EB00047080E94AC239B01AC01609158087091B7
:102EC000590880915A0890915B080E94BA2160933A
:102ED0004408709345088093460890934708609192
:102EE0001704709118048091190490911A0420918C
:102EF00048083091490840914A0850914B080E9477
:102F0000AC239B01AC0160915C0870915D088091DD
:102F10005E0890915F080E94BA2160934808709300
:102F2000490880934A0890934B08A301485F5F4F7C
:102F300024E030E0420E531EC301049626E030E048
:102F4000620E731EB30192010E9485111F910F91B1
:102F5000FF90EF90DF90CF90BF90AF909F908F90B9
:102F60007F906F905F904F9008952F923F924F9275
:102F70005F926F927F928F929F92AF92BF92CF9209
:102F8000DF92EF92FF920F931F93DF93CF93CDB712
:102F9000DEB7C556D0400FB6F894DEBF0FBECDBF2A
:102FA00084E798E066E778E04CE158E02EE334E00F
:102FB00002E010E0B0E4EB2EB4E0FB2EA2E0CA2E5B
:102FC000D12CF2E4AF2EF4E0BF2EE2E08E2E912C55
:102FD0000E94D7116091740870917508882777FD59
:102FE0008095982F0E94552220917303309174038D
:102FF00040917503509176030E94AC2320914303C6
:103000003091440340914503509146030E94AC2304
:1030100066966CAF7DAF8EAF9FAF669720917703BA
:10302000309178034091790350917A030E94AC2348
:1030300060934C0870934D0880934E0890934F080E
:103040008091280890912908A0912A08B0912B0816
:1030500024968CAF9DAFAEAFBFAF2497BC01CD011E
:10306000209183033091840340918503509186031E
:103070000E94AC231B012C016093500870935108EF
:10308000809352089093530860918B0370918C0346
:1030900080918D0390918E032091300830913108FA
:1030A00040913208509133080E94AC2320E030E078
:1030B00040E050E00E94BA2120E030E040E050E0E3
:1030C0000E94BA2120E030E040E050E00E94BA21A6
:1030D0006CAF7DAF8EAF9FAF6091A7037091A803D7
:1030E0008091A9039091AA0320913408309135086A
:1030F00040913608509137080E94AC2320E030E020
:1031000040E050E00E94BA2120E030E040E050E092
:103110000E94BA2120E030E040E050E00E94BA2155
:103120006A966CAF7DAF8EAF9FAF6A976091C30315
:103130007091C4038091C5039091C6032091380813
:103140003091390840913A0850913B080E94AC23D5
:1031500020E030E040E050E00E94BA2120E030E082
:1031600040E050E00E94BA21A2966CAF7DAF8EAFD6
:103170009FAFA2976091DF037091E0038091E1031C
:103180009091E20320913C0830913D0840913E0827
:1031900050913F080E94AC2320E030E040E050E036
:1031A0000E94BA216E966CAF7DAF8EAF9FAF6E97C7
:1031B0006091EB037091EC038091ED039091EE032D
:1031C00020914008309141084091420850914308B5
:1031D0000E94AC2320E030E040E050E00E94BA21A1
:1031E0007B018C0166966CAD7DAD8EAD9FAD669713
:1031F0002091F3023091F4024091F5025091F602D1
:103200000E94AC235B016C01C801B70120E030E0F3
:1032100040E050E00E94BA219B01AC01C601B5011B
:103220000E94BA2162966CAF7DAF8EAF9FAF62975E
:1032300066966CAD7DAD8EAD9FAD66972091F70221
:103240003091F8024091F9025091FA020E94AC23A9
:103250007B018C016091030470910404809105044A
:103260009091060420914408309145084091460809
:10327000509147080E94AC2320E030E040E050E04D
:103280000E94BA2120E030E040E050E00E94BA21E4
:103290009B01AC01C801B7010E94BA212E966CAF08
:1032A0007DAF8EAF9FAF2E9766966CAD7DAD8EAD28
:1032B0009FAD66972091FB023091FC024091FD0288
:1032C0005091FE020E94AC237B018C0160911B0493
:1032D00070911C0480911D0490911E042091480857
:1032E0003091490840914A0850914B080E94AC2304
:1032F00020E030E040E050E00E94BA219B01AC01A8
:10330000C801B7010E94BA212A966CAF7DAF8EAF7B
:103310009FAF2A974FE0C42E43E0D42EDE01509693
:103320002696BFAFAEAF26975D012E966CAD7DADF4
:103330008EAD9FAD2E97F601208931894289538940
:103340000E94AC237B018C0162966CAD7DAD8EAD8D
:103350009FAD6297D6012D913D914D915C910E9458
:10336000AC239B01AC01C801B7010E94BA217B01CB
:103370008C012A966CAD7DAD8EAD9FAD2A97F6017E
:1033800020A131A142A153A10E94AC239B01AC0119
:10339000C801B7010E94BA217B018C0180EF9FEF29
:1033A000C80ED91E66966CAD7DAD8EAD9FAD66978D
:1033B000D6012D913D914D915C910E94AC239B01D2
:1033C000AC01C801B7010E94BA21F5016193719364
:1033D000819391935F0184E190E0C80ED91E9FE133
:1033E000C91693E0D90609F0A0CF8091440481303A
:1033F00079F560914C0870914D0880914E0890913C
:103400004F082091240830912508409126085091BA
:1034100027080E94B9213B014C01C201B101209152
:103420002C0830912D0840912E0850912F080E94B1
:10343000B9211B012C0166966CAD7DAD8EAD9FADA3
:1034400066972496ACACBDACCEACDFAC24972BC059
:1034500080913D048130B9F46CAD7DAD8EAD9FADF2
:103460006A966CAC7DAC8EAC9FAC6A97A296ACAC05
:10347000BDACCEACDFACA2976E962CAC3DAC4EACE6
:103480005FAC6E9710C0688979898A899B896C883E
:103490007D888E889F88A88CB98CCA8CDB8C2C8CFC
:1034A0003D8C4E8C5F8C20912304309124044091FC
:1034B0002504509126040E94AC237B018C01C40199
:1034C000B3012091270430912804409129045091A0
:1034D0002A040E94AC239B01AC01C801B7010E94E1
:1034E000BA217B018C01C601B50120912B043091DA
:1034F0002C0440912D0450912E040E94AC239B017A
:10350000AC01C801B7010E94BA217B018C01C20144
:10351000B10120912F043091300440913104509139
:1035200032040E94AC239B01AC01C801B7010E9488
:10353000BA2168AF79AF8AAF9BAF24966CAD7DADF1
:103540008EAD9FAD24979F7720E030E040E45FE3AD
:103550000E941E2287FD05C080E090E0A0E0B0E060
:1035600004C080E090E0A0E8BFE3A6968CAF9DAFDA
:10357000AEAFBFAFA69768AD79AD8AAD9BAD20E089
:1035800030E040E251E40E94BA212DEC3CEC4CE4E6
:1035900055E40E94AC230E9490227B018C010E9482
:1035A0007121882309F097C5C801B7010E944621FF
:1035B000882309F090C5C801B70120E030E040E859
:1035C00057E40E94AA229B01AC01CB01DA017C01E5
:1035D0008D01B901CA0120E030E040E050E00E94D6
:1035E0001E22882354F4C801B70190580E94272254
:1035F00022243324261A370A05C0C801B7010E94C5
:1036000027221B0166966CAD7DAD8EAD9FAD669792
:1036100020E030E040E251E40E94BA212DEC3CEC85
:103620004CE455E40E94AC230E9490227B018C0163
:103630000E947121882309F059C5C801B7010E9471
:103640004621882309F052C5C801B70120E030E0C7
:1036500040E857E40E94AA229B01AC01CB01DA01A9
:103660007C018D01B901CA0120E030E040E050E06A
:103670000E941E22882354F4C801B70190580E946A
:10368000272244245524461A570A05C0C801B70109
:103690000E9427222B0160912808709129088091AF
:1036A0002A0890912B0820E030E040E251E40E948B
:1036B000BA212DEC3CEC4CE455E40E94AC230E9472
:1036C00090227B018C010E947121882309F019C589
:1036D000C801B7010E944621882309F012C5C8011C
:1036E000B70120E030E040E857E40E94AA229B01A5
:1036F000AC01CB01DA017C018D01B901CA0120E0E6
:1037000030E040E050E00E941E22882354F4C801BB
:10371000B70190580E94272266247724661A770AF8
:1037200005C0C801B7010E9427223B016CAD7DADE9
:103730008EAD9FAD20E030E040E251E40E94BA211E
:103740002DEC3CEC4CE455E40E94AC230E9490220A
:103750007B018C010E947121882309F0DDC4C8011E
:10376000B7010E944621882309F0D6C4C801B701D9
:1037700020E030E040E857E40E94AA229B01AC011F
:10378000CB01DA017C018D01B901CA0120E030E0F2
:1037900040E050E00E941E22882354F4C801B70183
:1037A00090580E94272288249924861A970A05C0D7
:1037B000C801B7010E9427224B01A2966CAD7DADD6
:1037C0008EAD9FADA29720E030E040E251E40E9430
:1037D000BA212DEC3CEC4CE455E40E94AC230E9451
:1037E00090227B018C010E947121882309F09FC4E3
:1037F000C801B7010E944621882309F098C4C80176
:10380000B70120E030E040E857E40E94AA229B0183
:10381000AC01CB01DA017C018D01B901CA0120E0C4
:1038200030E040E050E00E941E22882354F4C8019A
:10383000B70190580E942722AA24BB24A61AB70ACF
:1038400005C0C801B7010E9427225B0168897989F8
:103850008A899B8920E030E040E251E40E94BA214D
:103860002DEC3CEC4CE455E40E94AC230E949022E9
:103870007B018C010E947121882309F063C4C80177
:10388000B7010E944621882309F05CC4C801B70132
:1038900020E030E040E857E40E94AA229B01AC01FE
:1038A000CB01DA017C018D01B901CA0120E030E0D1
:1038B00040E050E00E941E22882354F4C801B70162
:1038C00090580E942722CC24DD24C61AD70A05C0AE
:1038D000C801B7010E9427226B01688D798D8A8DFE
:1038E0009B8D20E030E040E251E40E94BA212DECB3
:1038F0003CEC4CE455E40E94AC230E9490227B01F6
:103900008C010E947121882309F027C4C801B701E6
:103910000E944621882309F020C4C801B70120E095
:1039200030E040E857E40E94AA229B01AC01CB01A1
:10393000DA017C018D01B901CA0120E030E040E0EC
:1039400050E00E941E22882354F4C801B701905809
:103950000E94272222273327261B370B05C0C801C8
:10396000B7010E9427229B018091450489833A82F6
:103970002B825C824D827E826F8298868986BA868F
:10398000AB86DC86CD863E872F878091570390914A
:103990005803BE016F5F7F4F4FE050E00E948F0BD6
:1039A0008091280890912908A0912A08B0912B08AD
:1039B0008CAB9DABAEABBFAB37EB432E32E0532E9F
:1039C00024E2822E912C840C951C94E5692E98E0BB
:1039D000792E2E966CAD7DAD8EAD9FAD2E97D2011A
:1039E0002D913D914D915C910E94AC237B018C0106
:1039F000F2013C9762966CAD7DAD8EAD9FAD629746
:103A000020813181428153810E94AC239B01AC0112
:103A1000C801B7010E94BA217B018C012A966CADC6
:103A20007DAD8EAD9FAD2A97F20124853585468503
:103A300057850E94AC239B01AC01C801B7010E94CD
:103A4000BA215B016C016CA97DA98EA99FA9D40143
:103A50001C962D913D914D915C911F970E94AC2336
:103A60007B018C0166966CAD7DAD8EAD9FAD66978A
:103A7000F40121913191419151914F010E94AC2368
:103A80009B01AC01C801B7010E94BA217B018C01E6
:103A900068AD79AD8AAD9BADD20158962D913D911F
:103AA0004D915C915B970E94AC239B01AC01C801D6
:103AB000B7010E94BA219B01AC01C601B5010E9469
:103AC000BA21F30161937193819391933F0184E053
:103AD00090E0480E591E93EC491692E0590609F001
:103AE00078CF6E966CAD7DAD8EAD9FAD6E9720910B
:103AF00083023091840240918502509186020E9497
:103B0000AC233B014C01A2966CAD7DAD8EAD9FAD5B
:103B1000A29720917B0230917C0240917D025091CE
:103B20007E020E94AC235B016C016A966CAD7DAD98
:103B30008EAD9FAD6A9720917302309174024091CF
:103B40007502509176020E94AC237B018C016CAD12
:103B50007DAD8EAD9FAD20916B0230916C02409196
:103B60006D0250916E020E94AC239B01AC01C80112
:103B7000B7010E94BA219B01AC01C601B5010E94A8
:103B8000BA219B01AC01C401B3010E94BA219B017F
:103B9000AC0166966CAD7DAD8EAD9FAD66970E9413
:103BA000B92168AB79AB8AAB9BAB6E966CAD7DAD42
:103BB0008EAD9FAD6E972091870230918802409123
:103BC000890250918A020E94AC233B014C01A296CB
:103BD0006CAD7DAD8EAD9FADA29720917F023091EF
:103BE000800240918102509182020E94AC235B01CD
:103BF0006C016A966CAD7DAD8EAD9FAD6A972091DC
:103C00007702309178024091790250917A020E94B5
:103C1000AC237B018C016CAD7DAD8EAD9FAD209151
:103C20006F023091700240917102509172020E94B5
:103C3000AC239B01AC01C801B7010E94BA219B01D2
:103C4000AC01C601B5010E94BA219B01AC01C401BF
:103C5000B3010E94BA219B01AC016CA97DA98EA978
:103C60009FA90E94B9214B015C0188ECC82E8FEFFF
:103C7000D82EC40CD51CC501B401D60150962D9187
:103C80003D914D915C9153970E94AC237B018C0137
:103C900068A979A98AA99BA9F6012081318142816D
:103CA00053810E94AC239B01AC01C801B7010E9463
:103CB000BA217B018C0180ED9FEFC80ED91E68AD43
:103CC00079AD8AAD9BADD6012D913D914D915C9121
:103CD0000E94AC239B01AC01C801B7010E94BA212C
:103CE0002696EEADFFAD26976193719381939193E4
:103CF0002696FFAFEEAF269784E390E0C80ED91E5C
:103D00009BE9C91692E0D90609F0B5CF0BE1402E28
:103D100002E0502E10E2212E312C2C0E3D1E6E960C
:103D20006CAD7DAD8EAD9FAD6E97D201D0962D91CD
:103D30003D914D915C91D3970E94AC233B014C0186
:103D4000A2966CAD7DAD8EAD9FADA297F20120A184
:103D500031A142A153A10E94AC235B016C016A9680
:103D60006CAD7DAD8EAD9FAD6A97D20150962D9111
:103D70003D914D915C9153970E94AC237B018C0146
:103D80006CAD7DAD8EAD9FADF20121913191419130
:103D900051912F010E94AC239B01AC01C801B701D6
:103DA0000E94BA219B01AC01C601B5010E94BA2153
:103DB0009B01AC01C401B3010E94BA21D1016D93F2
:103DC0007D938D939D931D01BBE24B16B2E05B0684
:103DD00009F0A5CF688979898A899B8928A139A1A9
:103DE0004AA15BA10E94BA216093600870936108A8
:103DF00080936208909363086C897D898E899F897E
:103E00002CA13DA14EA15FA10E94BA21609364083C
:103E1000709365088093660890936708688D798D24
:103E20008A8D9B8D28A539A54AA55BA50E94BA213C
:103E3000609368087093690880936A0890936B0890
:103E40006C8D7D8D8E8D9F8D2CA53DA54EA55FA57E
:103E50000E94BA2160936C0870936D0880936E087D
:103E600090936F0888E798E06AE778E04CE758E0BD
:103E700020E238E00E945310609178087091790830
:103E8000882777FD8095982F0E94552220913F0327
:103E90003091400340914103509142030E94B92167
:103EA000209133043091340440913504509136040C
:103EB0000E94AC236093700870937108809372081D
:103EC00090937308A6966CAD7DAD8EAD9FADA69711
:103ED00028AD39AD4AAD5BAD0E94AC2320913704CB
:103EE000309138044091390450913A040E94AC2337
:103EF0000E9490227B018C010E947121882309F08D
:103F000037C1C801B7010E944621882309F030C19A
:103F1000C801B70120E030E040E857E40E94AA223F
:103F20009B01AC01CB01DA017C018D01B901CA0111
:103F300020E030E040E050E00E941E22882354F44C
:103F4000C801B70190580E94272200271127061B9D
:103F5000170B05C0C801B7010E9427228B01809171
:103F60003B0490913C04081719074CF0A0905F03A4
:103F7000B0906003C0906103D090620308C0A0902D
:103F80005B03B0905C03C0905D03D0905E03C601FC
:103F9000B50120E030E040E853E40E941E2287FD96
:103FA00002C06FEF10C0C601B50120E030E040E074
:103FB00050E00E94A82387FF02C060E004C0C60151
:103FC000B5010E94272280914F030E942C0B98017B
:103FD00017FF03C0309521953F4FB901882777FD22
:103FE0008095982F0E94552220916303309164039D
:103FF00040916503509166030E94BA217B018C01B8
:1040000090906703809068037090690360906A03E2
:10401000292D382D472D562D0E94A823181694F0CF
:1040200090906B0380906C0370906D0360906E03B2
:10403000C801B701292D382D472D562D0E941E226B
:10404000882334F4892D982DA72DB62D7C018D0160
:10405000C601B50120916F03309170034091710347
:10406000509172030E94AC23A80197010E94B921CC
:104070007B018C01E89417F9C801B70120E030E01A
:1040800040E853E40E941E2287FD02C06FEF04C087
:10409000C801B7010E9427228091530370E00E945B
:1040A0009909CB59DF4F0FB6F894DEBF0FBECDBFD5
:1040B000CF91DF911F910F91FF90EF90DF90CF9004
:1040C000BF90AF909F908F907F906F905F904F9038
:1040D0003F902F9008950F2EF0E0EF2EF0E0FF2E8E
:1040E000F0E00F2FF0E01F2FF02D87CA0F2EF0E029
:1040F000EF2EF0E0FF2EF0E00F2FF0E01F2FF02D5D
:10410000C5CA0F2EF0E0EF2EF0E0FF2EF0E00F2FEB
:10411000F0E01F2FF02D05CB0F2EF0E0EF2EF0E09A
:10412000FF2EF0E00F2FF0E01F2FF02D41CB0F2ED0
:10413000F0E0EF2EF0E0FF2EF0E00F2FF0E01F2F69
:10414000F02D7FCB0F2EF0E0EF2EF0E0FF2EF0E011
:104150000F2FF0E01F2FF02DBBCB0F2EF0E0EF2E36
:10416000F0E0FF2EF0E00F2FF0E01F2FF02DF7CB47
:104170000F2EF0E0EF2EF0E0FF2EF0E00F2FF0E03A
:104180001F2FF02DE7CEAF92BF92CF92DF92EF922A
:10419000FF920F931F93CF93DF930E9437090E94E2
:1041A000B3158DE061E00E94790A8DE060E00E9425
:1041B0002C0B80E090E040E052EC61E070E00E9467
:1041C000AE0B80E090E060E072E04AE150E00E94D7
:1041D0008F0BC0916C04D0916D04AA24BB2465019F
:1041E00024C00E9411097B018C01DC01CB018A19DA
:1041F0009B09AC09BD0988589341A040B040A8F084
:104200000E94B5170E9418160E9411096E197F09A5
:10421000800B910B695873418040904020F08DE0F5
:1042200061E00E942C0B5701680188819981892BDC
:10423000C1F20E94B21580E090E0DF91CF911F9112
:104240000F91FF90EF90DF90CF90BF90AF900895C7
:1042500060E070E080E89FE7089560E070E080E84B
:104260009FE7089560E070E080E89FEF089560E0C8
:1042700070E080E89FEF089560E070E080EC9FEFD1
:10428000089560E070E080EC9FEF0895DF92EF9278
:10429000FF920F931F937B018C0120918408309132
:1042A000850840918608509187080E941E22882325
:1042B00079F0DD24C801B701209194083091950868
:1042C00040919608509197080E941E22882311F46D
:1042D000DD24D3948D2D1F910F91FF90EF90DF90EF
:1042E00008951F939B01AC0110E00E941E228111D2
:1042F00011E0812F1F9108950E943C2160938C084A
:1043000070938D0880938E0890938F080E944121AE
:10431000609380087093810880938208909383084B
:104320000E942821609388087093890880938A08E6
:1043300090938B080E942D216093840870938508C8
:1043400080938608909387080E943221609390089A
:104350007093910880939208909393080E9437215C
:1043600060939408709395088093960890939708AB
:1043700008955058BB27AA270ED099C18AD130F092
:104380008FD120F031F49F3F11F41EF47FC10EF461
:10439000E095E7FB4AC1E92F9BD180F3BA1762078A
:1043A00073078407950718F071F49EF5CAC10EF4DF
:1043B000E0950B2EBA2FA02D0B01B90190010C0135
:1043C000CA01A0011124FF27591B99F0593F50F44D
:1043D000503E68F11A16F040A22F232F342F4427A5
:1043E000585FF3CF469537952795A795F04053959D
:1043F000C9F77EF41F16BA0B620B730B840BBAF06D
:104400009150A1F0FF0FBB1F661F771F881FC2F7D7
:104410000EC0BA0F621F731F841F48F487957795EB
:104420006795B795F7959E3F08F0B3CF9395880FA2
:1044300008F09927EE0F979587950895D2D008F444
:1044400081E0089504D06894B1117CC1089548D1E9
:1044500088F09F5790F0B92F9927B751A0F0D1F06D
:10446000660F771F881F991F1AF0BA95C9F712C0F7
:10447000B13081F066D1B1E0089563C1672F782F24
:104480008827B85F39F0B93FCCF386957795679563
:10449000B395D9F73EF490958095709561957F4FCF
:1044A0008F4F9F4F0895E89409C097FB3EF4909575
:1044B0008095709561957F4F8F4F9F4F9923A9F0FD
:1044C000F92F96E9BB279395F6958795779567958C
:1044D000B795F111F8CFFAF4BB0F11F460FF1BC0D0
:1044E0006F5F7F4F8F4F9F4F16C0882311F096E963
:1044F00011C0772321F09EE8872F762F05C0662311
:1045000071F096E8862F70E060E02AF09A95660FC9
:10451000771F881FDAF7880F9695879597F9089582
:10452000F9D080F09F3740F491110EF00BC160E09C
:1045300070E080E89FEB089526F41B16611D711D45
:10454000811D79C093C0A5D018F011F0A9D038F41E
:104550009DC0F8C0E92FBCD0B0F35523C9F3E7FBE9
:104560006217730784079507A8F199F3E92FFF27CE
:1045700088232AF03197660F771F881FDAF7952F67
:104580005527442332F091505040220F331F441FCF
:10459000D2F7BB27E91BF50B621B730B840BB10928
:1045A000C1F222F4620F731F841FB11D31972AF0EC
:1045B000660F771F881FBB1FEFCF915050405AF0F6
:1045C00041F0882332F0660F771F881F91505040CA
:1045D000C1F793954BC08695779567959F5FD9F7FF
:1045E000F8CF990F0008550FAA0BE0E8FEEF16165A
:1045F0001706E807F907C0F012161306E407F507D7
:1046000098F0621B730B840B950B39F40A2661F04A
:10461000232B242B252B21F408950A2609F4A140ED
:10462000A6958FEF811D811D089597F99F6780E8FA
:1046300070E060E00895882371F4772321F09850AA
:10464000872B762F07C0662311F499270DC0905150
:10465000862B70E060E02AF09A95660F771F881F1E
:10466000DAF7880F9695879597F908959F3F49F057
:10467000915028F4869577956795B7959F5F803818
:104680009F4F880F9695879597F908959FEF80EC37
:10469000089500240A9416161706180609060895A8
:1046A00000240A9412161306140605060895092E0E
:1046B0000394000C11F4882352F0BB0F40F4BF2B7D
:1046C00011F460FF04C06F5F7F4F8F4F9F4F0895BD
:1046D00057FD9058440F551F59F05F3F71F04795B3
:1046E000880F97FB991F61F09F3F79F08795089598
:1046F000121613061406551FF2CF4695F1DF08C0B7
:10470000161617061806991FF1CF869571056105D3
:1047100008940895E5DFA0F0BEE7B91788F4BB2739
:104720009F3860F41616B11D672F782F8827985F81
:10473000F7CF869577956795B11D93959639C8F310
:104740000895E894BB2766277727CB0197F908954A
:1047500048DF08F48FEF08950BD0A9CF9ADF28F037
:104760009FDF18F0952309F060CF90CF1124EACF96
:10477000AFDFA0F3959FD1F3950F50E0551F629FD7
:10478000F001729FBB27F00DB11D639FAA27F00DAA
:10479000B11DAA1F649F6627B00DA11D661F829FD1
:1047A0002227B00DA11D621F739FB00DA11D621FB6
:1047B000839FA00D611D221F749F3327A00D611DD3
:1047C000231F849F600D211D822F762F6A2F1124B5
:1047D0009F5750408AF0E1F088234AF0EE0FFF1F08
:1047E000BB1F661F771F881F91505040A9F79E3F3F
:1047F000510570F01ACFA6CF5F3FECF3983EDCF383
:10480000869577956795B795F795E7959F5FC1F77B
:10481000FE2B880F911D9695879597F90895629FB5
:10482000D001739FF001829FE00DF11D649FE00DA8
:10483000F11D929FF00D839FF00D749FF00D659F09
:10484000F00D9927729FB00DE11DF91F639FB00D08
:10485000E11DF91FBD01CF0111240895A1E21A2E17
:10486000AA1BBB1BFD010DC0AA1FBB1FEE1FFF1F14
:10487000A217B307E407F50720F0A21BB30BE40B64
:10488000F50B661F771F881F991F1A9469F76095AB
:104890007095809590959B01AC01BD01CF01089565
:1048A000EE0FFF1F0590F491E02D1994F894FFCFBF
:1048B0002A2A2A7374617274696E6720746865208D
:1048C0006D6F64656C2A2A2A00E8030000803F00AF
:1048D0000000000000000000000000162C0E3BD776
:1048E000512D3E8BEF4A3CAAAE6840596115B86322
:1048F000731CBC9513803F92BA5F3EE80579385E21
:104900009F8E3CDF599B3B909B6C3F60620C3984CF
:10491000F0203DAE9219BA7A1530BE0000803F00FB
:104920000000000000000000000000000000000087
:1049300000803F0000000000000000527DD63D5680
:10494000EF36C0E4EF8E3D1FE27841AA7F2EBE1005
:1049500049FA406EFA803E6FEEE3C11625673D0CC2
:1049600020CFBDBDAA2D4007F7E1BDFB256E3FC19D
:10497000EEAC3E75A76A3C312ED63AA925663F5D5E
:104980006B043DD5C3F8BB685B6ABE8D0850C20896
:104990005151C2AA87D4C3BB33D23D8CDA933DEECA
:1049A00044D5BD8D08504208515142AA87D44300D6
:1049B00000803F0000000000000000000000000038
:1049C0000000000000803F00000000000000000028
:1049D000000000000000000000803F000000000018
:1049E00000000000000000000000000000803F0008
:1049F00080B5C37CF2B03C0000000000000000065F
:104A000000000008000000000000000000803F00DF
:104A10000000000000204100007F43000000000073
:104A2000007F4335FA0EBC000048430AD7A33B0081
:104A300000000000004843000000800000803F00AC
:104A40000000000000000000000000000000000066
:104A5000000000000000800000803F000000000017
:104A60000000000000000000000000000000000046
:104A70000000800000803F000000000000000000F7
:104A800000000000000000000000000000008000A6
:104A900000803F00000000000000800000803F0018
:104AA0000000000000000000000000000000000006
:104AB0000000800000803F000000000000000000B7
:104AC00000000000000000000000800000803F00A7
:104AD000000000D4947A4139F7FD410C9BDF4198E6
:104AE00015FA40FDB30BB900002AC2000001000115
:104AF000123E130F0101000000001D04E405B30382
:104B0000E403C4030D0400000000A205000000003F
:0E4B1000290E5E0E9E0EA70EBC0ECD0E7E0868
:00000001FF
