:100000003EC100000C946E1E0C94991E0C94C41EEC
:100010000C94EF1E0C941A1F0C94451F0C94701F27
:100020000C949B1F0C943D0D0C94110E0C944E0ED1
:1000300057C100000C94412853C1000051C1000079
:100040004FC100004DC100004BC1000049C100007C
:1000500047C1000045C1000043C100000C94C61F09
:100060003FC100000C9446230C947C2339C100004E
:1000700037C1000035C1000033C1000031C10000AC
:100080002FC100002DC100002BC1000029C10000BC
:100090000C94D2230C94082423C100003BC300001D
:1000A0001FC100001DC100001BC1000019C10000DC
:1000B00017C1000015C1000013C1000011C10000EC
:1000C0000FC100000DC100000C94D1280C945E24D7
:1000D0000C94942405C100000C94EA240C9420256F
:1000E000FFC00000481E121E1A1E261E331E541E7C
:1000F000611ECA20CF20D420DE20E8206121F2201A
:10010000FA2002210C21162120212F2139216121E1
:1001100043214D2157218521882177217B21812170
:10012000BF218C21902196219A219E21A421A821D2
:10013000AC21BF21B221B621BA21084AD73B3BCE20
:10014000016E84BCBFFDC12F3D6C74319ABD5683D6
:100150003DDA3D00C77F11BED9E4BB4C3E916BAA8E
:10016000AABE000000803F0000000A0B02090C0D2F
:100170000E0807030401000000000000000000005A
:10018000000000000000000000000000000000006F
:10019000000000001211100000000000000000002C
:1001A000000000000000000000000000000001024C
:1001B0001020200808102040102040800201020179
:1001C0000804020101020408102040808040201031
:1001D000080402018004020180402010080402018A
:1001E00008040201010204081020408001020408F2
:1001F00010204080050505050705080808080202CB
:1002000002020A0A080804040404010101010101B0
:1002100001010303030303030303040707070C0C93
:100220000C0C0C0C0C0C020202020606060606065A
:1002300006060B0B0B0B0B0B0B0B00002200250013
:1002400028002B002E0031003400020100000501BF
:1002500008010B0100002100240027002A002D00C6
:100260003000330001010000040107010A0102000F
:1002700093027107A5233124BD244925B5251124F6
:100280001FBECFEFD1E2DEBFCDBF00E00CBF14E058
:10029000A0E0B2E0EEE3FAE500E00BBF02C0079099
:1002A0000D92A23BB107D9F72BE0A2EBB4E001C05D
:1002B0001D92A53BB207E1F711E0CFE3D1E000E0EA
:1002C00006C021970109802FFE010E94FA2CC83335
:1002D000D10780E00807A9F70E9441290C941D2D41
:1002E0008FCE8091E20490E02091E304821B91097B
:1002F00008959091E3048091E204981750F4E92F57
:10030000F0E0EC51FB4F208130E09F5F9093E304DD
:1003100002C02FEF3FEFC9010895E091E3048091FF
:10032000E204E81730F4F0E0EC51FB4F808190E0FC
:1003300008958FEF9FEF08950895CF92DF92EF9287
:10034000FF920F931F93CF93DF937C01262F972F5C
:100350008A018091BE04882391F0C62FD72F6E01A9
:10036000C40ED51ECC15DD0569F06991D701ED915C
:10037000FC910190F081E02DC7011995F3CF642F16
:10038000822F90D1C801DF91CF911F910F91FF90E3
:10039000EF90DF90CF900895CF93DF931F92CDB76A
:1003A000DEB769832091BE042223D1F02091BF04DF
:1003B000203240F021E030E0FC013383228380E0F2
:1003C00090E014C08091C004E82FF0E0EF53FB4FA1
:1003D000998190838F5F8093C0048093BF0404C091
:1003E00061E0CE0101965ED181E090E00F90DF9157
:1003F000CF910895FC011382128288EE93E0A0E071
:10040000B0E084839583A683B78388E594E09183E5
:10041000808308951092E3041092E2041092C004C5
:100420001092BF0483C081E08093BE046093E10416
:100430001092C0041092BF0408950F93062F21E07C
:100440004091BF0461EC74E08091E104D5D010923A
:10045000C0041092BF041092BE040F9108954F92F1
:100460005F926F927F92AF92BF92CF92EF92FF9284
:100470000F931F93CF93DF935C01F62ED42F2801A7
:100480003901EE2011F1CFDFCE2DC43008F0C3E0EA
:10049000C150C0F0D501ED91FC91B8E0CB9FC001F7
:1004A0001124A301920104C05695479537952795CD
:1004B0008A95D2F7CA01B9010190F081E02DC501FA
:1004C0001995E6CF60E0C501B8DF4D2FD13208F0B5
:1004D00040E22C2D64EE74E08F2D46D01092E304A0
:1004E0008093E204DF91CF911F910F91FF90EF90E5
:1004F000CF90BF90AF907F906F905F904F90089596
:10050000CF92EF920F931F93C22EE12C00E010E0E8
:100510009801A5DF1F910F91EF90CF90089521E0F2
:10052000EFCF61E08ACF82EB94E064CF1092710547
:1005300081E080936F0510926E0561E084E10E9476
:10054000FC2161E085E10E94FC21E9EBF0E0808183
:100550008E7F808380818D7F808388E48093B80044
:1005600085E48093BC000895413208F043C0909127
:1005700071059111FCCF91E09093710520936F0567
:100580002FEF2093040510924905240F209348056E
:100590009093700590917005880F892B809370055A
:1005A00080916E05813061F410926E058091700526
:1005B0008093BB008091BC0083FDF8CF85EC01C027
:1005C00085EE8093BC00809171058130E1F38091CC
:1005D0004905841710F4409149052AE435E0FB01F0
:1005E000D9018A2F821B841718F48D918193F9CF3A
:1005F000842F089580E008950F93413208F04AC097
:10060000909171059111FCCF32E030937105009308
:100610006F053FEF3093040510924905409348055C
:10062000FB016AE475E0DB013A2F361B341718F43E
:1006300031913D93F9CF1092700530917005880F7C
:10064000832B8093700580916E05813061F4109248
:100650006E05809170058093BB008091BC0083FD86
:10066000F8CF85EC01C085EE8093BC00222321F0F9
:10067000809171058230D1F3809104058F3F79F02C
:1006800080910405803241F080910405803331F07F
:1006900094E005C091E003C092E001C093E0892F8F
:1006A0000F91089540912605262F30E0240F311D2B
:1006B00021323105DCF4209171052430C9F4FC01AC
:1006C00080E090E0861758F4309126052191DC01F6
:1006D000A85DBA4FA30FB11D2C930196F3CF809163
:1006E0002605680F6093260580E0089581E008954F
:1006F00082E0089585ED8093BC008091BC0084FD6C
:10070000FCCF10927105089585EC8093BC00109287
:10071000710508951F920F920FB60F9211240BB618
:100720000F922F933F934F935F936F937F938F938A
:100730009F93AF93BF93EF93FF938091B900887F0E
:10074000803609F49DC070F5883209F45CC090F4DD
:10075000803109F455C038F4882309F4F3C0883097
:1007600009F44EC0F2C0883109F44DC0803209F45A
:100770005EC0EBC0803409F469C050F4803309F4E2
:1007800056C0883309F0E1C080930405BDDFDDC0A9
:10079000803509F44FC0883509F45DC0883409F00C
:1007A000D4C0D2C0883909F4C3C0A8F4883709F48A
:1007B00067C038F4883609F463C0803709F460C034
:1007C000C4C0883809F4B4C0803909F45FC08038E7
:1007D00009F0BBC05BC0803B09F482C038F4803AAA
:1007E00009F466C0883A09F47BC0AFC0803C09F4C4
:1007F000A3C0883C09F4A0C0883B09F486C0A5C00A
:100800008091700510C09091490580914805981716
:1008100070F5E091490581E08E0F80934905F0E085
:10082000E65BFA4F80818093BB0085EC82C08093A9
:1008300004058AC0E091490581E08E0F8093490547
:100840008091BB00F0E0E65BFA4F80839091490510
:10085000809148056AC0E091490581E08E0F809340
:1008600049058091BB00F0E0E65BFA4F8083809100
:100870006F05811169C081E080936E0584EA5DC0D7
:1008800083E08093710510920505CFCF8091050517
:10089000803208F04DC0E091050581E08E0F809315
:1008A00005058091BB00F0E0EA5FFA4F8083BDCF81
:1008B0002BDF80910505803230F4E0910505F0E0F2
:1008C000EA5FFA4F10826091050570E0E0916A05D9
:1008D000F0916B0586E095E019951092050535C0FD
:1008E00084E0809371051092270510922605E0910F
:1008F0006C05F0916D05199580912605811105C053
:1009000081E08093260510922805E091270581E07B
:100910008E0F80932705F0E0E85DFA4F8081809389
:10092000BB009091270580912605981708F47DCF8C
:1009300085E88093BC0009C085EC8093BC001092D0
:10094000710503C010920405D5DEFF91EF91BF91B0
:10095000AF919F918F917F916F915F914F913F9157
:100960002F910F900BBE0F900FBE0F901F901895F8
:10097000EF92FF920F931F93CF93DF931F921F92DB
:10098000CDB7DEB7062F142F682F82EB94E02983B2
:100990003A8349DD602F82EB94E0FEDC2981022F4F
:1009A000E22E3A81F32E8E2D801B811738F4F70149
:1009B00061917F0182EB94E0EFDCF5CF82EB94E074
:1009C000B0DD91E0811190E0892F0F900F90DF91C1
:1009D000CF911F910F91FF90EF900895CF93DF93E8
:1009E0001F92CDB7DEB749839E012F5F3F4F41E095
:1009F000BFDF0F90DF91CF9108952F923F924F92DA
:100A00005F926F927F928F929F92AF92BF92CF929E
:100A1000DF92EF92FF920F931F93CF93DF9300D05B
:100A20001F921F92CDB7DEB7F82EE62E242E690155
:100A30000E9410204B015C01312C1D82822D90E020
:100A40009C838B832801612C712C321408F04DC0DB
:100A50006F2D82EB94E0E7DC6E2D82EB94E09CDC62
:100A600082EB94E05EDD6F2D82EB94E0DCDC4B8169
:100A70005C81431951094132510514F040E250E0C4
:100A80006F2D82EB94E04BDD82EB94E02ADC892B26
:100A900011F10115110591F4F6012D81E20FF11DFF
:100AA00027FDFA95FA83E98382EB94E022DCE98161
:100AB000FA8180832D812F5F2D83E6CF0E94102045
:100AC000DC01CB0188199909AA09BB098415950590
:100AD000A605B70508F382EB94E023DD822D40E202
:100AE000421508F480E2380EB0CF01151105D1F09F
:100AF0000E941020DC01CB0188199909AA09BB09C1
:100B000020E030E080179107A207B30758F0822D4C
:100B100090E0ED812E2FEE0F330B2817390714F4D8
:100B20002FEF2D838D810F900F900F900F900F90CE
:100B3000DF91CF911F910F91FF90EF90DF90CF90B9
:100B4000BF90AF909F908F907F906F905F904F90ED
:100B50003F902F9008950F931F9389019A0141E0D0
:100B60004CDF1F910F910895EF92FF920F931F9307
:100B7000CF93DF931F92CDB7DEB7182F062FF42E39
:100B8000E22E20910A0230910B02AE014F5F5F4FBF
:100B9000E2DF9981EE2041F041E050E001C0440FD6
:100BA000FA94EAF7492B09C021E030E0A90101C01D
:100BB000440FFA94EAF7409549234983602F812F27
:100BC0000DDF0F90DF91CF911F910F91FF90EF906C
:100BD0000895DF92EF92FF920F931F93CF93DF93CD
:100BE0001F92CDB7DEB7182FF62EE42ED22E20910D
:100BF0000A0230910B02AE014F5F5F4FACDF8823DA
:100C000019F1EE2DF0E0ED19F109319621E030E017
:100C100002C0220F331FDA94E2F7215031090E2E61
:100C200001C0220F0A94EAF7802F01C0880FEA95CD
:100C3000EAF7422F4095998149232823422B498383
:100C40006F2D812FCBDE01C080E00F90DF91CF911F
:100C50001F910F91FF90EF90DF90089528E6FC011F
:100C6000208308950F93062F23E042E06AE1FC0100
:100C70008081AFDF0F9108950F93062F22E044E0AB
:100C80006BE1FC018081A5DF0F9108950F93062F82
:100C900022E044E06CE1FC0180819BDF0F9108952C
:100CA0000F931F93CF93DF93EC0100910A021091F1
:100CB0000B029C012F5F3F4F42E06BE388819DDE7A
:100CC000298130E0322F22278A81A901482BCA01CD
:100CD000DF91CF911F910F9108950F931F93CF93A1
:100CE000DF93EC0100910A0210910B029C012F5F2F
:100CF0003F4F42E06DE3888180DE298130E0322F72
:100D000022278A81A901482BCA01DF91CF911F9127
:100D10000F9108950F931F93CF93DF93EC010091F0
:100D20000A0210910B029C012F5F3F4F42E06FE3DC
:100D3000888163DE298130E0322F22278A81A90150
:100D4000482BCA01DF91CF911F910F9108950F9306
:100D50001F93CF93DF93EC0100910A0210910B02D5
:100D60009C012F5F3F4F42E063E4888146DE29818A
:100D700030E0322F22278A81A901482BCA01DF9156
:100D8000CF911F910F9108950F931F93CF93DF93EE
:100D9000EC0100910A0210910B029C012F5F3F4F62
:100DA00042E065E4888129DE298130E0322F222764
:100DB0008A81A901482BCA01DF91CF911F910F9120
:100DC00008950F931F93CF93DF93EC0100910A02D4
:100DD00010910B029C012F5F3F4F42E067E4888136
:100DE0000CDE298130E0322F22278A81A901482B8D
:100DF000CA01DF91CF911F910F910895262F46E0F0
:100E00006BE6FC018081B0CE0F93062F23E042E019
:100E10006BE6FC018081DDDE0F910895CF93DF93B7
:100E2000EC0161E0F1DF60E0CE0126DF60E0CE01A1
:100E30002DDF60E0CE01DF91CF91E0CF82EB94E037
:100E4000E9DA82E795E0EADF20E045E06AE688E655
:100E50008BDE21E041E067E388E686DE20E046E0C5
:100E60006BE688E681CECF93DF93EC0182E795E0D5
:100E700017DF9983888382E795E02FDF9B838A833E
:100E800082E795E047DF9D838C83DF91CF910895C2
:100E9000CF93DF931F92CDB7DEB7682F82EB94E03C
:100EA0006983B8DA698182E795E0DCDE82E795E064
:100EB0000F90DF91CF91B2CFCF93DF93EC0182E718
:100EC00095E045DF9983888382E795E05DDF9B832A
:100ED0008A8382E795E075DF9D838C83DF91CF91D4
:100EE000089582E795E0BACE6F927F928F929F929B
:100EF000AF92BF92CF92DF92EF92FF920F931F9328
:100F0000CF93DF931F92CDB7DEB7B62ED72E3A011F
:100F1000F02E3E2DB401E22FF0E0E830F10511F49F
:100F2000E4E0F0E0CC2049F091E0C91649F092E00D
:100F3000C91649F002E010E008C00AE010E005C060
:100F400000E110E002C008E010E0813009F4FDC0CB
:100F500038F0823009F412C2833009F428C34FC438
:100F6000F1100CC0E69DA001E79D500DF69D500DBF
:100F700011246B2D7D2D80ED95E026C380ED95E04D
:100F800039830E940026398131111DC08B2C9D2C84
:100F9000680C791C8614970409F431C4E1E0A801B7
:100FA000FE1207C0F401608180ED95E00E94D0261A
:100FB00006C0F401608180ED95E00E94D626FFEF27
:100FC0008F1A9F0AE7CF3130E9F48B2C9D2C6114E6
:100FD000710409F414C481E0F40160817181A801F5
:100FE000F81205C080ED95E00E94EB2604C080ED6C
:100FF00095E00E94F026F1E06F1A710882E0880EF9
:10100000911CE5CF3230F9F48B2C9D2C61147104C6
:1010100009F4F5C391E0F40140815181628173814B
:101020009801F91205C080ED95E00E94C42604C025
:1010300080ED95E00E940427F1E06F1A710884E0CA
:10104000880E911CE3CF3330F1F48B2C9D2C680C6F
:10105000791C8614970409F4D2C391E0F4016081ED
:10106000062E000C770BA801F91205C080ED95E063
:101070000E94992604C080ED95E00E949F26FFEF14
:101080008F1A9F0AE6CF3430E9F48B2C9D2C611423
:10109000710409F4B4C381E0F40160817181A80195
:1010A000F81205C080ED95E00E94992604C080EDFD
:1010B00095E00E949F26F1E06F1A710882E0880E89
:1010C000911CE5CF3530F9F48B2C9D2C6114710403
:1010D00009F495C391E0F4014081518162817381EB
:1010E0009801F91205C080ED95E00E94522604C0D7
:1010F00080ED95E00E94B426F1E06F1A710884E05B
:10110000880E911CE3CF363009F079C30B2D1D2DCD
:10111000B12C6114710409F472C391E0F8014081AB
:101120005181628173819501F91205C080ED95E0CE
:101130000E94E22704C080ED95E00E94E327F1E0E1
:101140006F1A71080C5F1F4FE4CFF1100CC0E69DC1
:10115000A001E79D500DF69D500D11246B2D7D2DA6
:101160008DE696E031C28DE696E039830E94002636
:10117000398131111BC08B2C9D2C680C791C861475
:10118000970409F43CC381E0A801F4016081F812DE
:1011900005C08DE696E00E94D02604C08DE696E05C
:1011A0000E94D626FFEF8F1A9F0AE9CF3130E9F46B
:1011B0008B2C9D2C6114710409F421C381E0F4018E
:1011C00060817181A801F81205C08DE696E00E9449
:1011D000EB2604C08DE696E00E94F026F1E06F1A3F
:1011E000710882E0880E911CE5CF3230F9F48B2C27
:1011F0009D2C6114710409F402C391E0F401408153
:101200005181628173819801F91205C08DE696E0E3
:101210000E94C42604C08DE696E00E940427F1E0F7
:101220006F1A710884E0880E911CE3CF3330F1F41B
:101230008B2C9D2C680C791C8614970409F4DFC252
:1012400091E0F4016081062E000C770BA801F912E1
:1012500005C08DE696E00E94992604C08DE696E0D2
:101260000E949F26FFEF8F1A9F0AE6CF3430E9F4E1
:101270008B2C9D2C6114710409F4C1C281E0F4012E
:1012800060817181A801F81205C08DE696E00E9488
:10129000992604C08DE696E00E949F26F1E06F1A21
:1012A000710882E0880E911CE5CF3530F9F48B2C63
:1012B0009D2C6114710409F4A2C291E0F4014081F3
:1012C0005181628173819801F91205C08DE696E023
:1012D0000E94522604C08DE696E00E94B426F1E0FA
:1012E0006F1A710884E0880E911CE3CF363009F044
:1012F00086C28B2C9D2CB12C6114710409F47FC221
:1013000091E0F401F9121AC0C1100AC04081518164
:101310006281738195018DE696E00E94E22727C0E5
:1013200060817181828193810E94BA2AAB01BC01E4
:1013300098018DE696E00E94522619C0C1100AC09D
:10134000408151816281738195018DE696E00E9412
:10135000E3270DC060817181828193810E94BA2A46
:10136000AB01BC0198018DE696E00E94B426F1E045
:101370006F1A710884E0880E911CBECFF1100CC06A
:10138000E69DA001E79D500DF69D500D11246B2D9B
:101390007D2D8AE097E018C18AE097E039830E94AA
:1013A0000026398131111BC08B2C9D2C680C791CB7
:1013B0008614970409F423C291E0A801F401608126
:1013C000F91205C08AE097E00E94D02604C08AE0A6
:1013D00097E00E94D626FFEF8F1A9F0AE9CF31309F
:1013E000E9F48B2C9D2C6114710409F408C281E08E
:1013F000F40160817181A801F81205C08AE097E0CC
:101400000E94EB2604C08AE097E00E94F026F1E0FB
:101410006F1A710882E0880E911CE5CF3230F9F422
:101420008B2C9D2C6114710409F4E9C191E0F40145
:1014300040815181628173819801F91205C08AE06F
:1014400097E00E94C42604C08AE097E00E94042727
:10145000F1E06F1A710884E0880E911CE3CF3330FD
:10146000F1F48B2C9D2C680C791C8614970409F4DC
:10147000C6C191E0F4016081062E000C770BA80133
:10148000F91205C08AE097E00E94992604C08AE01C
:1014900097E00E949F26FFEF8F1A9F0AE6CF343015
:1014A000E9F48B2C9D2C6114710409F4A8C181E02E
:1014B000F40160817181A801F81205C08AE097E00B
:1014C0000E94992604C08AE097E00E949F26F1E0DE
:1014D0006F1A710882E0880E911CE5CF3530F9F45F
:1014E0008B2C9D2C6114710409F489C191E0F401E5
:1014F00040815181628173819801F91205C08AE0AF
:1015000097E00E94522604C08AE097E00E94B42629
:10151000F1E06F1A710884E0880E911CE3CF363039
:1015200009F06DC18B2C9D2CB12C6114710409F450
:1015300066C191E0F401F9121AC0C1100AC04081DD
:1015400051816281738195018AE097E00E94E227D0
:1015500027C060817181828193810E94BA2AAB0188
:10156000BC0198018AE097E00E94522619C0C11080
:101570000AC0408151816281738195018AE097E0C0
:101580000E94E3270DC060817181828193810E9456
:10159000BA2AAB01BC0198018AE097E00E94B42608
:1015A000F1E06F1A710884E0880E911CBECFF11033
:1015B0001CC0E69DA001E79D500DF69D500D112425
:1015C0006B2D7D2D87EA97E00F90DF91CF911F91D2
:1015D0000F91FF90EF90DF90CF90BF90AF909F90D2
:1015E0008F907F906F900C94C02587EA97E03983A5
:1015F0000E940026398131111BC08B2C9D2C680C58
:10160000791C8614970409F4FAC091E0A801F4014A
:101610006081F91205C087EA97E00E94D02604C0D5
:1016200087EA97E00E94D626FFEF8F1A9F0AE9CF3C
:101630003130E9F48B2C9D2C6114710409F4DFC066
:1016400081E0F40160817181A801F81205C087EA88
:1016500097E00E94EB2604C087EA97E00E94F026FC
:10166000F1E06F1A710882E0880E911CE5CF3230EC
:10167000F9F48B2C9D2C6114710409F4C0C091E025
:10168000F40140815181628173819801F91205C092
:1016900087EA97E00E94C42604C087EA97E00E9488
:1016A0000427F1E06F1A710884E0880E911CE3CFE3
:1016B0003330F1F48B2C9D2C680C791C8614970424
:1016C00009F49DC091E0F4016081062E000C770BB7
:1016D000A801F91205C087EA97E00E94992604C084
:1016E00087EA97E00E949F26FFEF8F1A9F0AE6CFB6
:1016F0003430E9F48B2C9D2C6114710409F47FC003
:1017000081E0F40160817181A801F81205C087EAC7
:1017100097E00E94992604C087EA97E00E949F26DE
:10172000F1E06F1A710882E0880E911CE5CF353028
:10173000F9F48B2C9D2C6114710409F460C091E0C4
:10174000F40140815181628173819801F91205C0D1
:1017500087EA97E00E94522604C087EA97E00E9439
:10176000B426F1E06F1A710884E0880E911CE3CF73
:10177000363009F044C08B2C9D2CB12C61147104BF
:10178000F1F191E0F401F9121AC0C1100AC04081D0
:10179000518162817381950187EA97E00E94E22777
:1017A00027C060817181828193810E94BA2AAB0136
:1017B000BC01980187EA97E00E94522619C0C11027
:1017C0000AC04081518162817381950187EA97E067
:1017D0000E94E3270DC060817181828193810E9404
:1017E000BA2AAB01BC01980187EA97E00E94B426AF
:1017F000F1E06F1A710884E0880E911CBFCF0F9042
:10180000DF91CF911F910F91FF90EF90DF90CF90DC
:10181000BF90AF909F908F907F906F900895CF92E0
:10182000DF92EF92FF926B017C0186E3C816D10430
:10183000E104F10428F486E3C80ED11CE11CF11C7C
:1018400060E08C2D0E94C021C601FF90EF90DF90D8
:10185000CF9008950895CF93DF93EB010E947E20EF
:1018600099838883DF91CF91089508959CB195FB6A
:10187000882780F994FF03C081110FC002C088231C
:1018800061F08091850590918605A0918705B091C2
:1018900088050196A11DB11D0BC080918505909111
:1018A0008605A0918705B09188050197A109B10926
:1018B0008093850590938605A0938705B09388054E
:1018C00008959CB194FB882780F995FF03C0882375
:1018D00079F002C081110CC0809185059091860538
:1018E000A0918705B09188050196A11DB11D0BC07F
:1018F0008091850590918605A0918705B091880516
:101900000197A109B1098093850590938605A0935D
:101910008705B0938805089599B193FB882780F9CE
:1019200092FF03C081110FC002C0882361F0809133
:10193000930590919405A0919505B0919605019617
:10194000A11DB11D0BC08091930590919405A091AC
:101950009505B09196050197A109B109809393056A
:1019600090939405A0939505B0939605089599B129
:1019700092FB882780F993FF03C0882379F002C087
:1019800081110CC08091930590919405A0919505CB
:10199000B09196050196A11DB11D0BC080919305D4
:1019A00090919405A0919505B09196050197A10994
:1019B000B1098093930590939405A0939505B093F6
:1019C000960508952CB1822F807890E0880F892F9A
:1019D000881F990B26FF03C0892B79F402C0019759
:1019E00061F48091A1059091A205A091A305B09109
:1019F000A4050196A11DB11D0BC08091A105909178
:101A0000A205A091A305B091A4050197A109B10970
:101A10008093A1059093A205A093A305B093A4057C
:101A200008952CB126FB882780F990E027FF03C09A
:101A3000019779F402C0892B61F48091A1059091FE
:101A4000A205A091A305B091A4050196A11DB11D09
:101A50000BC08091A1059091A205A091A305B09122
:101A6000A4050197A109B1098093A1059093A2054E
:101A7000A093A305B093A40508951F920F920FB6EB
:101A80000F9211242F933F934F935F936F937F9304
:101A90008F939F93AF93BF9383B185FB992790F961
:101AA000292F30E086FB882780F94091C5055091A9
:101AB000C6052417350779F5482F50E05093C40523
:101AC0004093C305882359F0232B61F04091BD0555
:101AD0005091BE056091BF057091C00566C0213070
:101AE000310561F48091BD059091BE05A091BF05BF
:101AF000B091C0050196A11DB11D35C04091BD0535
:101B00005091BE056091BF057091C00541505109CB
:101B1000610971093FC03093C6052093C505213086
:101B2000310551F58823A1F08091BD059091BE0546
:101B3000A091BF05B091C0050196A11DB11D809374
:101B4000BD059093BE05A093BF05B093C00547C0E7
:101B50008091BD059091BE05A091BF05B091C005D3
:101B60000197A109B1098093BD059093BE05A0938B
:101B7000BF05B093C00527C04091BD055091BE057B
:101B80006091BF057091C00581110FC04F5F5F4F1D
:101B90006F4F7F4F4093BD055093BE056093BF05C7
:101BA0007093C0059923D9F00EC0415051096109C5
:101BB00071094093BD055093BE056093BF057093B6
:101BC000C00591110CC08091BD059091BE05A091FA
:101BD000BF05B091C0050196A11DB11D0BC080913C
:101BE000BD059091BE05A091BF05B091C0050197BC
:101BF000A109B1098093BD059093BE05A093BF05CF
:101C0000B093C005BF91AF919F918F917F916F91DC
:101C10005F914F913F912F910F900FBE0F901F90AA
:101C200018951F920F920FB60F9211248F939F93C6
:101C3000AF93BF938091060181709091030190FF53
:101C400003C081110FC002C0813061F48091AF05E3
:101C50009091B005A091B105B091B2050196A11D7A
:101C6000B11D0BC08091AF059091B005A091B10559
:101C7000B091B2050197A109B1098093AF05909386
:101C8000B005A093B105B093B205BF91AF919F91FC
:101C90008F910F900FBE0F901F9018951F920F926B
:101CA0000FB60F9211248F939F93AF93BF938091A0
:101CB000030181709091060190FF03C0813079F497
:101CC00002C081110CC08091AF059091B005A09128
:101CD000B105B091B2050196A11DB11D0BC0809157
:101CE000AF059091B005A091B105B091B2050197F3
:101CF000A109B1098093AF059093B005A093B105F8
:101D0000B093B205BF91AF919F918F910F900FBE8D
:101D10000F901F9018950F931F93CF93DF938C0113
:101D20008EE0809FE001819FD00D1124CF57DA4FC4
:101D3000798368835B834A838881998160E00E940C
:101D4000C0218A819B8160E00E94C02188819981A5
:101D500061E00E94FC218A819B8161E00E94FC215C
:101D60000230110509F47FC044F401151105E9F0B2
:101D70000130110509F448C0BEC00330110509F453
:101D8000A6C00430110509F0B6C0809168008160DA
:101D90008093680080916B00806280936B008091DB
:101DA0006B00806480936B00A6C080918105909148
:101DB000820502978431910540F4FC01EC59FB4FF8
:101DC0008081082E000C990B02C08FEF9FEF41E03D
:101DD00050E066E37CE00E94FA1D809183059091BB
:101DE000840502978431910540F4FC01EC59FB4FC6
:101DF0008081082E000C990B02C08FEF9FEF41E00D
:101E000050E061E67CE05DC080918F059091900587
:101E100002978431910540F4FC01EC59FB4F80811D
:101E2000082E000C990B02C08FEF9FEF41E050E0AD
:101E30006CE87CE00E94FA1D8091910590919205DA
:101E400002978431910540F4FC01EC59FB4F8081ED
:101E5000082E000C990B02C08FEF9FEF41E050E07D
:101E600067EB7CE02EC080919D0590919E050297C6
:101E70008431910540F4FC01EC59FB4F8081082E20
:101E8000000C990B02C08FEF9FEF41E050E062EE33
:101E90007CE00E94FA1D80919F059091A005029719
:101EA0008431910540F4FC01EC59FB4F8081082EF0
:101EB000000C990B02C08FEF9FEF41E050E061E111
:101EC0007DE0DF91CF911F910F910C94FA1D8091CD
:101ED00068008460809368008091680082608093CD
:101EE000680080916D00816080936D0080916C002E
:101EF000826080936C00DF91CF911F910F910895C4
:101F00002EE0269FF001279FF00D1124EF57FA4F86
:101F1000648175818681978108951F93CF93DF93A4
:101F20001F92CDB7DEB7162F61E0812F79830E9413
:101F3000C021812F7981972F0F90DF91CF911F9131
:101F400008950895CF93C82FCB01BA010E94BA2AF1
:101F50008C2FCF910C94A320833009F467C028F410
:101F6000813051F0823099F1CBC0843009F472C0D5
:101F7000853009F49AC0C4C06330B1F028F46130F0
:101F800049F0623061F008956530C1F090F066303C
:101F9000D1F0089580918100887F81602AC080916E
:101FA000B100887F81602CC080919100887F816022
:101FB000C3C08091A100887F8160C5C0809121014C
:101FC000887F8160C7C085B5887F8160C9C0633064
:101FD000D1F028F4613049F0623071F00895653035
:101FE000E1F0B0F06630F1F0089580918100887FD3
:101FF00082608093810008958091B100887F826023
:102000008093B100089580919100887F826094C090
:102010008091A100887F826096C080912101887F95
:10202000826098C085B5887F82609AC0633009F469
:102030007FC038F4613009F471C0623009F473C0B4
:102040000895653009F482C008F479C0663009F457
:1020500084C008956330B1F028F4613049F06230F3
:1020600061F008956530C1F090F06630D1F00895C8
:1020700080918100887F8460BCCF8091B100887F8F
:102080008460BECF80919100887F846055C080912C
:10209000A100887F846057C080912101887F84607F
:1020A00059C085B5887F84605BC06330B1F028F487
:1020B000613049F0623061F008956530C1F090F010
:1020C0006630D1F0089580918100887F856091CF3E
:1020D0008091B100887F856093CF80919100887F47
:1020E00085602AC08091A100887F85602CC0809186
:1020F0002101887F85602EC085B5887F856030C0CE
:102100006330B1F028F4613049F0623061F0089535
:102110006530E1F0A0F0663001F108958091810012
:10212000887F836066CF8091B100887F836068CFAD
:1021300080919100887F83608093910008958091C1
:10214000A100887F83608093A10008958091210180
:10215000887F836080932101089585B5887F83609F
:1021600085BD0895FC01118212821382148222E33C
:10217000268393E3978384E3808785E3818786E3DF
:10218000828787E3838788E3848789E3858781E380
:10219000868730E33787808B818B828B238B848B80
:1021A000958B1082CF0108958F929F92AF92BF922C
:1021B000CF92DF92EF92FF920F931F93CF93DF9313
:1021C00000D01F92CDB7DEB76B017C0149015A01E7
:1021D0000E94DE1D882349F060919D0B70919E0B3B
:1021E00080919F0B9091A00B83C0C501B4010E9408
:1021F000DE1D8111F1CFC701B6010E94B51D8823F4
:10220000C9F1C501B4010E94B51D882399F120E0F0
:1022100030E0A901C701B6010E94632C18161CF01A
:102220000FEF1FEF02C001E010E020E030E0A90155
:10223000C501B4010E94632C18161CF06FEF7FEFEC
:1022400002C061E070E0072E000C880B990B0E9421
:10225000ED2A9B01AC01B801110F880B990B298362
:102260003A834B835C830E94ED2A29813A814B811A
:102270005C8123C020E030E0A901C501B4010E94C7
:102280004E2A811116C020E030E0A901C701B60135
:102290000E94632C18161CF120E030E0A901C70150
:1022A000B6010E944E2A87FD1FC060E070E0CB019E
:1022B0001FC0A5019401C701B6010F900F900F90A8
:1022C0000F90DF91CF911F910F91FF90EF90DF90D2
:1022D000CF90BF90AF909F908F900C94FB296BEDA7
:1022E0007FE089EC9FE304C06BED7FE089EC9FEB1E
:1022F0000F900F900F900F90DF91CF911F910F9142
:10230000FF90EF90DF90CF90BF90AF909F908F9015
:1023100008952F923F924F925F926F927F928F9289
:102320009F92AF92BF92CF92DF92EF92FF920F9364
:102330001F93CF93DF93CDB7DEB76E970FB6F894A8
:10234000DEBF0FBECDBFCE0101960E945C07698142
:102350007A81072E000C880B990B0E94ED2A6B01E5
:102360007C016093F60A7093F70A8093F80A9093C1
:10237000F90AE091930BF091940B11E020910C027B
:1023800030910D0240910E0250910F0260817181D7
:10239000828193810E94632C18160CF010E0109338
:1023A000FE0A8091E40A11119EC0811103C081E0F0
:1023B0008093E40A209198023091990240919A0208
:1023C00050919B02C701B6010E946E2C6B017C01EB
:1023D0002091D10A3091D20A4091D30A5091D40A67
:1023E0002A8F3B8F4C8F5D8F0CE912E049015A0117
:1023F000412C512C32014394F3E68F169104A10431
:10240000B10434F5F401EE0FFF1FEE0FFF1FD801EA
:102410006D917D918D919D918D01EF5CF64F2081A5
:102420003181428153810E946E2C9B01AC01C70116
:10243000B6010E9488296B017C01BFEF4B1A5B0A31
:102440006B0A7B0AEFEF8E1A9E0AAE0ABE0AD4CF41
:10245000440C551C440C551C80E090E0812C912CC0
:1024600054018C010C5F1F4F2A8D3B8D4C8D5D8D6F
:1024700082169306A406B5060CF5F801E40DF51DC9
:10248000DC01AF5CB64FEC56FD4F208131814281BB
:1024900053816D917D918D919C910E946E2C9B0139
:1024A000AC01C701B6010E9488296B017C012FEFA6
:1024B000821A920AA20AB20AC801D3CFA7019601D2
:1024C000609128047091290480912A0490912B0432
:1024D0000E946E2C6093FA0A7093FB0A8093FC0AA8
:1024E0009093FD0A03C081111092E40ACE01019677
:1024F0000E9433079091FE0A9093FF0A8091E50AAB
:10250000992331F0811107C081E08093E50A03C06F
:1025100081111092E50A8091E50A882309F423C607
:102520008090BD0A9090BE0AA090BF0AB090C00AE9
:102530002091FA0A3091FB0A4091FC0A5091FD0A61
:102540006091F60A7091F70A8091F80A9091F90A61
:102550000E94872920915C0230915D0240915E02C9
:1025600050915F020E946E2C6A877B878C879D87C3
:1025700060E070E0CB01C4DC0E94ED2A2091600293
:102580003091610240916202509163020E946E2C70
:102590006B017C019B01AC01C501B4010E9488293B
:1025A0006E877F87888B998B2091640230916502BA
:1025B0004091660250916702C701B6010E946E2CDD
:1025C0006A8B7B8B8C8B9D8BC0903802D0903902AC
:1025D000E0903A02F0903B02A70196016091A508B5
:1025E0007091A6088091A7089091A8080E944E2A91
:1025F000882341F0C092A508D092A608E092A708CF
:10260000F092A8088091A3089091A4082ED943E0E5
:1026100050E0BE01695F7F4F8091A3089091A408AC
:102620001AD920913E0430913F04AB81BC81E090E7
:102630003C04F0903D040D811E810E94022D0E94F9
:10264000ED2A20E030E040E058E30E946E2C20911B
:1026500048023091490240914A0250914B020E9437
:1026600087292B013C019701D8010E94022D0E946D
:10267000ED2A20E030E040E058E30E946E2C2091EB
:1026800044023091450240914602509147020E9417
:102690008729A301920188DD2B013C0120913002A2
:1026A0003091310240913202509133026A857B852C
:1026B0008C859D850E946E2C2091C90A3091CA0A92
:1026C0004091CB0A5091CC0A0E9488292091800227
:1026D0003091810240918202509183020E946E2CBF
:1026E0006B017C0120917402309175024091760259
:1026F00050917702C301B2010E948829209178028B
:102700003091790240917A0250917B020E946E2CA6
:102710009B01AC01C701B6010E9488296E8B7F8B9B
:10272000888F998F2091C10A3091C20A4091C30AC3
:102730005091C40A6A897B898C899D890E94872966
:102740002A853B854C855D850E948829209124023D
:102750003091250240912602509127020E946E2C52
:102760006B017C01209120023091210240912202D4
:10277000509123026E857F85888999890E946E2CED
:102780009B01AC01C701B6010E9488296B017C0145
:10279000209128023091290240912A0250912B0267
:1027A000C501B4010E946E2C9B01AC01C701B601AA
:1027B0000E9488296B017C0120912C0230912D020E
:1027C00040912E0250912F026A857B858C859D85D4
:1027D0000E946E2C9B01AC01C701B6010E948829A2
:1027E0006B017C016F81788580E090E00E94EB2A8C
:1027F00020E030EC4FE754E40E94522A9B01AC01E8
:102800000E9488299B01AC01C701B6010E946E2C71
:102810006B017C012091C50A3091C60A4091C70A1C
:102820005091C80A60917002709171028091720299
:10283000909173020E946E2C9B01AC01C701B601FE
:102840000E9488292B013C016E897F89888D998D92
:102850009F7720E030E040E45FE30E944E2A87FD4E
:1028600004C020E030E0A90104C020E030E040E8EE
:102870005FE3C090CD0AD090CE0AE090CF0AF090EE
:10288000D00AC301B2010E946E2C209184023091C3
:10289000850240918602509187020E946E2C2B0186
:1028A0003C01209114023091150240911602509182
:1028B0001702C701B6010E946E2C9B01AC01C30137
:1028C000B2010E948729209110023091110240919B
:1028D0001202509113020E94522A6093D50A7093FB
:1028E000D60A8093D70A9093D80A20911802309183
:1028F000190240911A0250911B020E946E2C2B016A
:102900003C0120911C0230911D0240911E02509109
:102910001F02C701B6010E946E2C9B01AC01C301CE
:10292000B2010E9488292B013C0120918C02309138
:102930008D0240918E0250918F020E946E2C0E9457
:10294000282B6B017C010E94DE1D811123C0C70171
:10295000B6010E94B51D81111DC020E030E040E8A5
:1029600057E4C701B6010E94422B6B017C011B0199
:10297000870120E030E0A9010E944E2A87FF0EC0A7
:10298000C701B60190580E94BF2A00271127061BD5
:10299000170B09C0212C312C00E010E0B101C80157
:1029A0000E94BF2A8B01C80117FF04C088279927FE
:1029B000801B910B60912C0470912D04681779078E
:1029C0004CF020912E0430912F04BC018217930704
:1029D0000CF4B901C0904C02D0904D02E0904E0230
:1029E000F0904F02072E000C880B990B0E94ED2AE5
:1029F0009B01AC01C701B6010E948729DC01CB0114
:102A0000BF778093EE0A9093EF0AA093F00AB093F9
:102A1000F10A2091300430913104021713074CF071
:102A20008093F20A9093F30AA093F40AB093F50A04
:102A300008C0C092F20AD092F30AE092F40AF0922F
:102A4000F50A6091F20A7091F30A8091F40A90916C
:102A5000F50A0E94282B6093F20A7093F30A809380
:102A6000F40A9093F50A0E94F81D882349F0109209
:102A7000F20A1092F30A1092F40A1092F50A22C098
:102A80006091F20A7091F30A8091F40A9091F50A2C
:102A90000E948C1D8111EBCF6091F20A7091F30AB4
:102AA0008091F40A9091F50A20E030E040E853E488
:102AB0000E94422B6093F20A7093F30A8093F40A07
:102AC0009093F50AC090F20AD090F30AE090F40ACD
:102AD000F090F50A20E030E0A901C701B6010E949C
:102AE0004E2A87FF07C0C701B60190580E94BF2A2F
:102AF000619504C0C701B6010E94BF2A70E080E062
:102B000090E00E94ED2AAB01BC018091EF0890910A
:102B1000F00818DA809132049091330408171907ED
:102B200084F080914C0290914D02A0914E02B091A0
:102B30004F028093EE0A9093EF0AA093F00AB093AD
:102B4000F10A6091EE0A7091EF0A8091F00A90917B
:102B5000F10A0E94282B6093F20A7093F30A809383
:102B6000F40A9093F50A0E94F81D882349F0109208
:102B7000F20A1092F30A1092F40A1092F50A21C098
:102B80006091F20A7091F30A8091F40A9091F50A2B
:102B9000C3D78111ECCF6091F20A7091F30A809152
:102BA000F40A9091F50A20E030E040E853E40E94F6
:102BB000422B6093F20A7093F30A8093F40A909385
:102BC000F50AC090F20AD090F30AE090F40AF0906F
:102BD000F50A20E030E0A901C701B6010E944E2AA3
:102BE00087FF07C0C701B60190580E94BF2A6195B0
:102BF00004C0C701B6010E94BF2A70E080E090E0E7
:102C00000E94ED2AAB01BC0180910709909108094F
:102C100099D9209190023091910240919202509165
:102C20009302C301B2010E946E2C0E94282B6B01FB
:102C30007C01C4D7811122C0C701B60196D781118A
:102C40001DC020E030E040E857E4C701B6010E9413
:102C5000422B6B017C013B01870120E030E0A901A0
:102C60000E944E2A87FF0EC0C701B60190580E94ED
:102C7000BF2A00271127061B170B09C0612C712CD6
:102C800000E010E0B301C8010E94BF2A8B01C80117
:102C900017FF04C088279927801B910B609134048B
:102CA00070913504681779074CF020913604309103
:102CB0003704BC01821793070CF4B901C09050028D
:102CC000D0905102E0905202F0905302072E000C77
:102CD000880B990B0E94ED2A9B01AC01C701B6013C
:102CE0000E948729DC01CB01BF778093EE0A909385
:102CF000EF0AA093F00AB093F10A209138043091C2
:102D00003904021713074CF0C092F20AD092F30A6A
:102D1000E092F40AF092F50A08C08093F20A9093C8
:102D2000F30AA093F40AB093F50A6091F20A709145
:102D3000F30A8091F40A9091F50A0E94282B60937F
:102D4000F20A7093F30A8093F40A9093F50A50D72D
:102D5000882349F01092F20A1092F30A1092F40AB2
:102D60001092F50A21C06091F20A7091F30A8091E5
:102D7000F40A9091F50AD0D68111ECCF6091F20A55
:102D80007091F30A8091F40A9091F50A20E030E006
:102D900040E853E40E94422B6093F20A7093F30AD6
:102DA0008093F40A9093F50AC090F20AD090F30A47
:102DB000E090F40AF090F50A20E030E0A901C701A4
:102DC000B6010E944E2A87FF07C0C701B60190587E
:102DD0000E94BF2A619504C0C701B6010E94BF2AA4
:102DE00070E080E090E00E94ED2AAB01BC01809190
:102DF000BF089091C008A6D880913A0490913B04F6
:102E00000817190784F48091500290915102A09103
:102E10005202B09153028093EE0A9093EF0AA0936E
:102E2000F00AB093F10A6091EE0A7091EF0A809176
:102E3000F00A9091F10A0E94282B6093F20A709395
:102E4000F30A8093F40A9093F50AD2D6882349F0C6
:102E50001092F20A1092F30A1092F40A1092F50AF4
:102E600021C06091F20A7091F30A8091F40A909166
:102E7000F50A52D68111ECCF6091F20A7091F30AF3
:102E80008091F40A9091F50A20E030E040E853E4A4
:102E90000E94422B6093F20A7093F30A8093F40A23
:102EA0009093F50AC090F20AD090F30AE090F40AE9
:102EB000F090F50A20E030E0A901C701B6010E94B8
:102EC0004E2A87FF07C0C701B60190580E94BF2A4B
:102ED000619504C0C701B6010E94BF2A70E080E07E
:102EE00090E00E94ED2AAB01BC018091D70890913F
:102EF000D80828D820E030E044E353E4C501B40109
:102F00000E946E2C2BED3FE049E450E40E94522ACF
:102F100020E030E040E251E40E94882920E030E0E7
:102F200040EA51E40E94522A20E030E04FE753E4A7
:102F30000E946E2C0E94282B6B017C013FD68111D0
:102F40001FC0C701B60111D681111AC020E030E0C0
:102F500040E853E4C701B6010E94422B6B017C019B
:102F60005B01870120E030E0A9010E944E2A87FF23
:102F70000BC0C701B60190580E94BF2A619508C0D6
:102F8000A12CB12C00E010E0B501C8010E94BF2ABD
:102F900069876091890870918A0880918B08909167
:102FA0008C080E94BF2AC62E609181087091820809
:102FB00080918308909184080E94BF2AE62E609138
:102FC00085087091860880918708909188080E94F2
:102FD000BF2A062F60917D0870917E0880917F083E
:102FE000909180080E94BF2A262F609179087091E5
:102FF0007A0880917B0890917C082E8F0E94BF2ACE
:10300000862F812C912C92E0A92E2E8D41E050E04C
:10301000BE01675F7F4F0E947407C0903C02D09052
:103020003D02E0903E02F0903F02A70196016091C0
:10303000190970911A0980911B0990911C090E942D
:103040004E2A882309F43CC0C701B60165D5882300
:1030500061F060913C0270913D0280913E0290913E
:103060003F025AD581110CC01BC060913C02709187
:103070003D0280913E0290913F02BAD58111E9CF85
:1030800080913C0290913D02A0913E02B0913F029E
:103090008093E60A9093E70AA093E80AB093E90ABE
:1030A0008091E60A9091E70AA091E80AB091E90AB6
:1030B0008093190990931A09A0931B09B0931C09D6
:1030C000C0904002D0904102E0904202F090430252
:1030D000A701960160910F09709110098091110963
:1030E000909112090E944E2A882309F43CC0C7011E
:1030F000B60112D5882361F06091400270914102BF
:10310000809142029091430207D581110CC01BC0EF
:10311000609140027091410280914202909143027D
:1031200067D58111E9CF8091400290914102A09131
:103130004202B09143028093EA0A9093EB0AA09373
:10314000EC0AB093ED0A8091EA0A9091EB0AA09103
:10315000EC0AB091ED0A80930F0990931009A093A7
:103160001109B09312098091E40A882379F18091C2
:10317000D10A9091D20AA091D30AB091D40A0197B2
:10318000A109B109B7FF04C082E690E0A0E0B0E079
:103190008093D10A9093D20AA093D30AB093D40A11
:1031A000E091D10AF091D20AEE0FFF1FEE0FFF1F40
:1031B000EF5CF64F8091F60A9091F70AA091F80A19
:1031C000B091F90A80839183A283B3838091E50A49
:1031D000882309F46CC0209154023091550240912B
:1031E0005602509157026A857B858C859D850E9489
:1031F0006E2C9B01AC016091BD0A7091BE0A80915A
:10320000BF0A9091C00A0E9488296093BD0A7093FA
:10321000BE0A8093BF0A9093C00A8A899B89AC89B1
:10322000BD898093C10A9093C20AA093C30AB09348
:10323000C40A209168023091690240916A0250915B
:103240006B026E857F85888999890E946E2C9B010F
:10325000AC016091C50A7091C60A8091C70A90912D
:10326000C80A0E9488296093C50A7093C60A809391
:10327000C70A9093C80A2E893F89488D598D20939B
:10328000C90A3093CA0A4093CB0A5093CC0A809162
:10329000D50A9091D60AA091D70AB091D80A809306
:1032A000CD0A9093CE0AA093CF0AB093D00A809112
:1032B0007D0B90917E0BA0917F0BB091800BBC0198
:1032C000CD016F5F7F4F8F4F9F4F60937D0B70934A
:1032D0007E0B80937F0B9093800B611571058105A8
:1032E0009105A1F40091810B1091820B2091830B29
:1032F0003091840B0F5F1F4F2F4F3F4F0093810B77
:103300001093820B2093830B3093840BC090850B1A
:10331000D090860BE090870BF090880B0091930B78
:103320001091940B0E94EB2AA70196010E946E2C2B
:103330004B015C016091810B7091820B8091830B3A
:103340009091840B0E94EB2AA70196010E946E2C9B
:1033500020E030E040E85FE40E946E2C9B01AC016D
:10336000C501B4010E948829D8016D937D938D9386
:103370009C9313978091890B90918A0BA0918B0B52
:10338000B0918C0B0196A11DB11D8093890B909378
:103390008A0BA0938B0BB0938C0B892B8A2B8B2BD6
:1033A00099F480918D0B90918E0BA0918F0BB09121
:1033B000900B0196A11DB11D80938D0B90938E0BE8
:1033C000A0938F0BB093900B6E960FB6F894DEBF60
:1033D0000FBECDBFDF91CF911F910F91FF90EF9066
:1033E000DF90CF90BF90AF909F908F907F906F9025
:1033F0005F904F903F902F9008954F925F926F9201
:103400007F928F929F92AF92BF92DF92EF92FF9244
:103410000F931F93CF93DF9300D01F92CDB7DEB7EA
:1034200084E090E042D3E0E0FBE08DE9DF011D9213
:103430008A95E9F781E99BE09093050B8093040B53
:1034400083E99BE090933F0B80933E0B85E89BE0E4
:103450009093130B8093120BF093690BE093680B1E
:10346000F093030BE093020B81E090E09093920BBA
:103470008093910B88E794E09093090B8093080B5D
:1034800085E99BE09093940B8093930B82E490E604
:10349000A5EEBBE38093850B9093860BA093870BDF
:1034A000B093880B8AE1E6EEFAE0DF011D928A957F
:1034B000E9F781E992E0E5E5F8E0DF019C011D9282
:1034C00021503040E1F7DD24D394D092E20A812CE0
:1034D000912C5401839480922A0990922B09A092F6
:1034E0002C09B0922D0980E090E00E944807D0920C
:1034F0002E091092E40A10921D09D092E30A10924C
:10350000220980921E0990921F09A0922009B09270
:1035100021090E941E07D09222091092E50A1092FA
:103520002309D092DF0A10922809809224099092F0
:103530002509A0922609B092270943E050E062E0F5
:1035400070E080E090E00E948B0ED092280922E388
:103550002093930893E39093940884E380939508D1
:1035600085E38093960886E38093970887E38093AA
:10357000980888E38093990889E380939A0881E307
:1035800080939B0830E330939C0880939D08809340
:103590009E0880939F082093A0088093A108909391
:1035A000A20810928D08D092E00A80913802909182
:1035B0003902A0913A02B0913B028093A508909302
:1035C000A608A093A708B093A8081092920880922A
:1035D0008E0890928F08A0929008B092910860E0B7
:1035E00070E0CB010E940F0C9093A4088093A30875
:1035F00020E030E0A90160E070E00E942A0CD09247
:103600009208D092D90889ED98E00E94B210D09229
:10361000DD0A1092DE088092DA089092DB08A09210
:10362000DC08B092DD08E12CF12C8701A80197019C
:1036300067E070E080E090E00E948D0F9093F008CA
:103640008093EF080E94A10FD092DE08D092F1087B
:1036500081EF98E00E94B210D092DE0A1092F60834
:103660008092F2089092F308A092F408B092F508C4
:10367000A801970166E070E080E090E00E948D0F65
:1036800090930809809307090E94A10FD092F60831
:10369000D092A90889EA98E00E94B210D092D90A83
:1036A0001092AE088092AA089092AB08A092AC0843
:1036B000B092AD08A801970169E070E080E090E069
:1036C0000E948D0F9093C0088093BF080E94A10FA5
:1036D000D092AE08D092C10881EC98E00E94B2105E
:1036E000D092DA0A1092C6088092C2089092C3085B
:1036F000A092C408B092C508A80197016AE070E0E2
:1037000080E090E00E948D0F9093D8088093D708B6
:103710000E94A10FD092C608D092E10A809255086B
:1037200090925608A0925708B092580880E090E016
:10373000A0E4B0E48093790890937A08A0937B0882
:10374000B0937C0880E090E0A0E8BFE380937D0820
:1037500090937E08A0937F08B0938008E092810840
:10376000F09282080093830810938408E092850801
:10377000F09286080093870810938808E0928908E1
:10378000F0928A0800938B0810938C081092140909
:103790001092150910921609109217091092130928
:1037A000D092DC0A60913C0270913D0280913E0211
:1037B00090913F02B1D1882361F060913C027091F9
:1037C0003D0280913E0290913F02A6D181110CC032
:1037D00017C060913C0270913D0280913E02909131
:1037E0003F0206D28111E9CF80913C0290913D02C7
:1037F000A0913E02B0913F0289839A83AB83BC8340
:1038000089819A81AB81BC818093190990931A09AF
:10381000A0931B09B0931C091092180981E090E055
:10382000A0E0B0E08093140990931509A0931609C5
:10383000B093170964E00E94AC0F81E080931809EF
:1038400010920A0910920B0910920C0910920D099E
:10385000109209098093DB0A609140027091410245
:10386000809142029091430257D1882361F0609188
:1038700040027091410280914202909143024CD1EA
:1038800081110CC013C0609140027091410280917F
:10389000420290914302ACD18111E9CF40904002A5
:1038A00050904102609042027090430240920F0992
:1038B00050921009609211097092120910920E092B
:1038C00081E090E0A0E0B0E080930A0990930B09BA
:1038D000A0930C09B0930D0962E00E94AC0F81E047
:1038E00080930E091092D10A1092D20A1092D30A34
:1038F0001092D40A8091940290919502A091960220
:10390000B0919702E1E3F9E081939193A193B19390
:103910002AE0ED3BF207C1F78091580290915902DD
:10392000A0915A02B0915B028093BD0A9093BE0AA7
:10393000A093BF0AB093C00A8091340290913502DF
:10394000A0913602B09137028093C10A9093C20AC7
:10395000A093C30AB093C40A80916C0290916D0247
:10396000A0916E02B0916F028093C50A9093C60A2F
:10397000A093C70AB093C80A80917C0290917D02FF
:10398000A0917E02B0917F028093C90A9093CA0AE7
:10399000A093CB0AB093CC0A8091880290918902BF
:1039A000A0918A02B0918B028093CD0A9093CE0AA7
:1039B000A093CF0AB093D00A0F900F900F900F9062
:1039C000DF91CF911F910F91FF90EF90DF90BF900B
:1039D000AF909F908F907F906F905F904F900895E1
:1039E00080912909811103C081E080932909809188
:1039F0001D09811103C081E080931D098091230975
:103A0000811103C081E08093230980918D08811189
:103A100003C081E080938D088091D908811103C093
:103A200081E08093D9088091F108811103C081E081
:103A30008093F1088091A908811103C081E08093EF
:103A4000A9088091C108811103C081E08093C10859
:103A500080911309811103C081E080931309809143
:103A60000909811103C081E080930909089560E08C
:103A700070E080E89FE7089560E070E080E89FE7ED
:103A8000089560E070E080E89FEF089560E070E0E6
:103A900080E89FEF089560E070E080EC9FEF08956C
:103AA00060E070E080EC9FEF0895F5DF6093A90B74
:103AB0007093AA0B8093AB0B9093AC0BF1DF6093E8
:103AC0009D0B70939E0B80939F0B9093A00BCFDF69
:103AD0006093A50B7093A60B8093A70B9093A80BF4
:103AE000CBDF6093A10B7093A20B8093A30B9093F9
:103AF000A40BC7DF6093AD0B7093AE0B8093AF0B3D
:103B00009093B00BC3DF6093B10B7093B20B8093B3
:103B1000B30B9093B40B0895CF92DF92EF92FF9284
:103B2000CF936B017C012091A50B3091A60B4091A6
:103B3000A70B5091A80B0E944E2AC1E0882371F078
:103B40002091AD0B3091AE0B4091AF0B5091B00B6B
:103B5000C701B6010E944E2A8111C0E08C2FCF917F
:103B6000FF90EF90DF90CF900895CF92DF92EF9289
:103B7000FF92CF936B017C012091A10B3091A20B9E
:103B80004091A30B5091A40B0E944E2AC1E08823C0
:103B900071F02091B10B3091B20B4091B30B509169
:103BA000B40BC701B6010E944E2A8111C0E08C2FD0
:103BB000CF91FF90EF90DF90CF9008950F931F93D8
:103BC0008B019C010027112720783F7701151105F3
:103BD00020483F4749F4AB01BC016F77772781E06C
:103BE000452B462B472B09F480E01F910F91089538
:103BF000E5CF0895883008F070C0A82FB0E0AA0F74
:103C0000BB1FAE5BBB4F11967C936E9390E0FC01A3
:103C10003197E730F105A0F58827EE58FF4F8F4F19
:103C20000C94FA2C809169008C7F482B409369009A
:103C3000E89A089580916900440F551F440F551F5D
:103C4000837F482B40936900E99A08958091690029
:103C500074E0440F551F7A95E1F78F7C482B409311
:103C60006900EA9A08958091690066E0440F551F43
:103C70006A95E1F78F73482B40936900EB9A08959A
:103C800080916A008C7F482B40936A00EC9A0895DB
:103C900080916A00440F551F440F551F837F482BA6
:103CA00040936A00ED9A089580916A0024E0440FE1
:103CB000551F2A95E1F78F7C482B40936A00EE9AB6
:103CC000089580916A0096E0440F551F9A95E1F798
:103CD0008F73482B40936A00EF9A08951F920F92BA
:103CE0000FB60F9211240BB60F922F933F934F9361
:103CF0005F936F937F938F939F93AF93BF93EF9354
:103D0000FF93E0914604F09147041995FF91EF91DC
:103D1000BF91AF919F918F917F916F915F914F91E3
:103D20003F912F910F900BBE0F900FBE0F901F90E1
:103D300018951F920F920FB60F9211240BB60F9287
:103D40002F933F934F935F936F937F938F939F93A3
:103D5000AF93BF93EF93FF93E0914804F091490430
:103D60001995FF91EF91BF91AF919F918F917F91A5
:103D70006F915F914F913F912F910F900BBE0F90DC
:103D80000FBE0F901F9018951F920F920FB60F92B3
:103D900011240BB60F922F933F934F935F936F9322
:103DA0007F938F939F93AF93BF93EF93FF93E09194
:103DB0004A04F0914B041995FF91EF91BF91AF9197
:103DC0009F918F917F916F915F914F913F912F9133
:103DD0000F900BBE0F900FBE0F901F9018951F9263
:103DE0000F920FB60F9211240BB60F922F933F93A1
:103DF0004F935F936F937F938F939F93AF93BF93F3
:103E0000EF93FF93E0914C04F0914D041995FF91CD
:103E1000EF91BF91AF919F918F917F916F915F9142
:103E20004F913F912F910F900BBE0F900FBE0F90AF
:103E30001F9018951F920F920FB60F9211240BB678
:103E40000F922F933F934F935F936F937F938F9333
:103E50009F93AF93BF93EF93FF93E0914204F09150
:103E600043041995FF91EF91BF91AF919F918F916D
:103E70007F916F915F914F913F912F910F900BBE6A
:103E80000F900FBE0F901F9018951F920F920FB6B4
:103E90000F9211240BB60F922F933F934F935F9382
:103EA0006F937F938F939F93AF93BF93EF93FF9302
:103EB000E0914404F09145041995FF91EF91BF9171
:103EC000AF919F918F917F916F915F914F913F91B2
:103ED0002F910F900BBE0F900FBE0F901F90189553
:103EE0001F920F920FB60F9211240BB60F922F93C1
:103EF0003F934F935F936F937F938F939F93AF9372
:103F0000BF93EF93FF93E0914E04F0914F04199506
:103F1000FF91EF91BF91AF919F918F917F916F91A1
:103F20005F914F913F912F910F900BBE0F900FBE5D
:103F30000F901F9018951F920F920FB60F92112499
:103F40000BB60F922F933F934F935F936F937F9393
:103F50008F939F93AF93BF93EF93FF93E0915004A0
:103F6000F09151041995FF91EF91BF91AF919F91FD
:103F70008F917F916F915F914F913F912F910F9012
:103F80000BBE0F900FBE0F901F9018951F920F92AF
:103F90000FB60F9211242F933F938F939F93AF935C
:103FA000BF938091C8059091C905A091CA05B091B1
:103FB000CB053091C70523E0230F2D3720F4019660
:103FC000A11DB11D05C026E8230F0296A11DB11D3C
:103FD0002093C7058093C8059093C905A093CA058F
:103FE000B093CB058091CC059091CD05A091CE05E5
:103FF000B091CF050196A11DB11D8093CC05909382
:10400000CD05A093CE05B093CF05BF91AF919F9101
:104010008F913F912F910F900FBE0F901F90189589
:104020002FB7F8946091C8057091C9058091CA05B1
:104030009091CB052FBF0895789484B5826084BD9C
:1040400084B5816084BD85B5826085BD85B581609C
:1040500085BDEEE6F0E0808181608083E1E8F0E0FC
:104060001082808182608083808181608083E0E82B
:10407000F0E0808181608083E1EBF0E0808184600A
:104080008083E0EBF0E0808181608083E1E9F0E013
:10409000808182608083808181608083E0E9F0E0BC
:1040A000808181608083E1EAF0E0808182608083AA
:1040B000808181608083E0EAF0E08081816080839C
:1040C000E1E2F1E080818260808380818160808391
:1040D000E0E2F1E0808181608083EAE7F0E08081C6
:1040E000846080838081826080838081816080831E
:1040F0008081806880831092C1000895863308F023
:10410000865390917B00282F2870977F922B909355
:104110007B0087702091520490E4299F9001112424
:10412000822B80937C0080917A00806480937A0057
:1041300080917A0086FDFCCF8091780020917900F3
:1041400090E0922B08951F93CF93DF93182FEB01EC
:1041500061E016D1209711F460E004C0CF3FD10593
:1041600031F461E0812FDF91CF911F9145C1E12FA3
:10417000F0E0E859FE4FE4914E2F50E0FA013197FC
:10418000E231F10508F09DC08827E758FF4F8F4FB7
:104190000C94FA2C84B5806884BDC7BD97C084B5E3
:1041A000806284BDC8BD92C0809180008068809389
:1041B0008000D0938900C093880088C080918000DF
:1041C000806280938000D0938B00C0938A007EC071
:1041D00080918000886080938000D0938D00C09390
:1041E0008C0074C08091B00080688093B000C09350
:1041F000B3006CC08091B00080628093B000C09327
:10420000B40064C080919000806880939000D09347
:104210009900C09398005AC080919000806280936A
:104220009000D0939B00C0939A0050C08091900062
:10423000886080939000D0939D00C0939C0046C0FE
:104240008091A00080688093A0008091A0008F7B67
:104250008093A000D093A900C093A80037C080919C
:10426000A00080628093A000D093AB00C093AA000E
:104270002DC08091A00088608093A000D093AD00F5
:10428000C093AC0023C080912001806880932001FE
:10429000D0932901C093280119C080912001806228
:1042A00080932001D0932B01C0932A010FC08091ED
:1042B0002001886080932001D0932D01C0932C01B0
:1042C00005C0C038D1050CF04CCF46CFDF91CF915F
:1042D0001F91089590E0FC013197E231F10508F05B
:1042E0004EC08827E557FF4F8F4F0C94FA2C8091D2
:1042F00080008F7703C0809180008F7D8093800045
:10430000089580918000877FF9CF84B58F7702C0B0
:1043100084B58F7D84BD08958091B0008F7703C0F0
:104320008091B0008F7D8093B000089580919000BF
:104330008F7707C0809190008F7D03C0809190009F
:10434000877F8093900008958091A0008F7707C0A9
:104350008091A0008F7D03C08091A000877F809313
:10436000A0000895809120018F7707C080912001DF
:104370008F7D03C080912001877F80932001089565
:10438000CF93DF9390E0FC01E255FE4F2491FC01B6
:10439000EC50FE4F8491882361F190E0880F991FC3
:1043A000FC01EC5AFD4FC591D491FC01E65CFD4F38
:1043B000A591B491611109C09FB7F89488812095A7
:1043C00082238883EC912E230BC0623061F49FB767
:1043D000F8943881822F809583238883EC912E2B4B
:1043E0002C939FBF06C08FB7F894E8812E2B2883AB
:1043F0008FBFDF91CF9108951F93CF93DF93282F25
:1044000030E0F901E859FE4F8491F901E255FE4F81
:10441000D491F901EC50FE4FC491CC23C1F0162F7A
:10442000811158DFEC2FF0E0EE0FFF1FE65CFD4F2F
:10443000A591B4918FB7F894111105C09C91ED2FFF
:10444000E095E92302C0EC91ED2BEC938FBFDF9157
:10445000CF911F910895FC01918D228D892F90E0BD
:10446000805C9F4F821B91098F7399270895FC01EF
:10447000918D828D981731F0828DE80FF11D858D19
:1044800090E008958FEF9FEF0895FC01918D828D4C
:10449000981761F0828DDF01A80FB11D5D968C9198
:1044A000928D9F5F9F73928F90E008958FEF9FEFA3
:1044B0000895FC01848DDF01A80FB11DA35ABF4FE1
:1044C0002C91848D90E001968F739927848FA68913
:1044D000B7892C93A089B1898C9180648C93938D3A
:1044E000848D981306C00288F389E02D80818F7D2A
:1044F00080830895CF93DF93EC01888D8823C1F0EA
:10450000EA89FB89808185FD05C0A889B9898C91DC
:1045100086FD0EC00FB607FCF5CF808185FFF2CF78
:10452000A889B9898C9185FFEDCFCE01C2DFE8CF94
:10453000DF91CF910895EF92FF920F931F93CF9346
:10454000DF93EC0181E0888F9B8D8C8D981305C0E3
:10455000E889F989808185FD23C0F62E0B8D10E056
:104560000F5F1F4F0F731127E02E8C8DE8120BC0C9
:104570000FB607FCFACFE889F989808185FFF5CF6E
:10458000CE0197DFF2CF8B8DFE01E80FF11DE35ACC
:10459000FF4FF0820B8FEA89FB898081806207C020
:1045A000EE89FF896083E889F9898081806480834E
:1045B00081E090E0DF91CF911F910F91FF90EF90FC
:1045C0000895CF92DF92EF92FF921F93CF93DF93E4
:1045D000EC016A017B01122FE889F98982E080836E
:1045E0004115514E61057105B1F060E079E08DE350
:1045F00090E0A70196010E94D82CDA01C901019729
:10460000A109B109B695A79597958795AC01411574
:1046100080E15807A8F0E889F989108260E874E819
:104620008EE190E0A70196010E94D82CBA01A90161
:1046300041505109610971097695679557954795DC
:10464000EC85FD855083EE85FF854083188EEC89CF
:10465000FD891083EA89FB89808180618083EA89F2
:10466000FB89808188608083EA89FB8980818068FA
:104670008083EA89FB8980818F7D8083DF91CF9160
:104680001F91FF90EF90DF90CF9008951F920F92AF
:104690000FB60F9211240BB60F922F938F939F9307
:1046A000EF93FF93E091E005F091E1058081E091C7
:1046B000E605F091E70582FD12C090818091E90541
:1046C0008F5F8F732091EA05821751F0E091E90521
:1046D000F0E0E053FA4F958F8093E90501C08081A7
:1046E000FF91EF919F918F912F910F900BBE0F90A3
:1046F0000FBE0F901F9018951F920F920FB60F923A
:1047000011240BB60F922F933F934F935F936F93A8
:104710007F938F939F93AF93BF93EF93FF9380ED1E
:1047200095E0C7DEFF91EF91BF91AF919F918F917F
:104730007F916F915F914F913F912F910F900BBEA1
:104740000F900FBE0F901F901895E0EDF5E01382CB
:10475000128288EE93E0A0E0B0E084839583A68384
:10476000B78380E994E09183808385EC90E095871E
:10477000848784EC90E09787868780EC90E0918B2B
:10478000808B81EC90E0938B828B82EC90E0958B18
:10479000848B86EC90E0978B868B118E128E138E15
:1047A000148E08951F920F920FB60F9211240BB61C
:1047B0000F922F938F939F93EF93FF93E0917D063A
:1047C000F0917E068081E0918306F091840682FD5F
:1047D00012C09081809186068F5F8F73209187062B
:1047E000821751F0E0918606F0E0E359F94F958F7A
:1047F0008093860601C08081FF91EF919F918F91F8
:104800002F910F900BBE0F900FBE0F901F90189519
:104810001F920F920FB60F9211240BB60F922F9387
:104820003F934F935F936F937F938F939F93AF9338
:10483000BF93EF93FF938DE696E03BDEFF91EF9100
:10484000BF91AF919F918F917F916F915F914F91A8
:104850003F912F910F900BBE0F900FBE0F901F90A6
:104860001895EDE6F6E01382128288EE93E0A0E060
:10487000B0E084839583A683B78380E994E0918335
:1048800080838DEC90E0958784878CEC90E097870F
:10489000868788EC90E0918B808B89EC90E0938BFD
:1048A000828B8AEC90E0958B848B8EEC90E0978BDA
:1048B000868B118E128E138E148E08951F920F9276
:1048C0000FB60F9211240BB60F922F938F939F93D5
:1048D000EF93FF93E0911A07F0911B078081E0911D
:1048E0002007F091210782FD12C09081809123075B
:1048F0008F5F8F7320912407821751F0E091230777
:10490000F0E0E65FF84F958F8093230701C0808128
:10491000FF91EF919F918F912F910F900BBE0F9070
:104920000FBE0F901F9018951F920F920FB60F9207
:1049300011240BB60F922F933F934F935F936F9376
:104940007F938F939F93AF93BF93EF93FF938AE0EF
:1049500097E0AFDDFF91EF91BF91AF919F918F9164
:104960007F916F915F914F913F912F910F900BBE6F
:104970000F900FBE0F901F901895EAE0F7E013829A
:10498000128288EE93E0A0E0B0E084839583A68352
:10499000B78380E994E09183808385ED90E09587EB
:1049A000848784ED90E09787868780ED90E0918BF7
:1049B000808B81ED90E0938B828B82ED90E0958BE4
:1049C000848B86ED90E0978B868B118E128E138EE2
:1049D000148E08951F920F920FB60F9211240BB6EA
:1049E0000F922F938F939F93EF93FF93E091B707CD
:1049F000F091B8078081E091BD07F091BE0782FD7C
:104A000012C090818091C0078F5F8F732091C10782
:104A1000821751F0E091C007F0E0E955F84F958F0B
:104A20008093C00701C08081FF91EF919F918F918A
:104A30002F910F900BBE0F900FBE0F901F901895E7
:104A40001F920F920FB60F9211240BB60F922F9355
:104A50003F934F935F936F937F938F939F93AF9306
:104A6000BF93EF93FF9387EA97E023DDFF91EF91E8
:104A7000BF91AF919F918F917F916F915F914F9176
:104A80003F912F910F900BBE0F900FBE0F901F9074
:104A90001895E7EAF7E01382128288EE93E0A0E02F
:104AA000B0E084839583A683B78380E994E0918303
:104AB000808385E391E09587848784E391E09787FD
:104AC000868780E391E0918B808B81E391E0938BEB
:104AD000828B82E391E0958B848B86E391E0978BC8
:104AE000868B118E128E138E148E08958F929F9244
:104AF000AF92BF92CF92DF92EF92FF920F931F93EC
:104B0000CF93DF937C018B016C0182E0C80ED11C36
:104B10004701E5E08E0E911CC0E0D0E0F601619106
:104B20006F014AE050E0C8013BD15C016EE2C80170
:104B300068D08A0D9B1DC80FD91FC814D90471F7FE
:104B40004AE050E0F7016581C8012AD18C0F9D1F12
:104B5000DF91CF911F910F91FF90EF90DF90CF9059
:104B6000BF90AF909F908F900895E4E4F8E080EAC2
:104B700094E09183808312821382148215820895B7
:104B8000CF92DF92EF92FF920F931F93CF93DF9319
:104B90006C017A018B01C0E0D0E0CE15DF0589F011
:104BA000D8016D918D01D601ED91FC910190F081BC
:104BB000E02DC6011995892B11F47E0102C02196C2
:104BC000ECCFC701DF91CF911F910F91FF90EF9034
:104BD000DF90CF9008956115710579F0FB01019088
:104BE0000020E9F73197AF01461B570BDC01ED912F
:104BF000FC910280F381E02D199480E090E008950B
:104C0000EACFDC01ED91FC910190F081E02D199447
:104C100062EA74E0E0CF4F925F926F927F92EF92E0
:104C2000FF920F931F93CF93DF93CDB7DEB7A1977A
:104C30000FB6F894DEBF0FBECDBF7C01FA01CB01E9
:104C400019A2223008F42AE08E010F5D1F4F422E78
:104C5000512C612C712CBF01A3019201A9D6F9013D
:104C6000CA01015011096A3014F4605D01C0695C29
:104C7000D8016C93232B242B252B69F7B801C7018E
:104C8000AADFA1960FB6F894DEBF0FBECDBFDF91AD
:104C9000CF911F910F91FF90EF907F906F905F9059
:104CA0004F900895CF92DF92EF92FF920F931F9350
:104CB000CF93DF93EC016A017B012115310579F473
:104CC000E881F9810190F081E02D642FDF91CF918F
:104CD0001F910F91FF90EF90DF90CF9019942A30A1
:104CE0003105D9F477FF18C06DE28BDF8C014427C2
:104CF0005527BA014C195D096E097F092AE0CE01DA
:104D00008ADF800F911FDF91CF911F910F91FF904C
:104D1000EF90DF90CF9008952AE0B701A601CE0171
:104D2000DF91CF911F910F91FF90EF90DF90CF9087
:104D300072CF9A01AB01770F660B770BB3CF0F934E
:104D40001F93CF93DF93EC019A01AB01770F660BB2
:104D5000770BA8DF8C01CE015BDF800F911FDF9105
:104D6000CF911F910F9108950F931F93CF93DF93CE
:104D7000EC0198DF8C01CE014BDF800F911FDF919A
:104D8000CF911F910F9108952115310541F4DC0158
:104D9000ED91FC910190F081E02D642F19943BCFAF
:104DA0009A01462F50E060E070E0EECF0F931F9322
:104DB000CF93DF93EC019A01462F50E060E070E062
:104DC000E3DF8C01CE0124DF800F911FDF91CF91B3
:104DD0001F910F9108959A01AB0160E070E0D4CF6C
:104DE0000F931F93CF93DF93EC019A01AB0160E027
:104DF00070E0CADF8C01CE010BDF800F911FDF91C5
:104E0000CF911F910F9108950F931F93CF93DF932D
:104E1000EC01BADF8C01CE01FBDE800F911FDF9128
:104E2000CF911F910F9108954F925F926F927F9251
:104E30008F929F92AF92BF92CF92DF92EF92FF92AA
:104E4000CF93DF93EC016A017B01B22E9A01AB0193
:104E5000C701B601A9D5882319F065EA74E024C01A
:104E600026013701E89477F82FEF3FEF4FE75FE730
:104E7000C301B20199D581110CC02FEF3FEF4FE76D
:104E80005FE7C301B2010AD318161CF469EA74E0A3
:104E90000BC02FEF3FEF4FE75FE4C701B60113D51B
:104EA000181694F46DEA74E0CE01DF91CF91FF9073
:104EB000EF90DF90CF90BF90AF909F908F907F90BA
:104EC0006F905F904F9087CE2FEF3FEF4FE75FECF3
:104ED000C701B601E3D287FDE5CF20E030E0A901AC
:104EE000C701B601DBD287FF09C06DE2CE0189DEC2
:104EF0004C01F7FAF094F7F8F09402C0812C912C51
:104F0000A12C60E070E080E09FE3AB1439F020E07A
:104F100030E040E251E4C6D2A394F7CF9B01AC014C
:104F2000C701B601F5D12B013C0129D36B017C01EE
:104F300052D39B01AC01C301B201E9D12B013C0169
:104F40002AE0B701A601CE0166DE7C01E80CF91C5F
:104F5000BB2029F06EE2CE0154DEE80EF91EDB2CF8
:104F6000DD2001F120E030E040E251E4C301B20174
:104F7000B5D42B013C0103D34B01A12CB12C2AE069
:104F8000B501A401CE0147DEE80EF91EC501B4014A
:104F900022D39B01AC01C301B201B9D12B013C0169
:104FA000DA94DECFC701DF91CF91FF90EF90DF90D1
:104FB000CF90BF90AF909F908F907F906F905F90B9
:104FC0004F90089531CF0F931F93CF93DF93EC0150
:104FD0002BDF8C01CE011CDE800F911FDF91CF9162
:104FE0001F910F9108958230A9F028F4882349F089
:104FF000813051F00895843021F1E8F0853039F1A5
:10500000089510926E00089580916F008D7F8093B7
:105010006F000895809170008D7F8093700081E013
:105020008093B0008091B100887F84608093B1004C
:105030001092B3000895809171008D7F809371006C
:105040000895809172008D7F809372000895809101
:1050500073008D7F809373000895CF93C82F809144
:1050600053048C1307C0EEE6F2E0E4918FEF8093D7
:10507000530401C0EFEF8E2FB6DF60E08C2FCF918D
:10508000BBC91F920F920FB60F9211240BB60F924D
:105090002F933F934F935F936F937F938F939F9340
:1050A000AF93BF93EF93FF9380914D0890914E087B
:1050B000A0914F08B0915008892B8A2B8B2B51F16E
:1050C00080914A08E0914B08F0914C089081892723
:1050D000808380914D0890914E08A0914F08B09127
:1050E0005008181619061A061B06BCF480914D08C4
:1050F00090914E08A0914F08B09150080197A109D6
:10510000B10980934D0890934E08A0934F08B09337
:10511000500803C080915304A0DFFF91EF91BF912D
:10512000AF919F918F917F916F915F914F913F913F
:105130002F910F900BBE0F900FBE0F901F901895E0
:1051400040E855E260E070E080E090E00DD040E89B
:1051500055E260E070E083E090E006D061E08DE031
:105160000FD960E08DE048C98130910571F01CF4E1
:10517000892B39F008958230910559F0039769F031
:10518000089526E080ED95E00BC026E08DE696E0E0
:1051900007C026E08AE097E003C026E087EA97E0B0
:1051A00010CA1F920F920FB60F9211240BB60F92D6
:1051B0002F933F934F935F936F937F938F939F931F
:1051C000AF93BF93EF93FF938AE299EF90932501FA
:1051D000809324018091530890915408019719F409
:1051E00061E08DE009D934D0FF91EF91BF91AF918B
:1051F0009F918F917F916F915F914F913F912F91EF
:105200000F900BBE0F900FBE0F901F9018958AE263
:1052100099EF9093250180932401A3E7B0E08C914E
:105220008E7F8C93E0E2F1E080818C7F8083E1E2ED
:10523000F1E08081877E80838081836080838081AC
:105240008B7F80838C9181608C93089581E0089599
:105250008091520891E0980F90935208882339F07A
:1052600021E030E0309354082093530807C078942D
:105270000E948911F89480915208815080935208BD
:1052800008950F931F93CF93DF931F92CDB7DEB78F
:1052900081E089830E941C2053DF00918A041091D1
:1052A0008B04F801118210820E94FD19B0DF81E0A9
:1052B000F80120813181232B09F080E089837894E3
:1052C000789489818823C1F081E0F80120813181BF
:1052D000232B09F480E0809351089091510881E0DC
:1052E000911180E089838981882311F0AFDF02C0AA
:1052F00080E090E08983E5CF0E94F01CF89480E084
:1053000090E00F90DF91CF911F910F910895505829
:10531000BB27AA270ED086C277D230F07CD220F0ED
:1053200031F49F3F11F41EF447C20EF4E095E7FB01
:1053300014C2E92F88D280F3BA1762077307840773
:10534000950718F071F49EF5B7C20EF4E0950B2E98
:10535000BA2FA02D0B01B90190010C01CA01A001C7
:105360001124FF27591B99F0593F50F4503E68F122
:105370001A16F040A22F232F342F4427585FF3CF63
:10538000469537952795A795F0405395C9F77EF434
:105390001F16BA0B620B730B840BBAF09150A1F07D
:1053A000FF0FBB1F661F771F881FC2F70EC0BA0F03
:1053B000621F731F841F48F4879577956795B7958B
:1053C000F7959E3F08F0B3CF9395880F08F0992783
:1053D000EE0F97958795089517D258F080E891E0E1
:1053E00009F49EEF18D228F040E851E059F45EEF3E
:1053F00009C0E2C161C2E92FE07825D268F3092E25
:10540000052AC1F3261737074807590738F00E2E2B
:1054100007F8E02569F0E025E0640AC0EF6307F8CB
:10542000009407FADB01B9019D01DC01CA01AD015D
:10543000EF9347D0F7D10AD05F91552331F02BED90
:105440003FE049E450FD49EC63CF0895DF93DD2749
:10545000B92FBF7740E85FE31616170648075B07CA
:1054600010F4D92F34D29F938F937F936F9399D257
:10547000EAE3F1E0A4D1D6D12F913F914F915F9112
:1054800039D2DD2349F09058A2EA2AED3FE049ECF9
:105490005FE3D0785D274DDFDF91C4C13AD108F4D6
:1054A00081E008950CD0BEC1B6D140F0ADD130F04E
:1054B00021F45F3F19F051C15111FFC17DC1C3D12A
:1054C00098F39923C9F35523B1F3951B550BBB27CB
:1054D000AA2762177307840738F09F5F5F4F220F78
:1054E000331F441FAA1FA9F333D00E2E3AF0E0E871
:1054F00030D091505040E695001CCAF729D0FE2FBD
:1055000027D0660F771F881FBB1F2617370748074E
:10551000AB07B0E809F0BB0B802DBF01FF27935804
:105520005F4F2AF09E3F510568F017C1C6C15F3F2B
:10553000ECF3983EDCF3869577956795B795F795EC
:105540009F5FC9F7880F911D9695879597F90895E4
:10555000E1E0660F771F881FBB1F62177307840780
:10556000BA0720F0621B730B840BBA0BEE1F88F78F
:10557000E095089504D06894B1119FC108956BD14E
:1055800088F09F5790F0B92F9927B751A0F0D1F02C
:10559000660F771F881F991F1AF0BA95C9F712C0B6
:1055A000B13081F089D1B1E0089586C1672F782F9D
:1055B0008827B85F39F0B93FCCF386957795679522
:1055C000B395D9F73EF490958095709561957F4F8E
:1055D0008F4F9F4F0895E89409C097FB3EF4909534
:1055E0008095709561957F4F8F4F9F4F9923A9F0BC
:1055F000F92F96E9BB279395F6958795779567954B
:10560000B795F111F8CFFAF4BB0F11F460FF1BC08E
:105610006F5F7F4F8F4F9F4F16C0882311F096E921
:1056200011C0772321F09EE8872F762F05C06623CF
:1056300071F096E8862F70E060E02AF09A95660F88
:10564000771F881FDAF7880F9695879597F9089541
:105650001CD180F09F3740F491110EF02EC160E014
:1056600070E080E89FEB089526F41B16611D711D04
:10567000811D79C093C0C8D018F011F0CCD038F497
:105680009BC01BC1E92FDFD0B0F35523C9F3E7FB63
:105690006217730784079507A8F199F3E92FFF278D
:1056A00088232AF03197660F771F881FDAF7952F26
:1056B0005527442332F091505040220F331F441F8E
:1056C000D2F7BB27E91BF50B621B730B840BB109E7
:1056D000C1F222F4620F731F841FB11D31972AF0AB
:1056E000660F771F881FBB1FEFCF915050405AF0B5
:1056F00041F0882332F0660F771F881F9150504089
:10570000C1F793954BC08695779567959F5FD9F7BD
:10571000F8CF990F0008550FAA0BE0E8FEEF161618
:105720001706E807F907C0F012161306E407F50795
:1057300098F0621B730B840B950B39F40A2661F009
:10574000232B242B252B21F408950A2609F4A140AC
:10575000A6958FEF811D811D089597F99F6780E8B9
:1057600070E060E00895882371F4772321F0985069
:10577000872B762F07C0662311F499270DC090510F
:10578000862B70E060E02AF09A95660F771F881FDD
:10579000DAF7880F9695879597F908959F3F31F02E
:1057A000915020F4879577956795B795880F911D4F
:1057B0009695879597F908959FEF80EC0895DF936C
:1057C000CF931F930F93FF92EF92DF927B018C0197
:1057D000689405C0DA2EEF018DD0FE01E894A59102
:1057E0002591359145915591AEF3EF01A2DDFE0172
:1057F0009701A801DA9479F7DF90EF90FF900F916D
:105800001F91CF91DF91089500240A941616170670
:1058100018060906089500240A94121613061406A1
:1058200005060895092E0394000C11F4882352F004
:10583000BB0F40F4BF2B11F460FF04C06F5F7F4FBC
:105840008F4F9F4F089557FD9058440F551F59F0A3
:105850005F3F71F04795880F97FB991F61F09F3F5D
:1058600079F087950895121613061406551FF2CF86
:105870004695F1DF08C0161617061806991FF1CFD6
:1058800086957105610508940895E5DFA0F0BEE7EF
:10589000B91788F4BB279F3860F41616B11D672F1F
:1058A000782F8827985FF7CF869577956795B11DF4
:1058B00093959639C8F30895E894BB276627772710
:1058C000CB0197F9089525DF08F48FEF08959B0128
:1058D000AC0160E070E080E89FE3E4CD0BD0A2CFA4
:1058E00093DF28F098DF18F0952309F036CF64CFC6
:1058F0001124E3CFA8DFA0F3959FD1F3950F50E0DB
:10590000551F629FF001729FBB27F00DB11D639F71
:10591000AA27F00DB11DAA1F649F6627B00DA11D17
:10592000661F829F2227B00DA11D621F739FB00DBD
:10593000A11D621F839FA00D611D221F749F33272D
:10594000A00D611D231F849F600D211D822F762FC6
:105950006A2F11249F5750408AF0E1F088234AF0C3
:10596000EE0FFF1FBB1F661F771F881F915050400F
:10597000A9F79E3F510570F0F0CE9FCF5F3FECF34B
:10598000983EDCF3869577956795B795F795E795FB
:105990009F5FC1F7FE2B880F911D9695879597F90C
:1059A00008959B01AC019ACFB4DE880B990B089542
:1059B000A1E21A2EAA1BBB1BFD010DC0AA1FBB1F13
:1059C000EE1FFF1FA217B307E407F50720F0A21B85
:1059D000B30BE40BF50B661F771F881F991F1A94F2
:1059E00069F760957095809590959B01AC01BD011C
:1059F000CF010895EE0FFF1F881F8BBF0790F69110
:105A0000E02D199405D0332312F48A1B9B0B10C090
:105A1000A29FB001B39FC001A39F700D811D1124EF
:105A2000911DB29F700D811D1124911D0895F0DF0D
:0E5A3000B7FF0895821B930B0895F894FFCFE3
:105A3E000000B50B800001000000E803B81E453FD2
:105A4E000000803FE9814ABF5CF8D53D5CF8D53D4A
:105A5E00AE47E1BEF37195BE10FAE6C150FCD0BF61
:105A6E004260E53B00000000000080BF0000000027
:105A7E000000000000C0B2440000CA4200007F4394
:105A8E0000007F434260E53B00000000DEA00BB942
:105A9E0075029ABB6EDB0E434260E53B00000000D0
:105AAE000AD723BC0AD7233D0AD7233C00000000A7
:105ABE00A4707D3F0000803F00000000E5350642E7
:105ACE00E5350642000000000000803F0000803FE8
