:100000000C9405010C9433070C9464070C94950729
:100010000C94C6070C94F7070C9428080C94590804
:100020000C948A080C9432010C94CB130C944C134E
:100030000C9432010C9432010C9432010C94320174
:100040000C9432010C9432010C9432010C94320164
:100050000C9432010C9432010C9432010C94BB08C4
:100060000C9432010C9434010C9430020C94320143
:100070000C9432010C9432010C9432010C94320134
:100080000C9432010C9432010C9432010C94320124
:100090000C9473010C946F020C9432010C946C0C50
:1000A0000C9432010C9432010C9432010C94320104
:1000B0000C9432010C9432010C9432010C943201F4
:1000C0000C9432010C9432010C9432010C94B20164
:1000D0000C94AE020C9432010C94F1010C94ED02DC
:1000E0000C94320100002100240027002A002D007A
:1000F0003000330001010000040107010A01000083
:100100002200250028002B002E00310034000201BF
:100110000000050108010B0100002000230026005B
:1001200029002C002F00320000010000030106010D
:10013000090105050505070508080808020202026D
:100140000A0A080804040404010101010101010173
:100150000303030303030303040707070C0C0C0C3E
:100160000C0C0C0C02020202060606060606060627
:100170000B0B0B0B0B0B0B0B0102102020080810B4
:100180002040102040800201020108040201010207
:1001900004081020408080402010080402018004E0
:1001A000020180402010080402010804020101023B
:1001B0000408102040800102040810204080000044
:1001C000090A02080B0C0D070603040100000000D9
:1001D000000000000000000000000000000000001F
:1001E0000000000000000000000011100F000000DF
:1001F00000000000000000000000000000000000FF
:10020000000000005D049305100F11241FBECFEF06
:10021000D1E2DEBFCDBF00E00CBF14E0A0E0B2E051
:10022000E8EEF0E500E00BBF02C007900D92A63E9D
:10023000B107D9F71BBE19E0A6EEB4E001C01D92CC
:10024000A53BB107E1F712E0CAE0D2E004C0229773
:10025000FE010E946E28C430D107C9F70E94B21572
:100260000C9472280C9400001F920F920FB60F92FC
:100270000BB60F9211242F933F934F938F939F931D
:10028000EF93FF938091C00082FD1DC04091C60096
:1002900020912605309127052F5F3F4F2F73307037
:1002A00080912805909129052817390771F0E09170
:1002B0002605F0912705EA51FB4F4083309327052F
:1002C0002093260502C08091C600FF91EF919F9177
:1002D0008F914F913F912F910F900BBE0F900FBEBA
:1002E0000F901F9018951F920F920FB60F920BB69A
:1002F0000F9211242F933F934F938F939F93EF93DC
:10030000FF938091C80082FD1DC04091CE002091D6
:10031000AE053091AF052F5F3F4F2F733070809146
:10032000B0059091B1052817390771F0E091AE053D
:10033000F091AF05E259FA4F40833093AF05209317
:10034000AE0502C08091CE00FF91EF919F918F91F9
:100350004F913F912F910F900BBE0F900FBE0F90BA
:100360001F9018951F920F920FB60F920BB60F9217
:1003700011242F933F934F938F939F93EF93FF936A
:100380008091D00082FD1DC04091D600209136069C
:10039000309137062F5F3F4F2F73307080913806B2
:1003A000909139062817390771F0E0913606F091DF
:1003B0003706EA50FA4F40833093370620933606CB
:1003C00002C08091D600FF91EF919F918F914F9144
:1003D0003F912F910F900BBE0F900FBE0F901F906B
:1003E00018951F920F920FB60F920BB60F92112411
:1003F0002F933F934F938F939F93EF93FF9380910E
:10040000300182FD1DC0409136012091BE06309121
:10041000BF062F5F3F4F2F7330708091C0069091C1
:10042000C1062817390771F0E091BE06F091BF06AA
:10043000E258F94F40833093BF062093BE0602C0B6
:1004400080913601FF91EF919F918F914F913F9154
:100450002F910F900BBE0F900FBE0F901F9018950D
:100460001F920F920FB60F920BB60F9211242F937B
:100470003F938F939F93EF93FF9320916A05309161
:100480006B0580916C0590916D052817390731F443
:100490008091C1008F7D8093C10014C0E0916C05F4
:1004A000F0916D05E65DFA4F208180916C05909189
:1004B0006D0501968F73907090936D0580936C0518
:1004C0002093C600FF91EF919F918F913F912F91C3
:1004D0000F900BBE0F900FBE0F901F9018951F929C
:1004E0000F920FB60F920BB60F9211242F933F93DA
:1004F0008F939F93EF93FF932091F2053091F30533
:100500008091F4059091F5052817390731F4809111
:10051000C9008F7D8093C90014C0E091F405F0916B
:10052000F505EE54FA4F20818091F4059091F50580
:1005300001968F7390709093F5058093F405209346
:10054000CE00FF91EF919F918F913F912F910F904E
:100550000BBE0F900FBE0F901F9018951F920F9219
:100560000FB60F920BB60F9211242F933F938F93D8
:100570009F93EF93FF9320917A0630917B068091B1
:100580007C0690917D062817390731F48091D100BF
:100590008F7D8093D10014C0E0917C06F0917D06A0
:1005A000E65CF94F208180917C0690917D06019652
:1005B0008F73907090937D0680937C062093D60075
:1005C000FF91EF919F918F913F912F910F900BBED3
:1005D0000F900FBE0F901F9018951F920F920FB69D
:1005E0000F920BB60F9211242F933F938F939F93EB
:1005F000EF93FF9320910207309103078091040746
:10060000909105072817390731F4809131018F7DCA
:100610008093310114C0E0910407F0910507EE5377
:10062000F94F2081809104079091050701968F73FF
:100630009070909305078093040720933601FF91F3
:10064000EF919F918F913F912F910F900BBE0F9043
:100650000FBE0F901F901895AF92BF92DF92EF924E
:10066000FF920F931F93CF93DF93EC017A018B01DD
:10067000DD24403081EE580780E0680780E078078D
:1006800011F0DD24D39491E0A92EB12CEC89FD89E1
:10069000DD2069F0C50108A002C0880F991F0A94E7
:1006A000E2F7808360E079E08DE390E005C010829E
:1006B00060E874E88EE190E0A80197010E944A2862
:1006C00021503040404050405695479537952795EA
:1006D00080E12030380720F0DD2011F0DD24D6CF76
:1006E000E889F9893083EA89FB89208319A2EE8998
:1006F000FF89408121E030E0C9010C8C02C0880FE5
:10070000991F0A94E2F7482B4083EE89FF894081C4
:10071000C9010D8C02C0880F991F0A94E2F7482B7B
:100720004083EE89FF894081C9010E8C02C0880F89
:10073000991F0A94E2F7482B4083EE89FF89808154
:100740000F8C02C0220F331F0A94E2F72095282352
:100750002083DF91CF911F910F91FF90EF90DF9059
:10076000BF90AF900895DC011C96ED91FC911D9710
:10077000E05CFF4F2191319180819181281B390BE1
:100780002F733070C9010895DC011C96ED91FC9126
:100790001D97E05CFF4F20813181E054F040DF0184
:1007A000AE5BBF4F8D919C9111972817390719F4B3
:1007B0002FEF3FEF07C08D919C91E80FF91F8081CB
:1007C000282F30E0C9010895DC011C96ED91FC91C1
:1007D0001D97E05CFF4F20813181E054F040DF0144
:1007E000AE5BBF4F8D919C9111972817390719F473
:1007F0002FEF3FEF10C08D919C911197E80FF91FDB
:1008000020818D919C91119701968F739070119614
:100810009C938E9330E0C9010895DC0191968C91F0
:100820009197882339F05496ED91FC9155978081EA
:1008300086FFF9CF91961C920895CF93DF93EC0138
:10084000EE85FF85E05CFF4F20813181E054F04070
:100850002F5F3F4F2F733070DF01AE5BBF4F8D9125
:100860009C91119728173907D1F3E05CFF4F8081E5
:100870009181E054F040E80FF91F6083EE85FF8519
:10088000E05CFF4F31832083EE89FF89208181E086
:1008900090E00F8C02C0880F991F0A94E2F7282B72
:1008A000208381E089A3EC89FD8980818064808335
:1008B00081E090E0DF91CF9108951F931092090796
:1008C0001092080728EE33E040E050E020930A073A
:1008D00030930B0740930C0750930D0761EC74E0C5
:1008E000709307076093060786EE94E090931307D2
:1008F000809312078AE295E090931507809314077E
:1009000085EC90E0909317078093160784EC90E0B5
:10091000909319078093180780EC90E090931B0741
:1009200080931A0781EC90E090931D0780931C0739
:1009300082EC90E090931F0780931E0786EC90E076
:10094000909321078093200714E010932207B3E0CF
:10095000B0932307A7E0A0932407F5E0F0932507C1
:10096000E1E0E093260710922B0710922A072093CC
:100970002C0730932D0740932E0750932F07709329
:100980002907609328078EE695E0909335078093BA
:10099000340782EB95E090933707809336078DEC10
:1009A00090E090933907809338078CEC90E0909317
:1009B0003B0780933A0788EC90E090933D07809343
:1009C0003C0789EC90E090933F0780933E078AECC8
:1009D00090E090934107809340078EEC90E09093D5
:1009E00043078093420710934407B0934507A093B1
:1009F0004607F0934707E093480710924D0710927F
:100A00004C0720934E0730934F0740935007509365
:100A1000510770934B0760934A0786EF95E09093D8
:100A20005707809356078AE396E09093590780937F
:100A3000580785ED90E090935B0780935A0784ED0B
:100A400090E090935D0780935C0780ED90E0909339
:100A50005F0780935E0781ED90E09093610780933C
:100A6000600782ED90E0909363078093620786EDC4
:100A700090E0909365078093640710936607B093A6
:100A80006707A0936807F0936907E0936A071092DD
:100A90006F0710926E072093700730937107409391
:100AA00072075093730770936D0760936C078EE71E
:100AB00096E0909379078093780782EC96E0909384
:100AC0007B0780937A0785E391E090937D0780937D
:100AD0007C0784E391E090937F0780937E0780E317
:100AE00091E0909381078093800781E391E0909358
:100AF00083078093820782E391E090938507809338
:100B0000840786E391E0909387078093860710938C
:100B10008807B0938907A0938A07F0938B07E09327
:100B20008C071F91089581ED94E090938F07809337
:100B30008E071092900710929107109292071092D0
:100B4000930708958F929F92AF92BF92CF92DF92B8
:100B5000EF92FF920F931F93CF93DF934C016B01A2
:100B60007C01AA24BB24C0E0D0E0C601F701628169
:100B70004AE050E00E94A5068C01C6016EE20E9488
:100B80000E06080F191FA00EB11E21960894E11C35
:100B9000F11CC330D10549F7C601F40165814AE073
:100BA00050E00E94A5069501280F391FC901DF9169
:100BB000CF911F910F91FF90EF90DF90CF90BF905A
:100BC000AF909F908F900895CF92DF92EF92FF9217
:100BD0000F931F93CF93DF937C016B018A01C0E0D9
:100BE000D0E00FC0D6016D916D01D701ED91FC9160
:100BF0000190F081E02DC7011995C80FD91F015050
:100C000010400115110571F7CE01DF91CF911F91B1
:100C10000F91FF90EF90DF90CF900895DC01ED9160
:100C2000FC910190F081E02D19950895CF93DF9309
:100C3000EC016115710519F420E030E00FC0DB0113
:100C40000D900020E9F71197A61BB70BE881F981F9
:100C50000280F381E02DAD0119959C01C901DF915E
:100C6000CF9108954F925F927F928F929F92AF9211
:100C7000BF92CF92DF92EF92FF920F931F93DF9379
:100C8000CF93CDB7DEB7A1970FB6F894DEBF0FBEF6
:100C9000CDBF2C01742ECB01223008F42AE019A21A
:100CA00031E2C32ED12CCC0EDD1E822E9924AA2433
:100CB000BB24672D752FA50194010E944A28790154
:100CC0008A01C801B701A50194010E942B28472D74
:100CD000461B0894C108D1084A3014F4405D01C095
:100CE000495CF6014083E114F1040105110521F08E
:100CF0007E2C5F2DC801DDCFC201B6010E94160611
:100D0000A1960FB6F894DEBF0FBECDBFCF91DF9195
:100D10001F910F91FF90EF90DF90CF90BF90AF9019
:100D20009F908F907F905F904F900895DC012115E8
:100D3000310541F4ED91FC910190F081E02D642F9B
:100D4000199508950E9432060895EF92FF920F932D
:100D50001F939A01E62EFF2400E010E0B801A701DE
:100D60000E9496061F910F91FF90EF900895883092
:100D700008F078C0E82FF0E0EE0FFF1FEC56F84FB8
:100D8000718360838330D9F0843030F4813009F48A
:100D900044C0823060F439C0853051F18530D8F0DC
:100DA000863009F446C0873009F05CC04FC080919E
:100DB00069008C7F842B80936900E89A0895809164
:100DC0006900440F551F440F551F837F842B809368
:100DD0006900E99A08958091690074E0440F551FF5
:100DE0007A95E1F78F7C842B80936900EA9A0895C5
:100DF0008091690066E0440F551F6A95E1F78F7393
:100E0000842B80936900EB9A089580916A008C7F0F
:100E1000842B80936A00EC9A089580916A00440FB5
:100E2000551F440F551F837F842B80936A00ED9AD2
:100E3000089580916A0024E0440F551F2A95E1F738
:100E40008F7C842B80936A00EE9A089580916A00CB
:100E500096E0440F551F9A95E1F78F73842B80938A
:100E60006A00EF9A08951F920F920FB60F920BB679
:100E70000F9211242F933F934F935F936F937F9320
:100E80008F939F93AF93BF93EF93FF9380919807B6
:100E900090919907892B29F0E0919807F091990793
:100EA0001995FF91EF91BF91AF919F918F917F9194
:100EB0006F915F914F913F912F910F900BBE0F90CB
:100EC0000FBE0F901F9018951F920F920FB60F92A2
:100ED0000BB60F9211242F933F934F935F936F9311
:100EE0007F938F939F93AF93BF93EF93FF938091E3
:100EF0009A0790919B07892B29F0E0919A07F0912E
:100F00009B071995FF91EF91BF91AF919F918F91A1
:100F10007F916F915F914F913F912F910F900BBEF9
:100F20000F900FBE0F901F9018951F920F920FB643
:100F30000F920BB60F9211242F933F934F935F9311
:100F40006F937F938F939F93AF93BF93EF93FF9391
:100F500080919C0790919D07892B29F0E0919C0737
:100F6000F0919D071995FF91EF91BF91AF919F91DE
:100F70008F917F916F915F914F913F912F910F9042
:100F80000BBE0F900FBE0F901F9018951F920F92DF
:100F90000FB60F920BB60F9211242F933F934F93DE
:100FA0005F936F937F938F939F93AF93BF93EF93D1
:100FB000FF9380919E0790919F07892B29F0E091E4
:100FC0009E07F0919F071995FF91EF91BF91AF9107
:100FD0009F918F917F916F915F914F913F912F9151
:100FE0000F900BBE0F900FBE0F901F9018951F9281
:100FF0000F920FB60F920BB60F9211242F933F93BF
:101000004F935F936F937F938F939F93AF93BF9310
:10101000EF93FF938091940790919507892B29F086
:10102000E0919407F09195071995FF91EF91BF9189
:10103000AF919F918F917F916F915F914F913F9170
:101040002F910F900BBE0F900FBE0F901F90189511
:101050001F920F920FB60F920BB60F9211242F937F
:101060003F934F935F936F937F938F939F93AF9330
:10107000BF93EF93FF938091960790919707892BE9
:1010800029F0E0919607F09197071995FF91EF915C
:10109000BF91AF919F918F917F916F915F914F9190
:1010A0003F912F910F900BBE0F900FBE0F901F908E
:1010B00018951F920F920FB60F920BB60F92112434
:1010C0002F933F934F935F936F937F938F939F9350
:1010D000AF93BF93EF93FF938091A0079091A107E7
:1010E000892B29F0E091A007F091A1071995FF91B4
:1010F000EF91BF91AF919F918F917F916F915F9190
:101100004F913F912F910F900BBE0F900FBE0F90FC
:101110001F9018951F920F920FB60F920BB60F9259
:1011200011242F933F934F935F936F937F938F93EC
:101130009F93AF93BF93EF93FF938091A2079091FA
:10114000A307892B29F0E091A207F091A307199535
:10115000FF91EF91BF91AF919F918F917F916F918F
:101160005F914F913F912F910F900BBE0F900FBE4B
:101170000F901F9018951F920F920FB60F92112487
:101180002F933F938F939F93AF93BF938091A80723
:101190009091A907A091AA07B091AB073091AC0735
:1011A0000196A11DB11D232F2D5F2D3720F02D5746
:1011B0000196A11DB11D2093AC078093A8079093C1
:1011C000A907A093AA07B093AB078091A4079091B9
:1011D000A507A091A607B091A7070196A11DB11D73
:1011E0008093A4079093A507A093A607B093A707A1
:1011F000BF91AF919F918F913F912F910F900FBE13
:101200000F901F9018958FB7F8942091A8073091F0
:10121000A9074091AA075091AB078FBFB901CA0136
:1012200008959FB7F8942091A4073091A5074091A5
:10123000A6075091A70786B5A89B06C08F3F21F04F
:101240002F5F3F4F4F4F5F4F9FBF542F432F322F82
:101250002227280F311D411D511D82E0220F331F0F
:10126000441F551F8A95D1F7B901CA010895789492
:1012700084B5826084BD84B5816084BD85B582609B
:1012800085BD85B5816085BDEEE6F0E08081816039
:101290008083E1E8F0E01082808182608083808139
:1012A00081608083E0E8F0E0808181608083E1EB11
:1012B000F0E0808184608083E0EBF0E080818160F9
:1012C0008083E1E9F0E080818260808380818160B9
:1012D0008083E0E9F0E0808181608083E1EAF0E0F2
:1012E000808182608083808181608083E0EAF0E099
:1012F000808181608083E1E2F1E08081826080838F
:10130000808181608083E0E2F1E080818160808380
:10131000EAE7F0E08081846080838081826080835E
:101320008081816080838081806880831092C10089
:1013300008951F93CF93DF93182FEB0161E00E9474
:10134000790A209709F4CAC0CF3FD10509F4C9C072
:10135000E12FF0E0E254FE4F8491893009F466C039
:101360008A30B0F48430F1F1853040F4823059F1A4
:10137000833070F5813009F0AEC020C0873009F4A9
:1013800043C0883008F048C0863009F0A4C034C09B
:101390008D3009F478C08E3038F48B3009F45AC09F
:1013A0008C3008F066C04CC0803109F480C08131B7
:1013B00009F487C08F3009F08EC06FC084B5806893
:1013C00084BDC7BD92C084B5806284BDC8BD8DC0D8
:1013D00080918000806880938000D0938900C093C2
:1013E000880083C080918000806280938000D093C9
:1013F0008B00C0938A0079C08091B0008068809390
:10140000B000C093B30071C08091B000806280933F
:10141000B000C093B40069C0809190008068809350
:101420009000D0939900C09398005FC08091900085
:10143000806280939000D0939B00C0939A0055C027
:1014400080919000886080939000D0939D00C0931D
:101450009C004BC08091A00080688093A000809188
:10146000A0008F7B8093A000D093A900C093A80018
:101470003CC08091A00080628093A000D093AB001C
:10148000C093AA0032C08091A00088608093A00021
:10149000D093AD00C093AC0028C08091200180683B
:1014A00080932001D0932901C09328011EC0809110
:1014B0002001806280932001D0932B01C0932A01E8
:1014C00014C080912001886080932001D0932D0169
:1014D000C0932C010AC0C038D1051CF4812F60E0F4
:1014E00002C0812F61E00E942C0BDF91CF911F91F0
:1014F0000895CF93DF93482F50E0CA0188589E4F3C
:10150000FC0134914E5C5E4FFA018491882369F1AD
:1015100090E0880F991FFC01EC51FF4FA591B49109
:10152000FC01E250FF4FC591D491662351F42FB7CF
:10153000F8948C91932F909589238C93888189239B
:101540000BC0623061F42FB7F8948C91932F909573
:1015500089238C938881832B88832FBF06C09FB7F4
:10156000F8948C91832B8C939FBFDF91CF9108953A
:10157000893009F449C08A30A0F4843051F18530B3
:1015800040F4823079F1833000F5813009F063C096
:1015900026C0873079F1883098F5863009F05BC035
:1015A00025C08D3009F442C08E3028F48B30B1F163
:1015B0008C30C0F52DC0803109F442C0813109F46E
:1015C00045C08F3009F047C037C0809180008F77C9
:1015D00003C0809180008F7D80938000089584B542
:1015E0008F7702C084B58F7D84BD08958091B0004F
:1015F0008F7703C08091B0008F7D8093B0000895F5
:10160000809190008F7707C0809190008F7D03C0FC
:1016100080919000877F8093900008958091A00032
:101620008F7707C08091A0008F7D03C08091A000BC
:10163000877F8093A0000895809120018F7703C059
:10164000809120018F7D8093200108958091200159
:10165000877F809320010895FF920F931F93F62EAA
:10166000482F50E0CA0182549E4FFC012491CA01C8
:1016700088589E4FFC0114914E5C5E4FFA01049114
:101680000023C9F0222319F0822F0E94B80AE02F0C
:10169000F0E0EE0FFF1FE250FF4FA591B4919FB70E
:1016A000F894FF2021F48C911095812302C08C9135
:1016B000812B8C939FBF1F910F91FF9008950F93E3
:1016C0001F93482F50E0CA0182549E4FFC01249181
:1016D000CA0188589E4FFC0104914E5C5E4FFA018E
:1016E0001491112319F420E030E015C0222319F0E1
:1016F000822F0E94B80A812F90E0880F991F885E80
:101700009E4FFC01A591B4918C9120E030E08023A4
:1017100011F021E030E0C9011F910F91089581304F
:10172000910579F0823091051CF4892B39F00895E8
:101730008230910549F0039781F40BC086E097E071
:1017400005C088E297E002C08AE497E00E94E405C1
:1017500008958CE697E00E94E40508958130910594
:1017600079F0823091051CF4892B39F0089582308C
:10177000910549F0039781F40BC086E097E005C01E
:1017800088E297E002C08AE497E00E942C03089563
:101790008CE697E00E942C030895382F413210F018
:1017A00040E042C0809133088823E1F791E09093B4
:1017B0003308209331088FEF8093340810920F087C
:1017C0004150409310084F5F90930E0880910E088F
:1017D000330F832B80930E0880913208813041F4BF
:1017E0001092320880910E088093BB0085EC01C0F6
:1017F00085EE8093BC00809133088130E1F38091C5
:101800000F08841710F440910F0820E030E00AC060
:10181000FB01E20FF31FD901AF5EB74F8C918083BC
:101820002F5F3F4F2417A0F3842F08950F931F932A
:10183000582F122F413210F081E045C080913308BB
:101840008823E1F782E080933308009331088FEF1B
:101850008093340810920F0840931008A1E1B8E07B
:10186000FB0102C081918D938E2F861B8417D0F3CC
:1018700010920E0880910E08550F852B80930E084C
:1018800080913208813041F41092320880910E0824
:101890008093BB0085EC01C085EE8093BC001123D2
:1018A000A9F080913308823089F4FBCF809134080D
:1018B000803211F482E007C080913408803311F047
:1018C00084E001C083E01F910F9108958091340856
:1018D0008F3F61F780E0F7CF1F920F920FB60F9204
:1018E0000BB60F9211242F933F934F935F936F93F7
:1018F0007F938F939F93AF93BF93EF93FF938091C9
:10190000B90090E0887F90708036910509F4F2C0AC
:1019100081369105CCF58832910509F47BC0893276
:101920009105B4F48031910509F46FC081319105BE
:101930003CF4009709F447C1089709F04FC165C00E
:101940008831910509F466C0809709F047C182C0CB
:101950008034910509F4A4C08134910544F48033A6
:10196000910509F482C0C89709F038C189C0803553
:10197000910509F489C08835910509F496C0883429
:10198000910509F02BC1AEC08839910509F413C146
:1019900089399105ECF48837910509F4ABC0893792
:1019A00091054CF48836910509F4A4C0803791055F
:1019B00009F014C19FC08838910509F4FCC0803932
:1019C000910509F49DC08038910509F007C198C0C0
:1019D000803B910509F4C6C0813B91054CF4803AE7
:1019E000910509F49FC0883A910509F0F7C0BAC083
:1019F000803C910509F4E3C0883C910509F4DFC0FF
:101A0000883B910509F0EAC0C2C080910E0880931E
:101A1000BB00CFC090910F0880911008981768F410
:101A200090910F08E92FF0E0EF5EF74F80818093EF
:101A3000BB009F5F90930F08BCC080913108882342
:101A400009F44BC085ED8093BC008091BC0084FDFF
:101A5000FCCFC2C080E28093340885ED8093BC0047
:101A60008091BC0084FDFCCFB7C080E38093340834
:101A700085ED8093BC008091BC0084FDFCCFACC0A0
:101A800088E3809334089BC080910F089091BB003D
:101A9000E82FF0E0EF5EF74F90838F5F80930F08A1
:101AA00090910F088091100882C080910F0890914A
:101AB000BB00E82FF0E0EF5EF74F90838F5F8093DD
:101AC0000F0880913108882341F085ED8093BC0098
:101AD0008091BC0084FDFCCF7FC081E08093320800
:101AE00084EA6EC085ED8093BC008091BC0084FDCB
:101AF000FCCF72C083E0809333081092350859C040
:101B000080913508803208F056C080913508909158
:101B1000BB00E82FF0E0EA5CF74F90838F5F809383
:101B2000350847C080913508803230F4E09135089F
:101B3000F0E0EA5CF74F108285ED8093BC00809165
:101B4000BC0084FDFCCF1092330860913508E09111
:101B50005608F091570886E398E070E019951092C6
:101B600035082DC084E080933308109258081092F5
:101B70005908E0915A08F0915B081995809159082D
:101B8000882329F481E08093590810925C08909191
:101B90005808E92FF0E0E45AF74F80818093BB00AA
:101BA0009F5F909358089091580880915908981712
:101BB00010F485EC01C085E88093BC000FC085EC73
:101BC0008093BC0009C01092340885ED8093BC005E
:101BD0008091BC0084FDFCCF10923308FF91EF91FF
:101BE000BF91AF919F918F917F916F915F914F9135
:101BF0003F912F910F900BBE0F900FBE0F901F9033
:101C00001895413208F040E2862F6DEA77E00E9495
:101C1000CD0B1092CD078093CE07089521E00E944E
:101C2000010E08950F93062F8091CF0760ED77E0A6
:101C30004091F10721E00E94160C1092F0071092DB
:101C4000F1071092F2070F91089561E00E94120EC1
:101C50000895DF93CF930F92CDB7DEB7FC01698370
:101C60008091F2078823C9F08091F107803238F023
:101C700081E090E09383828320E030E01AC080917D
:101C8000F007E82FF0E0E053F84F998190838F5FE1
:101C90008093F0078093F1070AC080913308843065
:101CA00031F481E080935908898180935C0821E0B8
:101CB00030E0C9010F90CF91DF910895CF92DF926C
:101CC000EF92FF920F931F93CF93DF936C018B01E1
:101CD0007A018091F2078823A1F0C0E0D0E00DC026
:101CE000D601ED91FC91D801AC0FBD1F0190F081A0
:101CF000E02DC6016C9119952196CE15DF0580F374
:101D000013C0413288F480913308843069F4E09242
:101D10005908562FACE5B8E0FB0102C081918D93C4
:101D20008E2F851B8417D0F3C701DF91CF911F91B0
:101D30000F91FF90EF90DF90CF9008952091CE0704
:101D400030E08091CD07281B3109C90108954091E9
:101D5000CD078091CE07481718F02FEF3FEF0AC04C
:101D6000E42FF0E0E355F84F8081282F30E04F5FFB
:101D70004093CD07C9010895E091CD078091CE072A
:101D8000E81718F0EFEFFFEF06C0F0E0E355F84F6B
:101D90008081E82FF0E0CF0108950895FF920F931E
:101DA0001F93CF93DF93F42E122F032F91E0909384
:101DB000F2078093CF071092F0071092F10783EF9C
:101DC00097E00E94290E212F302FC901EC0110E06D
:101DD00006C083EF97E069910E94290E1F5F1F15CF
:101DE000C0F383EF97E00E94250E90E0882309F46A
:101DF00091E0892FDF91CF911F910F91FF9008956E
:101E0000DF93CF930F92CDB7DEB7498341E09E01B8
:101E10002F5F3F4F0E94CE0E0F90CF91DF9108951C
:101E20001092F6071092F50788EE93E0A0E0B0E07C
:101E30008093F7079093F807A093F907B093FA07F8
:101E400087ED94E09093F4078093F30788E68093FE
:101E5000FF0708952F923F924F925F926F927F9269
:101E60008F929F92AF92BF92CF92DF92EF92FF92AA
:101E70000F931F93DF93CF9300D00F920F92CDB7A4
:101E8000DEB7882E6983942E3B832A830E94030940
:101E90005B016C01FF24EE24292C332428016624E5
:101EA000772461C021E02093F2078092CF0710923F
:101EB000F0071092F10783EF97E069810E94290EE5
:101EC00083EF97E00E94250E31E03093F207809275
:101ED000CF071092F0071092F107A1014E19510996
:101EE0004132510514F040E250E083EF97E0682D55
:101EF0000E940E0E8F2D992787FD9095EA81FB8118
:101F00008E0F9F1F9D838C830FC0E92FF0E0E35558
:101F1000F84F8081282F9F5F9093CD07EC81FD8142
:101F20002193FD83EC83F3949091CE078091CD07AC
:101F3000981709F450C00115110561F00E940309BA
:101F40006A197B098C099D09641575058605970535
:101F500008F041C09091CD078091CE079817A8F264
:101F60002FEF3FEFDBCFE91408F49CCF01151105EB
:101F7000C9F00E9403096A197B098C099D0998011F
:101F800040E050E0621773078407950758F02F2D43
:101F9000332727FD3095892D90E02817390714F451
:101FA000FF24FA948F2D0F900F900F900F900F90A9
:101FB000CF91DF911F910F91FF90EF90DF90CF9025
:101FC000BF90AF909F908F907F906F905F904F9059
:101FD0003F902F90089583EF97E00E94250E892D62
:101FE000F0E2F91508F480E2E80EBDCFEF92FF921F
:101FF0000F931F937C019C012F5F3F4F00912B0299
:1020000010912C02FC01808163E442E00E942A0FBF
:10201000F701918180E0228130E0282B392BC90122
:102020001F910F91FF90EF900895EF92FF920F9301
:102030001F937C019C012F5F3F4F00912B02109159
:102040002C02FC0180816FE342E00E942A0FF7011D
:10205000918180E0228130E0282B392BC9011F912A
:102060000F91FF90EF900895EF92FF920F931F93BF
:102070007C019C012F5F3F4F00912B0210912C029D
:10208000FC0180816DE342E00E942A0FF7019181FB
:1020900080E0228130E0282B392BC9011F910F915C
:1020A000FF90EF900895EF92FF920F931F93CF93BD
:1020B000DF93EC018B017A01F901608171818281EA
:1020C000938120E030E040E85FE30E94D22588233E
:1020D000A1F48FEF97E00E94F60F998388838FEF2A
:1020E00097E00E943410F801918380838FEF97E08E
:1020F0000E941510F70191838083DF91CF911F918A
:102100000F91FF90EF9008950F931F93FA018901AB
:1021100041E09F010E942A0F1F910F910895DF92C5
:10212000EF92FF920F931F93DF93CF930F92CDB750
:10213000DEB7E82ED62EF42E122F20912B023091EE
:102140002C02AE014F5F5F4F0E948410882341F143
:10215000212F30E04F2D50E04F5F5F4F421B530B5C
:1021600081E090E002C0880F991F1A95E2F701976D
:10217000042E02C0880F991F0A94E2F7202F30E046
:1021800002C0220F331F4A95E2F7482F409559812C
:1021900045238223482B49838E2D6D2D0E94000FED
:1021A0000F90CF91DF911F910F91FF90EF90DF90F3
:1021B00008950F93FC01062F80816BE642E023E037
:1021C0000E948F100F9108950F93FC01062F8081BC
:1021D0006CE144E022E00E948F100F9108950F936C
:1021E000FC01062F80816BE144E022E00E948F1009
:1021F0000F9108950F93FC01062F80816AE142E060
:1022000023E00E948F100F910895EF92FF920F9399
:102210001F93DF93CF930F92CDB7DEB7F82EE62E44
:10222000042F122F20912B0230912C02AE014F5F10
:102230005F4F0E9484102981112351F081E090E0CA
:1022400002C0880F991F0A95E2F7422F482B0AC057
:1022500081E090E002C0880F991F0A95E2F7482FAD
:102260004095422349838F2D6E2D0E94000F0F90C1
:10227000CF91DF911F910F91FF90EF900895FC0196
:10228000262F80816BE646E00E94051108950F938A
:102290001F938C0161E00E94D910C80160E00E9488
:1022A000EF10C80160E00E94E410C80160E00E94E5
:1022B0003F111F910F9108951092330881E0809390
:1022C00031081092320884E161E00E942C0B85E114
:1022D00061E00E942C0BE9EBF0E080818E7F80832F
:1022E00080818D7F808388E48093B80085E480932B
:1022F000BC0008951092CD071092CE071092F007FF
:102300001092F1070E945C110895CF93DF93E901C9
:10231000688179818A819B8120E030E040E85FE339
:102320000E94D2258823A9F083EF97E00E947A11BA
:102330008FEF97E065E00E94FA108FEF97E00E9420
:10234000471180E090E0A0E8BFE388839983AA83E7
:10235000BB83DF91CF9108958231910509F18331DB
:10236000910534F48230910579F00397E1F409C0C6
:102370008431910579F0843191057CF0459799F489
:1023800006C021E030E011C020E030E00EC022E0C5
:1023900030E00BC023E030E008C024E030E005C0AE
:1023A00025E030E002C02FEF3FEFC9010895CF9242
:1023B000DF92EF92FF920F931F93DF93CF93CDB7EE
:1023C000DEB77C016B01FA01890160817181828134
:1023D000938120E030E040E85FE30E94D22588232B
:1023E000F1F4D801EC91F0E093E0EE0FFF1F9A9525
:1023F000E1F7E058F74F80819181F7019183808365
:102400001196EC91F0E083E0EE0FFF1F8A95E1F763
:10241000E058F74F80819181D6018D939C93CF91A5
:10242000DF911F910F91FF90EF90DF90CF90089573
:10243000AF92BF92CF92DF92EF92FF920F931F93D2
:10244000DF93CF93CDB7DEB76A018901DA016D91D1
:102450007D918D919C9120E030E040E85FE30E9407
:10246000D225882309F40DC1D801EC91F0E0D70101
:102470008C9190E053E0EE0FFF1F5A95E1F7E4587E
:10248000F74F91838083D801EC91F0E0D5018C91D6
:1024900090E043E0EE0FFF1F4A95E1F7E258F74F57
:1024A00091838083D8011196EC91F0E0D7011196C9
:1024B0008C9190E033E0EE0FFF1F3A95E1F7E4587E
:1024C000F74F91838083D8011196EC91F0E0D5010C
:1024D00011968C9190E023E0EE0FFF1F2A95E1F713
:1024E000E258F74F91838083D801EC91F0E0B3E09C
:1024F000EE0FFF1FBA95E1F7E458F74F8081918105
:1025000060E00E94790AD801EC91F0E0A3E0EE0FC0
:10251000FF1FAA95E1F7E258F74F8081918160E0B3
:102520000E94790AD8011196EC91F0E073E0EE0F69
:10253000FF1F7A95E1F7E458F74F8081918160E0C1
:102540000E94790AD8011196EC91F0E063E0EE0F59
:10255000FF1F6A95E1F7E258F74F8081918160E0B3
:102560000E94790AD801EC91F0E053E0EE0FFF1FD2
:102570005A95E1F7E458F74F8081918161E00E941C
:102580002C0BD801EC91F0E043E0EE0FFF1F4A95D1
:10259000E1F7E258F74F8081918161E00E942C0BB6
:1025A000D8011196EC91F0E033E0EE0FFF1F3A9561
:1025B000E1F7E458F74F8081918161E00E942C0B94
:1025C000D8011196EC91F0E023E0EE0FFF1F2A9561
:1025D000E1F7E258F74F8081918161E00E942C0B76
:1025E000F8012081222319F0223071F515C0809165
:1025F0007C0890917D080E94AC1168E575E141E08E
:1026000050E00E94B70680917E0890917F080E945A
:10261000AC116EEF74E114C080918C0890918D081C
:102620000E94AC1164EA74E141E050E00E94B706F8
:1026300080918E0890918F080E94AC116AE474E139
:1026400041E050E00E94B70680916800846080936A
:1026500068008091680082608093680080916D00BE
:10266000816080936D0080916C00826080936C002B
:1026700080E090E0A0E8BFE3F60180839183A2832D
:10268000B383CF91DF911F910F91FF90EF90DF9077
:10269000CF90BF90AF9008951F920F920FB60F92F8
:1026A0000BB60F9211240F931F932F933F934F93C9
:1026B0005F936F937F938F939F93AF93BF93CF93CA
:1026C000DF93EF93FF9380918408909185080E9497
:1026D0005F0BEC0100918A0810918B0820E030E03C
:1026E00024C0B901882777FD8095982F0E94712614
:1026F00020E030E040E050E00E946E2520E030E035
:1027000040E050E00E946E2520E030E040E450E4DC
:102710000E946E2520E030E040E450E40E946D25E8
:102720000E943E269B012F5F3F4F20173107CCF2BE
:1027300080918608909187080E945F0B019719F499
:10274000219749F402C0CD2B31F4809188089091F3
:102750008908019605C080918808909189080197A1
:102760009093890880938808FF91EF91DF91CF9132
:10277000BF91AF919F918F917F916F915F914F9199
:102780003F912F911F910F910F900BBE0F900FBE95
:102790000F901F9018951F920F920FB60F920BB6C5
:1027A0000F9211240F931F932F933F934F935F9397
:1027B0006F937F938F939F93AF93BF93CF93DF9349
:1027C000EF93FF9380918608909187080E945F0B9A
:1027D000EC0100918A0810918B0820E030E024C0C1
:1027E000B901882777FD8095982F0E94712620E0F7
:1027F00030E040E050E00E946E2520E030E040E014
:1028000050E00E946E2520E030E040E450E40E9459
:102810006E2520E030E040E450E40E946D250E94E7
:102820003E269B012F5F3F4F20173107CCF280914E
:102830008408909185080E945F0B019719F4CD2BB5
:1028400049F402C0219731F4809188089091890859
:10285000019605C08091880890918908019790930E
:10286000890880938808FF91EF91DF91CF91BF9104
:10287000AF919F918F917F916F915F914F913F9118
:102880002F911F910F910F900BBE0F900FBE0F90C5
:102890001F9018950F931F93CF93DF9380918C080F
:1028A00090918D080E945F0BEC01009192081091AD
:1028B000930820E030E024C0B901882777FD809597
:1028C000982F0E94712620E030E040E050E00E9406
:1028D0006E2520E030E040E050E00E946E2520E0D0
:1028E00030E040E450E40E946E2520E030E040E417
:1028F00050E40E946D250E943E269B012F5F3F4FB2
:1029000020173107CCF280918E0890918F080E9499
:102910005F0B019719F4219749F402C0CD2B31F4D4
:102920008091900890919108019605C0809190083F
:102930009091910801979093910880939008DF916E
:10294000CF911F910F9108950F931F93CF93DF9312
:1029500080918E0890918F080E945F0BEC0100918E
:1029600092081091930820E030E024C0B901882734
:1029700077FD8095982F0E94712620E030E040E09E
:1029800050E00E946E2520E030E040E050E00E94E0
:102990006E2520E030E040E450E40E946E2520E007
:1029A00030E040E450E40E946D250E943E269B01E9
:1029B0002F5F3F4F20173107CCF280918C08909108
:1029C0008D080E945F0B019719F4CD2B49F402C0CA
:1029D000219731F48091900890919108019605C05B
:1029E000809190089091910801979093910880931D
:1029F0009008DF91CF911F910F9108950F931F932E
:102A0000CF93DF9380917C0890917D080E945F0BAB
:102A1000EC01009182081091830820E030E024C08E
:102A2000B901882777FD8095982F0E94712620E0B4
:102A300030E040E050E00E946E2520E030E040E0D1
:102A400050E00E946E2520E030E040E450E40E9417
:102A50006E2520E030E040E450E40E946D250E94A5
:102A60003E269B012F5F3F4F20173107CCF280910C
:102A70007E0890917F080E945F0B019719F42197BF
:102A800049F402C0CD2B31F48091800890918108E7
:102A9000019605C0809180089091810801979093DC
:102AA000810880938008DF91CF911F910F91089545
:102AB0000F931F93CF93DF9380917E0890917F08AF
:102AC0000E945F0BEC01009182081091830820E0C6
:102AD00030E024C0B901882777FD8095982F0E94A7
:102AE000712620E030E040E050E00E946E2520E0BA
:102AF00030E040E050E00E946E2520E030E040E40D
:102B000050E40E946E2520E030E040E450E40E9452
:102B10006D250E943E269B012F5F3F4F20173107F6
:102B2000CCF280917C0890917D080E945F0B019708
:102B300019F4CD2B49F402C0219731F4809180081B
:102B400090918108019605C080918008909181083C
:102B500001979093810880938008DF91CF911F9116
:102B60000F910895AF92BF92CF92DF92EF92FF92B2
:102B70000F931F93CF93DF930E9437090E9418167B
:102B80008DE061E00E94790A8DE060E00E942C0BEC
:102B900080E090E040E052EC61E070E00E94AE0B1B
:102BA00080E090E060E072E04AE150E00E948F0B2C
:102BB000C091E304D091E404AA24BB24650124C09D
:102BC0000E9411097B018C01DC01CB018A199B0950
:102BD000AC09BD0988589341A040B040A8F00E94BC
:102BE00014190E9444170E9411096E197F09800B65
:102BF000910B695873418040904020F08DE061E076
:102C00000E942C0B5701680188819981892BC1F2A0
:102C10000E94171680E090E0DF91CF911F910F91F5
:102C2000FF90EF90DF90CF90BF90AF900895089500
:102C300084E090E00E943025E4EDF8E085E9DF01D2
:102C40001D928A95E9F78DE599E09093D9088093D4
:102C5000D8088FE599E097AF86AF85E599E0909326
:102C6000E7088093E608F0933D09E0933C09F09370
:102C7000D708E093D60881E090E090935E098093B6
:102C80005D0989E192E09093DD088093DC0881E69C
:102C900099E09093600980935F098AE097EDA3EA39
:102CA000BBE38093550990935609A0935709B093BD
:102CB000580984E3E9E6F9E0DF011D928A95E9F716
:102CC000E4E9F8E080E4DF011D928A95E9F785E701
:102CD00092E09093B9088093B8088DE592E09093C4
:102CE000BB088093BA081092D1081092D00885E4EE
:102CF00092E09093BF088093BE088DE292E090939B
:102D0000C1088093C00817AE16AE8091D50361E06C
:102D10000E94790A8091D90361E00E94790A20E03B
:102D200030E040E050E020939408309395084093C1
:102D30009608509397088091CD039091CE03A0916F
:102D4000CF03B091D0038093C4089093C508A0939B
:102D5000C608B093C7088091A5049091A604A091DD
:102D6000A704B091A8048093C8089093C908A093C1
:102D7000CA08B093CB088091D1039091D203A0915F
:102D8000D303B091D4038093CC089093CD08A09343
:102D9000CE08B093CF088091E9039091EA03A09107
:102DA000EB03B091EC038093980890939908A0935B
:102DB0009A08B0939B088091050490910604A09115
:102DC0000704B091080480939C0890939D08A093F9
:102DD0009E08B0939F088091210490912204A091B5
:102DE0002304B09124048093A0089093A108A09399
:102DF000A208B093A30880913D0490913E04A09155
:102E00003F04B09140048093A4089093A508A09338
:102E1000A608B093A7088091490490914A04A09114
:102E20004B04B0914C048093A8089093A908A093F8
:102E3000AA08B093AB088091610490916204A091BC
:102E40006304B09164048093AC089093AD08A093A0
:102E5000AE08B093AF088091790490917A04A09164
:102E60007B04B0917C048093B0089093B108A09348
:102E7000B208B093B3082093B4083093B5084093D8
:102E8000B6085093B70808954F925F926F927F9261
:102E90008F929F92AF92BF92CF92DF92EF92FF926A
:102EA0000F931F93B1E96B2EB9E07B2EB3016E5FD8
:102EB0007F4FA4E94A2EA8E05A2EE5EBF4E0DF01AB
:102EC0001496C301A2019F0102E010E032967F0137
:102ED000F2E0CF2ED12C5D01E2E08E2E912C0E94EB
:102EE00018128091850990918609A0918709B09167
:102EF00088098093C4089093C508A093C608B0932E
:102F0000C7086091A1047091A2048091A3049091DC
:102F1000A40420918D0930918E0940918F09509120
:102F200090090E94C8279B01AC016091C80870916C
:102F3000C9088091CA089091CB080E946E256093C1
:102F4000C8087093C9088093CA089093CB088091F1
:102F5000890990918A09A0918B09B0918C0980937D
:102F6000CC089093CD08A093CE08B093CF08609181
:102F7000E1037091E2038091E3039091E4032091D7
:102F800098083091990840919A0850919B080E94A6
:102F9000C8279B01AC0160917509709176098091F9
:102FA0007709909178090E946E2560939808709334
:102FB000990880939A0890939B086091FD03709103
:102FC000FE038091FF039091000420919C083091B2
:102FD0009D0840919E0850919F080E94C8279B0120
:102FE000AC016091790970917A0980917B09909187
:102FF0007C090E946E2560939C0870939D088093C5
:103000009E0890939F086091190470911A04809112
:103010001B0490911C042091A0083091A1084091BC
:10302000A2085091A3080E94C8279B01AC0160919F
:103030007D0970917E0980917F09909180090E949D
:103040006E256093A0087093A1088093A2089093C6
:10305000A3086091350470913604809137049091F3
:1030600038042091A4083091A5084091A6085091F9
:10307000A7080E94C8279B01AC016091810970914B
:10308000820980918309909184090E946E25609342
:10309000A4087093A5088093A6089093A708609150
:1030A0004104709142048091430490914404209122
:1030B000A8083091A9084091AA085091AB080E9435
:1030C000C8279B01AC016091690970916A098091E0
:1030D0006B0990916C090E946E256093A80870930B
:1030E000A9088093AA089093AB0860915904709145
:1030F0005A0480915B0490915C042091AC0830915B
:10310000AD084091AE085091AF080E94C8279B01BE
:10311000AC0160916D0970916E0980916F09909179
:1031200070090E946E256093AC087093AD0880937F
:10313000AE089093AF086091710470917204809111
:103140007304909174042091B0083091B1084091BB
:10315000B2085091B3080E94C8279B01AC0160914E
:1031600071097091720980917309909174090E949C
:103170006E256093B0087093B1088093B208909365
:10318000B308A301485F5F4F20E230E0420E531EB8
:10319000C3010496E6E0F0E06E0E7F1EB3019201DB
:1031A0000E9485110FE519E0E0905F09F090600939
:1031B000F8013E9760817181828193816F5F7F4FBB
:1031C0008F4F9F4F60837183828393830E946F260A
:1031D000209155093091560940915709509158094D
:1031E0000E94C827F701608371838283938306500E
:1031F0001040F80180819181A281B3810196A11DC7
:10320000B11D80839183A283B3831F910F91FF909F
:10321000EF90DF90CF90BF90AF909F908F907F9076
:103220006F905F904F9008952F923F924F925F92D0
:103230006F927F928F929F92AF92BF92CF92DF92C6
:10324000EF92FF920F931F93DF93CF93CDB7DEB72B
:10325000C957D0400FB6F894DEBF0FBECDBF8091E6
:10326000BA089091BB082E969FAF8EAF2E97C09054
:10327000B808D090B908E090D008F090D108E0915B
:103280005F09F09160096080718082809380D6012F
:1032900054962D913D914D915C915797C401B30186
:1032A0000E94C42788235CF02E96AEADBFAD2E974A
:1032B00054968D919D910D90BC91A02D97C0C40105
:1032C000B301F60120813181428153810E94D225D0
:1032D00018161CF0EE24FF243CC08701000F111FBC
:1032E000000F111F0C0D1D1DC401B301D8012D913C
:1032F0003D914D915C910E94D22587FD0DC08701C3
:103300000F5F1F4F000F111F000F111F0C0D1D1D10
:1033100014C00894E108F108F8012081318142814C
:10332000538104501040C401B3010E94D22587FD8F
:10333000F0CF0FC00894E11CF11CD8012D913D91F4
:103340004D915D918D01C401B3010E94C42787FF97
:10335000F1CFF092D108E092D0082701440C551C1F
:10336000440C551CF601E40DF51D80819181A2816C
:10337000B3812C968CAF9DAFAEAFBFAF2C978701BA
:103380000F5F1F4F000F111F000F111FC00ED11E26
:10339000D601AD90BD90CD90DC902C966CAD7DADFE
:1033A0008EAD9FAD2C97A60195010E94D225882352
:1033B00021F5C401B3012C962CAD3DAD4EAD5FADF2
:1033C0002C970E94D22588233CF42E96EEADFFADBB
:1033D0002E97E40DF51D06C02E96EEADFFAD2E978F
:1033E000E00FF11F80819181A281B381E2968CAFC1
:1033F0009DAFAEAFBFAFE29766C02E96EEADFFAD0C
:103400002E974E0E5F1ED2012D903D904D905C90F8
:10341000E00FF11F80819181A281B38128968CAF4A
:103420009DAFAEAFBFAF2897C201B10128962CADBA
:103430003DAD4EAD5FAD28970E94D225882339F46B
:10344000E2962CAE3DAE4EAE5FAEE2973CC0C601FA
:10345000B501A40193010E946D257B018C01C60179
:10346000B5012C962CAD3DAD4EAD5FAD2C970E94B5
:103470006D259B01AC01C801B7010E94D6257B01D7
:103480008C01A20191010E94C8275B016C0160E0E0
:1034900070E080E89FE3A80197010E946D252896BF
:1034A0002CAD3DAD4EAD5FAD28970E94C8279B0166
:1034B000AC01C601B5010E946E25E2966CAF7DAFEE
:1034C0008EAF9FAFE297E091C008F091C1082496BB
:1034D000FFAFEEAF2497A090BE08B090BF08E09079
:1034E000D208F090D308E0915F09F0916009208044
:1034F000318042805380D50154962D913D914D915C
:103500005C915797C201B1010E94C42788234CF0F7
:103510002496EEADFFAD2497B489A5897689678995
:10352000F4C0C201B101D5012D913D914D915C9145
:103530000E94D22518161CF0EE24FF243CC08701FF
:10354000000F111F000F111F0A0D1B1DC201B10139
:10355000F80120813181428153810E94D22587FD6B
:103560000DC087010F5F1F4F000F111F000F111FAC
:103570000A0D1B1D14C00894E108F108D8012D9113
:103580003D914D915C9104501040C201B1010E94E7
:10359000D22587FDF0CF0FC00894E11CF11CF80183
:1035A00021913191419151918F01C201B1010E944C
:1035B000C42787FFF1CFF092D308E092D2086701C9
:1035C000CC0CDD1CCC0CDD1CF501EC0DFD1D80814F
:1035D0009181A281B38122968CAF9DAFAEAFBFAF78
:1035E000229787010F5F1F4F000F111F000F111F40
:1035F000A00EB11ED5016D907D908D909C9022966D
:103600006CAD7DAD8EAD9FAD2297A40193010E945C
:10361000D2258823F1F4C201B10122962CAD3DAD33
:103620004EAD5FAD22970E94D22588233CF42496AC
:10363000EEADFFAD2497EC0DFD1D06C02496EEAD5A
:10364000FFAD2497E00FF11FB081A18172816381EA
:103650005CC02496EEADFFAD2497CE0EDF1ED601E2
:10366000AD90BD90CD90DC90E00FF11F80819181F5
:10367000A281B3818AAF9BAFACAFBDAFC601B5012C
:103680002AAD3BAD4CAD5DAD0E94D225882329F417
:10369000BA2DAB2D7C2D6D2D38C0C401B301A20114
:1036A00091010E946D257B018C01C401B30122961A
:1036B0002CAD3DAD4EAD5FAD22970E946D259B01B7
:1036C000AC01C801B7010E94D6257B018C01A6017F
:1036D00095010E94C8275B016C0160E070E080E802
:1036E0009FE3A80197010E946D252AAD3BAD4CAD2B
:1036F0005DAD0E94C8279B01AC01C601B5010E94C7
:103700006E25B62FA72F782F692F8091B4048130B2
:1037100061F02B2F3A2F472F562FC901DA01E2967D
:103720008CAF9DAFAEAFBFAFE29781E999E063E99F
:1037300079E044E958E025EB34E002E010E0B7EB33
:10374000EB2EB4E0FB2EA2E0CA2ED12CF9EBAF2E6B
:10375000F4E0BF2EE2E08E2E912C0E94D7116091F2
:10376000910970919209882777FD8095982F0E9482
:1037700071262091990430919A0440919B045091B4
:103780009C040E94C8272091C9033091CA0340912C
:10379000CB035091CC030E94C827AE966CAF7DAF8F
:1037A0008EAF9FAFAE9720919D0430919E044091C3
:1037B0009F045091A0040E94C827609385097093CC
:1037C000860980938709909388096091C808709151
:1037D000C9088091CA089091CB082091A904309122
:1037E000AA044091AB045091AC040E94C8271B016D
:1037F0002C016093890970938A0980938B099093B7
:103800008C096091E5037091E6038091E703909144
:10381000E803209198083091990840919A085091B6
:103820009B080E94C82720E030E040E050E00E9462
:103830006E2520E030E040E050E00E946E2520E060
:1038400030E040E050E00E946E25AA966CAF7DAF5C
:103850008EAF9FAFAA97609101047091020480918E
:1038600003049091040420919C0830919D0840919C
:103870009E0850919F080E94C82720E030E040E059
:1038800050E00E946E2520E030E040E050E00E94D1
:103890006E2520E030E040E050E00E946E25A296C8
:1038A0006CAF7DAF8EAF9FAFA29760911D047091FA
:1038B0001E0480911F04909120042091A008309153
:1038C000A1084091A2085091A3080E94C82720E0B7
:1038D00030E040E050E00E946E2520E030E040E023
:1038E00050E00E946E25A6966CAF7DAF8EAF9FAF65
:1038F000A6976091390470913A0480913B049091AD
:103900003C042091A4083091A5084091A60850914C
:10391000A7080E94C82720E030E040E050E00E9465
:103920006E256E966CAF7DAF8EAF9FAF6E97AE96E5
:103930006CAD7DAD8EAD9FADAE972091A90330915A
:10394000AA034091AB035091AC030E94C8277B01AE
:103950008C016091450470914604809147049091D8
:1039600048042091A8083091A9084091AA085091D4
:10397000AB080E94C82720E030E040E050E00E9401
:103980006E2520E030E040E050E00E946E259B0173
:10399000AC01C801B7010E946E256A966CAF7DAF7D
:1039A0008EAF9FAF6A97AE966CAD7DAD8EAD9FAD7D
:1039B000AE972091AD033091AE034091AF0350918B
:1039C000B0030E94C8277B018C0160915D04709157
:1039D0005E0480915F04909160042091AC08309166
:1039E000AD084091AE085091AF080E94C82720E072
:1039F00030E040E050E00E946E2520E030E040E002
:103A000050E00E946E259B01AC01C801B7010E94E5
:103A10006E2566966CAF7DAF8EAF9FAF6697609157
:103A200075047091760480917704909178042091C8
:103A3000B0083091B1084091B2085091B3080E948B
:103A4000C82720E030E040E050E00E946E257B0176
:103A50008C01AE966CAD7DAD8EAD9FADAE972091D5
:103A6000B1033091B2034091B3035091B4030E946B
:103A7000C8279B01AC01C801B7010E946E25629660
:103A80006CAF7DAF8EAF9FAF62974DE4C42E43E025
:103A9000D42EFE017096F9AFE8AF5F0166966CAD6B
:103AA0007DAD8EAD9FAD6697D60150962D913D911F
:103AB0004D915C9153970E94C8277B018C016A96B7
:103AC0006CAD7DAD8EAD9FAD6A97F60120813181E1
:103AD000428153810E94C8279B01AC01C801B701F4
:103AE0000E946E257B018C0162966CAD7DAD8EAD22
:103AF0009FAD6297D60190962D913D914D915C912D
:103B000093970E94C8279B01AC01C801B7010E948E
:103B10006E257B018C01E8E6F0E0CE0EDF1EAE964E
:103B20006CAD7DAD8EAD9FADAE97D6012D913D9123
:103B30004D915C910E94C8279B01AC01C801B7015F
:103B40000E946E25F50161937193819391935F01BA
:103B50008CE99FEFC80ED91E9DE5C91693E0D906E2
:103B600009F09CCF8091BB04813089F56091850973
:103B70007091860980918709909188092091C408E5
:103B80003091C5084091C6085091C7080E946D2524
:103B90005B016C016090C8087090C9088090CA08E9
:103BA0009090CB08C201B1012091CC083091CD0892
:103BB0004091CE085091CF080E946D251B012C0129
:103BC000AE96ECACFDAC0EAD1FADAE972DC08091A6
:103BD000B3048130C9F4AA96ECACFDAC0EAD1FADB8
:103BE000AA97A6966CAC7DAC8EAC9FACA697A2961D
:103BF000ACACBDACCEACDFACA2976E962CAC3DAC01
:103C00004EAC5FAC6E9710C0E888F9880A891B89B2
:103C1000AC88BD88CE88DF88688C798C8A8C9B8C38
:103C20002C8C3D8C4E8C5F8C609181037091820353
:103C300080918303909184039058E2962CAD3DAD22
:103C40004EAD5FADE2970E94C827A80197010E9480
:103C50006E252091ED023091EE024091EF025091DD
:103C6000F00250580E94C8277B018C0160918503A7
:103C70007091860380918703909188039058E29613
:103C80002CAD3DAD4EAD5FADE2970E94C827A601B9
:103C900095010E946E252091F1023091F20240912F
:103CA000F3025091F40250580E94C8279B01AC01C6
:103CB000C801B7010E946E257B018C0160918903C8
:103CC00070918A0380918B0390918C039058E296B7
:103CD0002CAD3DAD4EAD5FADE2970E94C827A4016B
:103CE00093010E946E252091F5023091F6024091D9
:103CF000F7025091F80250580E94C8279B01AC016E
:103D0000C801B7010E946E257B018C0160918D0373
:103D100070918E0380918F03909190039058E2965A
:103D20002CAD3DAD4EAD5FADE2970E94C827A2011C
:103D300091010E946E252091F9023091FA02409182
:103D4000FB025091FC0250580E94C8279B01AC0115
:103D5000C801B7010E946E256CAB7DAB8EAB9FABEB
:103D600080917D0390917E03A0917F03B0918003A9
:103D7000EA968CAF9DAFAEAFBFAFEA976091C8082F
:103D80007091C9088091CA089091CB089F7720E074
:103D900030E040E45FE30E94D22587FD05C080E06B
:103DA00090E0A0E0B0E004C080E090E0A0E8BFE3D5
:103DB000E6968CAF9DAFAEAFBFAFE6976CA97DA97D
:103DC0008EA99FA920E030E040E251E40E946E25D8
:103DD0002DEC3CEC4CE455E40E94C8270E94AC2634
:103DE0007B018C010E941A25882309F057C5C80160
:103DF000B7010E94C424882309F050C5C801B70147
:103E000020E030E040E857E40E94C6269B01AC0168
:103E1000CB01DA017C018D01B901CA0120E030E05B
:103E200040E050E00E94D225882354F4C801B70135
:103E300090580E94432622243324261A370A05C0AC
:103E4000C801B7010E9443261B01AE966CAD7DAD43
:103E50008EAD9FADAE9720E030E040E251E40E948D
:103E60006E252DEC3CEC4CE455E40E94C8270E94E2
:103E7000AC267B018C010E942525882309F019C5F9
:103E8000C801B7010E94EF24882309F012C5C801B8
:103E9000B70120E030E040E857E40E94C6269B01CD
:103EA000AC01CB01DA017C018D01B901CA0120E02E
:103EB00030E040E050E00E94D225882354F4C8014D
:103EC000B70190580E94432644245524461A570AA5
:103ED00005C0C801B7010E9443262B016091C808A4
:103EE0007091C9088091CA089091CB0820E030E019
:103EF00040E251E40E946E252DEC3CEC4CE455E48C
:103F00000E94C8270E94AC267B018C010E942525B7
:103F1000882309F0D9C4C801B7010E94EF2488237F
:103F200009F0D2C4C801B70120E030E040E857E40E
:103F30000E94C6269B01AC01CB01DA017C018D01F8
:103F4000B901CA0120E030E040E050E00E94D225F3
:103F5000882354F4C801B70190580E944326662470
:103F60007724661A770A05C0C801B7010E94432664
:103F70003B01AA966CAD7DAD8EAD9FADAA9720E0BA
:103F800030E040E251E40E946E252DEC3CEC4CE424
:103F900055E40E94C8270E94AC267B018C010E9438
:103FA0001A25882309F09BC4C801B7010E94C424C4
:103FB000882309F094C4C801B70120E030E040E84C
:103FC00057E40E94C6269B01AC01CB01DA017C01BB
:103FD0008D01B901CA0120E030E040E050E00E94CC
:103FE000D225882354F4C801B70190580E94432673
:103FF00088249924861A970A05C0C801B7010E942F
:1040000043264B01A6966CAD7DAD8EAD9FADA697B8
:1040100020E030E040E251E40E946E252DEC3CECC3
:104020004CE455E40E94C8270E94AC267B018C0119
:104030000E941A25882309F05DC4C801B7010E94B7
:10404000C424882309F056C4C801B70120E030E039
:1040500040E857E40E94C6269B01AC01CB01DA017F
:104060007C018D01B901CA0120E030E040E050E060
:104070000E94D225882354F4C801B70190580E94A9
:104080004326AA24BB24A61AB70A05C0C801B70153
:104090000E9443265B01688979898A899B8920E08F
:1040A00030E040E251E40E946E252DEC3CEC4CE403
:1040B00055E40E94C8270E94AC267B018C010E9417
:1040C0001A25882309F021C4C801B7010E94C4241D
:1040D000882309F01AC4C801B70120E030E040E8A5
:1040E00057E40E94C6269B01AC01CB01DA017C019A
:1040F0008D01B901CA0120E030E040E050E00E94AB
:10410000D225882354F4C801B70190580E94432651
:10411000CC24DD24C61AD70A05C0C801B7010E9405
:1041200043266B01688D798D8A8D9B8D20E030E070
:1041300040E251E40E946E252DEC3CEC4CE455E449
:104140000E94C8270E94AC267B018C010E941A2580
:10415000882309F0E5C3C801B7010E94C42488235D
:1041600009F0DEC3C801B70120E030E040E857E4C1
:104170000E94C6269B01AC01CB01DA017C018D01B6
:10418000B901CA0120E030E040E050E00E94D225B1
:10419000882354F4C801B70190580E94432622276F
:1041A0003327261B370B05C0C801B7010E944326E1
:1041B0009B018091BC0489833A822B825C824D8270
:1041C0007E826F8298868986BA86AB86DC86CD86AB
:1041D0003E872F878091DD039091DE03BE016F5FE4
:1041E0007F4F4FE050E00E948F0B39E2832E33E087
:1041F000932E21E9622E23E0722E99E6492E99E052
:10420000592E66966CAD7DAD8EAD9FAD6697D4018F
:104210002D913D914D915C910E94C8277B018C01AD
:10422000F4013C976A966CAD7DAD8EAD9FAD6A97FB
:1042300020813181428153810E94C8279B01AC01BA
:10424000C801B7010E946E257B018C0162966CAD9E
:104250007DAD8EAD9FAD6297F40124853585468591
:1042600057850E94C8279B01AC01C801B7010E9475
:104270006E255B016C01D3011C966D917D918D9132
:104280009C911F972091C8083091C9084091CA0895
:104290005091CB080E94C8277B018C01AE966CAD73
:1042A0007DAD8EAD9FADAE97F301219131914191DE
:1042B00051913F010E94C8279B01AC01C801B70181
:1042C0000E946E257B018C016CA97DA98EA99FA9F6
:1042D000D40158962D913D914D915C915B970E9430
:1042E000C8279B01AC01C801B7010E946E259B0144
:1042F000AC01C601B5010E946E25F2016193719374
:10430000819391932F0184E090E0880E991E95E3AC
:10431000891693E0990609F074CFAA966CAD7DAD2D
:104320008EAD9FADAA972091DD023091DE024091C3
:10433000DF025091E0020E94C8277B018C01A29607
:104340006CAD7DAD8EAD9FADA2972091E102309115
:10435000E2024091E3025091E4020E94C8279B01CF
:10436000AC01C801B7010E946E257B018C01A696A5
:104370006CAD7DAD8EAD9FADA6972091E5023091DD
:10438000E6024091E7025091E8020E94C8279B0193
:10439000AC01C801B7010E946E257B018C016E96AD
:1043A0006CAD7DAD8EAD9FAD6E972091E9023091E1
:1043B000EA024091EB025091EC020E94C8279B0157
:1043C000AC01C801B7010E946E257B018C01AE963D
:1043D0006CAD7DAD8EAD9FADAE97A80197010E94EB
:1043E0006D2568AB79AB8AAB9BAB6091C8087091C7
:1043F000C9088091CA089091CB08A80197010E9432
:104400006D252B013C0188ECC82E8FEFD82EC80CEF
:10441000D91CC301B201D60150962D913D914D9109
:104420005C9153970E94C8277B018C0168A979A9E8
:104430008AA99BA9F60120813181428153810E9482
:10444000C8279B01AC01C801B7010E946E257B0102
:104450008C0180ED9FEFC80ED91E6CA97DA98EA995
:104460009FA9D6012D913D914D915C910E94C82745
:104470009B01AC01C801B7010E946E25E8ADF9AD02
:104480006193719381939193F9AFE8AF84E390E0E6
:10449000C80ED91E9DE0C91693E0D90609F0B9CF20
:1044A0000DE8402E02E0502E10E2212E312C2C0E71
:1044B0003D1E6E966CAD7DAD8EAD9FAD6E97D201FB
:1044C000D0962D913D914D915C91D3970E94C82734
:1044D0003B014C01A6966CAD7DAD8EAD9FADA69710
:1044E000F20120A131A142A153A10E94C8275B0182
:1044F0006C01A2966CAD7DAD8EAD9FADA297D20141
:1045000050962D913D914D915C9153970E94C827F3
:104510007B018C01AA966CAD7DAD8EAD9FADAA9747
:10452000F20121913191419151912F010E94C827AF
:104530009B01AC01C801B7010E946E259B01AC0133
:10454000C601B5010E946E259B01AC01C401B301F7
:104550000E946E25D1016D937D938D939D931D01D6
:10456000BDE94B16B2E05B0609F0A3CF68897989F3
:104570008A899B8928A139A14AA15BA10E946E2545
:104580006093750970937609809377099093780901
:104590006C897D898E899F892CA13DA14EA15FA147
:1045A0000E946E256093790970937A0980937B0944
:1045B00090937C09688D798D8A8D9B8D28A539A56E
:1045C0004AA55BA50E946E2560937D0970937E09C4
:1045D00080937F09909380096C8D7D8D8E8D9F8D4A
:1045E0002CA53DA54EA55FA50E946E25609381096F
:1045F00070938209809383099093840985E999E0F7
:1046000067E979E049E959E024EB38E00E9453106A
:104610006091950970919609882777FD8095982F6C
:104620000E9471262091C5033091C6034091C703B3
:104630005091C8030E946D252091AD043091AE04C5
:104640004091AF045091B0040E94C82760938D0937
:1046500070938E0980938F0990939009EA966CADC0
:104660007DAD8EAD9FADEA97E2962CAD3DAD4EADE2
:104670005FADE2970E94C8272CA93DA94EA95FA96A
:104680000E946E259B01AC01E6966CAD7DAD8EADB2
:104690009FADE6970E94C827209181043091820443
:1046A00040918304509184040E94C8270E94AC2644
:1046B0007B018C010E941A25882309F03CC1C801A6
:1046C000B7010E94C424882309F035C1C801B7018D
:1046D00020E030E040E857E40E94C6269B01AC0190
:1046E000CB01DA017C018D01B901CA0120E030E083
:1046F00040E050E00E94D225882354F4C801B7015D
:1047000090580E94432600271127061B170B05C04F
:10471000C801B7010E9443268B018091B10490919A
:10472000B204081719074CF060907D0470907E0465
:1047300080907F049090800408C060908504709001
:1047400086048090870490908804C401B30120E01F
:1047500030E040E853E40E94D2258823A4F4C40149
:10476000B30120E030E040E050E00E94C4278823FD
:104770003CF0C401B3010E94432660939B0906C02C
:1047800010929B0903C08FEF80939B098091D50302
:1047900060919B090E942C0B980117FF03C0309574
:1047A00021953F4FB901882777FD8095982F0E946A
:1047B00071262091890430918A0440918B04509194
:1047C0008C040E946E255B016C01E0908D04F090DA
:1047D0008E0400918F0410919004A80197010E940B
:1047E000C427181694F0E0909104F0909204009180
:1047F000930410919404C601B501A80197010E9489
:10480000D22587FD02C086017501C401B301209144
:1048100095043091960440919704509198040E9419
:10482000C827A80197010E946D257B018C01E8949F
:1048300017F9C801B70120E030E040E853E40E94D6
:10484000D22588233CF4C801B7010E944326609317
:104850009C0903C08FEF80939C0960919C09809113
:10486000D90370E00E949909C758DF4F0FB6F8943A
:10487000DEBF0FBECDBFCF91DF911F910F91FF9093
:10488000EF90DF90CF90BF90AF909F908F907F90F0
:104890006F905F904F903F902F9008950F2EF0E013
:1048A000EF2EF0E0FF2EF0E00F2FF0E01F2FF02DA5
:1048B000C7CA0F2EF0E0EF2EF0E0FF2EF0E00F2F32
:1048C000F0E01F2FF02D05CB0F2EF0E0EF2EF0E0E3
:1048D000FF2EF0E00F2FF0E01F2FF02D45CB0F2E15
:1048E000F0E0EF2EF0E0FF2EF0E00F2FF0E01F2FB2
:1048F000F02D83CB0F2EF0E0EF2EF0E0FF2EF0E056
:104900000F2FF0E01F2FF02DC1CB0F2EF0E0EF2E78
:10491000F0E0FF2EF0E00F2FF0E01F2FF02DFDCB89
:104920000F2EF0E0EF2EF0E0FF2EF0E00F2FF0E082
:104930001F2FF02D39CC0F2EF0E0EF2EF0E0FF2EE0
:10494000F0E00F2FF0E01F2FF02DE2CE60E070E0DE
:1049500080E89FE7089560E070E080E89FE70895B1
:1049600060E070E080E89FEF089560E070E080E82C
:104970009FEF089560E070E080EC9FEF089560E0A5
:1049800070E080EC9FEF0895DF92EF92FF920F931B
:104990001F937B018C012091A5093091A6094091BC
:1049A000A7095091A8090E94D225882379F0DD2417
:1049B000C801B7012091AD093091AE094091AF090E
:1049C0005091B0090E94D225882311F4DD24D3949C
:1049D0008D2D1F910F91FF90EF90DF900895DF9242
:1049E000EF92FF920F931F937B018C012091A109FD
:1049F0003091A2094091A3095091A4090E94D225A7
:104A0000882379F0DD24C801B7012091B1093091E4
:104A1000B2094091B3095091B4090E94D22588236C
:104A200011F4DD24D3948D2D1F910F91FF90EF9001
:104A3000DF9008951F939B01AC0110E00E94D225E6
:104A4000811111E0812F1F9108951F939B01AC01EB
:104A500010E00E94D225811111E0812F1F9108954D
:104A60000E94BA246093A9097093AA098093AB09A4
:104A70009093AC090E94BF2460939D0970939E0996
:104A800080939F099093A0090E94A6246093A50992
:104A90007093A6098093A7099093A8090E94AB245C
:104AA0006093A1097093A2098093A3099093A4092C
:104AB0000E94B0246093AD097093AE098093AF0952
:104AC0009093B0090E94B5246093B1097093B20924
:104AD0008093B3099093B40908955058BB27AA272F
:104AE0000ED001C2F2D130F0F7D120F031F49F3F67
:104AF00011F41EF4E7C10EF4E095E7FBB2C1E92F13
:104B000003D280F3BA17620773078407950718F07A
:104B100071F49EF532C20EF4E0950B2EBA2FA02D43
:104B20000B01B90190010C01CA01A0011124FF275A
:104B3000591B99F0593F50F4503E68F11A16F04055
:104B4000A22F232F342F4427585FF3CF4695379554
:104B50002795A795F0405395C9F77EF41F16BA0B19
:104B6000620B730B840BBAF09150A1F0FF0FBB1FC7
:104B7000661F771F881FC2F70EC0BA0F621F731F10
:104B8000841F48F4879577956795B795F7959E3F6D
:104B900008F0B3CF9395880F08F09927EE0F9795FB
:104BA000879508953AD108F481E008950CD09BC10F
:104BB00093D140F08AD130F021F45F3F19F051C118
:104BC0005111DCC17FC1A0D198F39923C9F35523BA
:104BD000B1F3951B550BBB27AA27621773078407F0
:104BE00038F09F5F5F4F220F331F441FAA1FA9F3A6
:104BF00033D00E2E3AF0E0E830D091505040E69598
:104C0000001CCAF729D0FE2F27D0660F771F881FF8
:104C1000BB1F261737074807AB07B0E809F0BB0BE7
:104C2000802DBF01FF2793585F4F2AF09E3F51050B
:104C300068F017C1A3C15F3FECF3983EDCF38695A3
:104C400077956795B795F7959F5FC9F7880F911D81
:104C50009695879597F90895E1E0660F771F881F6D
:104C6000BB1F621773078407BA0720F0621B730B20
:104C7000840BBA0BEE1F88F7E095089504D0689472
:104C8000B1117CC1089548D188F09F5790F0B92F99
:104C90009927B751A0F0D1F0660F771F881F991F91
:104CA0001AF0BA95C9F712C0B13081F066D1B1E0FF
:104CB000089563C1672F782F8827B85F39F0B93F0F
:104CC000CCF3869577956795B395D9F73EF4909593
:104CD0008095709561957F4F8F4F9F4F0895E89411
:104CE00009C097FB3EF490958095709561957F4F34
:104CF0008F4F9F4F9923A9F0F92F96E9BB279395E2
:104D0000F695879577956795B795F111F8CFFAF4F1
:104D1000BB0F11F460FF1BC06F5F7F4F8F4F9F4F22
:104D200016C0882311F096E911C0772321F09EE880
:104D3000872F762F05C0662371F096E8862F70E0E6
:104D400060E02AF09A95660F771F881FDAF7880FC0
:104D50009695879597F90895F9D080F09F3740F49C
:104D600091110EF00BC160E070E080E89FEB0895B8
:104D700026F41B16611D711D811D79C093C0A5D03D
:104D800018F011F0A9D038F49DC0F8C0E92FBCD0BC
:104D9000B0F35523C9F3E7FB621773078407950740
:104DA000A8F199F3E92FFF2788232AF03197660F9E
:104DB000771F881FDAF7952F5527442332F091503B
:104DC0005040220F331F441FD2F7BB27E91BF50BBE
:104DD000621B730B840BB109C1F222F4620F731FC3
:104DE000841FB11D31972AF0660F771F881FBB1FE4
:104DF000EFCF915050405AF041F0882332F0660FC7
:104E0000771F881F91505040C1F793954BC08695EE
:104E1000779567959F5FD9F7F8CF990F0008550FE1
:104E2000AA0BE0E8FEEF16161706E807F907C0F030
:104E300012161306E407F50798F0621B730B840B38
:104E4000950B39F40A2661F0232B242B252B21F412
:104E500008950A2609F4A140A6958FEF811D811DB2
:104E6000089597F99F6780E870E060E008958823CF
:104E700071F4772321F09850872B762F07C0662393
:104E800011F499270DC09051862B70E060E02AF054
:104E90009A95660F771F881FDAF7880F9695879582
:104EA00097F908959F3F49F0915028F4869577959A
:104EB0006795B7959F5F80389F4F880F9695879528
:104EC00097F908959FEF80EC089500240A94161630
:104ED000170618060906089500240A9412161306E8
:104EE000140605060895092E0394000C11F4882376
:104EF00052F0BB0F40F4BF2B11F460FF04C06F5F92
:104F00007F4F8F4F9F4F089557FD9058440F551F67
:104F100059F05F3F71F04795880F97FB991F61F03B
:104F20009F3F79F087950895121613061406551FB2
:104F3000F2CF4695F1DF08C0161617061806991F1E
:104F4000F1CF86957105610508940895E5DFA0F01D
:104F5000BEE7B91788F4BB279F3860F41616B11D59
:104F6000672F782F8827985FF7CF86957795679575
:104F7000B11D93959639C8F30895E894BB27662729
:104F80007727CB0197F9089548DF08F48FEF08954C
:104F90000BD0A9CF9ADF28F09FDF18F0952309F0F6
:104FA00060CF90CF1124EACFAFDFA0F3959FD1F36C
:104FB000950F50E0551F629FF001729FBB27F00DC7
:104FC000B11D639FAA27F00DB11DAA1F649F66271C
:104FD000B00DA11D661F829F2227B00DA11D621F6B
:104FE000739FB00DA11D621F839FA00D611D221F25
:104FF000749F3327A00D611D231F849F600D211D09
:10500000822F762F6A2F11249F5750408AF0E1F0AB
:1050100088234AF0EE0FFF1FBB1F661F771F881FF4
:1050200091505040A9F79E3F510570F01ACFA6CF7E
:105030005F3FECF3983EDCF3869577956795B795DF
:10504000F795E7959F5FC1F7FE2B880F911D969509
:10505000879597F90895629FD001739FF001829F11
:10506000E00DF11D649FE00DF11D929FF00D839FF7
:10507000F00D749FF00D659FF00D9927729FB00D94
:10508000E11DF91F639FB00DE11DF91FBD01CF01A7
:1050900011240895A1E21A2EAA1BBB1BFD010DC00D
:1050A000AA1FBB1FEE1FFF1FA217B307E407F507D8
:1050B00020F0A21BB30BE40BF50B661F771F881FB4
:1050C000991F1A9469F760957095809590959B014A
:1050D000AC01BD01CF010895EE0FFF1F0590F491C3
:0850E000E02D1994F894FFCFB4
:1050E8002A2A2A7374617274696E6720746865204D
:1050F8006D6F64656C2A2A2A004669786564537462
:105108006570446973637265746500E803000000A4
:105118000000000000000000000000003F00000048
:105128003F0000003F000000000000204100002078
:10513800410000A0410000A0410000F04100000033
:10514800000000000000000000CDCCCC3FCDCCCC4E
:105158003FCDCCCC3F0000000000002041000020E3
:10516800410000A0410000A0410000F04100008083
:105178003F000000000000000000000000162C0E98
:105188003BD7512D3E8BEF4A3CAAAE68405961157A
:10519800B863731CBC9513803F92BA5F3EE80579EB
:1051A800385E9F8E3CDF599B3B909B6C3F60620C46
:1051B8003984F0203DAE9219BA7A1530BE000080CD
:1051C8003F00000000000000000000000090CFD168
:1051D800C1267E0CC207212CC2BB2509C1AB953064
:1051E8003E2148F3BF7BB2B63C7DCB8641F49F5A43
:1051F800BD8F36F840B11D983E4A04D2C1E9F16628
:105208003F1E282BBB0BF5723D5D0930BB69A66CB0
:105218003FA10DE73B4B77193DA8E68D3B0A8D531F
:105228003FFA18AD3D941AC6BAB70BC9BE000000C4
:10523800000000803F0000000000000000000000A7
:1052480000000000000000803F0000000000000097
:105258000000000000000000000000803F00000087
:10526800000000803F000000000000000000000077
:1052780000B6E9A843EE3ADDC0E711CEC4C8C89A23
:10528800BC17879C3DC4508A3EB6E9A8C3EE3ADDF8
:1052980040E711CE440000803F00000000000000FD
:1052A80000000000000080B5C37CF2B03C000000A4
:1052B80000000000000600000008000000000000D8
:1052C80000000000800000803F0000000000000097
:1052D80000000000000000000000000000000000C6
:1052E800800000803F000000000000000000000077
:1052F80000000000000000000000000080000080A6
:105308003F00000000000000000000000000000056
:105318000000000000000000800000803F00000046
:1053280000000000800000803F0000000000000036
:105338000000000000000000000000008000008065
:105348003F00000000000000000000000000000016
:1053580000000000800000803F0000000000000006
:105368000000002AC20000803F0000204100007FAA
:10537800430000000000007F4335FA0EBC000048DF
:10538800430AD7A33B0000000000004843FDB30BCD
:10539800B9000001010001123E130F0101000000D5
:1053A800001D04E405B303E403C4030D0400000076
:1053B80000A20500000000290E5E0E9E0EA70EBC7E
:0653C8000ECD0ED408001A
:00000001FF
