:100000000C9405010C9433070C9464070C94950729
:100010000C94C6070C94F7070C9428080C94590804
:100020000C948A080C9432010C94CB130C944C134E
:100030000C9432010C9432010C9432010C94320174
:100040000C9432010C9432010C9432010C94320164
:100050000C9432010C9432010C9432010C94BB08C4
:100060000C9432010C9434010C9430020C94320143
:100070000C9432010C9432010C9432010C94320134
:100080000C9432010C9432010C9432010C94320124
:100090000C9473010C946F020C9432010C946C0C50
:1000A0000C9432010C9432010C9432010C94320104
:1000B0000C9432010C9432010C9432010C943201F4
:1000C0000C9432010C9432010C9432010C94B20164
:1000D0000C94AE020C9432010C94F1010C94ED02DC
:1000E0000C94320100002100240027002A002D007A
:1000F0003000330001010000040107010A01000083
:100100002200250028002B002E00310034000201BF
:100110000000050108010B0100002000230026005B
:1001200029002C002F00320000010000030106010D
:10013000090105050505070508080808020202026D
:100140000A0A080804040404010101010101010173
:100150000303030303030303040707070C0C0C0C3E
:100160000C0C0C0C02020202060606060606060627
:100170000B0B0B0B0B0B0B0B0102102020080810B4
:100180002040102040800201020108040201010207
:1001900004081020408080402010080402018004E0
:1001A000020180402010080402010804020101023B
:1001B0000408102040800102040810204080000044
:1001C000090A02080B0C0D070603040100000000D9
:1001D000000000000000000000000000000000001F
:1001E0000000000000000000000011100F000000DF
:1001F00000000000000000000000000000000000FF
:10020000000000005D049305100F11241FBECFEF06
:10021000D1E2DEBFCDBF00E00CBF14E0A0E0B2E051
:10022000ECE4FEE400E00BBF02C007900D92AC3896
:10023000B107D9F71BBE19E0ACE8B4E001C01D92CC
:10024000AB35B107E1F712E0CAE0D2E004C0229773
:10025000FE010E942027C430D107C9F70E94F32273
:100260000C9424270C9400001F920F920FB60F924B
:100270000BB60F9211242F933F934F938F939F931D
:10028000EF93FF938091C00082FD1DC04091C60096
:100290002091CC043091CD042F5F3F4F2F733070ED
:1002A0008091CE049091CF042817390771F0E09126
:1002B000CC04F091CD04E457FB4F40833093CD0440
:1002C0002093CC0402C08091C600FF91EF919F91D2
:1002D0008F914F913F912F910F900BBE0F900FBEBA
:1002E0000F901F9018951F920F920FB60F920BB69A
:1002F0000F9211242F933F934F938F939F93EF93DC
:10030000FF938091C80082FD1DC04091CE002091D6
:100310005405309155052F5F3F4F2F7330708091FA
:100320005605909157052817390771F0E09154054B
:10033000F0915505EC5EFA4F4083309355052093BC
:10034000540502C08091CE00FF91EF919F918F9153
:100350004F913F912F910F900BBE0F900FBE0F90BA
:100360001F9018951F920F920FB60F920BB60F9217
:1003700011242F933F934F938F939F93EF93FF936A
:100380008091D00082FD1DC04091D6002091DC05F7
:100390003091DD052F5F3F4F2F7330708091DE0568
:1003A0009091DF052817390771F0E091DC05F09195
:1003B000DD05E456FA4F40833093DD052093DC05DC
:1003C00002C08091D600FF91EF919F918F914F9144
:1003D0003F912F910F900BBE0F900FBE0F901F906B
:1003E00018951F920F920FB60F920BB60F92112411
:1003F0002F933F934F938F939F93EF93FF9380910E
:10040000300182FD1DC0409136012091640630917B
:1004100065062F5F3F4F2F73307080916606909175
:1004200067062817390771F0E0916406F0916506B8
:10043000EC5DF94F4083309365062093640602C05B
:1004400080913601FF91EF919F918F914F913F9154
:100450002F910F900BBE0F900FBE0F901F9018950D
:100460001F920F920FB60F920BB60F9211242F937B
:100470003F938F939F93EF93FF93209110053091BB
:10048000110580911205909113052817390731F451
:100490008091C1008F7D8093C10014C0E09112054E
:1004A000F0911305E053FB4F20818091120590914C
:1004B000130501968F739070909313058093120526
:1004C0002093C600FF91EF919F918F913F912F91C3
:1004D0000F900BBE0F900FBE0F901F9018951F929C
:1004E0000F920FB60F920BB60F9211242F933F93DA
:1004F0008F939F93EF93FF932091980530919905E7
:1005000080919A0590919B052817390731F48091C5
:10051000C9008F7D8093C90014C0E0919A05F091C5
:100520009B05E85AFA4F208180919A0590919B058E
:1005300001968F73907090939B0580939A052093FA
:10054000CE00FF91EF919F918F913F912F910F904E
:100550000BBE0F900FBE0F901F9018951F920F9219
:100560000FB60F920BB60F9211242F933F938F93D8
:100570009F93EF93FF932091200630912106809165
:100580002206909123062817390731F48091D10073
:100590008F7D8093D10014C0E0912206F091230654
:1005A000E052FA4F20818091220690912306019615
:1005B0008F73907090932306809322062093D60029
:1005C000FF91EF919F918F913F912F910F900BBED3
:1005D0000F900FBE0F901F9018951F920F920FB69D
:1005E0000F920BB60F9211242F933F938F939F93EB
:1005F000EF93FF932091A8063091A9068091AA0657
:100600009091AB062817390731F4809131018F7D25
:100610008093310114C0E091AA06F091AB06E8592D
:10062000F94F20818091AA069091AB0601968F73B5
:1006300090709093AB068093AA0620933601FF91A9
:10064000EF919F918F913F912F910F900BBE0F9043
:100650000FBE0F901F901895AF92BF92DF92EF924E
:10066000FF920F931F93CF93DF93EC017A018B01DD
:10067000DD24403081EE580780E0680780E078078D
:1006800011F0DD24D39491E0A92EB12CEC89FD89E1
:10069000DD2069F0C50108A002C0880F991F0A94E7
:1006A000E2F7808360E079E08DE390E005C010829E
:1006B00060E874E88EE190E0A80197010E94FC26B2
:1006C00021503040404050405695479537952795EA
:1006D00080E12030380720F0DD2011F0DD24D6CF76
:1006E000E889F9893083EA89FB89208319A2EE8998
:1006F000FF89408121E030E0C9010C8C02C0880FE5
:10070000991F0A94E2F7482B4083EE89FF894081C4
:10071000C9010D8C02C0880F991F0A94E2F7482B7B
:100720004083EE89FF894081C9010E8C02C0880F89
:10073000991F0A94E2F7482B4083EE89FF89808154
:100740000F8C02C0220F331F0A94E2F72095282352
:100750002083DF91CF911F910F91FF90EF90DF9059
:10076000BF90AF900895DC011C96ED91FC911D9710
:10077000E05CFF4F2191319180819181281B390BE1
:100780002F733070C9010895DC011C96ED91FC9126
:100790001D97E05CFF4F20813181E054F040DF0184
:1007A000AE5BBF4F8D919C9111972817390719F4B3
:1007B0002FEF3FEF07C08D919C91E80FF91F8081CB
:1007C000282F30E0C9010895DC011C96ED91FC91C1
:1007D0001D97E05CFF4F20813181E054F040DF0144
:1007E000AE5BBF4F8D919C9111972817390719F473
:1007F0002FEF3FEF10C08D919C911197E80FF91FDB
:1008000020818D919C91119701968F739070119614
:100810009C938E9330E0C9010895DC0191968C91F0
:100820009197882339F05496ED91FC9155978081EA
:1008300086FFF9CF91961C920895CF93DF93EC0138
:10084000EE85FF85E05CFF4F20813181E054F04070
:100850002F5F3F4F2F733070DF01AE5BBF4F8D9125
:100860009C91119728173907D1F3E05CFF4F8081E5
:100870009181E054F040E80FF91F6083EE85FF8519
:10088000E05CFF4F31832083EE89FF89208181E086
:1008900090E00F8C02C0880F991F0A94E2F7282B72
:1008A000208381E089A3EC89FD8980818064808335
:1008B00081E090E0DF91CF9108951F931092AF06F1
:1008C0001092AE0628EE33E040E050E02093B006F0
:1008D0003093B1064093B2065093B30668E674E0D5
:1008E0007093AD066093AC068CE894E09093B906E3
:1008F0008093B80680ED94E09093BB068093BA068F
:1009000085EC90E09093BD068093BC0684EC90E06B
:100910009093BF068093BE0680EC90E09093C10652
:100920008093C00681EC90E09093C3068093C2064A
:1009300082EC90E09093C5068093C40686EC90E02C
:100940009093C7068093C60614E01093C806B3E0E0
:10095000B093C906A7E0A093CA06F5E0F093CB06D2
:10096000E1E0E093CC061092D1061092D0062093DD
:10097000D2063093D3064093D4065093D506709395
:10098000CF066093CE0684E195E09093DB068093DA
:10099000DA0688E595E09093DD068093DC068DEC21
:1009A00090E09093DF068093DE068CEC90E09093CD
:1009B000E1068093E00688EC90E09093E306809354
:1009C000E20689EC90E09093E5068093E4068AECD9
:1009D00090E09093E7068093E6068EEC90E090938B
:1009E000E9068093E8061093EA06B093EB06A0931D
:1009F000EC06F093ED06E093EE061092F3061092EB
:100A0000F2062093F4063093F5064093F6065093D1
:100A1000F7067093F1066093F0068CE995E09093E9
:100A2000FD068093FC0680EE95E09093FF06809390
:100A3000FE0685ED90E0909301078093000784ED1A
:100A400090E0909303078093020780ED90E09093ED
:100A500005078093040781ED90E09093070780934A
:100A6000060782ED90E0909309078093080786EDD2
:100A700090E090930B0780930A0710930C07B093B4
:100A80000D07A0930E07F0930F07E0931007109245
:100A900015071092140720931607309317074093F9
:100AA000180750931907709313076093120784E295
:100AB00096E090931F0780931E0788E696E0909338
:100AC00021078093200785E391E09093230780938B
:100AD000220784E391E0909325078093240780E325
:100AE00091E0909327078093260781E391E090930C
:100AF00029078093280782E391E090932B07809346
:100B00002A0786E391E090932D0780932C0710939A
:100B10002E07B0932F07A0933007F0933107E0938F
:100B200032071F91089588E794E0909335078093EA
:100B30003407109236071092370710923807109238
:100B4000390708958F929F92AF92BF92CF92DF9212
:100B5000EF92FF920F931F93CF93DF934C016B01A2
:100B60007C01AA24BB24C0E0D0E0C601F701628169
:100B70004AE050E00E94A5068C01C6016EE20E9488
:100B80000E06080F191FA00EB11E21960894E11C35
:100B9000F11CC330D10549F7C601F40165814AE073
:100BA00050E00E94A5069501280F391FC901DF9169
:100BB000CF911F910F91FF90EF90DF90CF90BF905A
:100BC000AF909F908F900895CF92DF92EF92FF9217
:100BD0000F931F93CF93DF937C016B018A01C0E0D9
:100BE000D0E00FC0D6016D916D01D701ED91FC9160
:100BF0000190F081E02DC7011995C80FD91F015050
:100C000010400115110571F7CE01DF91CF911F91B1
:100C10000F91FF90EF90DF90CF900895DC01ED9160
:100C2000FC910190F081E02D19950895CF93DF9309
:100C3000EC016115710519F420E030E00FC0DB0113
:100C40000D900020E9F71197A61BB70BE881F981F9
:100C50000280F381E02DAD0119959C01C901DF915E
:100C6000CF9108954F925F927F928F929F92AF9211
:100C7000BF92CF92DF92EF92FF920F931F93DF9379
:100C8000CF93CDB7DEB7A1970FB6F894DEBF0FBEF6
:100C9000CDBF2C01742ECB01223008F42AE019A21A
:100CA00031E2C32ED12CCC0EDD1E822E9924AA2433
:100CB000BB24672D752FA50194010E94FC267901A4
:100CC0008A01C801B701A50194010E94DD26472DC4
:100CD000461B0894C108D1084A3014F4405D01C095
:100CE000495CF6014083E114F1040105110521F08E
:100CF0007E2C5F2DC801DDCFC201B6010E94160611
:100D0000A1960FB6F894DEBF0FBECDBFCF91DF9195
:100D10001F910F91FF90EF90DF90CF90BF90AF9019
:100D20009F908F907F905F904F900895DC012115E8
:100D3000310541F4ED91FC910190F081E02D642F9B
:100D4000199508950E9432060895EF92FF920F932D
:100D50001F939A01E62EFF2400E010E0B801A701DE
:100D60000E9496061F910F91FF90EF900895883092
:100D700008F078C0E82FF0E0EE0FFF1FE65CF84FB8
:100D8000718360838330D9F0843030F4813009F48A
:100D900044C0823060F439C0853051F18530D8F0DC
:100DA000863009F446C0873009F05CC04FC080919E
:100DB00069008C7F842B80936900E89A0895809164
:100DC0006900440F551F440F551F837F842B809368
:100DD0006900E99A08958091690074E0440F551FF5
:100DE0007A95E1F78F7C842B80936900EA9A0895C5
:100DF0008091690066E0440F551F6A95E1F78F7393
:100E0000842B80936900EB9A089580916A008C7F0F
:100E1000842B80936A00EC9A089580916A00440FB5
:100E2000551F440F551F837F842B80936A00ED9AD2
:100E3000089580916A0024E0440F551F2A95E1F738
:100E40008F7C842B80936A00EE9A089580916A00CB
:100E500096E0440F551F9A95E1F78F73842B80938A
:100E60006A00EF9A08951F920F920FB60F920BB679
:100E70000F9211242F933F934F935F936F937F9320
:100E80008F939F93AF93BF93EF93FF9380913E0710
:100E900090913F07892B29F0E0913E07F0913F07A1
:100EA0001995FF91EF91BF91AF919F918F917F9194
:100EB0006F915F914F913F912F910F900BBE0F90CB
:100EC0000FBE0F901F9018951F920F920FB60F92A2
:100ED0000BB60F9211242F933F934F935F936F9311
:100EE0007F938F939F93AF93BF93EF93FF938091E3
:100EF000400790914107892B29F0E0914007F0913C
:100F000041071995FF91EF91BF91AF919F918F91FB
:100F10007F916F915F914F913F912F910F900BBEF9
:100F20000F900FBE0F901F9018951F920F920FB643
:100F30000F920BB60F9211242F933F934F935F9311
:100F40006F937F938F939F93AF93BF93EF93FF9391
:100F50008091420790914307892B29F0E091420745
:100F6000F09143071995FF91EF91BF91AF919F9138
:100F70008F917F916F915F914F913F912F910F9042
:100F80000BBE0F900FBE0F901F9018951F920F92DF
:100F90000FB60F920BB60F9211242F933F934F93DE
:100FA0005F936F937F938F939F93AF93BF93EF93D1
:100FB000FF938091440790914507892B29F0E09198
:100FC0004407F09145071995FF91EF91BF91AF91BB
:100FD0009F918F917F916F915F914F913F912F9151
:100FE0000F900BBE0F900FBE0F901F9018951F9281
:100FF0000F920FB60F920BB60F9211242F933F93BF
:101000004F935F936F937F938F939F93AF93BF9310
:10101000EF93FF9380913A0790913B07892B29F03A
:10102000E0913A07F0913B071995FF91EF91BF913D
:10103000AF919F918F917F916F915F914F913F9170
:101040002F910F900BBE0F900FBE0F901F90189511
:101050001F920F920FB60F920BB60F9211242F937F
:101060003F934F935F936F937F938F939F93AF9330
:10107000BF93EF93FF9380913C0790913D07892B9D
:1010800029F0E0913C07F0913D071995FF91EF9110
:10109000BF91AF919F918F917F916F915F914F9190
:1010A0003F912F910F900BBE0F900FBE0F901F908E
:1010B00018951F920F920FB60F920BB60F92112434
:1010C0002F933F934F935F936F937F938F939F9350
:1010D000AF93BF93EF93FF9380914607909147079B
:1010E000892B29F0E0914607F09147071995FF9168
:1010F000EF91BF91AF919F918F917F916F915F9190
:101100004F913F912F910F900BBE0F900FBE0F90FC
:101110001F9018951F920F920FB60F920BB60F9259
:1011200011242F933F934F935F936F937F938F93EC
:101130009F93AF93BF93EF93FF9380914807909154
:101140004907892B29F0E0914807F0914907199543
:10115000FF91EF91BF91AF919F918F917F916F918F
:101160005F914F913F912F910F900BBE0F900FBE4B
:101170000F901F9018951F920F920FB60F92112487
:101180002F933F938F939F93AF93BF9380914E077D
:1011900090914F07A0915007B0915107309152079D
:1011A0000196A11DB11D232F2D5F2D3720F02D5746
:1011B0000196A11DB11D2093520780934E07909375
:1011C0004F07A0935007B093510780914A07909121
:1011D0004B07A0914C07B0914D070196A11DB11D81
:1011E00080934A0790934B07A0934C07B0934D0709
:1011F000BF91AF919F918F913F912F910F900FBE13
:101200000F901F9018958FB7F89420914E0730914A
:101210004F0740915007509151078FBFB901CA0144
:1012200008959FB7F89420914A0730914B07409159
:101230004C0750914D0786B5A89B06C08F3F21F003
:101240002F5F3F4F4F4F5F4F9FBF542F432F322F82
:101250002227280F311D411D511D82E0220F331F0F
:10126000441F551F8A95D1F7B901CA010895789492
:1012700084B5826084BD84B5816084BD85B582609B
:1012800085BD85B5816085BDEEE6F0E08081816039
:101290008083E1E8F0E01082808182608083808139
:1012A00081608083E0E8F0E0808181608083E1EB11
:1012B000F0E0808184608083E0EBF0E080818160F9
:1012C0008083E1E9F0E080818260808380818160B9
:1012D0008083E0E9F0E0808181608083E1EAF0E0F2
:1012E000808182608083808181608083E0EAF0E099
:1012F000808181608083E1E2F1E08081826080838F
:10130000808181608083E0E2F1E080818160808380
:10131000EAE7F0E08081846080838081826080835E
:101320008081816080838081806880831092C10089
:1013300008951F93CF93DF93182FEB0161E00E9474
:10134000790A209709F4CAC0CF3FD10509F4C9C072
:10135000E12FF0E0E254FE4F8491893009F466C039
:101360008A30B0F48430F1F1853040F4823059F1A4
:10137000833070F5813009F0AEC020C0873009F4A9
:1013800043C0883008F048C0863009F0A4C034C09B
:101390008D3009F478C08E3038F48B3009F45AC09F
:1013A0008C3008F066C04CC0803109F480C08131B7
:1013B00009F487C08F3009F08EC06FC084B5806893
:1013C00084BDC7BD92C084B5806284BDC8BD8DC0D8
:1013D00080918000806880938000D0938900C093C2
:1013E000880083C080918000806280938000D093C9
:1013F0008B00C0938A0079C08091B0008068809390
:10140000B000C093B30071C08091B000806280933F
:10141000B000C093B40069C0809190008068809350
:101420009000D0939900C09398005FC08091900085
:10143000806280939000D0939B00C0939A0055C027
:1014400080919000886080939000D0939D00C0931D
:101450009C004BC08091A00080688093A000809188
:10146000A0008F7B8093A000D093A900C093A80018
:101470003CC08091A00080628093A000D093AB001C
:10148000C093AA0032C08091A00088608093A00021
:10149000D093AD00C093AC0028C08091200180683B
:1014A00080932001D0932901C09328011EC0809110
:1014B0002001806280932001D0932B01C0932A01E8
:1014C00014C080912001886080932001D0932D0169
:1014D000C0932C010AC0C038D1051CF4812F60E0F4
:1014E00002C0812F61E00E942C0BDF91CF911F91F0
:1014F0000895CF93DF93482F50E0CA0188589E4F3C
:10150000FC0134914E5C5E4FFA018491882369F1AD
:1015100090E0880F991FFC01EC51FF4FA591B49109
:10152000FC01E250FF4FC591D491662351F42FB7CF
:10153000F8948C91932F909589238C93888189239B
:101540000BC0623061F42FB7F8948C91932F909573
:1015500089238C938881832B88832FBF06C09FB7F4
:10156000F8948C91832B8C939FBFDF91CF9108953A
:10157000893009F449C08A30A0F4843051F18530B3
:1015800040F4823079F1833000F5813009F063C096
:1015900026C0873079F1883098F5863009F05BC035
:1015A00025C08D3009F442C08E3028F48B30B1F163
:1015B0008C30C0F52DC0803109F442C0813109F46E
:1015C00045C08F3009F047C037C0809180008F77C9
:1015D00003C0809180008F7D80938000089584B542
:1015E0008F7702C084B58F7D84BD08958091B0004F
:1015F0008F7703C08091B0008F7D8093B0000895F5
:10160000809190008F7707C0809190008F7D03C0FC
:1016100080919000877F8093900008958091A00032
:101620008F7707C08091A0008F7D03C08091A000BC
:10163000877F8093A0000895809120018F7703C059
:10164000809120018F7D8093200108958091200159
:10165000877F809320010895FF920F931F93F62EAA
:10166000482F50E0CA0182549E4FFC012491CA01C8
:1016700088589E4FFC0114914E5C5E4FFA01049114
:101680000023C9F0222319F0822F0E94B80AE02F0C
:10169000F0E0EE0FFF1FE250FF4FA591B4919FB70E
:1016A000F894FF2021F48C911095812302C08C9135
:1016B000812B8C939FBF1F910F91FF9008950F93E3
:1016C0001F93482F50E0CA0182549E4FFC01249181
:1016D000CA0188589E4FFC0104914E5C5E4FFA018E
:1016E0001491112319F420E030E015C0222319F0E1
:1016F000822F0E94B80A812F90E0880F991F885E80
:101700009E4FFC01A591B4918C9120E030E08023A4
:1017100011F021E030E0C9011F910F91089581304F
:10172000910579F0823091051CF4892B39F00895E8
:101730008230910549F0039781F40BC08CEA96E062
:1017400005C08EEC96E002C080EF96E00E94E405B2
:10175000089582E197E00E94E405089581309105A3
:1017600079F0823091051CF4892B39F0089582308C
:10177000910549F0039781F40BC08CEA96E005C00F
:101780008EEC96E002C080EF96E00E942C03089554
:1017900082E197E00E942C030895382F413210F027
:1017A00040E042C08091D9078823E1F791E090930F
:1017B000D9072093D7078FEF8093DA071092B507E8
:1017C00041504093B6074F5F9093B4078091B407A0
:1017D000330F832B8093B4078091D807813041F475
:1017E0001092D8078091B4078093BB0085EC01C0AC
:1017F00085EE8093BC008091D9078130E1F3809120
:10180000B507841710F44091B50720E030E00AC016
:10181000FB01E20FF31FD901A954B84F8C918083CB
:101820002F5F3F4F2417A0F3842F08950F931F932A
:10183000582F122F413210F081E045C08091D90716
:101840008823E1F782E08093D9070093D7078FEFD1
:101850008093DA071092B5074093B607A7EBB7E07D
:10186000FB0102C081918D938E2F861B8417D0F3CC
:101870001092B4078091B407550F852B8093B4075D
:101880008091D807813041F41092D8078091B40735
:101890008093BB0085EC01C085EE8093BC001123D2
:1018A000A9F08091D907823089F4FBCF8091DA07C3
:1018B000803211F482E007C08091DA07803311F0A2
:1018C00084E001C083E01F910F9108958091DA07B1
:1018D0008F3F61F780E0F7CF1F920F920FB60F9204
:1018E0000BB60F9211242F933F934F935F936F93F7
:1018F0007F938F939F93AF93BF93EF93FF938091C9
:10190000B90090E0887F90708036910509F4F2C0AC
:1019100081369105CCF58832910509F47BC0893276
:101920009105B4F48031910509F46FC081319105BE
:101930003CF4009709F447C1089709F04FC165C00E
:101940008831910509F466C0809709F047C182C0CB
:101950008034910509F4A4C08134910544F48033A6
:10196000910509F482C0C89709F038C189C0803553
:10197000910509F489C08835910509F496C0883429
:10198000910509F02BC1AEC08839910509F413C146
:1019900089399105ECF48837910509F4ABC0893792
:1019A00091054CF48836910509F4A4C0803791055F
:1019B00009F014C19FC08838910509F4FCC0803932
:1019C000910509F49DC08038910509F007C198C0C0
:1019D000803B910509F4C6C0813B91054CF4803AE7
:1019E000910509F49FC0883A910509F0F7C0BAC083
:1019F000803C910509F4E3C0883C910509F4DFC0FF
:101A0000883B910509F0EAC0C2C08091B407809379
:101A1000BB00CFC09091B5078091B607981768F4C6
:101A20009091B507E92FF0E0E954F84F8081809359
:101A3000BB009F5F9093B507BCC08091D7078823F8
:101A400009F44BC085ED8093BC008091BC0084FDFF
:101A5000FCCFC2C080E28093DA0785ED8093BC00A2
:101A60008091BC0084FDFCCFB7C080E38093DA078F
:101A700085ED8093BC008091BC0084FDFCCFACC0A0
:101A800088E38093DA079BC08091B5079091BB00F3
:101A9000E82FF0E0E954F84F90838F5F8093B5070B
:101AA0009091B5078091B60782C08091B50790915B
:101AB000BB00E82FF0E0E954F84F90838F5F8093EC
:101AC000B5078091D707882341F085ED8093BC004E
:101AD0008091BC0084FDFCCF7FC081E08093D8075B
:101AE00084EA6EC085ED8093BC008091BC0084FDCB
:101AF000FCCF72C083E08093D9071092DB0759C0F6
:101B00008091DB07803208F056C08091DB0790910E
:101B1000BB00E82FF0E0E452F84F90838F5F809392
:101B2000DB0747C08091DB07803230F4E091DB07B0
:101B3000F0E0E452F84F108285ED8093BC00809174
:101B4000BC0084FDFCCF1092D9076091DB07E091C7
:101B5000FC07F091FD078CED97E070E0199510926D
:101B6000DB072DC084E08093D9071092FE07109206
:101B7000FF07E0910008F091010819958091FF0797
:101B8000882329F481E08093FF0710920208909146
:101B9000FE07E92FF0E0EE5FF74F80818093BB00F6
:101BA0009F5F9093FE079091FE078091FF07981723
:101BB00010F485EC01C085E88093BC000FC085EC73
:101BC0008093BC0009C01092DA0785ED8093BC00B9
:101BD0008091BC0084FDFCCF1092D907FF91EF915A
:101BE000BF91AF919F918F917F916F915F914F9135
:101BF0003F912F910F900BBE0F900FBE0F901F9033
:101C00001895413208F040E2862F63E577E00E94A4
:101C1000CD0B1092730780937407089521E00E9402
:101C2000010E08950F93062F8091750766E777E000
:101C30004091970721E00E94160C1092960710928F
:101C40009707109298070F91089561E00E94120E75
:101C50000895DF93CF930F92CDB7DEB7FC01698370
:101C6000809198078823C9F080919707803238F0D7
:101C700081E090E09383828320E030E01AC080917D
:101C80009607E82FF0E0EA58F84F998190838F5F2C
:101C900080939607809397070AC08091D907843074
:101CA00031F481E08093FF0789818093020821E06D
:101CB00030E0C9010F90CF91DF910895CF92DF926C
:101CC000EF92FF920F931F93CF93DF936C018B01E1
:101CD0007A01809198078823A1F0C0E0D0E00DC080
:101CE000D601ED91FC91D801AC0FBD1F0190F081A0
:101CF000E02DC6016C9119952196CE15DF0580F374
:101D000013C0413288F48091D907843069F4E0929D
:101D1000FF07562FA2E0B8E0FB0102C081918D932E
:101D20008E2F851B8417D0F3C701DF91CF911F91B0
:101D30000F91FF90EF90DF90CF900895209174075E
:101D400030E080917307281B3109C9010895409143
:101D5000730780917407481718F02FEF3FEF0AC000
:101D6000E42FF0E0ED5AF84F8081282F30E04F5FEC
:101D700040937307C9010895E09173078091740738
:101D8000E81718F0EFEFFFEF06C0F0E0ED5AF84F5C
:101D90008081E82FF0E0CF0108950895FF920F931E
:101DA0001F93CF93DF93F42E122F032F91E0909384
:101DB000980780937507109296071092970789E904
:101DC00097E00E94290E212F302FC901EC0110E06D
:101DD00006C089E997E069910E94290E1F5F1F15CF
:101DE000C0F389E997E00E94250E90E0882309F46A
:101DF00091E0892FDF91CF911F910F91FF9008956E
:101E0000DF93CF930F92CDB7DEB7498341E09E01B8
:101E10002F5F3F4F0E94CE0E0F90CF91DF9108951C
:101E200010929C0710929B0788EE93E0A0E0B0E030
:101E300080939D0790939E07A0939F07B093A00760
:101E40008EE794E090939A078093990788E68093B1
:101E5000A50708952F923F924F925F926F927F92C3
:101E60008F929F92AF92BF92CF92DF92EF92FF92AA
:101E70000F931F93DF93CF9300D00F920F92CDB7A4
:101E8000DEB7882E6983942E3B832A830E94030940
:101E90005B016C01FF24EE24292C332428016624E5
:101EA000772461C021E020939807809275071092F3
:101EB00096071092970789E997E069810E94290E99
:101EC00089E997E00E94250E31E0309398078092CF
:101ED00075071092960710929707A1014E195109A4
:101EE0004132510514F040E250E089E997E0682D55
:101EF0000E940E0E8F2D992787FD9095EA81FB8118
:101F00008E0F9F1F9D838C830FC0E92FF0E0ED5A49
:101F1000F84F8081282F9F5F90937307EC81FD819C
:101F20002193FD83EC83F394909174078091730760
:101F3000981709F450C00115110561F00E940309BA
:101F40006A197B098C099D09641575058605970535
:101F500008F041C090917307809174079817A8F218
:101F60002FEF3FEFDBCFE91408F49CCF01151105EB
:101F7000C9F00E9403096A197B098C099D0998011F
:101F800040E050E0621773078407950758F02F2D43
:101F9000332727FD3095892D90E02817390714F451
:101FA000FF24FA948F2D0F900F900F900F900F90A9
:101FB000CF91DF911F910F91FF90EF90DF90CF9025
:101FC000BF90AF909F908F907F906F905F904F9059
:101FD0003F902F90089589E997E00E94250E892D62
:101FE000F0E2F91508F480E2E80EBDCFEF92FF921F
:101FF0000F931F937C019C012F5F3F4F00912B0299
:1020000010912C02FC01808163E442E00E942A0FBF
:10201000F701918180E0228130E0282B392BC90122
:102020001F910F91FF90EF900895EF92FF920F9301
:102030001F937C019C012F5F3F4F00912B02109159
:102040002C02FC0180816FE342E00E942A0FF7011D
:10205000918180E0228130E0282B392BC9011F912A
:102060000F91FF90EF900895EF92FF920F931F93BF
:102070007C019C012F5F3F4F00912B0210912C029D
:10208000FC0180816DE342E00E942A0FF7019181FB
:1020900080E0228130E0282B392BC9011F910F915C
:1020A000FF90EF900895EF92FF920F931F93CF93BD
:1020B000DF93EC018B017A01F901608171818281EA
:1020C000938120E030E040E85FE30E94842488238D
:1020D000A1F485EA97E00E94F60F9983888385EA48
:1020E00097E00E943410F8019183808385EA97E09D
:1020F0000E941510F70191838083DF91CF911F918A
:102100000F91FF90EF9008950F931F93FA018901AB
:1021100041E09F010E942A0F1F910F910895DF92C5
:10212000EF92FF920F931F93DF93CF930F92CDB750
:10213000DEB7E82ED62EF42E122F20912B023091EE
:102140002C02AE014F5F5F4F0E948410882341F143
:10215000212F30E04F2D50E04F5F5F4F421B530B5C
:1021600081E090E002C0880F991F1A95E2F701976D
:10217000042E02C0880F991F0A94E2F7202F30E046
:1021800002C0220F331F4A95E2F7482F409559812C
:1021900045238223482B49838E2D6D2D0E94000FED
:1021A0000F90CF91DF911F910F91FF90EF90DF90F3
:1021B00008950F93FC01062F80816BE642E023E037
:1021C0000E948F100F9108950F93FC01062F8081BC
:1021D0006CE144E022E00E948F100F9108950F936C
:1021E000FC01062F80816BE144E022E00E948F1009
:1021F0000F9108950F93FC01062F80816AE142E060
:1022000023E00E948F100F910895EF92FF920F9399
:102210001F93DF93CF930F92CDB7DEB7F82EE62E44
:10222000042F122F20912B0230912C02AE014F5F10
:102230005F4F0E9484102981112351F081E090E0CA
:1022400002C0880F991F0A95E2F7422F482B0AC057
:1022500081E090E002C0880F991F0A95E2F7482FAD
:102260004095422349838F2D6E2D0E94000F0F90C1
:10227000CF91DF911F910F91FF90EF900895FC0196
:10228000262F80816BE646E00E94051108950F938A
:102290001F938C0161E00E94D910C80160E00E9488
:1022A000EF10C80160E00E94E410C80160E00E94E5
:1022B0003F111F910F9108951092D90781E08093EB
:1022C000D7071092D80784E161E00E942C0B85E1CA
:1022D00061E00E942C0BE9EBF0E080818E7F80832F
:1022E00080818D7F808388E48093B80085E480932B
:1022F000BC0008951092730710927407109296070D
:10230000109297070E945C110895CF93DF93E90123
:10231000688179818A819B8120E030E040E85FE339
:102320000E9484248823A9F089E997E00E947A1109
:1023300085EA97E065E00E94FA1085EA97E00E943E
:10234000471180E090E0A0E8BFE388839983AA83E7
:10235000BB83DF91CF9108958231910509F18331DB
:10236000910534F48230910579F00397E1F409C0C6
:102370008431910579F0843191057CF0459799F489
:1023800006C021E030E011C020E030E00EC022E0C5
:1023900030E00BC023E030E008C024E030E005C0AE
:1023A00025E030E002C02FEF3FEFC9010895CF9242
:1023B000DF92EF92FF920F931F93DF93CF93CDB7EE
:1023C000DEB77C016B01FA01890160817181828134
:1023D000938120E030E040E85FE30E94842488237A
:1023E000F1F4D801EC91F0E093E0EE0FFF1F9A9525
:1023F000E1F7EA5DF74F80819181F7019183808356
:102400001196EC91F0E083E0EE0FFF1F8A95E1F763
:10241000EA5DF74F80819181D6018D939C93CF9196
:10242000DF911F910F91FF90EF90DF90CF90089573
:10243000AF92BF92CF92DF92EF92FF920F931F93D2
:10244000DF93CF93CDB7DEB76A018901DA016D91D1
:102450007D918D919C9120E030E040E85FE30E9407
:102460008424882309F40DC1D801EC91F0E0D70150
:102470008C9190E053E0EE0FFF1F5A95E1F7EE5D6F
:10248000F74F91838083D801EC91F0E0D5018C91D6
:1024900090E043E0EE0FFF1F4A95E1F7EC5DF74F48
:1024A00091838083D8011196EC91F0E0D7011196C9
:1024B0008C9190E033E0EE0FFF1F3A95E1F7EE5D6F
:1024C000F74F91838083D8011196EC91F0E0D5010C
:1024D00011968C9190E023E0EE0FFF1F2A95E1F713
:1024E000EC5DF74F91838083D801EC91F0E0B3E08D
:1024F000EE0FFF1FBA95E1F7EE5DF74F80819181F6
:1025000060E00E94790AD801EC91F0E0A3E0EE0FC0
:10251000FF1FAA95E1F7EC5DF74F8081918160E0A4
:102520000E94790AD8011196EC91F0E073E0EE0F69
:10253000FF1F7A95E1F7EE5DF74F8081918160E0B2
:102540000E94790AD8011196EC91F0E063E0EE0F59
:10255000FF1F6A95E1F7EC5DF74F8081918160E0A4
:102560000E94790AD801EC91F0E053E0EE0FFF1FD2
:102570005A95E1F7EE5DF74F8081918161E00E940D
:102580002C0BD801EC91F0E043E0EE0FFF1F4A95D1
:10259000E1F7EC5DF74F8081918161E00E942C0BA7
:1025A000D8011196EC91F0E033E0EE0FFF1F3A9561
:1025B000E1F7EE5DF74F8081918161E00E942C0B85
:1025C000D8011196EC91F0E023E0EE0FFF1F2A9561
:1025D000E1F7EC5DF74F8081918161E00E942C0B67
:1025E000F8012081222319F0223071F515C0809165
:1025F0002208909123080E94AC1168E575E141E042
:1026000050E00E94B70680912408909125080E940E
:10261000AC116EEF74E114C08091320890913308D0
:102620000E94AC1164EA74E141E050E00E94B706F8
:1026300080913408909135080E94AC116AE474E1ED
:1026400041E050E00E94B70680916800846080936A
:1026500068008091680082608093680080916D00BE
:10266000816080936D0080916C00826080936C002B
:1026700080E090E0A0E8BFE3F60180839183A2832D
:10268000B383CF91DF911F910F91FF90EF90DF9077
:10269000CF90BF90AF9008951F920F920FB60F92F8
:1026A0000BB60F9211240F931F932F933F934F93C9
:1026B0005F936F937F938F939F93AF93BF93CF93CA
:1026C000DF93EF93FF9380912A0890912B080E944B
:1026D0005F0BEC01009130081091310820E030E0F0
:1026E00024C0B901882777FD8095982F0E94232563
:1026F00020E030E040E050E00E94202420E030E084
:1027000040E050E00E94202420E030E040E450E42B
:102710000E94202420E030E040E450E40E941F2486
:102720000E94F0249B012F5F3F4F20173107CCF20E
:1027300080912C0890912D080E945F0B019719F44D
:10274000219749F402C0CD2B31F480912E0890914D
:102750002F08019605C080912E0890912F080197AF
:1027600090932F0880932E08FF91EF91DF91CF91E6
:10277000BF91AF919F918F917F916F915F914F9199
:102780003F912F911F910F910F900BBE0F900FBE95
:102790000F901F9018951F920F920FB60F920BB6C5
:1027A0000F9211240F931F932F933F934F935F9397
:1027B0006F937F938F939F93AF93BF93CF93DF9349
:1027C000EF93FF9380912C0890912D080E945F0B4E
:1027D000EC01009130081091310820E030E024C075
:1027E000B901882777FD8095982F0E94232520E046
:1027F00030E040E050E00E94202420E030E040E063
:1028000050E00E94202420E030E040E450E40E94A8
:10281000202420E030E040E450E40E941F240E9485
:10282000F0249B012F5F3F4F20173107CCF280919E
:102830002A0890912B080E945F0B019719F4CD2B69
:1028400049F402C0219731F480912E0890912F080D
:10285000019605C080912E0890912F0801979093C2
:102860002F0880932E08FF91EF91DF91CF91BF91B8
:10287000AF919F918F917F916F915F914F913F9118
:102880002F911F910F910F900BBE0F900FBE0F90C5
:102890001F9018950F931F93CF93DF938091320869
:1028A000909133080E945F0BEC0100913808109161
:1028B000390820E030E024C0B901882777FD8095F1
:1028C000982F0E94232520E030E040E050E00E9455
:1028D000202420E030E040E050E00E94202420E06E
:1028E00030E040E450E40E94202420E030E040E466
:1028F00050E40E941F240E94F0249B012F5F3F4F51
:1029000020173107CCF280913408909135080E944D
:102910005F0B019719F4219749F402C0CD2B31F4D4
:102920008091360890913708019605C0809136084D
:102930009091370801979093370880933608DF917C
:10294000CF911F910F9108950F931F93CF93DF9312
:1029500080913408909135080E945F0BEC01009142
:1029600038081091390820E030E024C0B9018827E8
:1029700077FD8095982F0E94232520E030E040E0ED
:1029800050E00E94202420E030E040E050E00E942F
:10299000202420E030E040E450E40E94202420E0A5
:1029A00030E040E450E40E941F240E94F0249B0188
:1029B0002F5F3F4F20173107CCF280913208909162
:1029C00033080E945F0B019719F4CD2B49F402C024
:1029D000219731F48091360890913708019605C00F
:1029E000809136089091370801979093370880932B
:1029F0003608DF91CF911F910F9108950F931F9388
:102A0000CF93DF9380912208909123080E945F0B5F
:102A1000EC01009128081091290820E030E024C042
:102A2000B901882777FD8095982F0E94232520E003
:102A300030E040E050E00E94202420E030E040E020
:102A400050E00E94202420E030E040E450E40E9466
:102A5000202420E030E040E450E40E941F240E9443
:102A6000F0249B012F5F3F4F20173107CCF280915C
:102A70002408909125080E945F0B019719F4219773
:102A800049F402C0CD2B31F480912608909127089B
:102A9000019605C080912608909127080197909390
:102AA000270880932608DF91CF911F910F910895F9
:102AB0000F931F93CF93DF93809124089091250863
:102AC0000E945F0BEC01009128081091290820E07A
:102AD00030E024C0B901882777FD8095982F0E94A7
:102AE000232520E030E040E050E00E94202420E058
:102AF00030E040E050E00E94202420E030E040E45C
:102B000050E40E94202420E030E040E450E40E94A1
:102B10001F240E94F0249B012F5F3F4F2017310795
:102B2000CCF280912208909123080E945F0B0197BC
:102B300019F4CD2B49F402C0219731F48091260875
:102B400090912708019605C080912608909127084A
:102B500001979093270880932608DF91CF911F91CA
:102B60000F910895089584E090E00E94E223E2E44A
:102B7000F8E085E9DF011D928A95E9F78BEC98E092
:102B800090934708809346088DEC98E097AF86AF06
:102B900083EC98E09093550880935408F093AB0829
:102BA000E093AA08F0934508E093440881E090E0A0
:102BB0009093CC088093CB0880E092E090934B08F0
:102BC00080934A088FEC98E09093CE088093CD08CC
:102BD0008AE097EDA3EABBE38093C3089093C4080F
:102BE000A093C508B093C60884E3E7EDF8E0DF01E1
:102BF0001D928A95E9F788E3EBE0F9E0DF011D9289
:102C00008A95E9F78DE292E09093300980932F093D
:102C10008AE398E090933209809331091092420937
:102C20001092410980917D0361E00E94790A8091B0
:102C3000810361E00E94790A20E030E040E050E04A
:102C400020930B0930930C0940930D0950930E0902
:102C50008091750390917603A0917703B0917803EA
:102C60008093350990933609A0933709B0933809BA
:102C700080914D0490914E04A0914F04B091500466
:102C80008093390990933A09A0933B09B0933C098A
:102C90008091790390917A03A0917B03B0917C039A
:102CA00080933D0990933E09A0933F09B09340095A
:102CB0008091910390919203A0919303B09194031A
:102CC00080930F0990931009A0931109B0931209F2
:102CD0008091AD039091AE03A091AF03B091B0038A
:102CE0008093130990931409A0931509B0931609C2
:102CF0008091C9039091CA03A091CB03B091CC03FA
:102D00008093170990931809A0931909B0931A0991
:102D10008091E5039091E603A091E703B091E80369
:102D200080931B0990931C09A0931D09B0931E0961
:102D30008091F1039091F203A091F303B091F40319
:102D400080931F0990932009A0932109B093220931
:102D50008091090490910A04A0910B04B0910C0495
:102D60008093230990932409A0932509B093260901
:102D70008091210490912204A0912304B091240415
:102D80008093270990932809A0932909B0932A09D1
:102D900020932B0930932C0940932D0950932E0931
:102DA00008954F925F926F927F928F929F92AF920F
:102DB000BF92CF92DF92EF92FF920F931F93BFEFDC
:102DC0006B2EB8E07B2EB3016E5F7F4FABE04A2ED7
:102DD000A9E05A2EECE5F4E0DF011496C301A2014C
:102DE0009F0102E010E032967F01F2E0CF2ED12C5D
:102DF0005D01E2E08E2E912C0E9418128091F30862
:102E00009091F408A091F508B091F60880933509E7
:102E100090933609A0933709B0933809609149041B
:102E200070914A0480914B0490914C042091FB08CE
:102E30003091FC084091FD085091FE080E947A26CE
:102E40009B01AC016091390970913A0980913B096D
:102E500090913C090E9420246093390970933A09AB
:102E600080933B0990933C098091F7089091F80872
:102E7000A091F908B091FA0880933D0990933E091A
:102E8000A0933F09B09340096091890370918A0330
:102E900080918B0390918C0320910F093091100940
:102EA00040911109509112090E947A269B01AC01B0
:102EB0006091E3087091E4088091E5089091E6083C
:102EC0000E94202460930F097093100980931109C8
:102ED000909312096091A5037091A6038091A703B6
:102EE0009091A8032091130930911409409115097C
:102EF000509116090E947A269B01AC016091E70867
:102F00007091E8088091E9089091EA080E942024D5
:102F1000609313097093140980931509909316090F
:102F20006091C1037091C2038091C3039091C40367
:102F300020911709309118094091190950911A09E7
:102F40000E947A269B01AC016091EB087091EC081D
:102F50008091ED089091EE080E942024609317095B
:102F6000709318098093190990931A096091DD03F1
:102F70007091DE038091DF039091E00320911B09A3
:102F800030911C0940911D0950911E090E947A261A
:102F90009B01AC016091EF087091F0088091F108FD
:102FA0009091F2080E94202460931B0970931C09E1
:102FB00080931D0990931E096091E9037091EA03C3
:102FC0008091EB039091EC0320911F09309120092F
:102FD00040912109509122090E947A269B01AC015F
:102FE0006091D7087091D8088091D9089091DA083B
:102FF0000E94202460931F09709320098093210967
:10300000909322096091010470910204809103045D
:1030100090910404209123093091240940912509BD
:10302000509126090E947A269B01AC016091DB0831
:103030007091DC088091DD089091DE080E942024C8
:10304000609323097093240980932509909326099E
:103050006091190470911A0480911B0490911C04D2
:1030600020912709309128094091290950912A0976
:103070000E947A269B01AC016091DF087091E00804
:103080008091E1089091E2080E9420246093270932
:10309000709328098093290990932A09A301485F16
:1030A0005F4F20E230E0420E531EC3010496E6E07B
:1030B000F0E06E0E7F1EB30192010E9485110DECAF
:1030C00018E0E090CD08F090CE08F8013E976081BE
:1030D0007181828193816F5F7F4F8F4F9F4F60839C
:1030E0007183828393830E9421252091C3083091AC
:1030F000C4084091C5085091C6080E947A26F7017D
:10310000608371838283938306501040F80180812D
:103110009181A281B3810196A11DB11D808391830C
:10312000A283B3831F910F91FF90EF90DF90CF9018
:10313000BF90AF909F908F907F906F905F904F90D7
:1031400008952F923F924F925F926F927F928F924B
:103150009F92AF92BF92CF92DF92EF92FF920F9326
:103160001F93DF93CF93CDB7DEB7CD56D0400FB6C8
:10317000F894DEBF0FBECDBF809131099091320926
:103180002A969FAF8EAF2A97C0902F09D090300912
:10319000E0904109F0904209E091CD08F091CE080D
:1031A0006080718082809380D60114962D913D912C
:1031B0004D915C911797C401B3010E947626882334
:1031C0005CF02A96AEADBFAD2A9714968D919D9175
:1031D0000D90BC91A02D97C0C401B301F6012081D0
:1031E0003181428153810E9484241816ECF58701B5
:1031F000000F111F000F111F0C0D1D1DC401B30185
:10320000D8012D913D914D915C910E94842487FDC0
:103210000DC087010F5F1F4F000F111F000F111FFF
:103220000C0D1D1D14C00894E108F108F80120815F
:1032300031814281538104501040C401B3010E9486
:10324000842487FDF0CF12C00894E11CF11CD80142
:103250002D913D914D915D918D01C401B3010E946D
:10326000762687FFF1CF02C0EE24FF24F0924209B8
:10327000E09241092701440C551C440C551CF601F1
:10328000E40DF51D80819181A281B38128968CAFD8
:103290009DAFAEAFBFAF289787010F5F1F4F000FE5
:1032A000111F000F111FC00ED11ED601AD90BD9091
:1032B000CD90DC9028966CAD7DAD8EAD9FAD2897FE
:1032C000A60195010E948424882321F5C401B3013D
:1032D00028962CAD3DAD4EAD5FAD28970E9484245D
:1032E00088233CF42A96EEADFFAD2A97E40DF51D38
:1032F00006C02A96EEADFFAD2A97E00FF11F808140
:103300009181A281B381AA968CAF9DAFAEAFBFAFC2
:10331000AA9766C02A96EEADFFAD2A974E0E5F1EA5
:10332000D2012D903D904D905C90E00FF11F808177
:103330009181A281B38124968CAF9DAFAEAFBFAF18
:103340002497C201B10124962CAD3DAD4EAD5FADC9
:1033500024970E948424882339F4AA962CAE3DAE8B
:103360004EAE5FAEAA973CC0C601B501A401930161
:103370000E941F247B018C01C601B50128962CAD4B
:103380003DAD4EAD5FAD28970E941F249B01AC015F
:10339000C801B7010E9488247B018C01A201910120
:1033A0000E947A265B016C0160E070E080E89FE398
:1033B000A80197010E941F2424962CAD3DAD4EAD6F
:1033C0005FAD24970E947A269B01AC01C601B5012E
:1033D0000E942024AA966CAF7DAF8EAF9FAFAA97B4
:1033E0008091250390912603A0912703B091280393
:1033F000AE968CAF9DAFAEAFBFAFAE978FEF98E0FC
:1034000061E079E04BE059E02CE534E002E010E0C7
:10341000BEE5EB2EB4E0FB2EA2E0CA2ED12CF0E6E6
:10342000AF2EF4E0BF2EE2E08E2E912C0E94D71139
:103430006091FF0870910009882777FD8095982F8B
:103440000E9423252091410430914204409143047D
:10345000509144040E947A262091710330917203A6
:1034600040917303509174030E947A26A6966CAF24
:103470007DAF8EAF9FAFA697209145043091460453
:1034800040914704509148040E947A266093F308C3
:103490007093F4088093F5089093F60860913909C9
:1034A00070913A0980913B0990913C092091510417
:1034B0003091520440915304509154040E947A2652
:1034C0001B012C016093F7087093F8088093F908AA
:1034D0009093FA0860918D0370918E0380918F0311
:1034E0009091900320910F0930911009409111099A
:1034F000509112090E947A2620E030E040E050E02E
:103500000E94202420E030E040E050E00E9420248F
:1035100020E030E040E050E00E94202468AF79AF26
:103520008AAF9BAF6091A9037091AA038091AB030E
:103530009091AC0320911309309114094091150921
:10354000509116090E947A2620E030E040E050E0D9
:103550000E94202420E030E040E050E00E9420243F
:1035600020E030E040E050E00E9420246E966CAFF6
:103570007DAF8EAF9FAF6E976091C5037091C6030C
:103580008091C7039091C8032091170930911809C1
:103590004091190950911A090E947A2620E030E0E2
:1035A00040E050E00E94202420E030E040E050E085
:1035B0000E942024A2966CAF7DAF8EAF9FAFA297E2
:1035C0006091E1037091E2038091E3039091E40341
:1035D00020911B0930911C0940911D0950911E0931
:1035E0000E947A2620E030E040E050E00E94202453
:1035F0006A966CAF7DAF8EAF9FAF6A97A6966CADA3
:103600007DAD8EAD9FADA6972091510330915203B1
:1036100040915303509154030E947A267B018C0100
:103620006091ED037091EE038091EF039091F003B0
:1036300020911F09309120094091210950912209C0
:103640000E947A2620E030E040E050E00E942024F2
:1036500020E030E040E050E00E9420249B01AC01DB
:10366000C801B7010E94202466966CAF7DAF8EAF73
:103670009FAF6697A6966CAD7DAD8EAD9FADA697BC
:1036800020915503309156034091570350915803B0
:103690000E947A267B018C016091050470910604DA
:1036A0008091070490910804209123093091240906
:1036B00040912509509126090E947A2620E030E0A9
:1036C00040E050E00E94202420E030E040E050E064
:1036D0000E9420249B01AC01C801B7010E94202454
:1036E00062966CAF7DAF8EAF9FAF629760911D0405
:1036F00070911E0480911F0490912004209127094D
:10370000309128094091290950912A090E947A266E
:1037100020E030E040E050E00E9420247B018C015A
:10372000A6966CAD7DAD8EAD9FADA6972091590349
:1037300030915A0340915B0350915C030E947A26BA
:103740009B01AC01C801B7010E9420242E966CAFEA
:103750007DAF8EAF9FAF2E9735EFC32E32E0D32EC5
:10376000DE015096BDAFACAF5D0162966CAD7DAD34
:103770008EAD9FAD6297F6012089318942895389C8
:103780000E947A267B018C0166966CAD7DAD8EAD74
:103790009FAD6697D6012D913D914D915C910E9410
:1037A0007A269B01AC01C801B7010E9420247B014D
:1037B0008C012E966CAD7DAD8EAD9FAD2E97F60132
:1037C00020A131A142A153A10E947A269B01AC0104
:1037D000C801B7010E9420247B018C0188E690E09B
:1037E000C80ED91EA6966CAD7DAD8EAD9FADA697C9
:1037F000D6012D913D914D915C910E947A269B01BD
:10380000AC01C801B7010E942024F50161937193B6
:10381000819391935F018CE99FEFC80ED91E95E0CB
:10382000C91693E0D90609F0A0CF809162048130D7
:1038300089F56091F3087091F4088091F5089091F2
:10384000F608209135093091360940913709509199
:1038500038090E941F245B016C0160903909709047
:103860003A0980903B0990903C09C201B101209136
:103870003D0930913E0940913F09509140090E9415
:103880001F241B012C01A696ECACFDAC0EAD1FADA8
:10389000A6972BC080915B048130B9F4E8ACF9ACF9
:1038A0000AAD1BAD6E96ACACBDACCEACDFAC6E97CA
:1038B000A2966CAC7DAC8EAC9FACA2976A962CACF9
:1038C0003DAC4EAC5FAC6A9710C0E888F9880A89B5
:1038D0001B89AC88BD88CE88DF88688C798C8A8CFF
:1038E0009B8C2C8C3D8C4E8C5F8C6091290370914D
:1038F0002A0380912B0390912C039058AA962CAD0B
:103900003DAD4EAD5FADAA970E947A26A801970102
:103910000E942024209195023091960240919702B6
:103920005091980250580E947A267B018C01609138
:103930002D0370912E0380912F03909130039058A6
:10394000AA962CAD3DAD4EAD5FADAA970E947A26EA
:10395000A60195010E9420242091990230919A029B
:1039600040919B0250919C0250580E947A269B01E4
:10397000AC01C801B7010E9420247B018C01609139
:103980003103709132038091330390913403905846
:10399000AA962CAD3DAD4EAD5FADAA970E947A269A
:1039A000A40193010E94202420919D0230919E0247
:1039B00040919F025091A00250580E947A269B018C
:1039C000AC01C801B7010E9420247B018C016091E9
:1039D00035037091360380913703909138039058E6
:1039E000AA962CAD3DAD4EAD5FADAA970E947A264A
:1039F000A20191010E9420242091A1023091A202F3
:103A00004091A3025091A40250580E947A269B0133
:103A1000AC01C801B7010E9420246CAB7DAB8EAB1A
:103A20009FAB20E030E040E251E40E9420242DECE6
:103A30003CEC4CE455E40E947A260E945E257B0112
:103A40008C010E94CC23882309F075C5C801B701F9
:103A50000E947623882309F06EC5C801B70120E0D3
:103A600030E040E857E40E9478259B01AC01CB018F
:103A7000DA017C018D01B901CA0120E030E040E0AB
:103A800050E00E948424882354F4C801B701905860
:103A90000E94F52422243324261A370A05C0C801BF
:103AA000B7010E94F5241B01A6966CAD7DAD8EADCD
:103AB0009FADA69720E030E040E251E40E94202430
:103AC0002DEC3CEC4CE455E40E947A260E945E25E5
:103AD0007B018C010E94D723882309F037C5C801D8
:103AE000B7010E94A123882309F030C5C801B7019E
:103AF00020E030E040E857E40E9478259B01AC01CB
:103B0000CB01DA017C018D01B901CA0120E030E06E
:103B100040E050E00E948424882354F4C801B70197
:103B200090580E94F52444245524461A570A05C08B
:103B3000C801B7010E94F5242B01609139097091E9
:103B40003A0980913B0990913C0920E030E040E245
:103B500051E40E9420242DEC3CEC4CE455E40E94FE
:103B60007A260E945E257B018C010E94D723882340
:103B700009F0F7C4C801B7010E94A123882309F006
:103B8000F0C4C801B70120E030E040E857E40E94EB
:103B900078259B01AC01CB01DA017C018D01B901D3
:103BA000CA0120E030E040E050E00E9484248823F5
:103BB00054F4C801B70190580E94F5246624772474
:103BC000661A770A05C0C801B7010E94F5243B01B7
:103BD00068AD79AD8AAD9BAD20E030E040E251E4C4
:103BE0000E9420242DEC3CEC4CE455E40E947A2603
:103BF0000E945E257B018C010E94CC23882309F062
:103C0000BBC4C801B7010E947623882309F0B4C45D
:103C1000C801B70120E030E040E857E40E94782571
:103C20009B01AC01CB01DA017C018D01B901CA0114
:103C300020E030E040E050E00E948424882354F4E7
:103C4000C801B70190580E94F52488249924861A47
:103C5000970A05C0C801B7010E94F5244B01A2963E
:103C60006CAD7DAD8EAD9FADA29720E030E040E21F
:103C700051E40E9420242DEC3CEC4CE455E40E94DD
:103C80007A260E945E257B018C010E94CC2388232A
:103C900009F07DC4C801B7010E947623882309F08A
:103CA00076C4C801B70120E030E040E857E40E9444
:103CB00078259B01AC01CB01DA017C018D01B901B2
:103CC000CA0120E030E040E050E00E9484248823D4
:103CD00054F4C801B70190580E94F524AA24BB24CB
:103CE000A61AB70A05C0C801B7010E94F5245B01F6
:103CF000688979898A899B8920E030E040E251E433
:103D00000E9420242DEC3CEC4CE455E40E947A26E1
:103D10000E945E257B018C010E94CC23882309F040
:103D200041C4C801B7010E947623882309F03AC430
:103D3000C801B70120E030E040E857E40E94782550
:103D40009B01AC01CB01DA017C018D01B901CA01F3
:103D500020E030E040E050E00E948424882354F4C6
:103D6000C801B70190580E94F524CC24DD24C61A5E
:103D7000D70A05C0C801B7010E94F5246B01688D00
:103D8000798D8A8D9B8D20E030E040E251E40E94E5
:103D900020242DEC3CEC4CE455E40E947A260E9451
:103DA0005E257B018C010E94CC23882309F005C489
:103DB000C801B7010E947623882309F0FEC3C80119
:103DC000B70120E030E040E857E40E9478259B01ED
:103DD000AC01CB01DA017C018D01B901CA0120E0FF
:103DE00030E040E050E00E948424882354F4C8016D
:103DF000B70190580E94F52422273327261B370B42
:103E000005C0C801B7010E94F5249B01809163049D
:103E100089833A822B825C824D827E826F82988671
:103E20008986BA86AB86DC86CD863E872F878091D1
:103E3000850390918603BE016F5F7F4F4FE050E096
:103E40000E948F0B2090390930903A0940903B092D
:103E500050903C0921ED822E22E0922E99E3692EAA
:103E600093E0792EA7EDB8E0BFAFAEAF62966CAD30
:103E70007DAD8EAD9FAD6297F4012081318142818D
:103E800053810E947A267B018C01F4013C9766964F
:103E90006CAD7DAD8EAD9FAD669720813181428145
:103EA00053810E947A269B01AC01C801B7010E9490
:103EB00020247B018C012E966CAD7DAD8EAD9FAD27
:103EC0002E97D4011C962D913D914D915C911F9799
:103ED0000E947A269B01AC01C801B7010E942024F0
:103EE0005B016C01C201B101F30124853585468572
:103EF00057850E947A267B018C01A6966CAD7DAD1C
:103F00008EAD9FADA697D3012D913D914D915D91C1
:103F10003D010E947A269B01AC01C801B7010E94B5
:103F200020247B018C016CA97DA98EA99FA9F40195
:103F3000208D318D428D538D0E947A269B01AC01DC
:103F4000C801B7010E9420249B01AC01C601B50144
:103F50000E942024AEADBFAD6D937D938D939D9354
:103F6000BFAFAEAFE4E0F0E08E0E9F1EFDED8F160A
:103F7000F2E09F0609F07ACF68AD79AD8AAD9BADCE
:103F800020918502309186024091870250918802EB
:103F90000E947A267B018C016E966CAD7DAD8EAD54
:103FA0009FAD6E972091890230918A0240918B02D9
:103FB00050918C020E947A269B01AC01C801B70186
:103FC0000E9420247B018C01A2966CAD7DAD8EAD4C
:103FD0009FADA29720918D0230918E0240918F0269
:103FE000509190020E947A269B01AC01C801B70152
:103FF0000E9420247B018C016A966CAD7DAD8EAD54
:104000009FAD6A9720919102309192024091930264
:10401000509194020E947A269B01AC01C801B7011D
:104020000E9420247B018C01A6966CAD7DAD8EADE7
:104030009FADA697A80197010E941F2468AB79AB9A
:104040008AAB9BABC201B101A80197010E941F245A
:104050002B013C0188ECC82E8FEFD82EC80CD91C40
:10406000C301B201D60150962D913D914D915C91C5
:1040700053970E947A267B018C0168A979A98AA9A5
:104080009BA9F60120813181428153810E947A26C9
:104090009B01AC01C801B7010E9420247B018C0167
:1040A00080ED9FEFC80ED91E6CA97DA98EA99FA98E
:1040B000D6012D913D914D915C910E947A269B01F4
:1040C000AC01C801B7010E942024ECADFDAD6193A5
:1040D000719381939193FDAFECAF84E390E0C80EB0
:1040E000D91E95EBC91692E0D90609F0B9CF05E3C0
:1040F000402E02E0502E10E2212E312C2C0E3D1EBF
:104100006A966CAD7DAD8EAD9FAD6A97D201D096AB
:104110002D913D914D915C91D3970E947A263B0160
:104120004C01A2966CAD7DAD8EAD9FADA297F20114
:1041300020A131A142A153A10E947A265B016C010A
:104140006E966CAD7DAD8EAD9FAD6E97D2015096E3
:104150002D913D914D915C9153970E947A267B0160
:104160008C0168AD79AD8AAD9BADF20121913191A1
:10417000419151912F010E947A269B01AC01C80107
:10418000B7010E9420249B01AC01C601B5010E9429
:1041900020249B01AC01C401B3010E942024D10161
:1041A0006D937D938D939D931D01B5E44B16B2E005
:1041B0005B0609F0A5CF688979898A899B8928A13E
:1041C00039A14AA15BA10E9420246093E308709367
:1041D000E4088093E5089093E6086C897D898E89D0
:1041E0009F892CA13DA14EA15FA10E942024609334
:1041F000E7087093E8088093E9089093EA08688DCF
:10420000798D8A8D9B8D28A539A54AA55BA50E942D
:1042100020246093EB087093EC088093ED08909352
:10422000EE086C8D7D8D8E8D9F8D2CA53DA54EA5A8
:104230005FA50E9420246093EF087093F00880939C
:10424000F1089093F20883E099E065E079E047E0B7
:1042500059E02BE239E00E945310609103097091FC
:104260000409882777FD8095982F0E9423252091A7
:104270006D0330916E0340916F03509170030E9463
:104280001F242091550430915604409157045091B9
:1042900058040E947A266093FB087093FC08809370
:1042A000FD089093FE086091390970913A09809158
:1042B0003B0990913C099F7720E030E040E45FE3C8
:1042C0000E94842487FD0BC00F2EF0E0EF2EF0E05B
:1042D000FF2EF0E00F2FF0E01F2FF02D0AC00F2E61
:1042E000F0E0EF2EF0E0FF2EF0E80F2FFFE31F2F9E
:1042F000F02DAE966CAD7DAD8EAD9FADAE97AA960E
:104300002CAD3DAD4EAD5FADAA970E947A262CA98B
:104310003DA94EA95FA90E942024A80197010E94EF
:104320007A262091290430912A0440912B0450913F
:104330002C040E947A260E945E257B018C010E943B
:10434000CC23882309F044C1C801B7010E94762319
:10435000882309F03DC1C801B70120E030E040E802
:1043600057E40E9478259B01AC01CB01DA017C0166
:104370008D01B901CA0120E030E040E050E00E9428
:104380008424882354F4C801B70190580E94F5246E
:1043900000271127061B170B05C0C801B7010E9493
:1043A000F5248B018091590490915A04081719073C
:1043B0004CF0A0902504B0902604C0902704D09023
:1043C000280408C0A0902D04B0902E04C0902F04A3
:1043D000D0903004C601B50120E030E040E853E45D
:1043E0000E9484248823A4F4C601B50120E030E0B3
:1043F00040E050E00E94762688233CF0C601B501DB
:104400000E94F5246093090906C01092090903C0AF
:104410008FEF8093090980917D03609109090E94C3
:104420002C0B980117FF03C0309521953F4FB90120
:10443000882777FD8095982F0E94232520913104AD
:104440003091320440913304509134040E9420246E
:104450007B018C0190903504809036047090370475
:1044600060903804292D382D472D562D0E94762630
:10447000181694F09090390480903A0470903B04A0
:1044800060903C04C801B701292D382D472D562DC9
:104490000E948424882334F4892D982DA72DB62DCD
:1044A0007C018D01C601B50120913D0430913E048F
:1044B00040913F04509140040E947A26A801970140
:1044C0000E941F247B018C01E89417F9C801B701F1
:1044D00020E030E040E853E40E94842488233CF448
:1044E000C801B7010E94F52460930A0903C08FEF49
:1044F00080930A0960910A098091810370E00E940B
:104500009909C359DF4F0FB6F894DEBF0FBECDBF78
:10451000CF91DF911F910F91FF90EF90DF90CF909F
:10452000BF90AF909F908F907F906F905F904F90D3
:104530003F902F9008950F2EF0E0EF2EF0E0FF2E29
:10454000F0E00F2FF0E01F2FF02DA9CA0F2EF0E0A2
:10455000EF2EF0E0FF2EF0E00F2FF0E01F2FF02DF8
:10456000E7CA0F2EF0E0EF2EF0E0FF2EF0E00F2F65
:10457000F0E01F2FF02D27CB0F2EF0E0EF2EF0E014
:10458000FF2EF0E00F2FF0E01F2FF02D63CB0F2E4A
:10459000F0E0EF2EF0E0FF2EF0E00F2FF0E01F2F05
:1045A000F02DA1CB0F2EF0E0EF2EF0E0FF2EF0E08B
:1045B0000F2FF0E01F2FF02DDDCB0F2EF0E0EF2EB0
:1045C000F0E0FF2EF0E00F2FF0E01F2FF02D19CCC0
:1045D0000F2EF0E0EF2EF0E0FF2EF0E00F2FF0E0D6
:1045E0001F2FF02DDACEAF92BF92CF92DF92EF92D3
:1045F000FF920F931F93CF93DF930E9437090E947E
:10460000B3158DE061E00E94790A8DE060E00E94C0
:104610002C0B80E090E040E052EC61E070E00E9402
:10462000AE0B80E090E062E172E04AE150E00E946F
:104630008F0BC0918A04D0918B04AA24BB246501FE
:1046400024C00E9411097B018C01DC01CB018A1975
:104650009B09AC09BD0988589341A040B040A8F01F
:104660000E94A1180E94D1160E9411096E197F099B
:10467000800B910B695873418040904020F08DE091
:1046800061E00E942C0B5701680188819981892B78
:10469000C1F20E94B21580E090E0DF91CF911F91AE
:1046A0000F91FF90EF90DF90CF90BF90AF90089563
:1046B00060E070E080E89FE7089560E070E080E8E7
:1046C0009FE7089560E070E080E89FEF089560E064
:1046D00070E080E89FEF089560E070E080EC9FEF6D
:1046E000089560E070E080EC9FEF0895DF92EF9214
:1046F000FF920F931F937B018C0120914B09309106
:104700004C0940914D0950914E090E948424882300
:1047100079F0DD24C801B701209153093091540983
:1047200040915509509156090E948424882311F420
:10473000DD24D3948D2D1F910F91FF90EF90DF908A
:104740000895DF92EF92FF920F931F937B018C01EC
:1047500020914709309148094091490950914A09EF
:104760000E948424882379F0DD24C801B7012091B8
:104770005709309158094091590950915A090E949E
:104780008424882311F4DD24D3948D2D1F910F915F
:10479000FF90EF90DF9008951F939B01AC0110E014
:1047A0000E948424811111E0812F1F9108951F938D
:1047B0009B01AC0110E00E948424811111E0812F43
:1047C0001F9108950E946C2360934F0970935009C4
:1047D00080935109909352090E9471236093430979
:1047E0007093440980934509909346090E94582389
:1047F00060934B0970934C0980934D0990934E0937
:104800000E945D236093470970934809809349098A
:1048100090934A090E94622360935309709354094C
:1048200080935509909356090E9467236093570916
:10483000709358098093590990935A0908955058D4
:10484000BB27AA270ED001C2F2D130F0F7D120F059
:1048500031F49F3F11F41EF4E7C10EF4E095E7FB3D
:10486000B2C1E92F03D280F3BA1762077307840736
:10487000950718F071F49EF532C20EF4E0950B2EF8
:10488000BA2FA02D0B01B90190010C01CA01A001A2
:104890001124FF27591B99F0593F50F4503E68F1FD
:1048A0001A16F040A22F232F342F4427585FF3CF3E
:1048B000469537952795A795F0405395C9F77EF40F
:1048C0001F16BA0B620B730B840BBAF09150A1F058
:1048D000FF0FBB1F661F771F881FC2F70EC0BA0FDE
:1048E000621F731F841F48F4879577956795B79566
:1048F000F7959E3F08F0B3CF9395880F08F099275E
:10490000EE0F9795879508953AD108F481E00895C0
:104910000CD09BC193D140F08AD130F021F45F3F9D
:1049200019F051C15111DCC17FC1A0D198F3992375
:10493000C9F35523B1F3951B550BBB27AA27621763
:104940007307840738F09F5F5F4F220F331F441FA8
:10495000AA1FA9F333D00E2E3AF0E0E830D09150E0
:104960005040E695001CCAF729D0FE2F27D0660FCD
:10497000771F881FBB1F261737074807AB07B0E80C
:1049800009F0BB0B802DBF01FF2793585F4F2AF022
:104990009E3F510568F017C1A3C15F3FECF3983EFD
:1049A000DCF3869577956795B795F7959F5FC9F77F
:1049B000880F911D9695879597F90895E1E0660F08
:1049C000771F881FBB1F621773078407BA0720F081
:1049D000621B730B840BBA0BEE1F88F7E0950895EA
:1049E00004D06894B1117CC1089548D188F09F57D4
:1049F00090F0B92F9927B751A0F0D1F0660F771F2B
:104A0000881F991F1AF0BA95C9F712C0B13081F00A
:104A100066D1B1E0089563C1672F782F8827B85F0A
:104A200039F0B93FCCF3869577956795B395D9F76B
:104A30003EF490958095709561957F4F8F4F9F4F75
:104A40000895E89409C097FB3EF490958095709581
:104A500061957F4F8F4F9F4F9923A9F0F92F96E9CA
:104A6000BB279395F695879577956795B795F1113F
:104A7000F8CFFAF4BB0F11F460FF1BC06F5F7F4FDC
:104A80008F4F9F4F16C0882311F096E911C07723EE
:104A900021F09EE8872F762F05C0662371F096E8F7
:104AA000862F70E060E02AF09A95660F771F881FC6
:104AB000DAF7880F9695879597F90895F9D080F0E1
:104AC0009F3740F491110EF00BC160E070E080E878
:104AD0009FEB089526F41B16611D711D811D79C081
:104AE00093C0A5D018F011F0A9D038F49DC0F8C03B
:104AF000E92FBCD0B0F35523C9F3E7FB6217730766
:104B000084079507A8F199F3E92FFF2788232AF056
:104B10003197660F771F881FDAF7952F55274423A3
:104B200032F091505040220F331F441FD2F7BB2761
:104B3000E91BF50B621B730B840BB109C1F222F464
:104B4000620F731F841FB11D31972AF0660F771F04
:104B5000881FBB1FEFCF915050405AF041F088237F
:104B600032F0660F771F881F91505040C1F7939520
:104B70004BC08695779567959F5FD9F7F8CF990FCA
:104B80000008550FAA0BE0E8FEEF16161706E80717
:104B9000F907C0F012161306E407F50798F0621B38
:104BA000730B840B950B39F40A2661F0232B242B0D
:104BB000252B21F408950A2609F4A140A6958FEF2C
:104BC000811D811D089597F99F6780E870E060E07E
:104BD0000895882371F4772321F09850872B762F3E
:104BE00007C0662311F499270DC09051862B70E001
:104BF00060E02AF09A95660F771F881FDAF7880F12
:104C00009695879597F908959F3F49F0915028F41C
:104C1000869577956795B7959F5F80389F4F880FEA
:104C20009695879597F908959FEF80EC0895002455
:104C30000A941616170618060906089500240A9401
:104C400012161306140605060895092E0394000C87
:104C500011F4882352F0BB0F40F4BF2B11F460FF16
:104C600004C06F5F7F4F8F4F9F4F089557FD90583F
:104C7000440F551F59F05F3F71F04795880F97FB20
:104C8000991F61F09F3F79F08795089512161306DA
:104C90001406551FF2CF4695F1DF08C01616170609
:104CA0001806991FF1CF869571056105089408953E
:104CB000E5DFA0F0BEE7B91788F4BB279F3860F4A2
:104CC0001616B11D672F782F8827985FF7CF869526
:104CD00077956795B11D93959639C8F30895E89433
:104CE000BB2766277727CB0197F9089548DF08F49B
:104CF0008FEF08950BD0A9CF9ADF28F09FDF18F02F
:104D0000952309F060CF90CF1124EACFAFDFA0F355
:104D1000959FD1F3950F50E0551F629FF001729F50
:104D2000BB27F00DB11D639FAA27F00DB11DAA1F6F
:104D3000649F6627B00DA11D661F829F2227B00DBC
:104D4000A11D621F739FB00DA11D621F839FA00D47
:104D5000611D221F749F3327A00D611D231F849F97
:104D6000600D211D822F762F6A2F11249F575040EE
:104D70008AF0E1F088234AF0EE0FFF1FBB1F661F89
:104D8000771F881F91505040A9F79E3F510570F042
:104D90001ACFA6CF5F3FECF3983EDCF3869577956C
:104DA0006795B795F795E7959F5FC1F7FE2B880F3D
:104DB000911D9695879597F90895629FD001739FED
:104DC000F001829FE00DF11D649FE00DF11D929FA7
:104DD000F00D839FF00D749FF00D659FF00D9927E6
:104DE000729FB00DE11DF91F639FB00DE11DF91F0A
:104DF000BD01CF0111240895A1E21A2EAA1BBB1BED
:104E0000FD010DC0AA1FBB1FEE1FFF1FA217B30796
:104E1000E407F50720F0A21BB30BE40BF50B661FAC
:104E2000771F881F991F1A9469F760957095809570
:104E300090959B01AC01BD01CF010895EE0FFF1FBE
:0C4E40000590F491E02D1994F894FFCF38
:104E4C0046697865645374657044697363726574FC
:104E5C0065002A2A2A7374617274696E67207468FB
:104E6C0065206D6F64656C2A2A2A00E80300000037
:104E7C0000000070420000803F00000000000000B5
:104E8C000000000000162C0E3BD7512D3E8BEF4A34
:104E9C003CAAAE6840596115B863731CBC9513806D
:104EAC003F92BA5F3EE80579385E9F8E3CDF599B96
:104EBC003B909B6C3F60620C3984F0203DAE9219A4
:104ECC00BA7A1530BE0000803F00000000000000E0
:104EDC000000000000666F8AC17432FDC1407DFF86
:104EEC00C1406DF9C054CACB3D046755C04E551333
:104EFC003EBC32BA417773ADBD03E7F440335592F3
:104F0C003ECAF2DFC13493633D0C20CFBDF5362A87
:104F1C0040B096E1BD1D8C6D3FB57EA93E6A436ADB
:104F2C003C312ED63AE9C4653FF732043DD5C3F87F
:104F3C00BB13C46DBE000000000000803F000000E9
:104F4C0000000000000000000000000000000080D5
:104F5C003F00000000000000000000000000000006
:104F6C00000000803F000000000000803F000000B7
:104F7C00000000000000000000F1A351C2085151D4
:104F8C00C265F6E0C3E5DAD13D7DA9983D75B4C59F
:104F9C00BDF1A351420851514265F6E04300008037
:104FAC003F0000000000000000000000000080B581
:104FBC00C37CF2B03C0000000000000000060000C2
:104FCC0000080000000000000000000080000080CD
:104FDC003F00000000000000000000000000000086
:104FEC000000000000000000800000803F00000076
:104FFC0000000000000000000000000000000000A5
:10500C0000000000800000803F0000000000000055
:10501C000000000000000000000000000000000084
:10502C00800000803F000000000000008000008035
:10503C003F00000000000000000000000000000025
:10504C0000000000800000803F0000000000000015
:10505C000000000000000000000000008000008044
:10506C003F000000000000000000002AC200008089
:10507C003F0000204100007F430000000000007F43
:10508C004335FA0EBC000048430AD7A33B0000008E
:10509C000000004843FDB30BB90000010001123EB3
:1050AC00130F0101000000001D04E405B303E40329
:1050BC00C4030D0400000000A20500000000290E2E
:0C50CC005E0E9E0EA70EBC0ECD0E42081C
:00000001FF
